:020000040800F2
:10000000B03B00209D010008BD0A0008B90A0008A5
:10001000BB0A00082D020008F10C000800000000D7
:1000200000000000000000000000000005010008C2
:100030002F0200080000000049010008BF0A000864
:10004000B7010008B7010008B7010008B7010008B0
:10005000B7010008B7010008B7010008B7010008A0
:10006000B7010008B7010008B7010008B701000890
:10007000B7010008B7010008B7010008B701000880
:10008000B7010008B7010008B7010008B701000870
:10009000B7010008B7010008B7010008B701000860
:1000A000B7010008B7010008B7010008B701000850
:1000B000B7010008B7010008B7010008B701000840
:1000C000B7010008B7010008B7010008B701000830
:1000D000B7010008AD0B0008190C0008850C0008DA
:1000E000B7010008B7010008B7010008DFF810D019
:1000F00000F08AF800480047C50D0008AFF3008003
:10010000B03B0020224B19680868B0E8F00F80F37C
:100110000988BFF36F8F4FF0000080F311884EF015
:100120000D0E70470000000006480068006880F36C
:10013000088862B661B6BFF34F8FBFF36F8F00DFE1
:1001400000BF00BF08ED00E0EFF30980BFF36F8F41
:100150000F4B1A6820E9F00F106008B54FF05000FF
:1001600080F31188BFF34F8FBFF36F8F01F050FC06
:100170004FF0000080F31188BDE808401968086856
:10018000B0E8F00F80F30988BFF36F8F704700BFAE
:1001900018000020EFF305807047000006488047F4
:1001A00006480047FEE7FEE7FEE7FEE7FEE7FEE75C
:1001B000FEE7FEE7FEE7FEE7330B0008ED00000870
:1001C00040EA01039B0703D009E008C9121F08C0D9
:1001D000042AFAD203E011F8013B00F8013B521E59
:1001E000F9D27047D2B201E000F8012B491EFBD2D0
:1001F00070470022F6E710B513460A460446194632
:10020000FFF7F0FF204610BD064C074D06E0E06802
:1002100040F0010394E8070098471034AC42F6D34D
:10022000FFF768FF3422000854220008FEE77047F9
:100230002DE9F84FDFF8B8910024A9F1040B23460B
:100240000F2709F1040AABF1040EC9E00125A5400E
:100250002A40AA427DD1674ED1F804C0ACEB060813
:10026000B44532D014DCBCF1030F3AD009DCBCF148
:10027000000F2AD0BCF1010F1CD0BCF1020F31D10C
:100280001DE0BCF1110F17D0BCF1120F2AD119E0FB
:10029000B8F5881F19D006DCB8F5803F15D0B8F541
:1002A000801F1FD111E0B8F5001F0ED0B8F5041F54
:1002B00018D10AE0CB6815E0CB681B1D12E0CB68B3
:1002C00008330FE0CB680C330CE08B682BB1012BAB
:1002D0004FF0080303D0456104E0042302E0056108
:1002E00000E00023FF2A01D8064601E000F10406E1
:1002F0004FEA840501D9A5F12005D6F8008007FA58
:1003000005FC28EA0C0803FA05F548EA0508C6F8D2
:1003100000804D68ED0062D5374DAE6946F00106AC
:10032000AE61AD6924F0030605F001050095334D7B
:1003300006EB050CDCF80850A607360F07FA06F89E
:1003400025EA0805DFF8B880404503D14FF00008E2
:1003500017E044E0DFF8AC80404502D14FF00108DF
:100360000FE0DFF8A480404502D14FF0020808E01A
:10037000DFF89880404502D14FF0030801E04FF0CC
:10038000040808FA06F848EA0508CCF808804D6821
:10039000D9F80060ED024D4601D5164300E09643C2
:1003A0002E604D68DAF80060AD02554601D516435F
:1003B00000E096432E604D68DBF80060AD035D46BB
:1003C00001D5164300E096432E604D68DEF80060CC
:1003D000ED03754601D5164300E096432E60641C7C
:1003E0000D682A46E5407FF431AFBDE8F88F000084
:1003F00008040140000011100010024000000140FC
:1004000000080140000C01400010014000140140B0
:10041000C26821EA02030A4043EA024101617047CF
:100420000AB1016170470904FBE7000001488068D8
:1004300070470000080000200248816802781144DB
:100440008160704708000020074810B5016841F03E
:1004500010010160032000F067F80F2000F006F89B
:1004600000F024F8002010BD0020024070B50D4DB2
:1004700004464FF47A712878B1FBF0F00A49096814
:10048000B1FBF0F000F0AEFA48B9102C07D2002210
:100490002146501E00F028F800206C6070BD01203D
:1004A00070BD000008000020140000200C4808B5B2
:1004B000816941F001018161816901F001010091CF
:1004C000C16941F08051C161C06900F08050009065
:1004D0000448416821F0E06141F00071416008BDCD
:1004E0000010024000000140F0B40E4B1B680C46A7
:1004F000C3F30223C3F10705042D00D90425191DF8
:10050000072901D2002300E0DB1E012606FA05F1CF
:10051000491E214099409E40761E16403143F0BC52
:1005200000F0E7BB0CED00E0064900F007020868A8
:100530004FF6FF03184040EA0220034A10430860C8
:10054000704700000CED00E00000FA052DE9F047CF
:100550000F46050061D0434E306800F00700B842F6
:1005600009D2306820F0070038433060306800F06E
:100570000700B84251D128683B4C810712D540078B
:1005800003D5606840F4E06060602878000703D518
:10059000606840F4605060606068A96820F0F00016
:1005A000084360602878C00728D06868012810D008
:1005B0002168022810D0890700292EDA616821F00D
:1005C000030101436160FFF731FF804641F2883942
:1005D0000DE021688903EFE78901EDE7FFF726FFCA
:1005E000A0EB0801494502D90320BDE8F087606807
:1005F000696800F00C00B0EB810FEFD1306800F0BB
:100600000700B8420BD9306820F00700384330604B
:10061000306800F00700B84201D00120E5E72878F3
:10062000400705D56068E96820F4E0600843606031
:100630002878000706D56068296920F4605040EAF0
:10064000C100606000F018F86168084AC1F3031146
:10065000515CC8400649086006480068FFF706FF7D
:100660000020C2E7002002400010024022220008C1
:10067000140000200C0000200E4A51680E4801F0C2
:100680000C03042B11D0082B0FD10C48C1F383436A
:10069000C903C05C0AD55168084AC1F34041921EA3
:1006A000515C054A5043B0FBF1F0704704494843A0
:1006B000704700000010024000127A001222000869
:1006C00000093D002DE9F84F040070D02078C04D9E
:1006D000C00749D06868C0F38100012807D0686866
:1006E000C0F38100022809D16868C00306D52868D4
:1006F000800339D560680028E7D035E06068B0F540
:10070000803F0BD010B1B0F5A02F11D0286820F495
:1007100080302860286820F4802002E0286840F4B7
:1007200080302860606890B1FFF780FE06460AE0DE
:10073000286840F480202860F0E700BFFFF776FECD
:10074000801B642873D828688003F7D50CE0FFF776
:100750006DFE064605E000BFFFF768FE801B6428BB
:10076000F0D828688003F7D420789A4E80074FF09D
:1007700001094FF0000839D5686810F00C0F07D058
:100780006868C0F38100022809D16868C00306D4F4
:100790002868800714D52069012808D110E0206955
:1007A000B0B1C6F80090FFF741FE074605E00AE148
:1007B000FFF73CFEC01B0228C4D828688007F7D585
:1007C0002868616920F0F80040EAC10028600DE067
:1007D000C6F80080FFF72AFE074604E0FFF726FE72
:1007E000C01B022823D828688007F7D42078000788
:1007F0002CD57948A169D9B1C0F80090FFF716FE51
:10080000074604E0FFF712FEC01B02280FD8686AF3
:100810008007F7D571484FF4FA510068B0FBF1F04A
:10082000009000BF0098411E0091FAD20EE080E0D7
:10083000C0F80080FFF7FAFD074604E0FFF7F6FD79
:10084000C01B022875D8686A8007F7D42078400753
:1008500060D5E8690027C00008D4E86940F08050FE
:10086000E861E869012700F0805000905C48016869
:10087000C90513D40168834641F480710160FFF714
:10088000D5FD824606E000BFFFF7D0FDA0EB0A00D1
:1008900064284ED8DBF80000C005F5D5E0680128D3
:1008A0000AD008B1052813D0286A20F00100286278
:1008B000286A20F0040002E0286A40F00100286263
:1008C000E06841F2883B98B1FFF7B0FD82460BE04B
:1008D000286A40F004002862EEE700BFFFF7A6FD9B
:1008E000A0EB0A0159455AD8286A8007F6D50CE0D2
:1008F000FFF79CFD824605E0FFF798FDA0EB0A019B
:1009000059454CD8286A8007F6D41FB1E86920F011
:100910008050E861E06988B36968C1F38101022908
:1009200044D00228C6F8608004D0FFF77FFD04465B
:1009300038E034E0FFF77AFD074604E0FFF776FD84
:10094000C01B02282BD828688001F7D4206AB0F594
:10095000803F05D16868A16820F4003008436860D2
:10096000D4E908010843696821F4741108436860F8
:10097000C6F86090FFF75AFD044606E025E000BF88
:10098000FFF754FD001B022809D828688001F7D51D
:100990001BE000BFFFF74AFD001B022802D903201D
:1009A000BDE8F88F28688001F4D40EE00128F7D064
:1009B0006868226A00F48031914204D1616A00F4CF
:1009C0007010884201D00120EAE70020E8E700002B
:1009D0000010024000004242800442421400002005
:1009E0000070004010B5401EB0F1807F01D301209F
:1009F00010BD4FF0E02460610F21601700F079F91D
:100A00000020A06107202061002010BD2DE9F843DF
:100A1000044690F84200994616460D46202802D01A
:100A20000220BDE8F883ADB1A6B1002060642221A8
:100A300084F842102063FFF7F9FCA6858046E6851E
:100A4000A0684FF48057B84201D1206920B12E46EA
:100A5000002526E00120E4E7002622E043460022AC
:100A600020212046CDF8009000F064F808B1032062
:100A7000D7E726B1A068B8421BD038B108E020689B
:100A80004068C0F3080025F8020B07E0206980B138
:100A90002068406800F07F0006F8010BE08D401EE2
:100AA000E085E08D0028D9D1202084F84200002084
:100AB000B7E720684068EFE7FEE7FEE7FEE710B51E
:100AC00001F0CEF9012801D001F024F8BDE8104072
:100AD000FFF7B2BC30B58FB028216846FFF789FB1D
:100AE00014210AA8FFF785FB01210804CDE90010B5
:100AF0000024029402250491CDE907504FF4E01040
:100B000009906846FFF7DEFD08B172B6FEE70F20D8
:100B1000CDE90A054FF48060CDE90C4002210AA816
:100B20000E94FFF713FD002801D072B6FEE70FB058
:100B300030BD70472DE9F041984617460E460446F1
:100B4000069D27E0681C25D02DB1FFF76FFCA0EBB8
:100B50000800A8421ED920680C3050E8001F21F47C
:100B6000D07140E80012002AF5D12068143050E816
:100B7000001F21F0010140E80012002AF5D12020D9
:100B800084F8410084F84200002084F840000320EB
:100B9000BDE8F0812068006836EA000004D000203B
:100BA000B842CFD00020F3E70120F9E77CB5194D1A
:100BB000286800684FF00006C043800605F1D8049D
:100BC00019D44FF47A73012269462846FFF71EFFB5
:100BD000B4F800119DF800006054B4F80001401C06
:100BE00080B2A4F80001FF2801D9A4F800612968A7
:100BF0006FF02000086028680168C943C90608D45E
:100C0000B4F800116654012184F8021101684068AB
:100C100001907CBD980000207CB5194D28680068C3
:100C20004FF00006C043800605F5CA7419D44FF48E
:100C30007A73012269462846FFF7E8FEB4F80011EE
:100C40009DF800006054B4F80001401C80B2A4F884
:100C50000001FF2801D9A4F8006129686FF0200085
:100C6000086028680168C943C90608D4B4F80011AF
:100C70006654012184F802110168406801907CBD2E
:100C8000E00000207CB5194D286800684FF0000690
:100C9000C043800605F5147419D44FF47A73012209
:100CA00069462846FFF7B2FEB4F800119DF800002F
:100CB0006054B4F80001401C80B2A4F80001FF2881
:100CC00001D9A4F8006129686FF020000860286845
:100CD0000168C943C90608D4B4F80011665401215B
:100CE00084F802110168406801907CBD2801002051
:100CF000FEE70907090E002804DB00F1E02080F878
:100D00000014704700F00F0000F1E02080F8141D7F
:100D1000704702E008C8121F08C1002AFAD17047C4
:100D20007047002001E001C1121F002AFBD170476B
:100D3000012240210148FFF773BB0000000C014075
:100D400040210148FFF764BB000C0140154810B575
:100D5000816986B041F008018161816901F0080173
:100D60000491816941F0040181618069422100F0B0
:100D7000040004900120CDE90010029003200A4CE9
:100D8000039069462046FFF753FA0022402120468F
:100D9000FFF746FB002202212046FFF741FB06B089
:100DA00010BD000000100240000C0140FFF7CEFF14
:100DB000FFF7BEFF4FF4FA74FFF7C2FF204600F0C2
:100DC0001BFDF9E71CB5FFF73FFBFFF783FE064964
:100DD0000120CDE900010023802204A1064801F092
:100DE00011F800F0D5FDFEE7000000207374617279
:100DF000745F7461736B0000A51500082DE9F04164
:100E00001E4C0F460546E6682068001D00F0ECFB0E
:100E100038B9206890F82C1001208840216981435E
:100E20002161681C15D1A7B11549226848689060F6
:100E300023688268DA6022688368121D5A6022681B
:100E4000121D8260206841610868401C0860BDE88E
:100E5000F08120683544B5424560216805D2E06BD9
:100E6000BDE8F041091D00F0E0BBA06B091D00F0DA
:100E7000DCFBA06A8542EAD2A562E8E71800002000
:100E8000740700202DE9F041054600F0F3FB364CD5
:100E9000A068401CA0602068344F10B1606940B366
:100EA0002DE02560A068012829D1002606EB8600E8
:100EB00007EB800000F0ABFB761C052EF6D32B4829
:100EC000643000F0A4FB2948783000F0A0FB2748EC
:100ED0008C3000F09CFB2548A03000F098FB2348A4
:100EE000B43000F094FB21486430A0631430E06318
:100EF00005E02068E96AC06A884200D82560606A17
:100F0000401C60622864E96A01202269884010431D
:100F1000206101EB810007EB80004068A8608168D8
:100F2000E9608268291D51608160E86A00EB8000F9
:100F300007EB8001696157F82010491C47F8201021
:100F400000F0B8FB606900280CD02068E96AC06A2C
:100F5000884207D206494FF080500860BFF34F8F98
:100F6000BFF36F8FBDE8F08118000020C00600209D
:100F700004ED00E010B500F07DFB0E4C2068A0B938
:100F80000D4800F044FB0C48143000F040FB0A48C8
:100F9000E0601430206100220C210A2000F0D0FD16
:100FA000206010B105A100F0DDFBBDE8104000F0AD
:100FB00081BB00005800002088070020546D72514A
:100FC0000000000030B4026C0B46002A0BD0C16850
:100FD0001144C1608468A14201D30168C16030BC82
:100FE0001846FFF7EDB830BC704710B50446006BEB
:100FF00000F074FB2046BDE8104000F06FBB00001D
:101000000E484FF44051420706D0C01D0B4920F056
:101010000700411AC1F54051094A00230144C2E9C1
:1010200000030839143A21F0070111604B600B608E
:101030000B1AC0E90013936053607047B00700209B
:101040008C000020144E154CA6F1A0074FF08058DC
:10105000DFF84C9012E000BF00F00CFBF068C568B0
:10106000281D00F0C1FAA068401EA0606068401E04
:10107000606000F01FFB2846FFF7B7FF606800289C
:10108000EAD138680128F9D9C9F80080BFF34F8F39
:10109000BFF36F8FF2E70000600700201800002008
:1010A00004ED00E02DE9F0470D46DDE9098417461F
:1010B000824691009946089EA522206BFFF792F880
:1010C0006FF00301206B01EB8701084420F0070754
:1010D000780707D0502080F31188BFF34F8FBFF3FC
:1010E0006F8FFEE765B100202218295C82F834106A
:1010F000295C11B1401C0A28F6D3002084F83D0079
:10110000052E07D3502080F31188BFF34F8FBFF314
:101110006F8FFEE7E662201DA66400F083FA04F1FB
:10112000180000F07FFA2461C6F105006462A06136
:101130004A465146384600F023FA2060B8F1000FC5
:1011400001D0C8F80040BDE8F087000030B5114973
:1011500000E011460A688242FBD34B685C18844267
:1011600003D1406818444860084643681C189442FC
:1011700009D1084C143C2468A24209D052681A4490
:1011800042600A6812680260814200D0086030BD87
:101190000460F9E78C00002070B5002441600B4D1D
:1011A0000061914206D8D11A8269914206D2011D8E
:1011B000286907E09A4203D2994201D3012403E04F
:1011C000011DE86800F031FA204670BD580000208B
:1011D00010B5044600F04EFAA06B28B15FF0000491
:1011E00000F068FA204610BD0124F9E770B5064604
:1011F0000D480D46C068C068C468201D00F0F4F9B1
:1012000094F82800410705D52A463146204600F0CB
:10121000B5F803E000F0FE0084F828002046216ABB
:10122000BDE8704008470000580000207FB5374EE9
:1012300063E00098002860DB029C606910B1201D0B
:1012400000F0D2F903A800F0BBF8054600980A2880
:1012500053D2DFE800F0520505282E460505282E5A
:1012600094F828002A4640F0010084F828000199EB
:10127000A069019B01442046FFF78EFF40B394F81C
:101280002800410707D50198A1692A460144204654
:1012900000F074F803E000F0FE0084F82800216AF2
:1012A0002046884729E014F8280F00F0FE0020703F
:1012B00023E094F8280040F0010084F82800019809
:1012C000A06130B141192B461A462046FFF764FF52
:1012D00013E0502080F31188BFF34F8FBFF36F8F5F
:1012E000FEE794F82800810703D4204600F0F6F9C1
:1012F00003E000F0FE0084F8280000226946306810
:1013000000F0A6FC002894D17FBD0000580000200A
:10131000F8B50D46064600F073FB684600F050F83D
:101320000446009810B100F0B9FEF8BD1148ADB107
:1013300001690968D9B10025311B2A46006800F00F
:1013400039FA00F0ABFE0028EFD10B494FF0805086
:101350000860BFF34F8FBFF36F8FF8BDA642EBD885
:1013600000F09CFE21463046FFF740FFF8BD012506
:10137000E2E700005800002004ED00E070B51646DA
:101380000C46054604E0A869296A044428468847B3
:10139000A8692346011932462846FFF7FDFE0028BA
:1013A000F1D170BD0548816B096821B1816BC968B5
:1013B0000968816270474FF0FF31FAE7180000209A
:1013C0002DE9F041064600F059FD0E4C0546A06897
:1013D000854214D24FF0FF3704E0C06839460068F8
:1013E000FFF704FFE06801680029F6D12169C4E92C
:1013F0000310012030602846A560BDE8F081002080
:10140000F8E700005800002008484068401C4FF0F2
:10141000500080F3118804D0BFF34F8FBFF36F8F5C
:10142000FEE7BFF34F8FBFF36F8FFEE76C00002026
:10143000074CE068016841B1C0680021D0F80000A5
:10144000FFF766FFFFF7F2FEF3E701210020F7E761
:10145000580000202DE9F041044600F00BF994F902
:10146000455004F1240609E0606A48B1304600F0B6
:10147000A7FD08B100F046FA6D1E6DB2002DF3DC39
:101480004FF0FF3684F8456000F014F900F0F2F8F0
:1014900094F9445004F1100709E0206948B1384636
:1014A00000F08EFD08B100F02DFA6D1E6DB2002D1A
:1014B000F3DC84F84460BDE8F04100F0FBB80000C4
:1014C00070B50446002600F09BFA2C4D286808B938
:1014D000FFF796FD7CB304F00700C0F11000C14394
:1014E0008C423DD8211800293ADD6868814237D8FE
:1014F000224814300246146801E02046144662680F
:101500008A4202D22268002AF7D12A68944227D060
:1015100006682268026060680836421A102A0FD9ED
:101520006018430708D0502080F31188BFF34F8F15
:10153000BFF36F8FFEE713E042606160FFF706FEC6
:1015400061686868401A6860AA68904200D2A86022
:1015500041F00040606000202060E868401CE860C6
:1015600000F09CFD700707D0502080F31188BFF376
:101570004F8FBFF36F8FFEE7304670BD78000020BD
:1015800010B5031F4FF080741C601B1F21F0010178
:101590001960191F024B0B60143940380A6010BDE6
:1015A000091400081CB500F065F80A490320CDE9CC
:1015B000000100234FF4807207A10A4800F022FCCA
:1015C0000448001F006800F03DF9BDE81C4000F031
:1015D00071B80000040000206C65645F7461736B77
:1015E00000000000AD0D0008D0E9013201699A60E9
:1015F000D0E901235A604A68824201D182684A6078
:10160000002202610868401E08600868704700F107
:1016100008014FF0FF32C0E90112C16001610021F1
:101620000160704700210161704730B50B685A1C9A
:1016300002D000F1080202E0026904E02246546888
:1016400025689D42FAD953684B6099608A60516061
:1016500008610168491C016030BD42684A609368B6
:101660008B6093685960916008610168491C016052
:1016700070470000502080F31188BFF34F8FBFF3F5
:101680006F8F0A494868401C486001280CD10848FF
:10169000006810F0FF0F07D0502080F31188BFF3CF
:1016A0004F8FBFF36F8FFEE7704700006C00002084
:1016B00004ED00E00849486828B1401E486001D1A7
:1016C00080F311887047502080F31188BFF34F8F4B
:1016D000BFF36F8FFEE700006C00002070B500289C
:1016E0002AD0A0F108046068002807DB502080F3AE
:1016F0001188BFF34F8FBFF36F8FFEE7216839B1B9
:10170000502080F31188BFF34F8FBFF36F8FFEE738
:1017100020F00040606000F073F9084D606869686F
:10172000084468602046FFF711FD2869401C2861C5
:10173000BDE8704000F0B2BC70BD00007800002031
:101740004FF0E02000210161816105494FF47A7278
:101750000968B1FBF2F1491E41610721016170473F
:101760001400002070B5002260B100291ED0104C7A
:10177000002300BF04EBC3056E6886420AD104EB68
:10178000C3020FE0502080F31188BFF34F8FBFF3E7
:101790006F8FFEE71AB954F8336006B92A465B1C0E
:1017A000082BE7D3002A01D0C2E9001070BD000069
:1017B0008006002070B515460E460446FFF75AFF16
:1017C00094F944100020491C01D184F8440094F994
:1017D0004510491C01D184F84500FFF76BFFA06B51
:1017E00028B92A46314604F1240000F0A9F8204621
:1017F000BDE87040FFF72EBE10B5020014D00F48B0
:10180000406B38B1502080F31188BFF34F8FBFF386
:101810006F8FFEE700F0F4F800211046FFF7EEFAB4
:1018200000F03CFC002807D105494FF080500860CB
:10183000BFF34F8FBFF36F8F10BD00001800002063
:1018400004ED00E070B50546FFF714FF264C05B91E
:101850002568281DFFF7C8FE58B9E86A234A00EB3F
:10186000800152F8211021B901218140206988436B
:101870002061A86A18B105F11800FFF7B5FE606A8B
:10188000401C60622068854208D11848291DA0309C
:10189000FFF7E3FE6068401C606004E0A068401E43
:1018A000A060FFF77FFDFFF705FF2068854202D0AB
:1018B0002846FFF79AFB6069002814D0206885420B
:1018C00011D1606B38B1502080F31188BFF34F8F76
:1018D000BFF36F8FFEE706494FF080500860BFF3FB
:1018E0004F8FBFF36F8F70BD18000020C00600201F
:1018F00004ED00E002490A6A0260C968416070476D
:101900001800002001490120C8617047180000201C
:1019100010B50C4650B1094909681831FFF785FE2A
:101920002046BDE810400121FFF768BA502080F33F
:101930001188BFF34F8FBFF36F8FFEE718000020B1
:10194000F0B40C46D0B1114943680D68EB619D6855
:101950000E6835620D689E68183575600D6818351B
:101960009D60096888620168491C01600AB14FF0F6
:10197000FF342046F0BC1146FFF740BA502080F3F8
:101980001188BFF34F8FBFF36F8FFEE71800002061
:101990007CB517480025CDE900502B46802215A1C3
:1019A000164800F02FFA124C2C3C012803D100F00D
:1019B0000BFC012802D0401C11D00EE0502080F317
:1019C0001188BFF34F8FBFF36F8F4FF0FF30A062CE
:1019D00001206061E56000F049F8206B7CBD50207B
:1019E00080F31188BFF34F8FBFF36F8FFEE70000C6
:1019F0004400002049444C45000000004510000808
:101A00000248416B491C41637047000018000020E8
:101A10001448416B11B10121C16170470021C161BE
:101A20000169B1FA81F1C1F11F0101EB81020E4997
:101A300051F822306BB101EB820101F108034A68D1
:101A400052684A609A4201D152684A60D168016086
:101A50007047502080F31188BFF34F8FBFF36F8F13
:101A6000FEE7000018000020C00600201CB5264933
:101A700008780190FF20087008788DF800009DF824
:101A800000009DF8002000F0F000904207D05020A8
:101A900080F31188BFF34F8FBFF36F8FFEE79DF880
:101AA00000001A4C00F0500020700720A06005E0F4
:101AB0009DF8002052008DF80020401E9DF8002067
:101AC0001206F5D4A060032807D0502080F31188B7
:101AD000BFF34F8FBFF36F8FFEE74FF44070A060EE
:101AE000019808700A48016841F4700101600168BA
:101AF00041F070410160FFF723FE00206060FEF7B7
:101B000013FB00201CBD000000E400E06C0000207E
:101B100020ED00E010B5502080F31188BFF34F8F07
:101B2000BFF36F8F00F0B0F918B104494FF0805047
:101B30000860002080F3118810BD000004ED00E073
:101B40002DE9F04117460E46050020D04FF0FF303A
:101B5000B0FBF5F0B0421AD305FB06F010F1510FBF
:101B600015D85030FFF7ACFC04000CD004F1500045
:101B70005EB12060C4E90F562046012100F010F844
:101B8000204684F84C70BDE8F0812460F2E75020D4
:101B900080F31188BFF34F8FBFF36F8FFEE7000014
:101BA0002DE9F0410F4604004FF001062DD0E06B07
:101BB00098B3B51EB5FBF0F1206C81423ED3FFF720
:101BC00059FDD4E90F20216802FB0011A16000211A
:101BD000A163216861600A46D4E90F01401E00FB41
:101BE00001212046E16000F8445F457004F11000D7
:101BF000A7B1FFF70CFD04F12400FFF708FD00BFBB
:101C0000FFF758FD3046BDE8F081502080F3118881
:101C1000BFF34F8FBFF36F8FFEE70FE021690029FD
:101C2000EED000F0CDF90028EAD008494FF08050FE
:101C30000860BFF34F8FBFF36F8FE1E7502080F351
:101C40001188BFF34F8FBFF36F8FFEE704ED00E005
:101C50002DE9F747002683B08A46040003D0BAF185
:101C6000000F08D011E0502080F31188BFF34F8F90
:101C7000BFF36F8FFEE7206C38B1502080F31188DE
:101C8000BFF34F8FBFF36F8FFEE700F0E9F8DFF887
:101C9000F4804FF000094FF0805748B9059838B1EB
:101CA000502080F31188BFF34F8FBFF36F8FFEE793
:101CB000FFF7E0FCA56BC5B151462046FFF782F95E
:101CC0006D1EA563206950B104F1100000F078F991
:101CD00028B1C8F80070BFF34F8FBFF36F8FFFF7C5
:101CE000E9FC012006B0BDE8F087059808B11EB1F7
:101CF00006E0FFF7DFFC27E06846FFF7FBFD012663
:101D0000FFF7D8FCFFF77CFEFFF7B4FC94F9440022
:101D1000401C01D184F8449094F94500401C01D145
:101D200084F84590FFF7C6FC05A9684600F02CF83A
:101D3000002820460AD0FFF78DFB00F0AFF92046BF
:101D4000FFF746FA0028B3D00020CBE7FFF740FAB0
:101D500090B104F124000599FFF7DAFD2046FFF762
:101D600079FB00F09BF90028A2D1C8F80070BFF3FE
:101D70004F8FBFF36F8F9BE72046FFF76BFB00F0A1
:101D80008DF995E704ED00E02DE9F0410C460500E2
:101D900014D0DCB1FFF76EFC194EF2686B68206856
:101DA000D11A471C1AD02F68D6F820C000266745E4
:101DB00016D0934214D8012526601BE0502080F3F2
:101DC0001188BFF34F8FBFF36F8FFEE7502080F372
:101DD0001188BFF34F8FBFF36F8FFEE7002509E037
:101DE000884205D9401A20602846FFF783FDF5E7B1
:101DF00001252660FFF75EFC2846BDE8F081000063
:101E0000180000202DE9FF5F8346DDE90E87994623
:101E100016468A469000FFF753FB05001DD0582058
:101E2000FFF74EFB040015D05821FEF7E2F92563B9
:101E30000021CDE90241CDE900874B4632465146AB
:101E40005846FFF72FF92046FFF71CF8012004B091
:101E5000BDE8F09F2846FFF741FC4FF0FF30F6E762
:101E60000548416919B1406B18B100207047012045
:101E70007047022070470000180000200148C06829
:101E800070470000180000202DE9F0414A4C002660
:101E9000606B28B1A069401CA0613046BDE8F081AC
:101EA000E5686D1CE56013D1A06B006838B1502067
:101EB00080F31188BFF34F8FBFF36F8FFEE7A06BE6
:101EC000E16BA163E063206A401C2062FFF76AFABD
:101ED000A16A3A488D420FD34FF0000EA16B0968FA
:101EE00039B1A16BC968C9684A68954212D2A26229
:101EF00002E04FF0FF31A1622168C96A01EB810164
:101F000050F82100012800D90126E0690028C4D03A
:101F10000126C2E7D1E902724B69BA60D1E9022712
:101F20007A605F680A1D974201D1CF685F60C1F88F
:101F300014E01F687F1E1F60D1F828C0BCF1000F9D
:101F400015D0D1E907379F60D1E907377B60DCF80E
:101F5000047001F118039F4202D10B6ACCF80430DF
:101F6000C1F828E0DCF800305B1ECCF80030CB6A0A
:101F70000127D4F810C09F4047EA0C07276103EB04
:101F8000830300EB83035B688B609F68CF609F686F
:101F90007A609A60CA6A02EB820200EB82034B61AC
:101FA00050F822305B1C40F82230C96A2268D26A9D
:101FB000914293D9012691E718000020C006002025
:101FC00070B5C068C06850B3D0E90732816A9A60C2
:101FD000D0E907235A604A6800F118039A4201D1F8
:101FE000026A4A60002585620A68521E0A60294911
:101FF0004A6B0124DAB1284D6A68C26196680662AC
:1020000096687360936085622A68521C2A60C06A71
:102010000A68D26A90423AD90120CC6170BD502042
:1020200080F31188BFF34F8FBFF36F8FFEE7D0E9C6
:1020300002634269B360D0E9023673605668031DDB
:102040009E4201D1C6685660456115686D1E1560D7
:10205000C26A0E6904FA02F535430D610E4D02EBBA
:1020600082028C3D05EB8202526882609668C660EF
:10207000966873609360C26A02EB820205EB82038A
:10208000436155F822305B1C45F82230BFE7002041
:1020900070BD0000180000204C0700202DE9F04121
:1020A000464D00242746686B38B1FFF7E3FA686BAA
:1020B000401E6863686B40B17AE0502080F311885D
:1020C000BFF34F8FBFF36F8FFEE7A8683C4B00262E
:1020D0004FF00108F0BB6BE0D868C468D4E9072171
:1020E000A06A9160D4E907125160426804F11801B6
:1020F0008A4201D1216A4160A6620168491E0160DD
:10210000D4E9022160699160D4E902125160426809
:10211000211D8A4201D1E268426066610268521E56
:102120000260E26AD5F810C008FA02F040EA0C003A
:10213000286102EB8200224A8C3A02EB8000406860
:10214000A060D0F808C0C4F80CC0D0F808C0CCF823
:10215000041000E012E08160E06A00EB800002EB16
:102160008001616152F82010491C42F82010E06A99
:102170002968C96A884201D3C5F81C8018680028FC
:10218000AAD10CB1FFF70EF9AC693CB1FFF77CFEA8
:1021900008B1C5F81C80641EF8D1AE61E86938B199
:1021A0000849012738070860BFF34F8FBFF36F8FCF
:1021B000FFF780FA3846BDE8F081000018000020E3
:1021C0004C07002004ED00E01CB5FEF7D3FE0C48E0
:1021D000006860B10A490220091DCDE90001C20171
:1021E000002308A10948FFF70DFE002807D1502061
:1021F00080F31188BFF34F8FBFF36F8FFEE71CBDD5
:1022000058000020546D722053766300311400088A
:10221000010202030405060708090A0B0C0D0E0F44
:102220001010000000000000000001020304060777
:10223000080900005422000800000020940000005B
:10224000120D0008E8220008940000201C3B00004A
:10225000220D000800000000000000000100000046
:1022600010000000000000000024F4000000000046
:10227000000000000000000000000000000000005E
:10228000000000000000000000000000000000004E
:10229000000000000000000000000000040000003A
:1022A000000000000000000000000000000000002E
:1022B000000000000000000000000000000000001E
:1022C00000000000AAAAAAAA000000000000000066
:1022D00000000000000000000000000000000000FE
:0822E0000000000000000000F6
:04000005080000ED02
:00000001FF
