:020000040800F2
:10000000B8920120C5010008BB1700084917000875
:10001000B9170008B9020008351A000800000000EE
:10002000000000000000000000000000DF170008D2
:10003000BB02000800000000DD170008E1170008FF
:10004000DF010008DF010008DF010008DF01000810
:10005000DF010008DF010008DF010008DF01000800
:10006000DF010008DF010008DF010008DF010008F0
:10007000DF010008DF010008DF010008DF010008E0
:10008000DF010008DF010008DF010008DF010008D0
:10009000DF010008DF010008DF010008DF010008C0
:1000A000DF010008DF010008DF010008DF010008B0
:1000B000DF010008DF010008DF010008DF010008A0
:1000C000DF010008DF010008DF010008DF01000890
:1000D000DF010008DF010008DF010008DF01000880
:1000E000DF010008DF010008DF010008DF01000870
:1000F000DF010008DF010008DF010008DF01000860
:10010000DF010008DF010008DF010008DF0100084F
:10011000DF010008DF010008DF010008DF0100083F
:10012000DF010008DF010008DF010008DF0100082F
:10013000DF010008ED020008DF010008DF01000810
:10014000DF010008DF010008DF010008DF0100080F
:10015000DF010008DF010008DF010008DF010008FF
:10016000DF010008DF010008DF010008DF010008EF
:10017000DF010008DF010008DF01000800000000C7
:10018000DF010008DF010008DF010008DF010008CF
:10019000DF010008DF010008DF010008DF010008BF
:1001A000DF010008DF010008DF010008DFF810D0E0
:1001B00000F070F800480047C93B0008AFF300802A
:1001C000B89201200648804706480047FEE7FEE750
:1001D000FEE7FEE7FEE7FEE7FEE7FEE7FEE7FEE7F7
:1001E00069180008AD01000810B5431A934209D2FE
:1001F0008318881803E010F8011D03F8011D521E32
:10020000F9D210BD40EA01039B0703D009E008C9F9
:10021000121F08C0042AFAD203E011F8013B00F8CB
:10022000013B521EF9D210BDD2B201E000F8012B01
:10023000491EFBD270470022F6E710B513460A4666
:1002400004461946FFF7F0FF204610BD30B50446BE
:100250000020034600E05B1C934203D2E05CCD5CCF
:10026000401BF8D030BD30B50B460146002020229F
:10027000012409E021FA02F59D4205D303FA02F5B3
:10028000491B04FA02F52844151EA2F10102F1DC13
:1002900030BD0000064C074D06E0E06840F0010369
:1002A00094E8070098471034AC42F6D3FFF782FF7A
:1002B0002C8800084C880008FEE7704738B50446D3
:1002C000006800F58050816941F4801181612068E7
:1002D00000F5805080690090012000F0A3F82068AC
:1002E000009900F58050816138BD0000014800F0A0
:1002F00065B900002C0100202DE9F041044621B130
:100300004FF40060E060C000A060E06900250028B4
:1003100061D02A462368402619683C480140D4E948
:1003200002073843104340F4007008431860206807
:100330000768012000F076F82068076020684660B2
:1003400020684668012000F06DF82068466020684B
:1003500085602068C560216888694FF64172104049
:1003600040F08000886120688669012000F05AF81A
:10037000206886612068C5612068C569012000F099
:1003800051F82068C561216801F580518869204ACB
:100390001040204A02438A61206800F58050856938
:1003A000012000F03FF8206800F58050856120684A
:1003B000194900F580500160206800F580500568FB
:1003C000012000F02FF8206800F580500560A0693A
:1003D000012803D009E04FF480629BE7206800F514
:1003E0008050C1690D4A1143C16160690C4A81881E
:1003F00011640178C37841EA0361837840781B0473
:1004000043EA002001435164BDE8F0810F8120FFE1
:10041000233FDEF8040020028020C10240000100DA
:100420000080024031B500F053FD044600F050FD5D
:100430000099001B8842F9D338BD2DE9F04390F8AC
:1004400045400025012C0DD04FF0010C80F845C02F
:10045000022480F8444044F2F4574FF000495E1EF5
:10046000816217E00220BDE8F08301EB4514C4F877
:100470000090C5EBC51808EB480802EB8808C4E9F2
:100480000178B54204D204F12008C4F80C8000E0E1
:10049000E1606D1C9D42E8D3026802F58052D16094
:1004A00080F844C0002180F845100846DBE72DE9BC
:1004B000F043914690F845200024012A0AD00126F5
:1004C00080F84560022280F844204FF4801C5D1EB5
:1004D000C1621BE00220BDE8F08301EB4412C2F8C8
:1004E00000C0C4EBC41707EB470809EB8807976007
:1004F000C7691FB9176847F440071760AC4203D2B9
:1005000002F12007D76000E0D160641C9C42E4D374
:10051000026802F58052116180F84460002180F881
:1005200045100846D7E710B50446022084F8440079
:10053000204600F065F9002004F8440F607010BDFB
:10054000704710B590F84510012913D0012280F8AA
:100550004520022180F84410816A0C680023002C99
:1005600027DB0C68E40518D5846B641C8463012CBC
:1005700002D002E0022010BD016341630C68C4F3A5
:100580000D44241FC463046BA4680464C96840F864
:10059000281F02774377002010BD0C68A40503D5FF
:1005A0008263C0E90C1302E0846B641C8463C96835
:1005B000816200F8442F4370012010BD70B50446DD
:1005C000006800F5805041694FF0000549064FF082
:1005D000010608D5204600F0C9F92068402100F541
:1005E0008050416109E04069C0070AD0204600F010
:1005F00089FA206800F58050466184F8446084F8E8
:10060000455020684FF4803100F5805041612068EA
:1006100000F58050406900040CD52046FFF790FF9C
:1006200020684FF4004100F58050416184F8446037
:1006300084F8455070BD00002DE9FC474FF00006DE
:100640000400B146009603D094F8440018B107E0C6
:100650000120BDE8FC8784F84560204600F0D2F810
:100660005D48016841F480410160006800F4804009
:1006700001905A48016821F4000101600168226A72
:1006800011430160206800F58050016841F00101CC
:100690000160216801F580500268D207FCD1086929
:1006A00020F01C0500F0F0FD4D494E4A01449142F6
:1006B00002D245F0080516E04B494C4A01449142EC
:1006C00002D245F00C050EE049494A4A01449142E4
:1006D00009D3494908444949884202D245F00405F2
:1006E00001E045F01005206805614FF4004200214B
:1006F000204600F009FA0125A8BBFF20FFF792FE73
:10070000606888B300F0E4FB07464FF4FA686A4675
:100710000121204600F0E8F800F0DAFBC01B40455C
:1007200018D800984007F2D54FF480520021204697
:1007300000F0EAF9B8B900F0CBFB07464FF47A783D
:100740006A460121204600F0CFF800F0C1FBC01B33
:1007500040450AD901212046FFF7CEFD04F8445F49
:100760000320667075E724E018E000988006E7D55E
:100770006A461021204600F0B7F8D0B9009841072A
:1007800003D54FF40061E16000E0E660800701D529
:10079000A66019E04FF48040A06015E0E068A16811
:1007A000C00840EA510082B20021204600F0ACF9B6
:1007B00030B101212046FFF79FFD84F8445047E700
:1007C00040F6FF70FFF72EFE49462046FFF794FDE6
:1007D00084F8445000203CE744380240043801408B
:1007E00000D3CEFEC0E1E40040F1E9FD40787D0198
:1007F00000796CFC005A6202001F0AFA80F0FA02CB
:1008000070470000334800B5016887B041F00071BF
:100810000160016801F000710591016841F080619B
:100820000160016801F080610591016841F000619B
:100830000160016801F000610591016841F001016A
:100840000160016801F001010591016841F00201B8
:100850000160016801F002010591016841F00401A5
:100860000160016801F004010591016841F0400157
:1008700001600068694600F0400005908620009005
:100880000220019000200290032003900B2004908E
:10089000114800F02DFA4FF40060009069460F48AF
:1008A00000F026FA3220009069460D4800F020FA48
:1008B0004FF4C040009069460A4800F019FA00223F
:1008C00001213D2000F062FB3D2000F053FB07B00A
:1008D00000BD000030380240000002400004024029
:1008E00000080240001802402DE9F047044690F845
:1008F0004400914682281DD0822084F8440022685A
:1009000010694FF6FF7500F01C03208A05EAC0202D
:1009100018434FF4F86303EA8111014321F0020008
:1009200040F00105156100F0D3FA064601274FF4A7
:10093000803810E00220BDE8F08700BF00F0C8FA60
:10094000801B404505D304F8447F002060700320DD
:10095000F1E720680569E807F0D12068406981B2B5
:10096000C9F8001084F844700020E4E70149012030
:100970000860704700000020F8B5044690F8450074
:10098000012839D0012584F84550022084F844001C
:1009900020680026016841F00801016020680068B5
:1009A00000902846FFF73EFD216800980860206807
:1009B000016841F004010160206800680090012096
:1009C000FFF730FD2168009808602046FFF776FCAD
:1009D000206800F58050816941F4005181612068F0
:1009E00000F58050816941F00201816184F8445032
:1009F00084F845600020F8BD0220F8BDF0B590F8FD
:100A000045200023012A11D0012780F845700222D9
:100A100080F84420002459B1C66A3268002A0ADAF4
:100A2000122100F8441F44700120F0BD0220F0BDE7
:100A300000F8447FF7E740F2F455A9420BD9B1FB27
:100A4000F5FCB1FBF5F205FB1C1CBCF1000F00D05E
:100A5000521C012A43D1326842F040523260C26ACD
:100A6000C1F30C015160C16A0A6842F000420A6099
:100A7000C16AC968C16234E0D6F800C02CF0405C9D
:100A8000C6F800C033B9C66AD6F800C04CF0805C26
:100A9000C6F800C0C66A7560561EB34214D1C66A55
:100AA000D6F800C04CF0005CC6F800C0C2F10106E8
:100AB000C6EBC61606EB4606D0F82CC001EB860640
:100AC000C6F30C06CCF80460C66AD6F800C04CF039
:100AD000004CC6F800C0C66A5B1CF668C66293424A
:100AE000CAD3016801F580514A69520705D504222D
:100AF0004A61016801F580514C6000F8447F447000
:100B00000020F0BD704700002DE9F041044690F848
:100B1000440042281ED0422084F84400236818690B
:100B20004FF6FF7600F01C05208A06EAC020284315
:100B30004FF4F86505EA8111014390B241F00305D5
:100B400058612068056100F0C3F9064601274FF49B
:100B5000803810E00220BDE8F08100BF00F0B8F955
:100B6000801B404505D304F8447F002060700320BB
:100B7000F1E720680569E807F0D184F84470EAE7F6
:100B80002DE9F04FDFF838B100224FF001094FF0A6
:100B90000F0A00BF09FA02F401EA0403A3427DD15F
:100BA000066857000325BD40AE430660D60800EB3B
:100BB0008606D6F820C057074FEAD7680AFA08F722
:100BC0002CEA070CC6F820C08668AE4386604668EB
:100BD000A6434660C468AC43C46022F003055D448C
:100BE000D5F808789407260F0AFA06F4DFF8D4C07F
:100BF0002740604502D14FF0000C40E0DFF8C8C04C
:100C0000604502D14FF0010C39E0DFF8C0C060450B
:100C100002D14FF0020C32E0DFF8B4C0604502D1DF
:100C20004FF0030C2BE0DFF8ACC0604502D14FF071
:100C3000040C24E0DFF8A0C0604502D14FF0050CA1
:100C40001DE0DFF898C0604502D14FF0060C16E0B9
:100C5000DFF88CC0604502D14FF0070C0FE0DFF8E1
:100C600084C0604502D14FF0080C08E0DFF878C07E
:100C7000604502D14FF0090C01E04FF00A0C0CFA6C
:100C800006FCBC4516D1D5F80868A643C5F8086827
:100C9000164C25689D432560241D00E00AE0256868
:100CA0009D432560241D25689D432560241D2568DE
:100CB0009D432560521C102AFFF46CAFBDE8F08FF5
:100CC00000300140000002400004024000080240E1
:100CD000000C0240001002400014024000180240C4
:100CE000001C02400020024000240240003C014061
:100CF0002DE9F84FDFF890B100224FF001084FF0D6
:100D0000030A4FF00F090BF1040E00BF0B6808FA3D
:100D100002F42340A3426ED14D68022D01D0122D62
:100D20000ED1D50800EB850CDCF820505607F70EE5
:100D300009FA07F6B5430E69BE402E43CCF8206091
:100D4000066855000F790AFA05FC07F0030726EA42
:100D50000C06AF40374307604E68012E05D0022EC7
:100D600003D0112E01D0122E0ED18768CE6827EA4B
:100D70000C07AE403E4386604668A6430C79C4F338
:100D80000014944034434460C4688E6824EA0C0420
:100D9000AE402643C6604C68E4006FD53B4C2568E6
:100DA00045F480452560246822F0030504F480445E
:100DB0000094374C2E19D6F8084895072F0F09FADA
:100DC00007F5AC43334DA84201D100252EE0324D4A
:100DD000A84201D1012529E0304DA84201D10225C8
:100DE00024E02F4DA84201D103251FE02D4DA8423C
:100DF00002D104251AE041E02B4DA84201D105257E
:100E000014E02A4DA84201D106250FE0284DA84242
:100E100001D107250AE0274DA84201D1082505E0A8
:100E2000254DA84201D1092500E00A25BD402543F2
:100E3000C6F80858DBF800405D464E689C43F60350
:100E400000D51C432C60DEF8004075464E689C437C
:100E5000B60300D51C432C600B4D08352C684E683A
:100E60009C43F60200D51C432C60074D0C352C68C2
:100E70004E689C43B60200D51C432C60521C102ABD
:100E8000FFF444AFBDE8F88F003C01404438024015
:100E9000003001400000024000040240000802400F
:100EA000000C0240001002400014024000180240F2
:100EB000001C02400020024000240240006908405B
:100EC00000D0012070470AB1816170470904FBE737
:100ED00001480068704700001000002002480168C7
:100EE000491C016070470000100000200B4810B53D
:100EF000016841F400710160016841F480610160A2
:100F0000016841F480710160032000F05FF8002067
:100F100000F006F800F016F8002010BD003C02407A
:100F200010B5044600F0B0F94FF47A71B0FBF1F05F
:100F300000F0C6FB00222146501E00F027F80020DA
:100F400010BD00000A4808B5016841F48041016005
:100F5000006800F4804000900548001F016841F0DF
:100F600080510160006800F08050009008BD0000D2
:100F70004438024000F01F020121914040098000E6
:100F800000F1E020C0F8001170470000F0B40E4BF3
:100F90001B680C46C3F30223C3F10705042D00D9D7
:100FA0000425191D072901D2002300E0DB1E0126BC
:100FB00006FA05F1491E214099409E40761E1640D2
:100FC0003143F0BC00F0FABB0CED00E0064900F044
:100FD000070208684FF6FF03184040EA0220034A60
:100FE00010430860704700000CED00E00000FA05B7
:100FF0002DE9F8431E48016841F080510160006806
:10100000012600F080500090300490FAA0F0194FB3
:10101000B0FA80F047F82060FFF75AFF05464FF41A
:101020007A78154C05E000BFFFF752FF401B4045A2
:1010300015D86068C003F7D54FF4003090FAA0F0DF
:10104000B0FA80F047F82060FFF742FF05464646B9
:1010500008E000BFFFF73CFF401BB04202D903206D
:10106000BDE8F88360688003F4D50020F8E700004D
:101070004038024000000E42007000402DE9F05F51
:10108000DFF8FCA104460F46DAF80000DFF8F4812F
:1010900000F00F017B4807F0FF0941F2883508F1A5
:1010A0000808B94262D28AF80090DAF8001001F01C
:1010B0000F01B9427ED12178890707D5D8F80020E1
:1010C000A36822F0F0021A43C8F800202178C9076B
:1010D0002ED0616801291AD002291BD0032919D00A
:1010E00000688007002865DAD8F80000464620F03E
:1010F00003000843C8F80000FFF7EAFE07466068EF
:10110000012810D002281AD003281ED029E0006838
:101110008003E7E700688001E4E700BFFFF7D8FE3F
:10112000C01BA84259D83068C0F381000128F5D10E
:1011300089E000BFFFF7CCFEC01BA8424DD8306845
:10114000C0F381000228F5D17DE03068FFF7C0FED2
:10115000C01BA842F9D940E0FFF7BAFEC01BA84265
:101160003BD8306810F00C0FF6D16CE0217889077D
:1011700007D5D8F80020A36822F0F0021A43C8F877
:1011800000202178C9074CD06168012928D00229A4
:1011900029D0032927D000688007002849DAD8F829
:1011A000002022F003020A43C8F80020FFF790FE57
:1011B000064600E03DE0606801281DD0022829D0E5
:1011C000032838D0AB464546286810F00C0F28D0CD
:1011D000FFF77EFE811B5945F6D90320BDE8F09F3D
:1011E00000688003D9E700688001D6E7FFF770FE4A
:1011F000811B594502D9F0E7AB4645462868C0F344
:1012000081000128F2D10CE0FFF762FE811B5945F5
:1012100002D9E2E7AB4645462868C0F381000228C0
:10122000F2D18AF80090DAF8000000F00F00B8421E
:1012300009D00120D2E744462068FFF749FE801B11
:10124000A842F9D9C9E72078400707D5D8F8001097
:10125000E26821F4E0511143C8F80010207800073B
:1012600008D5D8F80010226921F4604141EAC20192
:10127000C8F800100020FFF753FE0020AEE7000082
:10128000003C02400038024010B500F043F8084925
:101290000968F02292FAA2F201F0F001B2FA82F2A9
:1012A000D140044A515CC8400349086010BD0000A9
:1012B00008380240FC8500081400002010B5FFF734
:1012C000E3FF074909684FF4E05292FAA2F201F4F1
:1012D000E051B2FA82F2D140024A515CC84010BDDE
:1012E00008380240FC85000810B5FFF7CDFF07491C
:1012F00009684FF4604292FAA2F201F46041B2FA36
:1013000082F2D140024A515CC84010BD0838024008
:10131000FC85000830B51948006810F00C01184829
:1013200012D0184C04290ED008290DD11349091FD9
:101330000A6802F03F030A68550247F6C07204D5F6
:10134000B4FBF3F003E0204630BDB0FBF3F00B68D4
:101350000968134092FAA2F2B2FA82F2D3405843DB
:101360004FF4403292FAA2F201F44031B2FA82F222
:10137000D140491C4900B0FBF1F030BD08380240B3
:101380000024F40040787D012DE9F84F04460078F0
:10139000DFF81893C64DC0074FF0000648D0D9F8C3
:1013A00000104846C1F38101012908D00068C0F34C
:1013B000810002280AD1281D0068400206D528684D
:1013C000800335D5606800286FD031E0DFF8E08217
:1013D00008F1020888F80060FFF77AFD074604E08C
:1013E000FFF776FDC01B64287ED828688003F7D4F9
:1013F000207988F80000606868B1FFF769FD07464A
:1014000005E000BFFFF764FDC01B6428ECD8286826
:101410008003F7D50CE0FFF75BFD074605E000BF52
:10142000FFF756FDC01B6428DED828688003F7D478
:101430002078A04F80074FF0010B46D5D9F8001057
:10144000484611F00C0F4FF0F80A09D00068C0F3BD
:10145000810002280BD19548001F0068400206D485
:101460002868800715D5E06801281ED111E0E068E2
:10147000E0B1C7F800B0FFF72BFD804606E000BFE3
:10148000FFF726FDA0EB08006428ADD82868800788
:10149000F6D528689AFAAAF22169B2FA82F220F007
:1014A000F8009140084328600FE0FCE03E60FFF741
:1014B0000FFD804606E000BFFFF70AFDA0EB080025
:1014C000642811D828688007F6D42078000729D529
:1014D000DFF8D8A1784861690AF16C0A99B1C0F8BF
:1014E00000B0FFF7F5FC00E086E0804606E000BFB4
:1014F000FFF7EEFCA0EB080064287DD8DAF80000C6
:101500008007F5D50EE00660FFF7E2FC804605E0B7
:10151000FFF7DEFCA0EB080064286DD8DAF80000C5
:101520008007F5D4207840075AD5604838300168E4
:1015300041F0805101600068DFF880A100F0805028
:101540000090DAF8001041F48071CAF80010FFF73B
:10155000BFFC804606E000BFFFF7BAFCA0EB080026
:10156000642849D8DAF80000C005F5D5DFF83C81D9
:1015700008F1680888F80060FFF7AAFC41F2883A91
:10158000009005E0FFF7A4FC0099411A514533D8BB
:10159000D8F800008007F5D4207A88F80000A06809
:1015A00078B1FFF795FC009006E000BFFFF790FCD4
:1015B0000099411A51456ED8D8F800008007F5D53A
:1015C0000EE0FFF785FC009006E000BFFFF780FC0F
:1015D0000099411A51455ED8D8F800008007F5D42B
:1015E000A069E8B3D9F80010C1F3810102295AD0EB
:1015F00002283E6605D000E04DE0FFF769FC044696
:101600004CE0FFF765FC064605E000BFFFF760FC15
:10161000801B64283FD828688001F7D4D4E90701EB
:10162000084347F6C07292FAA2F2616AB2FA82F2F5
:101630009140A26A4FF0FF3303EB52024FF4403364
:1016400093FAA3F3B3FA83F39A40114308434FF09C
:10165000706292FAA2F2E16AB2FA82F2914000E07C
:101660001FE008431149091F0860C7F860B0FFF781
:101670002FFC044605E000BFFFF72AFC001B64288E
:1016800009D828688001F7D50BE000BFFFF720FCE0
:10169000001B642802D90320BDE8F88F2868800168
:1016A000F4D40020F8E70120F6E7000008380240F3
:1016B0000038024000004742800E47420070004060
:1016C00010B5401EB0F1807F01D3012010BD4FF056
:1016D000E02460610F21601700F070F80020A06125
:1016E00007202061002010BD70B5040004D094F8DC
:1016F0003900002510B106E0012070BD84F8385093
:10170000204600F020F8022084F839002068C168E3
:1017100021F40051C160204600F0D0F82068016932
:1017200021F4904101612068416921F02A01416161
:101730002068C16841F40051C160E563012084F86C
:101740003900002070BD7047FEE700000EB5154956
:1017500013480860091D6FF07F400860091D12489A
:10176000086002F0F5F9114A114900208DE80700E0
:101770000C4B104808331A1F111F02F00DFD0D48C5
:1017800002F07CFE0B4890F829004007094803D579
:10179000BDE80E4002F09ABEBDE80E4002F074BEF5
:1017A000C0A8017A04000020C0A80101412500085A
:1017B00075260008BC000020FEE770470907090EE7
:1017C000002806DA00F00F0000F1E02080F8141D78
:1017D000704700F1E02080F80014704770477047B0
:1017E000FFF77CBB30B593B030216846FEF723FD90
:1017F00014210CA8FEF71FFD1948016841F0805123
:101800000160006800F0805011901648016841F4B2
:10181000404101600068022400F440401190012022
:10182000009001908005CDE906400F250895D8204D
:10183000CDE9090404200B906846FFF7A5FDFFF7EA
:10184000D7FB00200C95CDE90D404FF4A0500F9030
:10185000E002109005210CA8FFF710FC13B030BD7A
:1018600040380240007000401048016841F47001A7
:1018700001600F48016841F0010101600C4A00213C
:101880000832116002680B4B1A400260031D0A4ABD
:101890001A60026822F48022026005480C30016060
:1018A00002495806803908607047000088ED00E062
:1018B00000380240FFFFF6FE103000242DE9F04111
:1018C00001680446086920F44052E068104308614A
:1018D0002268D06849F20C6188432369A168E569F0
:1018E000194363692B4319430143D1602168486957
:1018F00020F44072A06910434861E26964263225F1
:10190000B2F5004F49494A4822681DD0824201D0B1
:101910008A426AD1FFF7E8FC00EBC00101EB00103E
:101920006168B0468900B0FBF1F1B1FBF8F6FFF752
:10193000DBFC00EBC00101EB001061688900B0FB2B
:10194000F1F7FFF7D1FC69E0824201D08A4219D158
:10195000FFF7CAFC00EBC00101EB00106168B04664
:101960004900B0FBF1F1B1FBF8F6FFF7BDFC00EB6D
:10197000C00101EB001061684900B0FBF1F7FFF70F
:10198000B3FC18E0FFF79AFC00EBC00101EB00107C
:101990006168B0464900B0FBF1F1B1FBF8F6FFF722
:1019A0008DFC00EBC00101EB001061684900B0FB49
:1019B000F1F7FFF783FC00EBC00101EB0010616859
:1019C0005FEA4101B0FBF1F1B1FBF8F06FF01801F3
:1019D000484307EB800005EB0011B1FBF8F02168EC
:1019E00066F31F108860BDE8F081FFF767FC00EB2D
:1019F000C00101EB00106168B0468900B0FBF1F155
:101A0000B1FBF8F6FFF75AFC00EBC00101EB001048
:101A100061688900B0FBF1F7FFF750FC00EBC001F3
:101A200001EB001061688900CCE700000014014060
:101A300000100140FEE700000FB4054B10B503A9EC
:101A4000044A029800F018F810BC5DF814FB00007E
:101A5000592700081800002002E008C8121F08C11A
:101A6000002AFAD170477047002001E001C1121F1F
:101A7000002AFBD1704700002DE9FF4F8BB09A463A
:101A80000F460546002606E025280BD052460D9944
:101A900090476D1C761C28780028F5D10FB0304691
:101AA000BDE8F08F0024A0460122604900E0044315
:101AB00015F8013F203B02FA03F00842F7D12878DD
:101AC0002E2817D115F8010F44F004042A280ED04F
:101AD0006FF02F022878A0F1300109290AD808EB0D
:101AE000880102EB410100EB01086D1CF2E757F899
:101AF000048B6D1C287869283ED006DC0028CDD0E8
:101B000063280BD0642804D136E0732810D07528E0
:101B10004BD052460D999047761C85E017F8040B80
:101B20008DF8000000208DF80100E946012003E057
:101B300057F8049B4FF0FF3061074FF0000401D4C9
:101B40000AE0641C44450DDA8442FADB19F80410FB
:101B50000029F6D106E0641C8442FCDB19F804106D
:101B60000029F8D1264404E019F8010B52460D99DA
:101B70009047641EF8D257E001CF4FF00A0B0028BF
:101B800002DA40422D2102E0210504D52B218DF8F7
:101B90002410012103E0E10705D02021F7E70DF132
:101BA000200908910CE00021F9E701CF4FF00A0B62
:101BB000F9E75946FEF757FB01F1300209F8012D0C
:101BC0000028F6D1ADEB090000F1200B600701D42D
:101BD0004FF00108D84502DDA8EB0B0000E0002023
:101BE0008046002406E009A85246005D0D99904702
:101BF000641C761C08988442F5DB04E030205246D1
:101C00000D999047761CB8F10001A8F10108F5DCA8
:101C100005E019F8010B52460D999047761CBBF16F
:101C20000001ABF1010BF4DC6D1C34E70928010065
:101C300070B5054600244FF47A7603E0304600F094
:101C400004F8641CAC42F9D370BD70B54FF0E024C9
:101C500000226569B4214843A169A3698B42FCD085
:101C600002D2A1EB030102E0A5EB030631440A44D2
:101C700019468242F1D370BD70B505460C468807FF
:101C800002D004A0FFF7D8FEA86800682060A8680A
:101C9000046070BD6D656D705F667265653A206D3C
:101CA000656D2070726F7065726C7920616C696708
:101CB0006E65640010B58068046844B121680160F5
:101CC000A00702D003A0FFF7B7FE204610BD0020FA
:101CD00010BD00006D656D705F6D616C6C6F633A77
:101CE000206D656D702070726F7065726C79206107
:101CF0006C69676E6564000070B5094D0646002486
:101D000004EB440005EBC000017D29B18068B042BE
:101D100002D1204600F0F0F8641C0A2CF0DB70BD04
:101D2000C88D01202DE9F74F84B04FF00A0B002435
:101D30000646DA465F46D94602940194CDF8004043
:101D4000464904EB440001EBC008039098F8145096
:101D50000A2F18D035B3012D04D0022D02D240A095
:101D6000FFF76AFE9EB13168D8F8040081420ED1B7
:101D7000069820B1D8F808100698814207D120466D
:101D800007B0BDE8F08F002DE5D127460AE0012D10
:101D900016D0022D06D3B8F812000099884201D35C
:101DA000A2460090641C24B20A2CC9DB0598810766
:101DB0004FF0FF30E4D40A2F16D018DA3C4636E054
:101DC0002649039851F830000028B8F8120005D0D1
:101DD00002998842E6D3A1460290E3E7019988423E
:101DE000E0D3A3460190DDE70599C907C8D0514665
:101DF000BAF10A0F0ADA0C46184801EB440150F810
:101E0000310060B126A0FFF717FE08E05946BBF18C
:101E10000A0F03DB4946B9F10A0FB1DA0C460A2C66
:101E200002DB25A0FFF708FE204600F065F80A2C2B
:101E300002DB21A0FFF700FE084804EB440100EBA1
:101E4000C105287D10B121A0FFF7F6FD0EB1306865
:101E50006860002068820698A86090E7C88D01201D
:101E60007374617465203D3D204554484152505F74
:101E700053544154455F50454E44494E47207C7C65
:101E8000207374617465203E3D2045544841525092
:101E90005F53544154455F535441424C4500000048
:101EA0006172705F7461626C655B695D2E71203D6B
:101EB0003D204E554C4C000069203C204152505F63
:101EC0005441424C455F53495A4500006172705F6E
:101ED0007461626C655B695D2E7374617465203D2D
:101EE0003D204554484152505F53544154455F454D
:101EF0004D5054590000000070B5074C00EB4005F0
:101F0000002654F8350018B102F0E0FD44F83560C1
:101F100004EBC500067570BDC88D01202DE9F043A6
:101F200085B00D00074609D07C684FF48078208882
:101F3000404535D12079062832D105E01AA0FFF7B7
:101F40007BFD05B0BDE8F0836079042828D1608866
:101F5000082825D1D4F80E000490A169686820B142
:101F6000814202D10126334601E00026022304F11A
:101F70000802914604A9284600F088FAE088404506
:101F80000ED16EB1022204ABCDE90232291DCDE99A
:101F9000001905F1220319464A46284600F0B2F915
:101FA000384602F093FDCCE76E6574696620213DEA
:101FB000204E554C4C000000FEB515460E46040060
:101FC00002D13DA0FFF738FD16B93FA0FFF734FD61
:101FD00015B940A0FFF730FD2146286800F046FE05
:101FE00008B1404B3FE02868C0F303110E2925D00B
:101FF000A168636800EA01020B409A4208D080B2EF
:10200000A0F57E41A93903D0E068B0B304F10C0516
:10201000354B36481A7802EB420100EBC1010F7DC7
:10202000022F2ED38F68A7422BD12F6849688F4289
:1020300027D13146204600F05BF8FEBD01208DF827
:10204000040000208DF805005E208DF806006878F9
:1020500001AB00F07F008DF80700A8788DF808002C
:10206000E8788DF809004FF40060009004F1220236
:102070003146204600F0B6FAFEBDFFE76FF00300E0
:10208000FAE7002202EB420100EBC1010F7D022FB3
:1020900008D38F68A74205D12F6849688F4201D1C4
:1020A0001A70C6E7521CD2B20A2AEBD3324629462E
:1020B000204600F071F8DFE76E6574696620213D07
:1020C000204E554C4C0000007120213D204E554CB7
:1020D0004C00000069706164647220213D204E55FF
:1020E0004C4C00000C870008B0000020C88D012077
:1020F0002DE9F8430646154688461A4802EB450185
:1021000000EBC104207D022802D217A0FFF794FC47
:10211000144A05EB4501207D02EBC1050C35022870
:1021200013D1608A0327B0F58E7F04D9211D304674
:1021300000F066F907E0B0F5877F06D32A46211D37
:10214000304600F063F900B927754FF40060009045
:102150002B4606F122024146304600F043FABDE824
:10216000F8830000C88D01206172705F7461626C39
:10217000655B6172705F6964785D2E73746174650C
:10218000203E3D204554484152505F5354415445F0
:102190005F535441424C45002DE9FC5F824622309A
:1021A00001900E46086814464FF0FF374FF0000BC1
:1021B000514600F05BFD80B93068C0F303110E2971
:1021C0000BD056B148B1524601213046FFF7AAFD67
:1021D000050005D540B2BDE8FC9F6FF00F00FAE79F
:1021E0007F2D02D330A0FFF727FC05F0FF0932490D
:1021F00009EB490801EBC805287D50B1012804D03E
:10220000022802D22DA0FFF717FCBBF1000F06D168
:1022100004E001202875C5F808A000E034B9314673
:10222000504600F0EDF80746002CD4D0287D224E11
:1022300002280ED32B494FF4006005F10C0381F8FE
:102240000090009021465046019A00F0CBF90746D5
:1022500028E0012826D1254668892989884204D1A9
:10226000286810B120A0FFF7E7FB287B400607D5C0
:1022700022464FF420710E2002F004FB044605E0D4
:102280002D68002DE8D1204602F004FD44B156F837
:10229000380008B102F01AFC46F83840002701E087
:1022A0004FF0FF37384696E774797065206F766592
:1022B00072666C6F77000000C88D01206172705FDC
:1022C0007461626C655B695D2E7374617465203D39
:1022D0003D2050454E44494E47206F722053544193
:1022E000424C4500B00000206E6F207061636B654A
:1022F000742071756575657320616C6C6F776564AA
:10230000210000002DE9FF4F81B09846DDE90FA9BB
:10231000DDF838B006004FF0000702D126A0FFF725
:102320008BFB4FF420721C210E2002F021F90500D6
:102330003ED068891C2802D223A0FFF77DFB6C6881
:10234000119801F003FCE08096F82800062802D0DE
:102350002A48FFF771FBD8F80010A160B8F8040014
:10236000A081DAF80010C4F81210BAF80400E08274
:10237000DBF80000C4F80E00D9F80000A0614FF4AB
:102380008070208008206080062020710420607109
:1023900040F60600DDE9022300902946304600F0B1
:1023A00021F9284602F092FB384605B0BDE8F08FCF
:1023B0004FF0FF30F9E700006E6574696620213D3B
:1023C000204E554C4C000000636865636B207468B8
:1023D000617420666972737420706275662063612F
:1023E0006E20686F6C6420737472756374206574FA
:1023F000686172705F68647200000000E88700081E
:10240000014A00F003B800000C8700087FB5064DB4
:10241000031D0124CDE90035CDE902141E33194610
:10242000FFF770FF04B070BD1287000870B5164D3D
:10243000002400BF04EB440005EBC002117DF1B1A4
:10244000508A401C80B25082B0F5967F0AD2012992
:1024500006D003290AD004290AD001290BD00EE0A6
:10246000052808D32046FFF747FD08E0042000E0D8
:102470000220107503E0111D9068FFF7C1FF641C76
:102480000A2CD7DB70BD0000C88D0120F8B50446CA
:1024900090F828001F4616460D46062802D01EA0BA
:1024A000FFF7CAFA9DB1286888B1214600F0DEFB2B
:1024B00068B92878C0F303100E2808D022463946A0
:1024C0002846FFF72FFC002804DA40B2F8BD6FF071
:1024D0000F00F8BD00EB40011848022300EBC102D9
:1024E000137594603368D360B388138200235382DA
:1024F00050F8315075B140F831304FF40060009021
:10250000334604F122022946204600F06BF82846A3
:1025100002F0DCFA0020F8BD6E657469662D3E6835
:1025200077616464725F6C656E203D3D2045544860
:102530005F4857414444525F4C454E00C88D0120CE
:102540002DE9F041044640890E270D460E283CD95E
:10255000E07B18B995F82C00401CE07360680178A6
:102560008689CA0714D0012905D006221C49FDF727
:102570006DFE48B10CE0417851B980785E2807D1F2
:10258000607B40F0100002E0607B40F00800607368
:10259000082E03D0B6F5C16F17D10DE095F82900CC
:1025A000000712D53946204602F08AFB68B9294651
:1025B000204600F063FC10E095F82900000704D5E0
:1025C0003946204602F07CFB18B1204602F07EFA24
:1025D00003E029462046FFF7A1FC0020BDE8F0817A
:1025E0000C8700082DE9F04104461F4690460E4630
:1025F000069801F0ABFA05460E21304601F084FF43
:1026000018B16FF00100BDE8F0817068858139680C
:102610000160B9888180D8F80020C0F80620B8F899
:102620000410418194F82800062802D004A0FFF786
:1026300003FA31462046A269BDE8F0411047000088
:102640006E657469662D3E6877616464725F6C655F
:102650006E206D757374206265203620666F72205F
:1026600065746865726E65745F6F757470757421DA
:102670000000000070B5040002D11EA0FFF7DCF9D5
:10268000042001F09BFB050001D04CB10BE01DA024
:10269000FFF7D2F91EA0FFF7CFF94FF0FF3070BD62
:1026A00014A0FFF7C9F96520E56184F82A006E20BF
:1026B00084F82B001E4844F8140F1E486060607DAB
:1026C00040F004006075062020750220A0730020F1
:1026D000E07320746074A074E07440F2DC50A08158
:1026E00014F8150F40F00A0004F8070900202C60C8
:1026F00070BD00006E6574696620213D204E554C0A
:102700004C0000000D0A5B4552525D203E3E200009
:1027100065746865726E657469665F696E69743A3E
:10272000206F7574206F66206D656D6F72790A0079
:10273000B91F0008693A000870B5054601F0FAF8BB
:10274000041E08D02A692946904710B1204602F09D
:10275000BDF92846F2E770BD03490A685206FCD568
:10276000C2B24A6070470000001001400A460321CF
:1027700000F0C0B82DE9FE4F8A4642490446D1F820
:10278000088098F800000007850E142D75D3608925
:10279000042872D36068007800286ED008286CD1B5
:1027A000486901F11407C0F303120E2A65D0894667
:1027B000096800F05BFA00285FD1208908285CD303
:1027C000204600F02EFA002857D105F10E010E46E2
:1027D000204601F099FE60B32089411989B28842F0
:1027E0004BD84FF420720E2001F0C2FE060044D0F8
:1027F000718905F10800814212D32A46414670686A
:10280000FDF7F2FC2946304602F05AFA18B11EA034
:10281000FFF712F904E02146304602F051F818B1F2
:10282000304602F053F928E0204602F04FF93446D2
:1028300008E03146204602F043FA18B120A0FFF725
:10284000FBF81AE029462046666801F05DFEA0B953
:1028500060683968FF22C160D9F810100161002159
:10286000317071800272418101228DE806040A46AE
:10287000FF233946204600F0D1FB2046BDE8FE4F3D
:1028800002F024B91432002069636D705F696E70C4
:1028900075743A206D6F76696E6720722D3E706197
:1028A000796C6F616420746F2069636D7020686556
:1028B00061646572206661696C65640A00000000ED
:1028C00069636D705F696E7075743A2072657374B8
:1028D0006F72696E67206F726967696E616C2070D4
:1028E0002D3E7061796C6F6164206661696C65640E
:1028F0000A0000002DE9FF479146884606464FF43E
:1029000020722421222001F033FE05002DD0688999
:10291000242802D216A0FFF78FF86C6877681C2273
:1029200084F8008084F801904FF00008A4F8048037
:10293000A4F80680686871680830FDF755FCF868EF
:10294000039003A800F00AFD60B1A4F80280012200
:10295000CDF80080CDE90120FF2303AA00212846FD
:1029600000F05CFB284602F0B1F8BDE8FF870000EC
:10297000636865636B207468617420666972737440
:1029800020706275662063616E20686F6C642069D8
:10299000636D70206D657373616765000A460B2176
:1029A000FFF7A8BF10B5002000F0D4F800F096F8AB
:1029B000002000F0DBF80220FFF747F9012000F0CB
:1029C000C9F80220FFF741F9BDE81040002000F0EF
:1029D000C1B8000020210148FEF770BA001C024077
:1029E0000A4808B5016841F080010160006800F004
:1029F0008000009000F072F800F046F8012000F02E
:102A0000B5F8BDE80840012000F0A4B83038024015
:102A100010B5002000F09EF800F060F8012000F0F2
:102A2000A5F80220FFF711F9012000F093F8022029
:102A3000FFF70BF9BDE81040002000F08BB870B52F
:102A4000002506462C4600F031F8002000F082F800
:102A50000220FFF7FAF8012000F07CF86006040E6F
:102A6000FFF7B8FF08B1641CE4B20120FFF7EDF8EE
:102A70006D1CEDB2082DE8D31EB1FFF793FF204681
:102A800070BDFFF7C5FFFAE700B585B00120102142
:102A9000CDE9001002900320039069460248FEF73A
:102AA00027F905B000BD0000001C024010B50A4C1B
:102AB00086B020212046FEF763F8002001902020F8
:102AC0000090012002900320039069462046FEF703
:102AD0000FF906B010BD0000001C024010B5094CF3
:102AE00086B020212046FEF74BF801212020CDE9B9
:102AF00000010320CDE9021069462046FEF7F8F8F0
:102B000006B010BD001C024070B504460025FFF75A
:102B1000E5FF002000F01EF8200601D5012000E0AE
:102B2000002000F023F86006040E0220FFF78DF865
:102B3000012000F00FF80220FFF787F8002000F0D6
:102B400009F80220FFF781F86D1C6DB2082DE3DB58
:102B500070BD0000044B08B1012200E000221021EA
:102B60001846FEF7B0B90000001C0240044B08B143
:102B7000012200E0002220211846FEF7A4B900003F
:102B8000001C024010B5FFF7A9FF0120FFF7EEFF80
:102B90000120FFF7DFFF0420FFF757F80020FFF7C1
:102BA000E5FF0420FFF751F8BDE810400020FFF7D3
:102BB000D1BF10B5FFF792FF0020FFF7CBFF002039
:102BC000FFF7D4FF0420FFF740F80120FFF7CEFF06
:102BD0000120FFF7BFFFBDE810400420FFF735B824
:102BE00010B500240120FFF7C1FF0120FFF72DF8E9
:102BF000FFF75CFF0120FFF7ADFF0120FFF725F88D
:102C000007E0641CE4B2FA2C03D9FFF7D2FF0120DD
:102C100010BDFFF7DFFE0028F3D1FFF79BFF002078
:102C200010BD70B500263446054612E06989686813
:102C300000F09EFF2044010C11FA80F4A87AC0072E
:102C400006D08EB10026E0B2C4F3072141EA002489
:102C50002D68002DEAD126B1E0B2C4F3072141EA84
:102C60000024E04380B270BD0126ECE7421C12D084
:102C700088B191F8292092070BD54B68834208D080
:102C8000896800EA01020B409A4202D10143491CC3
:102C900001D0002070470120704700002DE9F74F58
:102CA00088B00446099800251426008CAF1F1438FC
:102CB000C11700EB5170C0F3CF000390606806901D
:102CC000017801F00F01052903D038460BB0BDE8AB
:102CD000F08F6189142903D254A0FEF7ADFEF4E70A
:102CE000C08800F033FFC0F30C0100F400500291E3
:102CF0000790208914381FFA80F886E003984FF671
:102D0000FF7101EAC0004146404500D908460490E1
:102D10004FF4207214210E2001F02AFC5FEA000A11
:102D20007DD0BAF80A00142802D247A0FEF784FE2C
:102D30001422DAF804000699FDF756FADAF80400CE
:102D40000590049F31E06089811B8DB2B04202D2B0
:102D500045A0FEF771FEAF4200D23D461DB30520EF
:102D600001F0F8F95FEA000956D060684B4630443C
:102D7000CDE9000541222946002001F0FDFC5FEA73
:102D8000000B4FD0204601F085FF3B49C9E90414F0
:102D90005946504601F00CFD781B07043F0C06D045
:102DA00000262468CFE724680026002FCBD17019B5
:102DB00086B20998008C143840450298C0F30C0084
:102DC00001DB079909B140F4005000F0BFFE0599FE
:102DD000C8800498143080B200F0B8FE059948808D
:102DE000059800214181099851460A9A43699847FC
:102DF000504601F06BFE0499A8EB01001FFA80F821
:102E0000DDE90201084480B20290B8F1000F7FF4BE
:102E100075AF00205AE702E0504601F057FE4FF030
:102E2000FF3053E7484600F0C7FAF5E76970345FB2
:102E30006672616728293A207062756620746F6F28
:102E40002073686F7274000074686973206E656522
:102E500064732061207062756620696E206F6E65F4
:102E60002070696563652100702D3E6C656E203EA3
:102E70003D20706F666600009D3700082DE9F04721
:102E8000456807460E4628780421B1EB101F03D091
:102E9000384601F01BFE77E000074FEA906868882B
:102EA00000F054FE04463889A04203D92146384632
:102EB00001F092FE79894145EAD33889A042E7D3EF
:102EC000B8F1140FE4D32969DFF81C91C1F30310A2
:102ED0000E28C9F81410EA68C9F8102005D0304649
:102EE00000F086F850B1344619E096F82900C00782
:102EF00002D070680028F6D1002410E099F8140080
:102F000000247F280BD03948046806E0B44203D07F
:102F1000204600F06DF810B92468002CF6D1314637
:102F2000D9F81000FFF7A2FE0028B1D199F81000DF
:102F3000C0F303100E28ABD0002CA9D0E88830F0E5
:102F4000C00005D0384600F0FFF807001CD07D68AF
:102F5000C9F80850C9E90046297838460907890E9A
:102F6000A9F80C10414601F0ABFE687A012818D090
:102F7000062811D011280AD04D462146D9F8140050
:102F8000FFF774FE90B11EE00020BDE8F0873146E7
:102F9000384605F0C3F919E03146384602F0F6FC30
:102FA00014E031463846FFF7E5FB0FE0287DC0F31B
:102FB00003100E2807D04146384601F0F5FD0221E6
:102FC0003846FFF7D3FB384601F080FD0021C9F8F1
:102FD0000010C9F80410C9F80810A9F80C10C9F8B5
:102FE0001010C9F81410CFE7143200205000002050
:102FF00010B590F82910C9070CD0416851B1064AA4
:1030000052698A4204D001461046FFF72FFE08B1EC
:10301000012010BD002010BD14320020FEB5DDE9F6
:103020000954089E1AB109B10F6807B9211D00960D
:10303000CDE9015400F002F8FEBD00002DE9F84F83
:103040000546DDE90BA8807BDDF828B01F46164653
:103050008946012802D02BA0FEF7EEFC6FF0010498
:1030600086B31421284601F04FFA60BB68896C686A
:10307000142802D226A0FEF7DFFC277284F809A0EC
:10308000306820614520207084F801B0288900F064
:103090005DFD2B4F60804FF0000AA4F806A0388831
:1030A00000F054FDA0803888401C3880B9F1000F32
:1030B00005D0D9F80000E060A4F80AA00EE021488D
:1030C0000068F8E700E002E06889142802D2204690
:1030D000BDE8F88F68686E4600690090B8F8200077
:1030E00040B12989814205D9324641462846FFF739
:1030F000D5FDEDE7D8F814304046324629469847CA
:10310000E6E70000702D3E726566203D3D203100EF
:10311000636865636B207468617420666972737498
:1031200020706275662063616E20686F6C64207326
:1031300074727563742069705F68647200000000C7
:10314000B2000020088700082DE9F05F456883463B
:10315000287800F00F0005287DD1E88800F0F6FC03
:10316000C004070C688800F0F1FC29780907890E73
:10317000814270D8401A1FFA80F8584601F078FB57
:10318000664C0646208830440A2809D9314628462C
:1031900000F0AEFA00285ED0208830440A28E8D833
:1031A000A14664684FF0000A0CE06069E968884253
:1031B00007D1A0692969884203D1A089A9888842DA
:1031C00003D02468002CF0D106E02CB1E88800F090
:1031D000BDFCC0041BD025E0042000F0BBFF0400B0
:1031E0000AD13146284600F083FAB04233DB04208E
:1031F00000F0B0FF04002ED02021FDF71CF80F20B6
:10320000E077D9F804102160C9F8044004E0E089AF
:1032100000F09CFCC00405D01422294604F10800EB
:10322000FCF7E2FFA87940F340156D1C08D007EBCE
:10323000080080B2B8425FD34FF6EB7188425BD88A
:103240002A465946204600F0C9F8411C54D0B9F826
:103250000020324400E05CE0A9F8002035B107EB23
:103260000801A183A17F41F00101A177012841D18B
:10327000A08B1422143087B2606804F108014568FD
:1032800028462E68FCF7B0FF384600F05FFC6880E7
:10329000A5F806A0A5F80AA0656809E01421304643
:1032A000776801F00DFD3146284601F081FA3E684D
:1032B000002EF3D1D9F804104E468C4205D10021DE
:1032C00005E00868A04202D001460029F9D1204655
:1032D00000F060F9284601F0CBFA04463088A0429D
:1032E00002D20FA0FEF7A8FB3088001B30802846D2
:1032F000BDE8F09F0020FBE7606850B9D9F80400F2
:10330000844202D00DA0FEF797FB0021204600F07A
:1033100041F9584601F0DAFBECE70000B400002068
:1033200069705F72656173735F70627566636F75F4
:103330006E74203E3D20636C656E00006E6F7420DD
:103340006669727374616C74686F756768206A75FA
:10335000737420656E7175657565640070B504469B
:10336000134813E090F82910CA070FD04A070DD56B
:1033700043685BB182682568134005EA02069E42F5
:1033800014D0890702D4C1688D420FD0006800288C
:10339000E8D10848006840B190F82910CA0704D065
:1033A000490702D54168002900D1002070BD000006
:1033B000500000205400002010B5040002D104A0E9
:1033C000FEF73AFB2146BDE81040052000F07EBE26
:1033D0007020213D204E554C4C0000002DE9F05F3F
:1033E0004C68064693460F4600254FF0010860885A
:1033F00000F0ACFB21784FF0FF3A0907890E8142BB
:1034000031D8A0EB0109E08800F0A0FBC0047C6883
:10341000010C0020206001EB090083B2A180E38051
:103420008B4220D3726829E05068B0F804C061452F
:1034300015D222606DB1B5F806C0614513D38088FE
:10344000834210D82F60A088844506D04FF0000832
:1034500003E08088834206D877608AB126E002D0F4
:10346000C288914202D25046BDE8F09F25B1EA8859
:10347000624501D04FF0000802680546002AD3D10A
:1034800075B1E888A188884202D91FA0FEF7D4FA56
:103490002F60E888A188884208D04FF0000805E036
:1034A000706810B120A0FEF7C7FA7760BBF1000F7B
:1034B00002D1B07FC007D7D0B8F1000F22D0726818
:1034C00002B350688088E8B92168204629B14C6869
:1034D000C088A1888842F7D014E0B8F1000F11D05D
:1034E00012B91FA0FEF7A8FA70684068A04202D186
:1034F0001BA0FEF7A1FA206810B11DA0FEF79CFAF0
:103500000120B1E70020AFE7636865636B20667256
:1035100061676D656E747320646F6E2774206F76BB
:1035200065726C61700000006E6F20707265766964
:103530006F757320667261676D656E742C20746898
:103540006973206D757374206265207468652066E8
:103550006972737420667261676D656E7421000014
:1035600073616E69747920636865636B00000000A5
:1035700076616C69646174655F64617461677261CE
:103580006D3A6E6578745F70627566213D4E554C7C
:103590004C00000070B5044609480D464168A14240
:1035A00002D12168416005E015B906A0FEF744FA92
:1035B000206828602146BDE87040042000F086BDE8
:1035C000B400002073616E69747920636865636B71
:1035D000206C696E6B6564206C6973740000000078
:1035E0002DE9F047054600240F46A94202D126A046
:1035F000FEF722FA2FB13868A84202D025A0FEF7C4
:103600001BFA6E684FF4803870688188B9B9006819
:103610006860142205F108017068FCF7E5FD0121DE
:103620003046FFF7BBF9304601F022F90446404529
:1036300002D31DA0FEF700FA304601F047FA6E688B
:103640000FE07068B1460668484601F011F904447D
:10365000444502D314A0FEF7EFF9A4B2484601F0A6
:1036600035FA002EEDD139462846FFF793FF164D67
:103670002888A04202D215A0FEF7DEF92888001B98
:1036800028802046BDE8F0877072657620213D20B5
:1036900069707200707265762D3E6E657874203D9B
:1036A0003D2069707200000070627566735F66721B
:1036B000656564202B20636C656E203C3D2030786E
:1036C0006666666600000000B400002069705F72E4
:1036D000656173735F70627566636F756E74203EAB
:1036E0003D2070627566735F6672656564000000F8
:1036F0002DE9F0471D4F8946064600240022134657
:1037000011461546786822E0D0F814C0D6F80C802F
:10371000C4450BD1D0F818C0D6F81080C44505D1E7
:10372000B0F80CC0B6F80480C44509D06D1C2AB1AD
:1037300090F81FC092F81F80C44501D80246194670
:10374000D0F800C0BCF1000F00D00346604600284E
:10375000DAD11AB11046FFF743FF04444C4501DAB1
:10376000012DCBDC2046BDE8F0870000B40000202E
:1037700070B50948002544680BE0E07F20B1401E89
:10378000E0772546246804E0204624682946FFF7B0
:1037900027FF002CF1D170BDB400002010B504004B
:1037A00002D106A0FEF748F9606908B101F08EF970
:1037B0002046BDE81040FFF7FFBD00007063722097
:1037C000213D204E554C4C001CB52848FCF7ABFE63
:1037D0000121072001F0E6FA6420FEF729FA002112
:1037E000072001F0DFFA6420FEF722FA2048016882
:1037F00041F001010160022000218DF800008DF8E8
:1038000001101A488DF802108DF804108DF803107D
:103810008DF80510174A026001229303C0E90123C5
:10382000D302C3600182C0F814D0C0E90621D105DB
:103830000162FCF701FF040015D00FA0FEF7FCF8B1
:103840000A490423144AC8310848FCF730FE134AD9
:103850000423A2F580710548FCF7EFFD0348FDF74E
:103860008BF820461CBD0EA0E8E700002C010020CC
:1038700000900240008002406574682068617264B4
:103880007761726520696E6974206661696C642E67
:103890002E2E0D0A00000000441A002074020020A1
:1038A00065746820686172647761726520696E6909
:1038B0007420737563636573732E2E2E0D0A0000DA
:1038C000012211460148FDF7FEBA00000004024043
:1038D000012202210148FDF7F6BA0000000402406F
:1038E00070B5124886B0016841F0020101600068BD
:1038F000012400F002000E4E00940325059001946F
:1039000069463046CDE90245FDF7F2F90220CDE9DE
:10391000000469463046CDE90245FDF7E9F9FFF7B5
:10392000CFFFFFF7D5FF06B070BD00003038024072
:10393000000402402DE9F84F00200446009033486F
:10394000FCF7FFFD40B132A0FEF776F833A0FEF79A
:1039500073F80020BDE8F88F2C48818FD0F8409094
:103960008DB234A0FEF768F84A46294635A0FEF726
:1039700063F885B34FF4C1722946002000F0F8FDCA
:10398000009040B32148009D40F2F45BD0F83080B5
:103990006E89002710E000BFA4F2F4525242FCF7F7
:1039A00023FCD8F80C008046D0F808903F1BAAF200
:1039B000F456002407F2F457686806EB040ADA4567
:1039C00009EB04013844E7D83246FCF70DFC2D68BA
:1039D0003444002DDCD10D480022016B05E00B685A
:1039E00043F000430B60C968521C836B9342F6D8C6
:1039F00000218163006800F580504269120602D5FB
:103A00008022426181600098A4E700002C01002020
:103A10000D0A5B4552525D203E3E20007265636593
:103A2000697665206672616D65206661696C640AFD
:103A3000000000000D0A5B494E464F5D203E3E20CF
:103A40000000000072656365697665206672616DCD
:103A500065202564206C656E20627566666572203F
:103A60003A2025730A0000002DE9F05F26484FF048
:103A7000000B5C46C66AD6F808A0306800280EDB4A
:103A80000D462CE06F894FF0000818E0A4F2F452C4
:103A90005242FCF7A9FBF6683068002802DA6FF0A2
:103AA000070023E0D6F808A0A8EB040000F2F458C1
:103AB000ABEB0400A9F2F45700F2F45B002407EB2F
:103AC000040940F2F4506968814541440AEB04005E
:103AD000DCD83A46FCF788FB2D683C44BB44002DFB
:103AE000D0D159460848FCF789FF002006490968EB
:103AF00001F580514A69920603D520224A610022CD
:103B00004A60BDE8F09F00002C01002010B504467B
:103B10004068804701F028FA094A216852688B18EA
:103B20001A1AB2F1004F03D308442246054902E0B5
:103B3000044922461846BDE8104001F047BA00008B
:103B40009C0000200D3B000800BA704740BA704747
:103B500010B500F017F900F0D7FA00F02BFC04F0D4
:103B6000DBFB01F011FFBDE8104001F07BBA000063
:103B700018B50022ADF8002010F001030CD0002988
:103B80000ADD10F8014B8DF80140491E04E000BF2A
:103B900030F8024B891E22440129F9DC002902DD9C
:103BA00000788DF80000BDF800001044010C11FAF7
:103BB00080F0010C11FA80F023B1C1B2C0F30720EC
:103BC00040EA012080B218BDFDF790F9FDF70AFE2A
:103BD000FFF786FE4FF4E13004F0CCFC4FF4FA74AA
:103BE00005E011A0FDF728FF2046FEF721F801F0BF
:103BF0009BF80028F5D105E010A0FDF71DFF204639
:103C0000FEF716F8FFF7E0FD0028F5D1FDF79EFD61
:103C10000F4C0025206818B10E482560FEF78CFD7A
:103C200001F080F9F6E70000706366383537345FDD
:103C3000696E69742065726F720D0A006C616E386E
:103C40003732305F696E69742065726F720D0A00D9
:103C500000000020BC0000202DE9F04100283FD0EA
:103C6000810701D01FA02BE0274DA0F1080429688F
:103C70008C4203D36A680C30904201D923A01FE024
:103C8000207908B3601A86B2208801F045F907460A
:103C9000608801F041F921884FF470530022994265
:103CA0000DD8618899420AD8B14202D00088B0424A
:103CB00005D16868874209D07888B04206D01AA03A
:103CC000BDE8F041FDF7B8BE24A0F9E72271A8686D
:103CD000844200D2AC602046BDE8F04101F088B8D3
:103CE000BDE8F0816D656D5F667265653A20736150
:103CF0006E69747920636865636B20616C69676EB7
:103D00006D656E74000000001C0000206D656D5F25
:103D1000667265653A20696C6C6567616C206D65DB
:103D20006D6F7279000000006D656D5F667265658C
:103D30003A20696C6C6567616C206D656D6F727996
:103D40003A206E6F6E2D6C696E6B65643A20646FFD
:103D500075626C6520667265650000006D656D5F5B
:103D6000667265653A20696C6C6567616C206D658B
:103D70006D6F72793A20646F75626C65206672654A
:103D80006500000070B50B480B4C20F003014FF4A8
:103D9000705521600D80002048800871284601F090
:103DA000BBF8012160600171058045802068A0603A
:103DB00070BD00002F3200201C0000202DE9F047CC
:103DC000002870D0C41C4FF6FC710C404FF47059A1
:103DD0000C2C01D20C2401E04C456BD8844269D3F1
:103DE0003548C4F57057824601890288891A8EB217
:103DF0005EE0304601F090F805460079002854D185
:103E00002888801B0838A0424FD3288804F1140169
:103E1000801B08384FF00108884219D33019083048
:103E200087B24F4502D125A0FDF706FE384601F0C6
:103E300073F8002101712988018046802F8085F860
:103E400004800088484505D001F066F8478001E00D
:103E500085F80480DAF808005646854203D010E061
:103E6000008801F059F8017911B171688842F7D1E1
:103E7000B0607168884204D0007910B114A0FDF7D9
:103E8000DBFD281971680830884202D917A0FDF7B8
:103E9000D3FDA80705D021A0FDF7CEFD2BA0FDF78F
:103EA000CBFD05F10800BDE8F087DAF80000865B7D
:103EB000B7429ED80020F6E71C000020696E7661AC
:103EC0006C6964206E657874207074720000000064
:103ED0006D656D5F6D616C6C6F633A20216C66720D
:103EE00065652D3E75736564000000006D656D5F4E
:103EF0006D616C6C6F633A20616C6C6F63617465AB
:103F000064206D656D6F7279206E6F742061626FD1
:103F100076652072616D5F656E642E006D656D5F04
:103F20006D616C6C6F633A20616C6C6F636174657A
:103F300064206D656D6F72792070726F7065726C40
:103F40007920616C69676E65642E00006D656D5F38
:103F50006D616C6C6F633A2073616E697479206374
:103F60006865636B20616C69676E6D656E740000D7
:103F700002490988401A80B2704700001C000020E6
:103F80002DE9F05F0646CC1C4FF6FC7004404FF460
:103F9000705A0C2C01D20C2401E0544522D88C42DA
:103FA00020D3364F3868864202D37868864202D3DF
:103FB00033A0FDF741FD3868864240D379688E42D0
:103FC0003DD2A6F10805BB46281A87B22888C01B37
:103FD00008381FFA80F94C4502D92FA0FDF72CFDB7
:103FE0004C4503D94FF00000BDE8F09F27D028884A
:103FF00000F092FF8046007918B304F114004845A0
:104000001DD83819083084B22888504502D12AA01A
:10401000FDF712FD204600F07FFFDBF808209042FC
:1040200001D2CBF808000021017129880180478066
:104030002C800088504502D000F06EFF448030464E
:10404000D2E72888504502D11BA0FDF7F5FC3819AE
:104050000830DBF80810B8F8009084B2414504D16C
:10406000204600F059FFCBF80800204600F054FF2E
:1040700000210171A0F80090D9E700001C00002089
:104080006D656D5F7472696D3A206C6567616C2057
:104090006D656D6F727900006D656D5F7472696D2D
:1040A0002063616E206F6E6C7920736872696E6B2D
:1040B000206D656D6F727900696E76616C69642040
:1040C0006E6578742070747200000000092802D3B5
:1040D00005A0FDF7B1BC002904D00A4A52F820001F
:1040E000FDF7CABD704700006D656D705F66726553
:1040F000653A2074797065203C204D454D505F4DE8
:10410000415800007886000830B5064D002400BFF5
:1041100055F8240000F008F8641CA4B2092CF7D369
:1041200030BD000078860008826800211160416877
:10413000C91C21F00301002207E08368521C1B68A0
:104140000B60836819600388194443889342F4DC48
:104150007047000010B5092804D306A0FDF76CFCD9
:10416000002010BD0B4951F82000BDE81040FDF7BC
:10417000A1BD00006D656D705F6D616C6C6F633A21
:104180002074797065203C204D454D505F4D41585D
:1041900000000000788600082DE9F0410400DDE908
:1041A0000770069D02D01FB131B106E02CA000E0DF
:1041B00032A0FDF741FC1CE0394902B9384A03B985
:1041C000374B00266660A660DFF8D8C0C4F814C07C
:1041D000E660268484F82960E561334D95F800C0D7
:1041E00084F82CC02061204600F018F92046B8471A
:1041F00010B10020BDE8F0814FEA060894F82C00C9
:10420000FF2801D184F82C8000276E6818E0A642B0
:1042100002D126A0FDF710FC7F1CFF2F02DD28A095
:10422000FDF70AFC96F82C0094F82C10884206D171
:10423000C8B2401C84F82C00002EDFD102E03668A2
:10424000002EE4D194F82C00FE2806D0401C2870E3
:104250006868206020466C60CCE785F80080F7E74E
:104260006E657469665F6164643A20696E76616C3C
:104270006964206E65746966000000006E6574698B
:10428000665F6164643A204E6F20696E69742066CF
:10429000756E6374696F6E20676976656E000000E5
:1042A00008870008154400084C0000206E657469FA
:1042B0006620616C72656164792061646465640084
:1042C000746F6F206D616E79206E65746966732CF2
:1042D000206D61782E20737570706F727465642024
:1042E0006E756D626572206973203235350000008D
:1042F00070B50C46054601F099FF21462846BDE8F9
:10430000704004F01DB90A68C3689A4204D001B92C
:104310000022C2600120704700207047F8B51646A1
:104320000C00054602D10FA0FDF786FB16B90DA0C3
:10433000FDF782FB20686968884211D000906868A8
:10434000306069463046FFF7D3FF3CB120686860B3
:104350000121284600F030F80120F8BD0020F6E7E2
:104360000020F8BD696E76616C696420706F696EBB
:10437000746572000A6883689A4204D001B9002209
:1043800082600120704700207047000001000CD0BF
:104390000748406807E000BF90F82C20521CD2B2BA
:1043A0008A4203D000680028F6D100207047000040
:1043B0004C0000207047000070B50D46040002D18B
:1043C0000BA0FDF739FB94F8290041070ED5C10772
:1043D0000CD0E9070AD06168002907D0000705D58D
:1043E000211D2046BDE87040FEF70AB870BD0000F0
:1043F0006E657469665F69737375655F7265706F0A
:104400007274733A20696E76616C6964206E6574AB
:10441000696600006FF00B00704700002DE9F84F4F
:104420004FF000091D4616460C008246C84600D1D2
:10443000114C06B9104E05B90F4DACB1206898B1BA
:1044400000274A4631465046FFF794FF4246294628
:104450005046FFF758FF002F04D16A4621465046C8
:10446000FFF75CFFBDE8F88F01276A4621465046FA
:10447000FFF754FFE5E7000008870008014988605E
:10448000704700004C00002058B190F82910CA076E
:104490000AD001F0FE0180F82910090704D5FDF7C4
:1044A0002BBC02A0FDF7C8BA704700006E657469A6
:1044B000665F7365745F646F776E3A20696E7661CC
:1044C0006C6964206E6574696600000050B190F8F4
:1044D0002910CA0709D141F0010180F829100321F0
:1044E000FFF76ABF01A0FDF7A7BA70476E65746950
:1044F000665F7365745F75703A20696E76616C698A
:1045000064206E6574696600002200F001B8000046
:1045100070B5A0B1B1F5803F21D2A1B104898BB2B1
:1045200014FA81F5ADB29D4219D3057B2D060CD549
:104530004268511A00F11002914210D308E009A01C
:10454000FDF77AFA0BE0002070BD42B14268511AC3
:104550004160418919444181E1180181F3E701205B
:1045600070BD00007020213D204E554C4C000000D5
:104570002DE9FC5F054690460F461046012A0BD0F8
:10458000412809D0B0F5C17F0CD0B2F5207F49D0C9
:104590003AA0FDF751FA6FE00246002000F0C4F89F
:1045A000044665E00024A1460820FFF7D3FD06007D
:1045B00031D005F1030B2BF00300A0F2EC50404288
:1045C00080B2B84200D9384682460020CDE900804A
:1045D0007019133020F0030153463A46304600F07C
:1045E000EDFA3079800702D02BA0FDF725FA40F2D2
:1045F0007B11B1EB9B0F02D133A0FDF71DFA7CB10B
:10460000C9F80060A7EB0A000704B1463F0C4FF061
:104610000005C9D12CE074B3204600F057FA2BE016
:104620003446EFE7E81C20F00302F81C20F00301F9
:10463000501880B200F1100292B281421CD891420F
:104640001AD81046FFF7BAFB040015D00020CDE9B8
:1046500000806019133020F003013B461A462046C3
:1046600000F0ACFA2079800702D024A0FDF7E4F92D
:104670002046BDE8FC9FFFE70020FAE77062756600
:104680005F616C6C6F633A206572726F6E656F75F7
:104690007320747970650000706275665F616C6C80
:1046A0006F633A207062756620712D3E7061796C7F
:1046B0006F61642070726F7065726C7920616C69D3
:1046C000676E656400000000504255465F504F4FD2
:1046D0004C5F42554653495A45206D7573742062AC
:1046E0006520626967676572207468616E204D4558
:1046F0004D5F414C49474E4D454E540070627566C2
:104700005F616C6C6F633A20706275662D3E7061FC
:10471000796C6F61642070726F7065726C79206162
:104720006C69676E656400002DE9FC4114460E4615
:104730000746412A04D0012C02D00AA0FDF77CF9DB
:104740000720FFF707FD05004FF0000008D0CDE976
:10475000004033461A463946284600F02FFA2846CC
:10476000BDE8FC81696E76616C6964207062756673
:104770005F747970650000007CB51C46DDE9063584
:10478000C01C20F003004618AE4201D900207CBDB9
:104790000BB1184400E000200223CDE900230B46B2
:1047A00001461A46204600F009FA20467CBD00006A
:1047B00070B50D4600B125B9BDE870400EA0FDF7FB
:1047C0003BB90446006820B121892A89114421811E
:1047D000F7E720896189884207D015A0FDF72CF9F9
:1047E000206810B11EA0FDF727F920892989084407
:1047F0002081256070BD0000286820213D204E5595
:104800004C4C2920262620287420213D204E554C32
:104810004C29202870726F6772616D6D6572207609
:10482000696F6C6174657320415049290000000074
:10483000702D3E746F745F6C656E203D3D20702D51
:104840003E6C656E20286F66206C61737420706208
:10485000756620696E20636861696E29000000003A
:10486000702D3E6E657874203D3D204E554C4C00B9
:10487000002102E0491C006889B20028FAD10846EC
:104880007047000070B5154613890A461946FFF7B0
:104890006FFE040008D0294600F012F810B103A002
:1048A000FDF7CAF8204670BD002070BD70627566C5
:1048B0005F636F7079206661696C65640000000059
:1048C0002DE9F0474FF000070C4605003E466FF01B
:1048D0000F0904D01CB128892189884201D226A061
:1048E00034E06FF0050A6889C11B6089801B814232
:1048F00001D3804600E088466068424681196868B6
:104900003844FBF771FC688947444644B84202D2F8
:1049100025A0FDF791F86089B04202D228A0FDF7EA
:104920008BF86089B04201D8246800266889B842B3
:1049300002D12D6800273DB16CB160892189884280
:1049400009D1206870B906E09CB124A0FDF774F885
:104950004846BDE8F08755B168892989884206D163
:10496000286820B121A0FDF767F85046F1E7002C38
:10497000B9D10020EDE70000706275665F636F706B
:10498000793A20746172676574206E6F7420626971
:104990006720656E6F75676820746F20686F6C6440
:1049A00020736F75726365006F66667365745F74FC
:1049B0006F203C3D20705F746F2D3E6C656E000073
:1049C0006F66667365745F66726F6D203C3D207024
:1049D0005F66726F6D2D3E6C656E0000705F746F68
:1049E00020213D204E554C4C000000007062756641
:1049F0005F636F7079282920646F6573206E6F7410
:104A000020616C6C6F77207061636B6574207175C9
:104A100065756573210000002DE9F04700271646F3
:104A20008946B84620B1B9F1000F03D0044625E00D
:104A300015A000E01CA0FCF7FFFF0020BDE8F087F8
:104A40002BB16089984202D8181A83B215E06089A8
:104A5000C01A85B2B54200D9354660682A46C118E9
:104A600009EB0700FBF7C0FB08EB05001FFA80F815
:104A7000781987B2701B86B2002324680EB1002C0F
:104A8000DED14046DAE70000706275665F636F70E2
:104A9000795F7061727469616C3A20696E76616CDD
:104AA0006964206275660000706275665F636F708E
:104AB000795F7061727469616C3A20696E76616CBD
:104AC00069642064617461707472000070B50400E0
:104AD00003D00025A07B28B107E01CA0FCF7ACFFA9
:104AE000002070BD1CA0FCF7A7FFA07B401E10F0AB
:104AF000FF00A0731BD1207B617B266800F00F00B4
:104B0000890708D5206910B919A0FCF795FF21691C
:104B10002046884707E002280BD001280CD080B13E
:104B20001CA0FCF789FF6D1CEDB23400D2D12846E1
:104B300070BD2146082001E021460720FFF7C6FA94
:104B4000F1E72046FFF788F8EDE700007020213DEF
:104B5000204E554C4C000000706275665F667265B1
:104B6000653A20702D3E726566203E2030000000C0
:104B700070632D3E637573746F6D5F667265655FFC
:104B800066756E6374696F6E20213D204E554C4CE6
:104B900000000000696E76616C6964207062756661
:104BA00020747970650000000122AFF300800029B5
:104BB00002DA494200F084B8FFF7AABC70B50024BD
:104BC000DDE90456C0E90041028143810573467363
:104BD00001218173C47370BD70B50D46040002D10C
:104BE00019A0FCF729FF2089A8422CD9401B86B2C6
:104BF00009E0281A85B22089801B2081246814B915
:104C000017A0FCF719FF6089A842F2D3207B0007A8
:104C100011D16089A8420ED0607B80070BD4A08898
:104C2000001B284481B22046FFF7AAF9040002D1F4
:104C300011A0FCF701FF65812581206808B1FFF70D
:104C400045FF0020206070BD706275665F7265610F
:104C50006C6C6F633A207020213D204E554C4C0007
:104C6000706275665F7265616C6C6F633A2071206B
:104C7000213D204E554C4C006D656D5F7472696D21
:104C80002072657475726E65642071203D3D204E02
:104C9000554C4C00002808D0817B491C11F0FF01C5
:104CA000817302D101A0FCF7C7BE704770627566C0
:104CB00020726566206F766572666C6F7700000003
:104CC00010B520B1B1F5803F03D3012010BD0BA07A
:104CD00005E039B143898AB2934205D20AA0FCF7B4
:104CE000ABFEF2E7002010BD446821444160991AF0
:104CF00041810189891A0181F4E700007020213D7A
:104D0000204E554C4C000000696E6372656D656EF7
:104D1000745F6D61676E6974756465203C3D2070D9
:104D20002D3E6C656E000000144810B5016886B019
:104D300041F0020101600068694600F00200059040
:104D4000002001904FF48050009001200290032039
:104D500003900B48FBF7CCFFFDF742FEFDF712FF77
:104D60004020FDF7D1FEFDF73BFF0446FDF721FF94
:104D7000FF2000F027F806B0204610BD3038024072
:104D80000004024010B5FDF7FDFE4120FDF7BCFE1A
:104D9000FDF726FF0020FDF752FE0446FDF709FF50
:104DA000204610BD70B50C460546FFF7EBFF01220B
:104DB000AA402CB10243D0B2BDE8704000F002B866
:104DC0009043F9E710B50446FDF7DCFE4020FDF7FF
:104DD0009BFEFDF705FF2046FDF796FEFDF700FF61
:104DE000FDF7E7FEBDE810400A20FCF721BF0000F8
:104DF0002DE9F041284D04462868844202D227A0BC
:104E0000FCF71AFE6868844202D32AA0FCF714FE5D
:104E1000207910B12EA0FCF70FFE20884FF47058B7
:104E2000404502D931A0FCF707FE208800F074F855
:104E30000646B44215D0307998B96868864210D0D9
:104E4000A868B04200D1AC603088208030884045EE
:104E500007D02046FFF78CF80746308800F05CF852
:104E60004780608800F058F8A04212D001790029EC
:104E70000FD1A968A14200D1A860218801802188B2
:104E8000414506D0FFF774F80546208800F044F845
:104E90004580BDE8F08100001C000020706C756743
:104EA0005F686F6C65733A206D656D203E3D2072C2
:104EB000616D0000706C75675F686F6C65733A2098
:104EC0006D656D203C2072616D5F656E6400000051
:104ED000706C75675F686F6C65733A206D656D2DDA
:104EE0003E75736564203D3D20300000706C756731
:104EF0005F686F6C65733A206D656D2D3E6E6578E9
:104F000074203C3D204D454D5F53495A455F414C0F
:104F100049474E454400000001490968084470476C
:104F20001C0000202DE9F04100F01EF80D4C054654
:104F30004FF000472168002911D048682A1ABA4268
:104F40000DD20A682260D1E90262606090460620B4
:104F5000FFF7BCF8002EEDD04046B047EAE7BDE8C9
:104F6000F08100009C000020FBF7B2BF70B5154631
:104F70000E460446B0F1804F02D306A0FCF75CFD5C
:104F8000FFF7F2FF20442A463146BDE8704000F0AA
:104F90001DB8000054696D656F75742074696D6586
:104FA00020746F6F206C6F6E672C206D61782069A4
:104FB00073204C5749505F55494E5433325F4D4131
:104FC000582F34206D7365637300000070B504467C
:104FD00015460E460620FFF7BDF878B10021C560E2
:104FE0000F4A80E85200116831B14B68E51A4FF062
:104FF00000439D420FD30160106070BDBDE870405A
:1050000008A0FCF719BD5568651B9D4202D30260DC
:10501000086070BD11460A68002AF8D0F3E7000066
:105020009C0000207379735F74696D656F75743AC5
:105030002074696D656F757420213D204E554C4C70
:105040002C20706F6F6C204D454D505F5359535F4E
:1050500054494D454F555420697320656D707479DE
:105060000000000070B5074D012400BF05EBC4022D
:1050700055F834000449FFF779FF641C032CF5D37D
:1050800070BD0000F08600080D3B00082DE9FE4FC2
:105090008846040003D0207D012805D007E0BDE844
:1050A000FE4F2FA0FCF7C8BC34A0FCF7C5FC207D48
:1050B0000A2833D03E4DD4F850B0D4F824A0D4F808
:1050C0001090D4F88C70002690B34646214605F126
:1050D000180001F0A1FC01202870206F08B102F037
:1050E000FBFBE06E08B102F0F7FB56B1228BE18AC0
:1050F000201D8DE80700234652465946184602F007
:1051000089FB204600F0AEFB002F26D003B04846B6
:10511000BC46BDE8F04F6FF00C01604724482146C3
:105120001C3001F079FC2046BDE8FE4F00F09ABB30
:10513000E08A0028D1D02869A04209D1C06828613E
:1051400008E0C168A14202D1E168C16002E00846FE
:105150000028F6D10020E060BFE7BDE8FE8F000028
:105160007463705F6162616E646F6E3A20696E761F
:10517000616C69642070636200000000646F6E27D8
:10518000742063616C6C207463705F61626F727411
:105190002F7463705F6162616E646F6E20666F7200
:1051A000206C697374656E2D70636273000000007B
:1051B000580000200121FFF769BF00002DE9F041F0
:1051C00006460120FEF7C6FF434D04005BD1A869E7
:1051D00009E0418BC4680A0704D521F00801418326
:1051E00000F054F920460028F3D100221146EC6863
:1051F000E86906E0036AE31A934201D31A460146BE
:10520000C0680028F6D111B10846FFF7D3FF01208E
:10521000FEF7A0FF040036D1092000F0F3FE0120C4
:10522000FEF798FF04002ED1082000F0EBFE0120CD
:10523000FEF790FF040026D17F2E01D97F2001E0E8
:1052400030001BD0401EC1B200231A46EC68A8698A
:105250000EE0477D8F4206D309D1D0F820C0A4EBE1
:105260000C0C9C4503D3016A0246631A3946C06898
:105270000028EED112B11046FFF79CFF0120FEF787
:1052800069FF040025D09821FAF7D5FF667543F62B
:105290000810A4F8640043F6BC6161852185FF21F4
:1052A000E1724FF4067161860621A4F84010E1878F
:1052B000C91F21860121A4F84810E9682162A97854
:1052C000A177A4F84A000548C4F880000448C4F84F
:1052D00090002046BDE8F08158000020C574000809
:1052E00000DD6D0010B558B1017D012903D0418B5F
:1052F00041F010014183BDE81040012100F012B8D7
:1053000002A0FCF799FB6FF00F0010BD7463705F93
:10531000636C6F73653A20696E76616C69642070A6
:1053200063620000FEB50D46040002D13FA0FCF709
:1053300083FB2800454D4FF000064FF001073BD09E
:10534000207D042801D0072836D1606F20B9208D38
:10535000A0F57851BC392FD0A07EC00602D43CA065
:10536000FCF76AFB228BE18A201D8DE807002346AB
:105370001846626A216D02F04DFA204601F01AFBD0
:10538000A869A04209D1C068A86108E0C168A1422B
:1053900002D1E168C16002E008460028F6D1334836
:1053A000E6602F700068A04202D102F0DDFE34E01A
:1053B000204600F057FA30E0207D40B101281AD095
:1053C00002282CD02046BDE8FE4000F05FB8E08AFD
:1053D0000028EDD02869A04209D1C068286108E002
:1053E000C168A14202D1E168C16002E0084600281C
:1053F000F6D1E660DCE7204600F032FE1348214695
:10540000143001F009FB207D012802D118A0FCF71F
:1054100013FB21460220FEF759FE0020FEBD0B487B
:105420002146183001F0F8FA2F70C1E77463705FFD
:10543000636C6F73655F73687574646F776E3A2021
:10544000696E76616C6964207063620058000020A8
:105450007063622D3E666C61677320262054465F40
:105460005258434C4F534544000000009800002020
:105470007463705F667265655F6C697374656E3ABC
:1054800020214C495354454E0000000070B50500E2
:1054900002D114A0FCF7D0FA287D0526032804D0F9
:1054A000042802D0072816D106E0284602F062FA46
:1054B000040006D12E7509E0284602F05BFA0400CC
:1054C00002D0601C09D004E009202875284600F0AD
:1054D0001FFF204670BD002070BD688B40F00800A3
:1054E0006883F8E770636220213D204E554C4C00E4
:1054F0002DE9F0479A46DDF8208091460D460700D9
:1055000002D128A0FCF798FA15B92EA0FCF794FA5E
:105510005FEAC87001D0042600E000260320FEF7F1
:1055200019FE040019D084F80A804FF00008C4E97D
:1055300000852889B04202D22BA0FCF77DFA288989
:105540001421801B20812846FEF7DEFF48B120464B
:1055500002F0B4F90020BDE8F0872846FFF7B6FA5C
:10556000F8E760684068E060F88AFEF7EFFAE16803
:105570000880388BFEF7EAFAE16848805046FEF76B
:10558000E3FAE1684860B008000300F5A04040EA93
:105590000900FEF7DBFAE1688881E1682046A1F89E
:1055A0001280D8E77463705F6372656174655F73BE
:1055B00065676D656E743A20696E76616C6964200A
:1055C000706362007463705F6372656174655F73BA
:1055D00065676D656E743A20696E76616C696420EA
:1055E0007062756600000000702D3E746F745F6C11
:1055F000656E203E3D206F70746C656E000000008B
:1056000070B50C46054612B908A0FCF715FA5CB156
:10561000218C49B1282902D928398CB200E0002414
:10562000A54200D22C462546284670BD7463705FA3
:105630006566665F73656E645F6D73735F6E6574D8
:1056400069663A20696E76616C6964206473745F80
:10565000697000002DE9F843044600250E468807CE
:1056600002D13248FCF7E8F914B931A0FCF7E4F9AB
:10567000B00700D50125E80700D004208046014688
:105680004FF420723620FEF773FF07004FF0FF390A
:105690001CD07989414502D22DA0FCF7CDF90095A7
:1056A000324639462046E36DFFF722FF05000DD054
:1056B000287B800702D035A0FCF7BEF9288910B1FD
:1056C00038A0FCF7B9F9E06E38B109E0608B40F022
:1056D000800060834846BDE8F883E56604E008463C
:1056E00001680029FBD105600020A4F86800B0071C
:1056F00002D0E06D401CE065F00703D0608B40F005
:10570000200060836868FFF7B3F8B4F866100844B7
:105710000004000CA4F8660006D0206F20B9E06EEB
:1057200010B92BA0FCF788F90020D4E79087000877
:105730007463705F656E71756575655F666C6167D2
:10574000733A20696E76616C696420706362000050
:105750007463705F656E71756575655F666C6167B2
:10576000733A20636865636B2074686174206669AE
:1057700072737420706275662063616E20686F6C4E
:1057800064206F70746C656E000000007365672D97
:105790003E746370686472206E6F7420616C696718
:1057A0006E6564007463705F656E71756575655FC5
:1057B000666C6167733A20696E76616C6964207308
:1057C00065676D656E74206C656E677468000000B7
:1057D0007463705F656E71756575655F666C616732
:1057E000733A20696E76616C6964207175657565C0
:1057F000206C656E6774680070B5194DA878401C00
:10580000A870AC6928E0A17FA878814223D0A07756
:10581000608BC10709D040F002006083204600F091
:1058200077FD608B20F00300608380B2010705D50F
:1058300020F0080060832046FFF728FEE668606FCE
:1058400038B100202870204601F078FB2878002825
:10585000D7D1344600E0E468002CD4D170BD0000FC
:105860005800002010B50446007D012802D104A094
:10587000FCF7E2F82146BDE810400120FEF726BC07
:105880007463705F667265653A204C495354454EA7
:10589000000000002DE9F04799460C4606461D4FD2
:1058A00021E02546D5E90040FEF7E2FFB6F8661094
:1058B0008046414502D218A0FCF7BEF836F8661FB4
:1058C000A1EB0800308028893989084438812846AE
:1058D00001F0F4FF36F8660928B154EA090002D154
:1058E00017A0FCF7A9F894B1E0684068FEF72CF91E
:1058F0000546E0688089FEF729F9800700D001207D
:10590000218928440844B969401A0028C9DD204685
:10591000BDE8F087780000207063622D3E736E64EE
:105920005F71756575656C656E203E3D20706275B2
:10593000665F636C656E286E6578742D3E70290015
:105940007463705F726563656976653A2076616C31
:105950006964207175657565206C656E6774680093
:105960000849C888421CCA800A6912B18B889842CB
:1059700003D2C9681431085C7047C01AC0B2105C09
:105980007047000078000020704700002DE9FE4FAE
:10599000040002D1F4A0FCF74FF8F94D6068E8600C
:1059A000608914287ED3F74E31687069FDF75EF97F
:1059B000002877D1307DB046C0F303100E2871D097
:1059C000E8688089FEF7C2F8000B81001429E9D34A
:1059D00020898842E6D3A1F1140080B268804FF09C
:1059E000000AC5F810A062898A4204D3A880204624
:1059F000FFF766F929E0206810B9E3A0FCF71CF86E
:105A000014212046FFF75CF96189A9806888401A53
:105A100086B22046FFF754F920684189B142C1D3CC
:105A2000416829613146FFF74BF92089801B2081AD
:105A3000608910B1D8A0FBF7FFFF21682089098990
:105A4000884202D0D7A0FBF7F7FFE8680088FEF78E
:105A50007DF80146E86801804088FEF777F8014646
:105A6000E86841804068FEF76FF80146E8684160E9
:105A700069618068FEF768F80146E8688160A9619D
:105A8000C089FEF763F80146E868C1818089FEF7A6
:105A90005DF800F03F01297020896881890706D0F0
:105AA000411C00E077E089B26981884273D8DFF851
:105AB00014930027D9F8006071E0307D10B9C2A0BE
:105AC000FBF7BAFF307D0A2802D1C9A0FBF7B4FF6B
:105AD000307D012802D1D1A0FBF7AEFF307A38B17A
