:020000040800F2
:10000000F0C4022085020008251900082119000803
:100010002319000825040008751C000800000000D2
:10002000000000000000000000000000C501000802
:1000300027040008000000002102000847190008FA
:100040009F0200089F0200089F0200089F0200080C
:100050009F0200089F0200089F0200089F020008FC
:100060009F0200089F0200089F0200089F020008EC
:100070009F0200089F0200089F0200089F020008DC
:100080009F0200089F0200089F0200089F020008CC
:100090009F0200089F0200089F0200089F020008BC
:1000A0009F0200089F0200089F0200089F020008AC
:1000B0009F0200089F0200089F0200089F0200089C
:1000C0009F0200089F0200089F0200089F0200088C
:1000D0009F0200089F0200089F0200089F0200087C
:1000E0009F0200089F0200089F0200089F0200086C
:1000F0009F0200089F0200089F0200089F0200085C
:100100009F0200089F0200089F0200089F0200084B
:100110009F0200089F0200089F0200089F0200083B
:100120009F0200089F0200089F0200089F0200082B
:100130009F020008590400089F0200089F0200085F
:100140009F0200089F0200089F0200089F0200080B
:100150009F0200089F0200089F0200089F020008FB
:100160009F0200089F0200089F0200089F020008EB
:100170009F0200089F0200089F0200080000000084
:100180009F0200089F0200089F0200089F020008CB
:100190009F0200089F0200089F0200089F020008BB
:1001A0009F0200089F0200089F020008DFF810D09D
:1001B00000F0EAF80048004785400008AFF30080EF
:1001C000F0C402202C4B19680868B0E8F04F80F3A7
:1001D0000988BFF36F8F4FF0000080F311887047DC
:1001E0000000000008480068006880F308884FF0AD
:1001F000000080F3148862B661B6BFF34F8FBFF37F
:100200006F8F00DF00BF00BF08ED00E0DFF80C00DB
:10021000016841F470010160704700BF88ED00E0A3
:10022000EFF30980BFF36F8F134B1A681EF0100FA6
:1002300008BF20ED108A20E9F04F106009B44FF09C
:10024000500080F31188BFF34F8FBFF36F8F09F019
:100250005BFD4FF0000080F3118809BC1968086845
:10026000B0E8F04F1EF0100F08BFB0EC108A80F31A
:100270000988BFF36F8F704714000020EFF30580EB
:10028000704700000648804706480047FEE7FEE743
:10029000FEE7FEE7FEE7FEE7FEE7FEE7FEE7FEE736
:1002A000E1190008AD01000810B5431A934209D2C4
:1002B0008318881803E010F8011D03F8011D521E71
:1002C000F9D210BD40EA01039B0703D009E008C939
:1002D000121F08C0042AFAD203E011F8013B00F80B
:1002E000013B521EF9D210BDD2B201E000F8012B41
:1002F000491EFBD270470022F6E710B513460A46A6
:1003000004461946FFF7F0FF204610BD30B50446FD
:100310000020034600E05B1C934203D2E05CCD5C0E
:10032000401BF8D030BD2DE9F05F05460020924615
:100330009B4688460646814640241BE028464146A7
:100340004746224600F041F853465A46C01A9141AA
:1003500010D311461846224600F028F82D1A67EBF4
:1003600001084F4622460120002100F01FF817EB3C
:1003700000094E41201EA4F10104DFDC484631464D
:100380002A464346BDE8F09F064C074D06E0E0686C
:1003900040F0010394E8070098471034AC42F6D3CC
:1003A000FFF708FFC4AD0008E4AD0008202A04DB15
:1003B000203A00FA02F1002070479140C2F1200378
:1003C00020FA03F3194390407047202A04DB203AB7
:1003D00021FA02F00021704721FA02F3D040C2F165
:1003E0002002914008431946704730B58C1810F828
:1003F000012B12F00F0301D110F8013B120906D1B5
:1004000010F8012B03E010F8015B01F8015B5B1EA3
:10041000F9D101E001F8013B521EFBD1A142E6D324
:10042000002030BDFEE7704738B50446006800F58F
:100430008050816941F480118161206800F580500D
:1004400080690090012000F0AFF82068009900F565
:100450008050816138BD000010B55020EFF3118449
:1004600080F31188BFF34F8FBFF36F8F024800F006
:100470007CF984F3118810BDB80100202DE9F0410A
:10048000044621B14FF40060E060C000A060E06964
:100490000025002861D02A462368402619683C4878
:1004A0000140D4E902073843104340F40070084388
:1004B000186020680768012000F076F8206807605F
:1004C0002068466020684668012000F06DF82068CA
:1004D0004660206885602068C560216888694FF69D
:1004E0004172104040F080008861206886690120D8
:1004F00000F05AF8206886612068C5612068C569E7
:10050000012000F051F82068C561216801F5805193
:100510008869204A1040204A02438A61206800F519
:1005200080508569012000F03FF8206800F5805078
:1005300085612068194900F580500160206800F548
:1005400080500568012000F02FF8206800F58050E9
:100550000560A069012803D009E04FF480629BE7A1
:10056000206800F58050C1690D4A1143C16160697E
:100570000C4A818811640178C37841EA0361837869
:1005800040781B0443EA002001435164BDE8F08138
:100590000F8120FF233FDEF8040020028020C102EB
:1005A000400001000080024031B500F07DFD0446AE
:1005B00000F07AFD0099001B8842F9D338BD2DE97F
:1005C000F04390F845400025012C0DD04FF0010C70
:1005D00080F845C0022480F8444044F2F4574FF0BC
:1005E00000495E1E816217E00220BDE8F08301EB46
:1005F0004514C4F80090C5EBC51808EB480802EB99
:100600008808C4E90178B54204D204F12008C4F88E
:100610000C8000E0E1606D1C9D42E8D3026802F5A9
:100620008052D16080F844C0002180F8451008460F
:10063000DBE72DE9F043914690F845200024012A9C
:100640000AD0012680F84560022280F844204FF449
:10065000801C5D1EC1621BE00220BDE8F08301EB3F
:100660004412C2F800C0C4EBC41707EB470809EBFB
:1006700088079760C7691FB9176847F44007176074
:10068000AC4203D202F12007D76000E0D160641CC5
:100690009C42E4D3026802F58052116180F8446004
:1006A000002180F845100846D7E710B5044602201F
:1006B00084F84400204600F079F9002004F8440F43
:1006C000607010BD10B504A001F0D6FABDE810406E
:1006D00004A001F0D1BA00000D0A5B4552525D2022
:1006E0003E3E2000657468206572720A00000000BA
:1006F00010B590F84510012913D0012280F845204B
:10070000022180F84410816A0C680023002C27DB4A
:100710000C68E40518D5846B641C8463012C02D03A
:1007200002E0022010BD016341630C68C4F30D4474
:10073000241FC463046BA4680464C96840F8281FBC
:1007400002774377002010BD0C68A40503D58263AF
:10075000C0E90C1302E0846B641C8463C968816285
:1007600000F8442F4370012010BD70B504460068A6
:1007700000F5805041694FF0000549064FF0010631
:1007800008D5204600F0C8F92068402100F58050C7
:10079000416109E04069C0070AD0204600F09AFA9A
:1007A000206800F58050466184F8446084F8455024
:1007B00020684FF4803100F580504161206800F5D9
:1007C0008050406900040CD52046FFF77BFF20686D
:1007D0004FF4004100F58050416184F8446084F892
:1007E000455070BD2DE9FC474FF000060400B146AE
:1007F000009603D094F8440018B107E00120BDE84A
:10080000FC8784F84560204600F0D2F85D48016816
:1008100041F480410160006800F4804001905A4832
:10082000016821F4000101600168226A114301603E
:10083000206800F58050016841F0010101602168E5
:1008400001F580500268D207FCD1086920F01C0530
:1008500000F006FE4D494E4A0144914202D245F055
:10086000080516E04B494C4A0144914202D245F03A
:100870000C050EE049494A4A0144914209D34949CD
:1008800008444949884202D245F0040501E045F098
:100890001005206805614FF400420021204600F059
:1008A0001BFA0125A8BBFF20FFF77EFE606888B316
:1008B00000F0FAFB07464FF4FA686A460121204629
:1008C00000F0E8F800F0F0FBC01B404518D8009895
:1008D0004007F2D54FF480520021204600F0FCF989
:1008E000B8B900F0E1FB07464FF47A786A46012177
:1008F000204600F0CFF800F0D7FBC01B40450AD9D6
:1009000001212046FFF7BAFD04F8445F032066701A
:1009100075E724E018E000988006E7D56A461021C4
:10092000204600F0B7F8D0B90098410703D54FF43E
:100930000061E16000E0E660800701D5A66019E093
:100940004FF48040A06015E0E068A168C00840EA6C
:10095000510082B20021204600F0BEF930B10121E1
:100960002046FFF78BFD84F8445047E740F6FF70C0
:10097000FFF71AFE49462046FFF780FD84F84450F1
:1009800000203CE7443802400438014000D3CEFE4A
:10099000C0E1E40040F1E9FD40787D0100796CFCA4
:1009A000005A6202001F0AFA80F0FA027047000043
:1009B000334800B5016887B041F0007101600168FB
:1009C00001F000710591016841F0806101600168EA
:1009D00001F080610591016841F0006101600168EA
:1009E00001F000610591016841F0010101600168B9
:1009F00001F001010591016841F002010160016807
:100A000001F002010591016841F0040101600168F3
:100A100001F004010591016841F0400101600068A6
:100A2000694600F040000590862000900220019069
:100A300000200290032003900B200490114800F046
:100A40003FFA4FF40060009069460F4800F038FA12
:100A50003220009069460D4800F032FA4FF4C04051
:100A6000009069460A4800F02BFA002206213D203A
:100A700000F078FB3D2000F069FB07B000BD0000EE
:100A800030380240000002400004024000080240EA
:100A9000001802402DE9F047044690F844009146C2
:100AA00082281DD0822084F84400226810694FF605
:100AB000FF7500F01C03208A05EAC02018434FF49C
:100AC000F86303EA8111014321F0020040F00105BF
:100AD000156100F0E9FA064601274FF4803810E06E
:100AE0000220BDE8F08700BF00F0DEFA801B404521
:100AF00005D304F8447F002060700320F1E72068EC
:100B00000569E807F0D12068406981B2C9F8001092
:100B100084F844700020E4E708B5002000900848FD
:100B20006946006809F00CFB0098002807D00549C9
:100B30004FF080500860BFF34F8FBFF36F8F08BD39
:100B40005C01002004ED00E0F8B5044690F8450093
:100B5000012839D0012584F84550022084F844004A
:100B600020680026016841F00801016020680068E3
:100B700000902846FFF718FD21680098086020685B
:100B8000016841F0040101602068006800900120C4
:100B9000FFF70AFD2168009808602046FFF744FC33
:100BA000206800F58050816941F40051816120681E
:100BB00000F58050816941F00201816184F8445060
:100BC00084F845600020F8BD0220F8BDF0B590F82B
:100BD00045200023012A11D0012780F84570022208
:100BE00080F84420002459B1C66A3268002A0ADA23
:100BF000122100F8441F44700120F0BD0220F0BD16
:100C000000F8447FF7E740F2F455A9420BD9B1FB55
:100C1000F5FCB1FBF5F205FB1C1CBCF1000F00D08C
:100C2000521C012A43D1326842F040523260C26AFB
:100C3000C1F30C015160C16A0A6842F000420A60C7
:100C4000C16AC968C16234E0D6F800C02CF0405CCB
:100C5000C6F800C033B9C66AD6F800C04CF0805C54
:100C6000C6F800C0C66A7560561EB34214D1C66A83
:100C7000D6F800C04CF0005CC6F800C0C2F1010616
:100C8000C6EBC61606EB4606D0F82CC001EB86066E
:100C9000C6F30C06CCF80460C66AD6F800C04CF067
:100CA000004CC6F800C0C66A5B1CF668C662934278
:100CB000CAD3016801F580514A69520705D504225B
:100CC0004A61016801F580514C6000F8447F44702E
:100CD0000020F0BD704700002DE9F041044690F877
:100CE000440042281ED0422084F84400236818693A
:100CF0004FF6FF7600F01C05208A06EAC020284344
:100D00004FF4F86505EA8111014390B241F0030503
:100D100058612068056100F0C7F9064601274FF4C5
:100D2000803810E00220BDE8F08100BF00F0BCF97F
:100D3000801B404505D304F8447F002060700320E9
:100D4000F1E720680569E807F0D184F84470EAE724
:100D50002DE9F04FDFF838B100224FF001094FF0D4
:100D60000F0A00BF09FA02F401EA0403A3427DD18D
:100D7000066857000325BD40AE430660D60800EB69
:100D80008606D6F820C057074FEAD7680AFA08F750
:100D90002CEA070CC6F820C08668AE438660466819
:100DA000A6434660C468AC43C46022F003055D44BA
:100DB000D5F808789407260F0AFA06F4DFF8D4C0AD
:100DC0002740604502D14FF0000C40E0DFF8C8C07A
:100DD000604502D14FF0010C39E0DFF8C0C060453A
:100DE00002D14FF0020C32E0DFF8B4C0604502D10E
:100DF0004FF0030C2BE0DFF8ACC0604502D14FF0A0
:100E0000040C24E0DFF8A0C0604502D14FF0050CCF
:100E10001DE0DFF898C0604502D14FF0060C16E0E7
:100E2000DFF88CC0604502D14FF0070C0FE0DFF80F
:100E300084C0604502D14FF0080C08E0DFF878C0AC
:100E4000604502D14FF0090C01E04FF00A0C0CFA9A
:100E500006FCBC4516D1D5F80868A643C5F8086855
:100E6000164C25689D432560241D00E00AE0256896
:100E70009D432560241D25689D432560241D25680C
:100E80009D432560521C102AFFF46CAFBDE8F08F23
:100E9000003001400000024000040240000802400F
:100EA000000C0240001002400014024000180240F2
:100EB000001C02400020024000240240003C01408F
:100EC0002DE9F84FDFF890B100224FF001084FF004
:100ED000030A4FF00F090BF1040E00BF0B6808FA6C
:100EE00002F42340A3426ED14D68022D01D0122D91
:100EF0000ED1D50800EB850CDCF820505607F70E14
:100F000009FA07F6B5430E69BE402E43CCF82060BF
:100F1000066855000F790AFA05FC07F0030726EA70
:100F20000C06AF40374307604E68012E05D0022EF5
:100F300003D0112E01D0122E0ED18768CE6827EA79
:100F40000C07AE403E4386604668A6430C79C4F366
:100F50000014944034434460C4688E6824EA0C044E
:100F6000AE402643C6604C68E4006FD53B4C256814
:100F700045F480452560246822F0030504F480448C
:100F80000094374C2E19D6F8084895072F0F09FA08
:100F900007F5AC43334DA84201D100252EE0324D78
:100FA000A84201D1012529E0304DA84201D10225F6
:100FB00024E02F4DA84201D103251FE02D4DA8426A
:100FC00002D104251AE041E02B4DA84201D10525AC
:100FD00014E02A4DA84201D106250FE0284DA84271
:100FE00001D107250AE0274DA84201D1082505E0D7
:100FF000254DA84201D1092500E00A25BD40254321
:10100000C6F80858DBF800405D464E689C43F6037E
:1010100000D51C432C60DEF8004075464E689C43AA
:10102000B60300D51C432C600B4D08352C684E6868
:101030009C43F60200D51C432C60074D0C352C68F0
:101040004E689C43B60200D51C432C60521C102AEB
:10105000FFF444AFBDE8F88F003C01404438024043
:10106000003001400000024000040240000802403D
:10107000000C024000100240001402400018024020
:10108000001C024000200240002402400069084089
:1010900000D00120704742694A40426170470AB15E
:1010A000816170470904FBE7014800687047000050
:1010B0000800002002480168491C016070470000D8
:1010C000080000200B4810B5016841F40071016070
:1010D000016841F480610160016841F48071016040
:1010E000032000F05FF8002000F006F800F016F88A
:1010F000002010BD003C024010B5044600F0B0F9DD
:101100004FF47A71B0FBF1F000F0C6FB00222146EB
:10111000501E00F027F8002010BD00000A4808B556
:10112000016841F480410160006800F48040009053
:101130000548001F016841F080510160006800F01F
:101140008050009008BD00004438024000F01F02AB
:10115000012191404009800000F1E020C0F8001119
:1011600070470000F0B40E4B1B680C46C3F302231B
:10117000C3F10705042D00D90425191D072901D243
:10118000002300E0DB1E012606FA05F1491E21407E
:1011900099409E40761E16403143F0BC00F0C3BB20
:1011A0000CED00E0064900F0070208684FF6FF0367
:1011B000184040EA0220034A1043086070470000CC
:1011C0000CED00E00000FA052DE9F8431E48016827
:1011D00041F0805101600068012600F080500090CD
:1011E000300490FAA0F0194FB0FA80F047F8206070
:1011F000FFF75AFF05464FF47A78154C05E000BF1B
:10120000FFF752FF401B404515D86068C003F7D573
:101210004FF4003090FAA0F0B0FA80F047F8206068
:10122000FFF742FF0546464608E000BFFFF73CFFD8
:10123000401BB04202D90320BDE8F88360688003F8
:10124000F4D50020F8E700004038024000000E42CC
:10125000007000402DE9F05FDFF8FCA104460F4666
:10126000DAF80000DFF8F48100F00F017B4807F0A6
:10127000FF0941F2883508F10808B94262D28AF8BC
:101280000090DAF8001001F00F01B9427ED1217808
:10129000890707D5D8F80020A36822F0F0021A4386
:1012A000C8F800202178C9072ED0616801291AD01A
:1012B00002291BD0032919D000688007002865DAAD
:1012C000D8F80000464620F003000843C8F80000A4
:1012D000FFF7EAFE07466068012810D002281AD0FE
:1012E00003281ED029E000688003E7E7006880013A
:1012F000E4E700BFFFF7D8FEC01BA84259D830680A
:10130000C0F381000128F5D189E000BFFFF7CCFED2
:10131000C01BA8424DD83068C0F381000228F5D127
:101320007DE03068FFF7C0FEC01BA842F9D940E05D
:10133000FFF7BAFEC01BA8423BD8306810F00C0F74
:10134000F6D16CE02178890707D5D8F80020A3688A
:1013500022F0F0021A43C8F800202178C9074CD0C7
:101360006168012928D0022929D0032927D00068E3
:101370008007002849DAD8F8002022F003020A4347
:10138000C8F80020FFF790FE064600E03DE06068E8
:1013900001281DD0022829D0032838D0AB46454665
:1013A000286810F00C0F28D0FFF77EFE811B5945EE
:1013B000F6D90320BDE8F09F00688003D9E70068F4
:1013C0008001D6E7FFF770FE811B594502D9F0E78F
:1013D000AB4645462868C0F381000128F2D10CE0F5
:1013E000FFF762FE811B594502D9E2E7AB4645464D
:1013F0002868C0F381000228F2D18AF80090DAF858
:10140000000000F00F00B84209D00120D2E74446A6
:101410002068FFF749FE801BA842F9D9C9E7207868
:10142000400707D5D8F80010E26821F4E0511143D5
:10143000C8F800102078000708D5D8F800102269F5
:1014400021F4604141EAC201C8F800100020FFF712
:1014500053FE0020AEE70000003C0240003802408E
:1014600010B500F043F808490968F02292FAA2F298
:1014700001F0F001B2FA82F2D140044A515CC84056
:101480000349086010BD00000838024090AA000817
:101490000C00002010B5FFF7E3FF074909684FF47F
:1014A000E05292FAA2F201F4E051B2FA82F2D14093
:1014B000024A515CC84010BD0838024090AA00089A
:1014C00010B5FFF7CDFF074909684FF4604292FA63
:1014D000A2F201F46041B2FA82F2D140024A515CB8
:1014E000C84010BD0838024090AA000830B519481D
:1014F000006810F00C01184812D0184C04290ED0C6
:1015000008290DD11349091F0A6802F03F030A6830
:10151000550247F6C07204D5B4FBF3F003E0204651
:1015200030BDB0FBF3F00B680968134092FAA2F2E9
:10153000B2FA82F2D34058434FF4403292FAA2F208
:1015400001F44031B2FA82F2D140491C4900B0FBAB
:10155000F1F030BD083802400024F40040787D01ED
:101560002DE9F84F04460078DFF81893C64DC00700
:101570004FF0000648D0D9F800104846C1F3810169
:10158000012908D00068C0F3810002280AD1281D73
:101590000068400206D52868800335D560680028B9
:1015A0006FD031E0DFF8E08208F1020888F80060CF
:1015B000FFF77AFD074604E0FFF776FDC01B6428BD
:1015C0007ED828688003F7D4207988F80000606806
:1015D00068B1FFF769FD074605E000BFFFF764FD4E
:1015E000C01B6428ECD828688003F7D50CE0FFF70F
:1015F0005BFD074605E000BFFFF756FDC01B6428F2
:10160000DED828688003F7D42078A04F80074FF0F9
:10161000010B46D5D9F80010484611F00C0F4FF0D9
:10162000F80A09D00068C0F3810002280BD1954860
:10163000001F0068400206D42868800715D5E068BE
:1016400001281ED111E0E068E0B1C7F800B0FFF753
:101650002BFD804606E000BFFFF726FDA0EB08004B
:101660006428ADD828688007F6D528689AFAAAF2C7
:101670002169B2FA82F220F0F80091400843286014
:101680000FE0FCE03E60FFF70FFD804606E000BF84
:10169000FFF70AFDA0EB0800642811D8286880072E
:1016A000F6D42078000729D5DFF8D8A178486169F9
:1016B0000AF16C0A99B1C0F800B0FFF7F5FC00E040
:1016C00086E0804606E000BFFFF7EEFCA0EB0800D6
:1016D00064287DD8DAF800008007F5D50EE00660B2
:1016E000FFF7E2FC804605E0FFF7DEFCA0EB080018
:1016F00064286DD8DAF800008007F5D42078400718
:101700005AD560483830016841F080510160006866
:10171000DFF880A100F080500090DAF8001041F46A
:101720008071CAF80010FFF7BFFC804606E000BFDA
:10173000FFF7BAFCA0EB0800642849D8DAF80000EB
:10174000C005F5D5DFF83C8108F1680888F800602D
:10175000FFF7AAFC41F2883A009005E0FFF7A4FCED
:101760000099411A514533D8D8F800008007F5D4C4
:10177000207A88F80000A06878B1FFF795FC009007
:1017800006E000BFFFF790FC0099411A51456ED862
:10179000D8F800008007F5D50EE0FFF785FC009033
:1017A00006E000BFFFF780FC0099411A51455ED862
:1017B000D8F800008007F5D4A069E8B3D9F8001084
:1017C000C1F3810102295AD002283E6605D000E00B
:1017D0004DE0FFF769FC04464CE0FFF765FC064668
:1017E00005E000BFFFF760FC801B64283FD8286835
:1017F0008001F7D4D4E90701084347F6C07292FA92
:10180000A2F2616AB2FA82F29140A26A4FF0FF330B
:1018100003EB52024FF4403393FAA3F3B3FA83F38A
:101820009A40114308434FF0706292FAA2F2E16AC3
:10183000B2FA82F2914000E01FE008431149091F0B
:101840000860C7F860B0FFF72FFC044605E000BF52
:10185000FFF72AFC001B642809D828688001F7D507
:101860000BE000BFFFF720FC001B642802D9032017
:10187000BDE8F88F28688001F4D40020F8E7012043
:10188000F6E70000083802400038024000004742F6
:10189000800E47420070004010B5401EB0F1807FBE
:1018A00001D3012010BD4FF0E02460610F216017CB
:1018B00000F039F80020A06107202061002010BD51
:1018C00070B5040004D094F83900002510B106E08A
:1018D000012070BD84F83850204600F020F8022026
:1018E00084F839002068C16821F40051C1602046A5
:1018F00000F004F92068016921F490410161206839
:10190000416921F02A0141612068C16841F4005118
:10191000C160E563012084F83900002070BD704784
:10192000FEE7FEE770470907090E002806DA00F017
:101930000F0000F1E02080F8141D704700F1E02056
:1019400080F80014704710B508F014FE012801D08B
:1019500008F082FABDE81040FFF7ACBB30B593B099
:1019600030216846FEF7C7FC14210CA8FEF7C3FC23
:101970001948016841F080510160006800F0805012
:1019800011901648016841F440410160006802244A
:1019900000F4404011900120009001908005CDE9B5
:1019A00006400F250895D820CDE9090404200B90A6
:1019B0006846FFF7D5FDFFF707FC00200C95CDE941
:1019C0000D404FF4A0500F90E002109005210CA89C
:1019D000FFF740FC13B030BD4038024000700040BB
:1019E0001048016841F4700101600F48016841F03E
:1019F000010101600C4A00210832116002680B4BA2
:101A00001A400260031D0A4A1A60026822F480220A
:101A1000026005480C3001600249580680390860B0
:101A20007047000088ED00E000380240FFFFF6FE3E
:101A3000103000243EB50021084607F087FC1F49FE
:101A40001D48204A0860091D6FF07F400860091D8D
:101A50001B4808601C4900208DE80700174B1B48F5
:101A600008331A1F111F02F059FE184802F0C8FF70
:101A7000164C94F829004007204602D502F0E8FFF2
:101A800001E002F0C3FF60680834010E0091C0F36A
:101A90000743C0F30722C1B20DA000F0EDF8607F4C
:101AA000E27FA17F8DE80700237FE27EA17E0DA06B
:101AB00000F0E2F83EBD0000C0A8017A6C010020F1
:101AC000C0A8010149940008F1290008BCC0022007
:101AD00069703A25642E25642E25642E25640A0A31
:101AE000000000006D61633A25642E25642E256494
:101AF0002E25642E25642E25640A0A002DE9F04166
:101B000001680446086920F44052E0681043086107
:101B10002268D06849F20C6188432369A168E569AD
:101B2000194363692B4319430143D1602168486914
:101B300020F44072A06910434861E26964263225AE
:101B4000B2F5004F49494A4822681DD0824201D06F
:101B50008A426AD1FFF7B4FC00EBC00101EB001030
:101B60006168B0468900B0FBF1F1B1FBF8F6FFF710
:101B7000A7FC00EBC00101EB001061688900B0FB1D
:101B8000F1F7FFF79DFC69E0824201D08A4219D14A
:101B9000FFF796FC00EBC00101EB00106168B04656
:101BA0004900B0FBF1F1B1FBF8F6FFF789FC00EB5F
:101BB000C00101EB001061684900B0FBF1F7FFF7CD
:101BC0007FFC18E0FFF766FC00EBC00101EB0010A2
:101BD0006168B0464900B0FBF1F1B1FBF8F6FFF7E0
:101BE00059FC00EBC00101EB001061684900B0FB3B
:101BF000F1F7FFF74FFC00EBC00101EB001061684B
:101C00005FEA4101B0FBF1F1B1FBF8F06FF01801B0
:101C1000484307EB800005EB0011B1FBF8F02168A9
:101C200066F31F108860BDE8F081FFF733FC00EB1E
:101C3000C00101EB00106168B0468900B0FBF1F112
:101C4000B1FBF8F6FFF726FC00EBC00101EB00103A
:101C500061688900B0FBF1F7FFF71CFC00EBC001E5
:101C600001EB001061688900CCE70000001401401E
:101C700000100140FEE700000FB4054B10B503A9AA
:101C8000044A029800F018F810BC5DF814FB00003C
:101C9000C12A00081000002002E008C8121F08C175
:101CA000002AFAD170477047002001E001C1121FDD
:101CB000002AFBD1704700002DE9FF4F8DB09B46F5
:101CC0000F460446002606E025280BD05A460F99F9
:101CD0009047641C761C20780028F5D111B030465E
:101CE000BDE8F08F0025A8460122984900E0054391
:101CF00014F8013F203B02FA03F00842F7D12078A4
:101D00002E2817D114F8010F45F004052A280ED00B
:101D10006FF02F022078A0F1300109290AD808EBD2
:101D2000880102EB410100EB0108641CF2E757F85F
:101D3000048B641C20786C280DD004DC4C2812D055
:101D40006A2811D104E074280DD07A280CD10AE059
:101D500045F4001507E0617845F48015814202D111
:101D6000641C05F58015641C2078692844D008DCC3
:101D70000028B3D0582867D063280FD0642808D132
:101D80003AE0702865D0732812D075285AD0782888
:101D90005AD05A460F999047761CD5E017F8040B95
:101DA0008DF8000000208DF80100E946012003E0D5
:101DB00057F8049B4FF0FF3069074FF0000501D43E
:101DC0000AE06D1C45450DDA8542FADB19F805106D
:101DD0000029F6D106E06D1C8542FCDB19F80510E0
:101DE0000029F8D12E4404E019F8010B5A460F9946
:101DF00090476D1EF8D2A7E00A200021CDE9080126
:101E0000C5F3025002280CD001CFC117021E71F198
:101E100000020CDA0023D0EB030063EB01012D225A
:101E200008E0FF1D27F00707F7E80201EEE72A05A3
:101E300004D52B228DF8282001223CE0EA073AD075
:101E40002022F7E70A2000E010200021CDE9080158
:101E500007E01020002145F00405CDE908014FF00E
:101E60000808C5F30250022810D001CF00214FF01E
:101E7000000A2A0720D52278702A0DD0DDE908C390
:101E80008CF0100C5CEA030C0CD015E0FF1D27F061
:101E90000707F7E80201EAE740228DF828204FF013
:101EA000010A0CE050EA010306D030238DF82830F7
:101EB0008DF82920022292462278582A04D024A2A2
:101EC0000DF120090B9209E026A2F9E7DDE90823CC
:101ED000FEF729FA0B9B9B5C09F8013D50EA0102D1
:101EE000F4D1ADEB090020300890680701D44FF021
:101EF00001080899884503DD0898A8EB000000E078
:101F000000208046002506E00AA85A46405D0F9949
:101F100090476D1C761C5545F6DB04E030205A4690
:101F20000F999047761CB8F10001A8F10108F5DC83
:101F300005E019F8010B5A460F999047761C08994D
:101F4000481E08900029F4DC641CC4E6092801003E
:101F5000303132333435363738396162636465661F
:101F600000000000303132333435363738394142E1
:101F7000434445460000000070B5054600244FF478
:101F80007A7603E0304600F004F8641CAC42F9D3E2
:101F900070BD70B54FF0E02400226569B42148435C
:101FA000A169A3698B42FCD002D2A1EB030102E03C
:101FB000A5EB030631440A4419468242F1D370BDB1
:101FC00070B505460C46880702D007A0FFF754FEFF
:101FD00003F0BCFEE96809682160E9680C60BDE8AF
:101FE000704003F0D3BE00006D656D705F66726572
:101FF000653A206D656D2070726F7065726C792026
:10200000616C69676E65640070B5044603F09EFEFE
:102010000546E06804685CB121680160A00702D051
:1020200006A0FFF729FE284603F0B0FE204670BD4B
:10203000284603F0ABFE002070BD00006D656D709A
:102040005F6D616C6C6F633A206D656D70207072AE
:102050006F7065726C7920616C69676E65640000F1
:1020600070B5094D0646002404EB440005EBC000A2
:10207000017D29B18068B04202D1204600F0F0F81D
:10208000641C0A2CF0DB70BDACBF02202DE9F74FB9
:1020900084B04FF00A0B00240646DA465F46D94664
:1020A00002940194CDF80040464904EB440001EB52
:1020B000C008039098F814500A2F18D035B3012D9A
:1020C00004D0022D02D240A0FFF7D6FD9EB13168A8
:1020D000D8F8040081420ED1069820B1D8F8081033
:1020E0000698814207D1204607B0BDE8F08F002D49
:1020F000E5D127460AE0012D16D0022D06D3B8F807
:1021000012000099884201D3A2460090641C24B2B8
:102110000A2CC9DB059881074FF0FF30E4D40A2F61
:1021200016D018DA3C4636E02649039851F83000BC
:102130000028B8F8120005D002998842E6D3A146DB
:102140000290E3E701998842E0D3A3460190DDE7DE
:102150000599C907C8D05146BAF10A0F0ADA0C46E8
:10216000184801EB440150F8310060B126A0FFF798
:1021700083FD08E05946BBF10A0F03DB4946B9F17C
:102180000A0FB1DA0C460A2C02DB25A0FFF774FD1A
:10219000204600F065F80A2C02DB21A0FFF76CFD59
:1021A000084804EB440100EBC105287D10B121A0D3
:1021B000FFF762FD0EB13068686000206882069803
:1021C000A86090E7ACBF02207374617465203D3D48
:1021D000204554484152505F53544154455F504547
:1021E0004E44494E47207C7C207374617465203EC8
:1021F0003D204554484152505F53544154455F532C
:102200005441424C450000006172705F7461626C21
:10221000655B695D2E71203D3D204E554C4C0000A4
:1022200069203C204152505F5441424C455F534924
:102230005A4500006172705F7461626C655B695D34
:102240002E7374617465203D3D20455448415250C1
:102250005F53544154455F454D50545900000000B0
:1022600070B50B4D00EB4006002455F8360018B150
:1022700002F0EEFE45F8364005EBC6000549047550
:102280004482846044600A68C2608988018270BDAB
:10229000ACBF02201AAC00082DE9F04385B00D0058
:1022A000074609D07C684FF480782088404535D1B6
:1022B0002079062832D105E01AA0FFF7DDFC05B031
:1022C000BDE8F0836079042828D16088082825D1EA
:1022D000D4F80E000490A169686820B1814202D14F
:1022E0000126334601E00026022304F1080291464C
:1022F00004A9284600F088FAE08840450ED16EB166
:10230000022204ABCDE90232291DCDE9001905F105
:10231000220319464A46284600F0B2F9384602F030
:1023200097FECCE76E6574696620213D204E554CC2
:102330004C000000FEB515460E46040002D13DA03B
:10234000FFF79AFC16B93FA0FFF796FC15B940A01D
:10235000FFF792FC2146286800F03CFE08B1404B94
:102360003FE02868C0F303110E2925D0A1686368F7
:1023700000EA01020B409A4208D080B2A0F57E41EB
:10238000A93903D0E068B0B304F10C05354B3648E9
:102390001A7802EB420100EBC1010F7D022F2ED310
:1023A0008F68A7422BD12F6849688F4227D13146C9
:1023B000204600F05BF8FEBD01208DF804000020EF
:1023C0008DF805005E208DF80600687801AB00F0FE
:1023D0007F008DF80700A8788DF80800E8788DF860
:1023E00009004FF40060009004F1220231462046BB
:1023F00000F0B6FAFEBDFFE76FF00300FAE7002237
:1024000002EB420100EBC1010F7D022F08D38F6860
:10241000A74205D12F6849688F4201D11A70C6E7DB
:10242000521CD2B20A2AEBD332462946204600F08B
:1024300071F8DFE76E6574696620213D204E554CCA
:102440004C0000007120213D204E554C4C000000F6
:1024500069706164647220213D204E554C4C00002F
:1024600014AC000848010020ACBF02202DE9F8435D
:102470000646154688461A4802EB450100EBC104A2
:10248000207D022802D217A0FFF7F6FB144A05EBC5
:102490004501207D02EBC1050C35022813D1608A6D
:1024A0000327B0F58E7F04D9211D304600F066F970
:1024B00007E0B0F5877F06D32A46211D304600F09D
:1024C00063F900B927754FF4006000902B4606F1C0
:1024D00022024146304600F043FABDE8F88300008E
:1024E000ACBF02206172705F7461626C655B617287
:1024F000705F6964785D2E7374617465203E3D2061
:102500004554484152505F53544154455F535441E0
:10251000424C45002DE9FC5F8246223001900E4678
:10252000086814464FF0FF374FF0000B514600F09B
:1025300051FD80B93068C0F303110E290BD056B19C
:1025400048B1524601213046FFF7A0FD050005D5F0
:1025500040B2BDE8FC9F6FF00F00FAE77F2D02D379
:1025600030A0FFF789FB05F0FF09324909EB490864
:1025700001EBC805287D50B1012804D0022802D201
:102580002DA0FFF779FBBBF1000F06D104E001207D
:102590002875C5F808A000E034B93146504600F06F
:1025A000EDF80746002CD4D0287D224E02280ED309
:1025B0002B494FF4006005F10C0381F80090009066
:1025C00021465046019A00F0CBF9074628E0012841
:1025D00026D1254668892989884204D1286810B106
:1025E00020A0FFF749FB287B400607D522464FF481
:1025F00020710E2002F008FC044605E02D68002D35
:10260000E8D1204602F010FE44B156F8380008B177
:1026100002F01EFD46F83840002701E04FF0FF377A
:10262000384696E774797065206F766572666C6FD0
:1026300077000000ACBF02206172705F7461626C51
:10264000655B695D2E7374617465203D3D20504566
:102650004E44494E47206F7220535441424C45002E
:10266000480100206E6F207061636B657420717586
:102670006575657320616C6C6F776564210000007F
:102680002DE9FF4F81B09846DDE90FA9DDF838B09C
:1026900006004FF0000702D126A0FFF7EDFA4FF435
:1026A00020721C210E2002F025FA05003ED0688918
:1026B0001C2802D223A0FFF7DFFA6C68119801F002
:1026C000A1FCE08096F82800062802D02A48FFF7EF
:1026D000D3FAD8F80010A160B8F80400A081DAF8A5
:1026E0000010C4F81210BAF80400E082DBF8000011
:1026F000C4F80E00D9F80000A0614FF4807020806B
:1027000008206080062020710420607140F60600D9
:10271000DDE9022300902946304600F021F92846E1
:1027200002F096FC384605B0BDE8F08F4FF0FF3060
:10273000F9E700006E6574696620213D204E554C16
:102740004C000000636865636B20746861742066E8
:102750006972737420706275662063616E20686FA1
:102760006C64207374727563742065746861727030
:102770005F6864720000000080AD0008014A00F04C
:1027800003B8000014AC00087FB5064D031D0124FA
:10279000CDE90035CDE902141E331946FFF770FF6D
:1027A00004B070BD1AAC000870B5164D002400BF0F
:1027B00004EB440005EBC002117DF1B1508A401CCE
:1027C00080B25082B0F5967F0AD2012906D0032943
:1027D0000AD004290AD001290BD00EE0052808D31D
:1027E0002046FFF73DFD08E0042000E002201075C0
:1027F00003E0111D9068FFF7C1FF641C0A2CD7DBB2
:1028000070BD0000ACBF0220F8B5044690F8280067
:102810001F4616460D46062802D01EA0FFF72CFACA
:102820009DB1286888B1214600F0D4FB68B92878AA
:10283000C0F303100E2808D0224639462846FFF779
:1028400025FC002804DA40B2F8BD6FF00F00F8BD97
:1028500000EB40011848022300EBC102137594609D
:102860003368D360B38813820023538250F8315009
:1028700075B140F831304FF400600090334604F1F8
:1028800022022946204600F06BF8284602F0E0FBC1
:102890000020F8BD6E657469662D3E6877616464DA
:1028A000725F6C656E203D3D204554485F4857413E
:1028B0004444525F4C454E00ACBF02202DE9F0412C
:1028C000044640890E270D460E283CD9E07B18B9F6
:1028D00095F82C00401CE073606801788689CA076F
:1028E00014D0012905D006221C49FDF70FFD48B17F
:1028F0000CE0417851B980785E2807D1607B40F0C8
:10290000100002E0607B40F008006073082E03D0E6
:10291000B6F5C16F17D10DE095F82900000712D563
:102920003946204602F09EFC68B92946204600F050
:1029300059FC10E095F82900000704D539462046D7
:1029400002F090FC18B1204602F082FB03E0294619
:102950002046FFF7A1FC0020BDE8F08114AC000880
:102960002DE9F04104461F4690460E46069801F0B8
:1029700049FB05460E21304602F088F818B16FF089
:102980000100BDE8F0817068858139680160B9880F
:102990008180D8F80020C0F80620B8F804104181E2
:1029A00094F82800062802D004A0FFF765F9314604
:1029B0002046A269BDE8F041104700006E657469C9
:1029C000662D3E6877616464725F6C656E206D751C
:1029D0007374206265203620666F722065746865A6
:1029E000726E65745F6F75747075742100000000FD
:1029F00070B50446042001F089FC050001D04CB1FB
:102A00000BE00FA0FFF738F910A0FFF735F94FF0F2
:102A1000FF3070BD15A0FFF72FF96520E56184F840
:102A20002A006E2084F82B00144860611448A061CD
:102A3000204601F03DF9223400202C6070BD0000DA
:102A40000D0A5B4552525D203E3E2000657468656C
:102A5000726E657469665F696E69743A206F757429
:102A6000206F66206D656D6F72790A006E657469FE
:102A70006620213D204E554C4C00000035230008B7
:102A8000F13E00080D4E04464FF0FF373946B0685E
:102A900007F050FC0128F9D1204601F099F9050012
:102AA000F4D006F02FFF226921462846904710B146
:102AB000284602F0CDFA06F045FFE7E75401002072
:102AC00003490A685206FCD5C2B24A60704700004A
:102AD000001001400A46032100F0C0B82DE9FE4F66
:102AE0008A4642490446D1F8088098F80000000759
:102AF000850E142D75D36089042872D36068007820
:102B000000286ED008286CD1486901F11407C0F381
:102B100003120E2A65D08946096800F05BFA002886
:102B20005FD1208908285CD3204600F02EFA0028C7
:102B300057D105F10E010E46204601F0A7FF60B304
:102B40002089411989B288424BD84FF420720E2057
:102B500001F0D0FF060044D0718905F108008142E0
:102B600012D32A4641467068FDF79EFB294630463F
:102B700002F078FB18B11EA0FFF77EF804E02146B2
:102B8000304602F05FF918B1304602F061FA28E0F1
:102B9000204602F05DFA344608E03146204602F055
:102BA00061FB18B120A0FFF767F81AE0294620461C
:102BB000666801F06BFFA0B960683968FF22C160E8
:102BC000D9F81010016100213170718002724181C9
:102BD00001228DE806040A46FF233946204600F00C
:102BE000D1FB2046BDE8FE4F02F032BAD05F012093
:102BF00069636D705F696E7075743A206D6F766988
:102C00006E6720722D3E7061796C6F616420746F05
:102C10002069636D70206865616465722066616912
:102C20006C65640A0000000069636D705F696E7016
:102C300075743A20726573746F72696E67206F7273
:102C40006967696E616C20702D3E7061796C6F618F
:102C500064206661696C65640A0000002DE9FF4725
:102C60009146884606464FF420722421222001F026
:102C700041FF05002DD06889242802D216A0FEF756
:102C8000FBFF6C6877681C2284F8008084F8019050
:102C90004FF00008A4F80480A4F806806868716802
:102CA0000830FDF701FBF868039003A800F00AFD67
:102CB00060B1A4F802800122CDF80080CDE90120A6
:102CC000FF2303AA0021284600F05CFB284602F0FF
:102CD000BFF9BDE8FF870000636865636B20746817
:102CE0006174206669727374207062756620636116
:102CF0006E20686F6C642069636D70206D657373FE
:102D0000616765000A460B21FFF7A8BF10B50020D8
:102D100000F0D4F800F096F8002000F0DBF8022074
:102D2000FFF737F9012000F0C9F80220FFF731F969
:102D3000BDE81040002000F0C1B80000202101488B
:102D4000FEF7A4B9001C02400A4808B5016841F02A
:102D500080010160006800F08000009000F072F8CF
:102D600000F046F8012000F0B5F8BDE80840012069
:102D700000F0A4B83038024010B5002000F09EF8F2
:102D800000F060F8012000F0A5F80220FFF701F93B
:102D9000012000F093F80220FFF7FBF8BDE8104097
:102DA000002000F08BB870B5002506462C4600F0D8
:102DB00031F8002000F082F80220FFF7EAF8012045
:102DC00000F07CF86006040EFFF7B8FF08B1641C41
:102DD000E4B20120FFF7DDF86D1CEDB2082DE8D359
:102DE0001EB1FFF793FF204670BDFFF7C5FFFAE75E
:102DF00000B585B001201021CDE90010029003201C
:102E0000039069460248FEF75BF805B000BD00007C
:102E1000001C024010B50A4C86B020212046FDF768
:102E200097FF0020019020200090012002900320B5
:102E3000039069462046FEF743F806B010BD000037
:102E4000001C024010B5094C86B020212046FDF739
:102E50007FFF01212020CDE900010320CDE90210F0
:102E600069462046FEF72CF806B010BD001C024053
:102E700070B504460025FFF7E5FF002000F01EF8BE
:102E8000200601D5012000E0002000F023F86006B4
:102E9000040E0220FFF77DF8012000F00FF8022059
:102EA000FFF777F8002000F009F80220FFF771F82B
:102EB0006D1C6DB2082DE3DB70BD0000044B08B142
:102EC000012200E0002210211846FEF7E8B80000B9
:102ED000001C0240044B08B1012200E00022202126
:102EE0001846FEF7DCB80000001C024010B5FFF7E2
:102EF000A9FF0120FFF7EEFF0120FFF7DFFF04200D
:102F0000FFF747F80020FFF7E5FF0420FFF741F83F
:102F1000BDE810400020FFF7D1BF10B5FFF792FFCA
:102F20000020FFF7CBFF0020FFF7D4FF0420FFF7BE
:102F300030F80120FFF7CEFF0120FFF7BFFFBDE80B
:102F400010400420FFF725B810B500240120FFF73A
:102F5000C1FF0120FFF71DF8FFF75CFF0120FFF71D
:102F6000ADFF0120FFF715F807E0641CE4B2FA2C6E
:102F700003D9FFF7D2FF012010BDFFF7DFFE0028C5
:102F8000F3D1FFF79BFF002010BD70B5002634463B
:102F9000054612E06989686801F048F82044010C90
:102FA00011FA80F4A87AC00706D08EB10026E0B2EC
:102FB000C4F3072141EA00242D68002DEAD126B18F
:102FC000E0B2C4F3072141EA0024E04380B270BDBF
:102FD0000126ECE7421C12D088B191F82920920713
:102FE0000BD54B68834208D0896800EA01020B4088
:102FF0009A4202D10143491C01D0002070470120B0
:10300000704700002DE9F74F88B004460998002565
:103010001426008CAF1F1438C11700EB5170C0F399
:10302000CF00039060680690017801F00F01052938
:1030300003D038460BB0BDE8F08F6189142903D264
:1030400054A0FEF719FEF4E7C08800F0DBFFC0F3E0
:103050000C0100F4005002910790208914381FFAE7
:1030600080F886E003984FF6FF7101EAC000414600
:10307000404500D9084604904FF4207214210E20D8
:1030800001F038FD5FEA000A7DD0BAF80A00142882
:1030900002D247A0FEF7F0FD1422DAF804000699E8
:1030A000FDF702F9DAF804000590049F31E0608929
:1030B000811B8DB2B04202D245A0FEF7DDFDAF42CA
:1030C00000D23D461DB3052001F006FB5FEA000972
:1030D00056D060684B463044CDE900054122294670
:1030E000002001F00BFE5FEA000B4FD0204602F0FB
:1030F0009BF83B49C9E904145946504601F01AFEB1
:10310000781B07043F0C06D000262468CFE724680C
:103110000026002FCBD1701986B20998008C143884
:1031200040450298C0F30C0001DB079909B140F457
:10313000005000F067FF0599C8800498143080B2F1
:1031400000F060FF059948800598002141810998A9
:1031500051460A9A43699847504601F079FF04990D
:10316000A8EB01001FFA80F8DDE90201084480B2F3
:103170000290B8F1000F7FF475AF00205AE702E02B
:10318000504601F065FF4FF0FF3053E7484600F02E
:10319000C7FAF5E76970345F6672616728293A20DB
:1031A0007062756620746F6F2073686F72740000B0
:1031B00074686973206E6565647320612070627540
:1031C0006620696E206F6E652070696563652100F9
:1031D000702D3E6C656E203E3D20706F666600006F
:1031E000053B00082DE9F047456807460E4628785C
:1031F0000421B1EB101F03D0384601F029FF77E01E
:1032000000074FEA9068688800F0FCFE04463889A1
:10321000A04203D92146384601F0A8FF79894145EB
:10322000EAD33889A042E7D3B8F1140FE4D329696F
:10323000DFF81C91C1F303100E28C9F81410EA68D6
:10324000C9F8102005D0304600F086F850B1344659
:1032500019E096F82900C00702D070680028F6D15E
:10326000002410E099F8140000247F280BD039487E
:10327000046806E0B44203D0204600F06DF810B9AF
:103280002468002CF6D13146D9F81000FFF7A2FED1
:103290000028B1D199F81000C0F303100E28ABD06C
:1032A000002CA9D0E88830F0C00005D0384600F0E6
:1032B000FFF807001CD07D68C9F80850C9E900462E
:1032C000297838460907890EA9F80C10414601F003
:1032D000C9FF687A012818D0062811D011280AD011
:1032E0004D462146D9F81400FFF774FE90B11EE058
:1032F0000020BDE8F0873146384606F053F919E062
:103300003146384603F070FB14E031463846FFF78B
:10331000E5FB0FE0287DC0F303100E2807D04146DF
:10332000384601F00BFF02213846FFF7D3FB384641
:1033300001F08EFE0021C9F80010C9F80410C9F888
:103340000810A9F80C10C9F81010C9F81410CFE72C
:10335000D05F0120E800002010B590F82910C907BF
:103360000CD0416851B1064A52698A4204D00146E4
:103370001046FFF72FFE08B1012010BD002010BD40
:10338000D05F0120FEB5DDE90954089E1AB109B1EC
:103390000F6807B9211D0096CDE9015400F002F82D
:1033A000FEBD00002DE9F84F0546DDE90BA8807B46
:1033B000DDF828B01F4616468946012802D02BA00A
:1033C000FEF75AFC6FF0010486B31421284601F081
:1033D0005DFB60BB68896C68142802D226A0FEF7EA
:1033E0004BFC277284F809A03068206145202070CA
:1033F00084F801B0288900F005FE2B4F60804FF063
:10340000000AA4F806A0388800F0FCFDA0803888E7
:10341000401C3880B9F1000F05D0D9F80000E060F9
:10342000A4F80AA00EE021480068F8E700E002E0F6
:103430006889142802D22046BDE8F88F68686E4675
:1034400000690090B8F8200040B12989814205D96F
:10345000324641462846FFF7D5FDEDE7D8F814304F
:103460004046324629469847E6E70000702D3E72F6
:103470006566203D3D203100636865636B2074689C
:10348000617420666972737420706275662063616E
:103490006E20686F6C642073747275637420697039
:1034A0005F686472000000004A01002010AC000850
:1034B0002DE9F05F45688346287800F00F00052865
:1034C0007DD1E88800F09EFDC004070C688800F0FC
:1034D00099FD29780907890E814270D8401A1FFA90
:1034E00080F8584601F086FC664C06462088304439
:1034F0000A2809D93146284600F0AEFA00285ED0E5
:10350000208830440A28E8D8A14664684FF0000AB1
:103510000CE06069E968884207D1A069296988429E
:1035200003D1A089A988884203D02468002CF0D157
:1035300006E02CB1E88800F065FDC0041BD025E052
:10354000042001F0C9F804000AD13146284600F0F1
:1035500083FAB04233DB042001F0BEF804002ED021
:103560002021FCF7C8FE0F20E077D9F80410216075
:10357000C9F8044004E0E08900F044FDC00405D02F
:103580001422294604F10800FCF78EFEA87940F3C6
:1035900040156D1C08D007EB080080B2B8425FD31D
:1035A0004FF6EB7188425BD82A465946204600F018
:1035B000C9F8411C54D0B9F80020324400E05CE066
:1035C000A9F8002035B107EB0801A183A17F41F0E4
:1035D0000101A177012841D1A08B1422143087B2B8
:1035E000606804F10801456828462E68FCF75CFE17
:1035F000384600F007FD6880A5F806A0A5F80AA0E7
:10360000656809E014213046776801F02BFE3146E9
:10361000284601F08FFB3E68002EF3D1D9F8041044
:103620004E468C4205D1002105E00868A04202D038
:1036300001460029F9D1204600F060F9284601F042
:10364000D9FB04463088A04202D20FA0FEF714FB3B
:103650003088001B30802846BDE8F09F0020FBE743
:10366000606850B9D9F80400844202D00DA0FEF77A
:1036700003FB0021204600F041F9584601F0E8FC28
:10368000ECE700004C01002069705F7265617373A4
:103690005F70627566636F756E74203E3D20636C6B
:1036A000656E00006E6F74206669727374616C746D
:1036B000686F756768206A75737420656E717565CB
:1036C0007565640070B50446134813E090F829103E
:1036D000CA070FD04A070DD543685BB182682568D9
:1036E000134005EA02069E4214D0890702D4C1683D
:1036F0008D420FD000680028E8D10848006840B12A
:1037000090F82910CA0704D0490702D5416800295A
:1037100000D1002070BD0000E8000020EC00002077
:1037200010B5040002D104A0FEF7A6FA2146BDE8B8
:103730001040052000F08CBF7020213D204E554CDC
:103740004C0000002DE9F05F4C68064693460F469A
:1037500000254FF00108608800F054FC21784FF0FC
:10376000FF3A0907890E814231D8A0EB0109E088B0
:1037700000F048FCC0047C68010C0020206001EBD4
:10378000090083B2A180E3808B4220D3726829E0D4
:103790005068B0F804C0614515D222606DB1B5F82B
:1037A00006C0614513D38088834210D82F60A0885B
:1037B000844506D04FF0000803E08088834206D895
:1037C00077608AB126E002D0C288914202D2504688
:1037D000BDE8F09F25B1EA88624501D04FF00008AE
:1037E00002680546002AD3D175B1E888A1888842CD
:1037F00002D91FA0FEF740FA2F60E888A18888420E
:1038000008D04FF0000805E0706810B120A0FEF766
:1038100033FA7760BBF1000F02D1B07FC007D7D079
:10382000B8F1000F22D0726802B350688088E8B9FE
:103830002168204629B14C68C088A1888842F7D009
:1038400014E0B8F1000F11D012B91FA0FEF714FA5E
:1038500070684068A04202D11BA0FEF70DFA2068F4
:1038600010B11DA0FEF708FA0120B1E70020AFE774
:10387000636865636B20667261676D656E74732043
:10388000646F6E2774206F7665726C617000000043
:103890006E6F2070726576696F75732066726167EE
:1038A0006D656E742C2074686973206D7573742057
:1038B000626520746865206669727374206672613F
:1038C000676D656E7421000073616E6974792063A1
:1038D0006865636B0000000076616C696461746503
:1038E0005F646174616772616D3A6E6578745F7070
:1038F000627566213D4E554C4C00000070B5044683
:1039000009480D464168A14202D12168416005E0A5
:1039100015B906A0FEF7B0F9206828602146BDE879
:103920007040042000F094BE4C01002073616E6969
:10393000747920636865636B206C696E6B656420C5
:103940006C697374000000002DE9F04705460024FF
:103950000F46A94202D126A0FEF78EF92FB1386892
:10396000A84202D025A0FEF787F96E684FF4803890
:1039700070688188B9B900686860142205F108018F
:103980007068FCF791FC01213046FFF7BBF9304627
:1039900001F030FA0446404502D31DA0FEF76CF951
:1039A000304601F055FB6E680FE07068B14606685E
:1039B000484601F01FFA0444444502D314A0FEF720
:1039C0005BF9A4B2484601F043FB002EEDD1394625
:1039D0002846FFF793FF164D2888A04202D215A073
:1039E000FEF74AF92888001B28802046BDE8F087AA
:1039F0007072657620213D20697072007072657664
:103A00002D3E6E657874203D3D2069707200000087
:103A100070627566735F6672656564202B20636CE7
:103A2000656E203C3D2030786666666600000000CA
:103A30004C01002069705F72656173735F7062751D
:103A400066636F756E74203E3D2070627566735FAD
:103A500066726565640000002DE9F0471D4F8946D8
:103A6000064600240022134611461546786822E0D7
:103A7000D0F814C0D6F80C80C4450BD1D0F818C0CB
:103A8000D6F81080C44505D1B0F80CC0B6F8048053
:103A9000C44509D06D1C2AB190F81FC092F81F8050
:103AA000C44501D802461946D0F800C0BCF1000F49
:103AB00000D0034660460028DAD11AB11046FFF75D
:103AC00043FF04444C4501DA012DCBDC2046BDE820
:103AD000F08700004C01002070B5094800254468BB
:103AE0000BE0E07F20B1401EE0772546246804E02B
:103AF000204624682946FFF727FF002CF1D170BD2E
:103B00004C01002010B5040002D106A0FEF7B4F865
:103B1000606908B101F09CFA2046BDE81040FFF74B
:103B2000FFBD000070637220213D204E554C4C00BB
:103B30001CB52648FCF7B9FD0121072001F004FC63
:103B40006420FEF719FA0021072001F0FDFB642034
:103B5000FEF712FA1E48016841F0010101600220DF
:103B600000218DF800008DF8011018488DF8021022
:103B70008DF804108DF803108DF80510154A0260B9
:103B800001229303C0E90123D302C3600182C0F87C
:103B900014D0C0E90621D1050162FCF723FE040020
:103BA00012D00DA0FEF768F808490423124AC83164
:103BB0000648FCF73EFD114A0423A2F58071034834
:103BC000FCF7FDFC20461CBD0DA0EBE7B801002072
:103BD0000090024000800240657468206861726451
:103BE0007761726520696E6974206661696C642E04
:103BF0002E2E0D0A00000000D01A00200003002025
:103C000065746820686172647761726520696E69A5
:103C10007420737563636573732E2E2E0D0A000076
:103C2000012211460148FDF73ABA000000040240A3
:103C3000012202210148FDF732BA000000040240CF
:103C400002210148FDF727BA0004024070B512486E
:103C500086B0016841F0020101600068012400F0B3
:103C600002000E4E009403250590019469463046EB
:103C7000CDE90245FDF724F90220CDE900046946AB
:103C80003046CDE90245FDF71BF9FFF7C9FFFFF705
:103C9000CFFF06B070BD0000303802400004024083
:103CA0004FF4FA74FFF7CCFF204605F017FFF9E751
:103CB00038B5044690F8290040F00401062084F845
:103CC0002800022084F82200002084F8230084F8D1
:103CD000240084F8250084F8260084F8270040F2A8
:103CE000DC50208441F00A0084F8290000212820BB
:103CF00006F0C8F8234988600021224802F0D2F873
:103D000028B921A0FDF7B8FF23A0FDF7B5FF1D4896
:103D10003221001D02F072F828B91BA0FDF7ACFF9C
:103D200021A0FDF7A9FF0120C302009022462349EC
:103D300023A002F005F9002205213D20FDF712FA2B
:103D40003D20FDF703FA2048016841F00071016051
:103D5000016801F000710091016841F0806101602B
:103D6000016801F080610091016841F0006101602B
:103D7000006800F000600090BDE838401348FCF790
:103D8000E3BE0000540100200D0A5B444542554744
:103D90005D203E3E200000007379735F73656D5FA8
:103DA0006E6577206F6B0A007379735F6D626F7851
:103DB0005F6E6577206F6B0A00000000852A00089F
:103DC000455448494E00000030380240B8010020F8
:103DD0002DE9F84F0020044600903248FCF788FC9B
:103DE00040B131A0FDF748FF32A0FDF745FF0020AC
:103DF000BDE8F88F2B48818FD0F840908DB233A06A
:103E0000FDF73AFF294635A0FDF736FF7DB34FF4A5
:103E1000C1722946002000F06DFE009038B32148A1
:103E2000009D40F2F45BD0F830806E8900270FE0EF
:103E3000A4F2F4525242FCF737FAD8F80C0080464C
:103E4000D0F808903F1BAAF2F456002407F2F4576A
:103E5000686806EB040ADA4509EB04013844E7D840
:103E60003246FCF721FA2D683444002DDDD10D488F
:103E70000022016B05E00B6843F000430B60C9684A
:103E8000521C836B9342F6D800218163006800F5D1
:103E900080504269120602D58022426181600098FA
:103EA000A6E70000B80100200D0A5B4552525D20D4
:103EB0003E3E200072656365697665206672616DBD
:103EC00065206661696C640A000000000D0A5B49A8
:103ED0004E464F5D203E3E20000000007265636547
:103EE000697665206672616D652025640A000000B0
:103EF0002DE9F05F31480D46C06840B92F480021D8
:103F00000C3001F0CFFF2D480C3001F0F9FF2C48A8
:103F10004FF0000B5C46C66AD6F808A0306800284F
:103F200013DB264800210C3001F015FF2DE06F89CE
:103F30004FF0000819E000BFA4F2F4525242FCF71F
:103F4000B3F9F6683068002802DA6FF0070423E05E
:103F5000D6F808A0A8EB040000F2F458ABEB04007C
:103F6000A9F2F45700F2F45B002407EB040940F2D5
:103F7000F4506968814541440AEB0400DCD83A46B4
:103F8000FCF792F92D683C44BB44002DCFD1594633
:103F90000B48FCF71BFE00240948006800F5805020
:103FA0004169890603D52021416100214160034810
:103FB0000C3001F0A5FF2046BDE8F09F5401002021
:103FC000B801002010B504464068804701F062FF48
:103FD000094A216852688B181A1AB2F1004F03D3AC
:103FE00008442246054902E0044922461846BDE835
:103FF000104002F003B8000034010020C53F000863
:1040000000BA704740BA704710B501F0E3FE00F007
:1040100049F900F03BFB00F08FFC05F0C1FA02F01B
:10402000E1FCBDE8104002F035B8000018B50022F0
:10403000ADF8002010F001030CD000290ADD10F8C3
:10404000014B8DF80140491E04E000BF30F8024BDF
:10405000891E22440129F9DC002902DD00788DF84F
:104060000000BDF800001044010C11FA80F0010CB2
:1040700011FA80F023B1C1B2C0F3072040EA012059
:1040800080B218BD1CB5FDF71DF8FDF767FCFFF702
:10409000DDFD4FF4E13005F0B1FB4FF4FA7405E0BB
:1040A00018A0FDF7E9FD2046FDF766FF01F00EF9C7
:1040B0000028F5D105E018A0FDF7DEFD2046FDF74C
:1040C0005BFFFFF735FD0028F5D1012017490502F8
:1040D000CDE9000100232A4615A1184806F01CFA74
:1040E00012490220091DCDE9000100232A4614A12E
:1040F000164806F011FA05F0C7FD2046FDF73CFF13
:10410000FBE70000706366383537345F696E6974A9
:104110002065726F720D0A006C616E383732305F45
:10412000696E69742065726F720D0A0000000020CC
:1041300073746172745F7461736B0000FD5C0008DE
:104140006C65645F7461736B00000000A13C000843
:104150002DE9F041002853D0810701D029A00AE0C1
:10416000314DA0F1080429688C4203D369680C30F2
:10417000884203D92DA0FDF77FFD2BE02A480830A7
:1041800001F05EFE207958B32888201A86B2208874
:1041900001F02CFD0746608801F028FD21884FF4CE
:1041A0007053002299420DD8618899420AD8B142D1
:1041B00002D00088B04205D16868874212D0788862
:1041C000B0420FD020A000BFFDF756FD16480830C2
:1041D00001F05AFE01F0BAFDBDE8F04101F0D6BD94
:1041E00026A0F1E72271E868844200D2EC60204604
:1041F00001F0D0F8BDE8F0410B48083001F044BEB2
:10420000BDE8F0816D656D5F667265653A2073612A
:104210006E69747920636865636B20616C69676E91
:104220006D656E7400000000A00000206D656D5F7C
:10423000667265653A20696C6C6567616C206D65B6
:104240006D6F7279000000006D656D5F6672656567
:104250003A20696C6C6567616C206D656D6F727971
:104260003A206E6F6E2D6C696E6B65643A20646FD8
:1042700075626C6520667265650000006D656D5F36
:10428000667265653A20696C6C6567616C206D6566
:104290006D6F72793A20646F75626C652066726525
:1042A0006500000070B51048104C20F003014FF479
:1042B000705521600D80002048800871284601F06B
:1042C00095FC012160600171058045802068E060F7
:1042D00004F1080001F0BAFD002804D0BDE87040E8
:1042E00003A0FDF7C9BC70BDEB5F0120A00000205A
:1042F0006661696C656420746F20637265617465C2
:10430000206D656D5F6D7574657800002DE9F0476F
:1043100000280ED0C41C4FF6FC710C404FF47059AD
:104320000C2C01D20C2401E04C4501D8844202D26D
:104330000020BDE8F0873A4801F082FD3848C4F516
:1043400070570838824681890288891A8EB260E0E7
:10435000304601F04BFC05460079002856D12888EC
:10436000801B0838A04251D3288804F11401801B17
:1043700008384FF00108884219D33019083087B245
:104380004F4502D127A0FDF777FC384601F02EFCFF
:10439000002101712988018046802F8085F80480E2
:1043A0000088484505D001F021FC478001E085F8F0
:1043B0000480DAF80C005646854203D010E00088ED
:1043C00001F014FC017911B171688842F7D1F060F5
:1043D0007168884204D0007910B117A0FDF74CFC39
:1043E0000F4801F051FD281971680830884202D940
:1043F00018A0FDF741FCA80705D022A0FDF73CFC62
:104400002CA0FDF739FC05F1080092E7DAF800006E
:10441000865BB7429CD8024801F036FD88E7000071
:10442000A8000020696E76616C6964206E657874FE
:1044300020707472000000006D656D5F6D616C6CC2
:104440006F633A20216C667265652D3E75736564F5
:10445000000000006D656D5F6D616C6C6F633A20EC
:10446000616C6C6F6361746564206D656D6F7279EA
:10447000206E6F742061626F76652072616D5F657A
:104480006E642E006D656D5F6D616C6C6F633A20BC
:10449000616C6C6F6361746564206D656D6F7279BA
:1044A0002070726F7065726C7920616C69676E65DF
:1044B000642E00006D656D5F6D616C6C6F633A20FA
:1044C00073616E69747920636865636B20616C69E0
:1044D000676E6D656E74000002490988401A80B2EB
:1044E00070470000A00000202DE9F05F0646CC1CBC
:1044F0004FF6FC7004404FF4705A0C2C01D20C247F
:1045000001E0544527D88C4225D33D4F3868864278
:1045100002D37868864202D33AA0FDF7ADFB386833
:10452000864202D379688E4204D301F00FFC01F079
:104530002DFC15E0A6F10805BB46281A87B228888D
:10454000C01B08381FFA80F94C4502D933A0FDF78B
:1045500093FB4C4503D94FF00000BDE8F09F01D11B
:104560003046FAE7264800F1080001F069FC288887
:1045700001F03CFB8046007930B304F1140048455B
:104580001DD83819083084B22888504502D12BA094
:10459000FDF772FB204601F029FBDBF80C2090426E
:1045A00001D2CBF80C0000210171298801804780DD
:1045B0002C800088504502D001F018FB4480104840
:1045C000083001F061FCCBE72888504502D11BA0E0
:1045D000FDF752FB38190830DBF80C10B8F80090E2
:1045E00084B2414504D1204601F000FBCBF80C0019
:1045F000204601F0FBFA00210171A0F80090D6E7F7
:10460000A00000206D656D5F7472696D3A206C6565
:1046100067616C206D656D6F727900006D656D5F0F
:104620007472696D2063616E206F6E6C792073689F
:1046300072696E6B206D656D6F727900696E76615F
:104640006C6964206E6578742070747200000000DC
:104650000D2802D305A0FDF70FBB002904D00A4A9C
:1046600052F82000FDF7ACBC704700006D656D701E
:104670005F667265653A2074797065203C204D450F
:104680004D505F4D4158000070AB000830B5064DED
:10469000002400BF55F8240000F008F8641CA4B200
:1046A0000D2CF7D330BD000070AB0008C2680021AC
:1046B00011608168C91C21F00301002207E0C36872
:1046C000521C1B680B60C368196083881944C38837
:1046D0009342F4DC7047000010B50D2804D306A007
:1046E000FDF7CAFA002010BD0B4951F82000BDE8C3
:1046F0001040FDF789BC00006D656D705F6D616CE9
:104700006C6F633A2074797065203C204D454D50A4
:104710005F4D41580000000070AB00082DE9F041EA
:104720000400DDE90770069D02D01FB131B106E03B
:104730002CA000E032A0FDF79FFA1CE0394902B935
:10474000384A03B9374B00266660A660DFF8D8C048
:10475000C4F814C0E660268484F82960E561334D0E
:1047600095F800C084F82CC02061204600F018F9AC
:104770002046B84710B10020BDE8F0814FEA060896
:1047800094F82C00FF2801D184F82C8000276E6853
:1047900018E0A64202D126A0FDF76EFA7F1CFF2F7B
:1047A00002DD28A0FDF768FA96F82C0094F82C108A
:1047B000884206D1C8B2401C84F82C00002EDFD1FC
:1047C00002E03668002EE4D194F82C00FE2806D0D2
:1047D000401C28706868206020466C60CCE785F833
:1047E0000080F7E76E657469665F6164643A20690A
:1047F0006E76616C6964206E657469660000000005
:104800006E657469665F6164643A204E6F20696EFC
:1048100069742066756E6374696F6E20676976656A
:104820006E00000010AC000899490008E400002068
:104830006E6574696620616C72656164792061647B
:1048400064656400746F6F206D616E79206E6574AD
:104850006966732C206D61782E20737570706F728D
:10486000746564206E756D626572206973203235DF
:104870003500000070B50C46054602F005FD2146E6
:104880002846BDE8704004F09FBF0A68C3689A429A
:1048900004D001B90022C260012070470020704797
:1048A000F8B516460C00054602D10FA0FDF7E4F955
:1048B00016B90DA0FDF7E0F920686968884211D0AB
:1048C00000906868306069463046FFF7D3FF3CB11E
:1048D000206868600121284600F030F80120F8BD0A
:1048E0000020F6E70020F8BD696E76616C696420EF
:1048F000706F696E746572000A6883689A4204D0AA
:1049000001B900228260012070470020704700003A
:1049100001000CD00748406807E000BF90F82C2049
:10492000521CD2B28A4203D000680028F6D100207F
:1049300070470000E40000207047000070B50D468D
:10494000040002D10BA0FDF797F994F82900410764
:104950000ED5C1070CD0E9070AD06168002907D03D
:10496000000705D5211D2046BDE87040FDF706BFB4
:1049700070BD00006E657469665F69737375655F0D
:104980007265706F7274733A20696E76616C6964D7
:10499000206E6574696600006FF00B0070470000C0
:1049A0002DE9F84F4FF000091D4616460C008246CF
:1049B000C84600D1114C06B9104E05B90F4DACB127
:1049C000206898B100274A4631465046FFF794FFC9
:1049D000424629465046FFF758FF002F04D16A4649
:1049E00021465046FFF75CFFBDE8F88F01276A4675
:1049F00021465046FFF754FFE5E7000010AC0008E1
:104A00000149886070470000E400002058B190F828
:104A10002910CA070AD001F0FE0180F82910090701
:104A200004D5FDF71DBB02A0FDF726B970470000B5
:104A30006E657469665F7365745F646F776E3A2044
:104A4000696E76616C6964206E6574696600000049
:104A500050B190F82910CA0709D141F0010180F83E
:104A600029100321FFF76ABF01A0FDF705B97047C0
:104A70006E657469665F7365745F75703A20696E00
:104A800076616C6964206E6574696600002200F0CE
:104A900001B8000070B5A0B1B1F5803F21D2A1B13D
:104AA00004898BB214FA81F5ADB29D4219D3057B0E
:104AB0002D060CD54268511A00F11002914210D314
:104AC00008E009A0FDF7D8F80BE0002070BD42B166
:104AD0004268511A4160418919444181E1180181BC
:104AE000F3E7012070BD00007020213D204E554CA1
:104AF0004C0000002DE9FC5F054690460F4610462D
:104B0000012A0BD0412809D0B0F5C17F0CD0B2F5F5
:104B1000207F49D03AA0FDF7AFF86FE002460020B1
:104B200000F0C4F8044665E00024A1460C20FFF71D
:104B3000D3FD060031D005F1030B2BF00300A0F2EA
:104B4000EC50404280B2B84200D93846824600203C
:104B5000CDE900807019133020F0030153463A4626
:104B6000304600F0F5FA3079800702D02BA0FDF72F
:104B700083F840F27B11B1EB9B0F02D133A0FDF71C
:104B80007BF87CB1C9F80060A7EB0A000704B146C6
:104B90003F0C4FF00005C9D12CE074B3204600F063
:104BA00057FA2BE03446EFE7E81C20F00302F81C2C
:104BB00020F00301501880B200F1100292B281423D
:104BC0001CD891421AD81046FFF7A0FB040015D05C
:104BD0000020CDE900806019133020F003013B462E
:104BE0001A46204600F0B4FA2079800702D024A0AB
:104BF000FDF742F82046BDE8FC9FFFE70020FAE7FA
:104C0000706275665F616C6C6F633A206572726F7B
:104C10006E656F75732074797065000070627566DB
:104C20005F616C6C6F633A207062756620712D3E17
:104C30007061796C6F61642070726F7065726C79ED
:104C400020616C69676E6564000000005042554643
:104C50005F504F4F4C5F42554653495A45206D7542
:104C60007374206265206269676765722074686189
:104C70006E204D454D5F414C49474E4D454E5400C9
:104C8000706275665F616C6C6F633A207062756606
:104C90002D3E7061796C6F61642070726F70657207
:104CA0006C7920616C69676E656400002DE9FC41D8
:104CB00014460E460746412A04D0012C02D00AA011
:104CC000FCF7DAFF0B20FFF707FD05004FF00000AF
:104CD00008D0CDE9004033461A463946284600F050
:104CE00037FA2846BDE8FC81696E76616C696420FC
:104CF000706275665F747970650000007CB51C4653
:104D0000DDE90635C01C20F003004618AE4201D98B
:104D100000207CBD0BB1184400E000200223CDE947
:104D200000230B4601461A46204600F011FA2046A1
:104D30007CBD000070B50D4600B125B9BDE87040DE
:104D40000EA0FCF799BF0446006820B121892A898A
:104D500011442181F7E720896189884207D015A095
:104D6000FCF78AFF206810B11EA0FCF785FF2089A0
:104D7000298908442081256070BD00002868202111
:104D80003D204E554C4C2920262620287420213DBC
:104D9000204E554C4C29202870726F6772616D6DE2
:104DA00065722076696F6C61746573204150492982
:104DB00000000000702D3E746F745F6C656E203DC6
:104DC0003D20702D3E6C656E20286F66206C6173EF
:104DD00074207062756620696E20636861696E294F
:104DE00000000000702D3E6E657874203D3D204E21
:104DF000554C4C00002102E0491C006889B2002893
:104E0000FAD108467047000070B5154613890A4666
:104E10001946FFF76FFE040008D0294600F012F88B
:104E200010B103A0FCF728FF204670BD002070BD24
:104E3000706275665F636F7079206661696C656426
:104E4000000000002DE9F0474FF000070C46050078
:104E50003E466FF00F0904D01CB128892189884291
:104E600001D226A034E06FF0050A6889C11B608971
:104E7000801B814201D3804600E08846606842463C
:104E8000811968683844FBF70FFA6889474446443B
:104E9000B84202D225A0FCF7EFFE6089B04202D2F0
:104EA00028A0FCF7E9FE6089B04201D824680026FA
:104EB0006889B84202D12D6800273DB16CB1608984
:104EC0002189884209D1206870B906E09CB124A0EC
:104ED000FCF7D2FE4846BDE8F08755B168892989BC
:104EE000884206D1286820B121A0FCF7C5FE5046B3
:104EF000F1E7002CB9D10020EDE700007062756683
:104F00005F636F70793A20746172676574206E6FA9
:104F1000742062696720656E6F75676820746F2002
:104F2000686F6C6420736F75726365006F6666737B
:104F300065745F746F203C3D20705F746F2D3E6C14
:104F4000656E00006F66667365745F66726F6D20D4
:104F50003C3D20705F66726F6D2D3E6C656E00008B
:104F6000705F746F20213D204E554C4C00000000B6
:104F7000706275665F636F7079282920646F65734E
:104F8000206E6F7420616C6C6F77207061636B654D
:104F90007420717565756573210000002DE9F04777
:104FA000002716468946B84620B1B9F1000F03D054
:104FB000044625E015A000E01CA0FCF75DFE0020E3
:104FC000BDE8F0872BB16089984202D8181A83B2E5
:104FD00015E06089C01A85B2B54200D935466068CF
:104FE0002A46C11809EB0700FBF75EF908EB05003C
:104FF0001FFA80F8781987B2701B86B200232468E4
:105000000EB1002CDED14046DAE700007062756612
:105010005F636F70795F7061727469616C3A206967
:105020006E76616C696420627566000070627566F8
:105030005F636F70795F7061727469616C3A206947
:105040006E76616C696420646174617074720000D2
:105050002DE9F041040007D05FF0000500F076FE76
:105060000746A07B30B108E01DA0FCF705FE00203C
:10507000BDE8F0811DA0FCF7FFFDA07B401EC6B27D
:10508000A673384600F082FEDEB9207B617B26687D
:1050900000F00F00890708D5206910B919A0FCF7A6
:1050A000EBFD21692046884707E002280BD0012844
:1050B0000CD080B11CA0FCF7DFFD6D1CEDB23400FC
:1050C000CCD12846D4E721460C2001E021460B2014
:1050D000FFF7BEFAF1E72046FFF73AF8EDE70000E8
:1050E0007020213D204E554C4C00000070627566CA
:1050F0005F667265653A20702D3E726566203E20BF
:105100003000000070632D3E637573746F6D5F66D1
:105110007265655F66756E6374696F6E20213D20F0
:105120004E554C4C00000000696E76616C6964203D
:105130007062756620747970650000000122AFF31B
:105140000080002902DA494200F08CB8FFF7A2BCC7
:1051500070B50024DDE90456C0E9004102814381B5
:105160000573467301218173C47370BD70B50D461C
:10517000040002D119A0FCF77FFD2089A8422CD998
:10518000401B86B209E0281A85B22089801B208145
:10519000246814B917A0FCF76FFD6089A842F2D308
:1051A000207B000711D16089A8420ED0607B800768
:1051B0000BD4A088001B284481B22046FFF794F945
:1051C000040002D111A0FCF757FD658125812068FC
:1051D00008B1FFF73DFF0020206070BD706275666A
:1051E0005F7265616C6C6F633A207020213D204EC8
:1051F000554C4C00706275665F7265616C6C6F63D4
:105200003A207120213D204E554C4C006D656D5F5C
:105210007472696D2072657475726E656420712098
:105220003D3D204E554C4C0010B504000ED000F012
:105230008DFDA17B491CA17300F0A8FDA07B002877
:1052400004D1BDE8104002A0FCF716BD10BD00005F
:105250007062756620726566206F766572666C6F27
:105260007700000010B520B1B1F5803F03D30120D5
:1052700010BD0BA005E039B143898AB2934205D233
:105280000AA0FCF7F9FCF2E7002010BD44682144B5
:105290004160991A41810189891A0181F4E700006E
:1052A0007020213D204E554C4C000000696E637209
:1052B000656D656E745F6D61676E69747564652098
:1052C0003C3D20702D3E6C656E000000144810B50A
:1052D000016886B041F0020101600068694600F093
:1052E00002000590002001904FF4805000900120B2
:1052F0000290032003900B48FBF7E2FDFDF724FD2D
:10530000FDF7F4FD4020FDF7B3FDFDF71DFE04465B
:10531000FDF703FEFF2000F027F806B0204610BD81
:10532000303802400004024010B5FDF7DFFD412097
:10533000FDF79EFDFDF708FE0020FDF734FD044655
:10534000FDF7EBFD204610BD70B50C460546FFF796
:10535000EBFF0122AA402CB10243D0B2BDE870405D
:1053600000F002B89043F9E710B50446FDF7BEFD22
:105370004020FDF77DFDFDF7E7FD2046FDF778FDB8
:10538000FDF7E2FDFDF7C9FDBDE810400A20FCF77E
:10539000F3BD00002DE9F041284D04462868844201
:1053A00002D227A0FCF768FC6868844202D32AA0D6
:1053B000FCF762FC207910B12EA0FCF75DFC208880
:1053C0004FF47058404502D931A0FCF755FC2088B5
:1053D00000F00CFC0646B44215D0307998B96868E4
:1053E000864210D0E868B04200D1EC60308820805E
:1053F0003088404507D02046FFF76EF807463088D2
:1054000000F0F4FB4780608800F0F0FBA04212D06F
:10541000017900290FD1E968A14200D1E860218813
:1054200001802188414506D0FFF756F805462088BF
:1054300000F0DCFB4580BDE8F0810000A00000200A
:10544000706C75675F686F6C65733A206D656D2071
:105450003E3D2072616D0000706C75675F686F6C17
:1054600065733A206D656D203C2072616D5F656EDD
:1054700064000000706C75675F686F6C65733A203C
:105480006D656D2D3E75736564203D3D20300000D7
:10549000706C75675F686F6C65733A206D656D2D14
:1054A0003E6E657874203C3D204D454D5F53495A12
:1054B000455F414C49474E45440000002DE9F0410D
:1054C0001E4C0F460546E6682068001D04F0DAF918
:1054D00038B9206890F82C10012088402169814358
:1054E0002161681C15D1A7B11549226848689060F0
:1054F00023688268DA6022688368121D5A60226815
:10550000121D8260206841610868401C0860BDE887
:10551000F08120683544B5424560216805D2E06BD2
:10552000BDE8F041091D04F0D5B9A06B091D04F0D8
:10553000D1F9A06A8542EAD2A562E8E7140000200A
:10554000943300202DE9F041054604F0DBF9364C98
:10555000A068401CA0602068344F10B1606940B35F
:105560002DE02560A068012829D1002606EB8600E1
:1055700007EB800004F0A0F9761C052EF6D32B482B
:10558000643004F099F92948783004F095F92748F7
:105590008C3004F091F92548A03004F08DF92348AF
:1055A000B43004F089F921486430A0631430E0631A
:1055B00005E02068E96AC06A884200D82560606A10
:1055C000401C60622864E96A012022698840104317
:1055D000206101EB810007EB80004068A8608168D2
:1055E000E9608268291D51608160E86A00EB8000F3
:1055F00007EB8001696157F82010491C47F820101B
:1056000004F0A0F9606900280CD02068E96AC06A3B
:10561000884207D206494FF080500860BFF34F8F91
:10562000BFF36F8FBDE8F08114000020E03200204E
:1056300004ED00E010B504F065F90E4C2068A0B947
:105640000D4804F039F90C48143004F035F90A48D3
:10565000E0601430206100220C210A2004F039FCA3
:10566000206010B105A104F0EFF9BDE8104004F08E
:1056700069B9000054000020A8330020546D725115
:105680000000000030B4026C0B46002A0BD0C16849
:105690001144C1608468A14201D30168C16030BC7B
:1056A0001846FAF701BE30BC70472DE9F041856B12
:1056B000174604460026026C82B1C7B1E068FAF7CB
:1056C000F3FDE168206C091AE1602268914202D280
:1056D000A168081AE060022F16D017E02068A8B968
:1056E000A06804F0F7FF06460020A0600EE06068A6
:1056F000FAF7DAFD216C606808446060A1688842AE
:1057000004D32068606001E005B16D1E6D1CA563C7
:105710003046BDE8F08110B50446006B04F026F970
:105720002046BDE8104004F021B900000E484FF4B7
:105730009631420706D0C01D0B4920F00700411AE0
:10574000C1F59631094A00230144C2E90003083932
:10575000143A21F0070111604B600B600B1AC0E98D
:105760000013936053607047D03300207C0000200A
:10577000144E154CA6F1A0074FF08058DFF84C905E
:1057800012E000BF04F0BEF8F068C568281D04F000
:1057900079F8A068401EA0606068401E606004F058
:1057A000D1F82846FFF7B7FF60680028EAD13868CB
:1057B0000128F9D9C9F80080BFF34F8FBFF36F8F6D
:1057C000F2E70000803300201400002004ED00E028
:1057D0002DE9F0470D46DDE9098417468246910020
:1057E0009946089EA522206BFAF77EFD6FF0030113
:1057F000206B01EB8701084420F00707780707D0EA
:10580000502080F31188BFF34F8FBFF36F8FFEE7F7
:1058100065B100202218295C82F83410295C11B18E
:10582000401C0A28F6D3002084F83D00052E07D33B
:10583000502080F31188BFF34F8FBFF36F8FFEE7C7
:10584000E662201DA66404F042F804F1180004F09A
:105850003EF82461C6F105006462A0614A465146E3
:10586000384600F035FA2060B8F1000F01D0C8F8D2
:105870000040BDE8F087000030B5114900E0114656
:105880000A688242FBD34B685C18844203D14068AB
:1058900018444860084643681C18944209D1084CD3
:1058A000143C2468A24209D052681A4442600A6833
:1058B00012680260814200D0086030BD0460F9E7E0
:1058C0007C00002070B5002441600B4D00619142C6
:1058D00006D8D11A8269914206D2011D286907E0D3
:1058E0009A4203D2994201D3012403E0011DE868E2
:1058F00003F0F0FF204670BD5400002010B50446B0
:1059000004F000F8A06B28B15FF0000404F01AF86E
:10591000204610BD0124F9E770B506460D480D4636
:10592000C068C068C468201D03F0ACFF94F828006C
:10593000410705D52A463146204600F0B5F803E078
:1059400000F0FE0084F828002046216ABDE870407F
:1059500008470000540000207FB5374E63E00098F0
:10596000002860DB029C606910B1201D03F08AFFF3
:1059700003A800F0BBF8054600980A2853D2DFE8D8
:1059800000F0520505282E460505282E94F828001B
:105990002A4640F0010084F828000199A069019B83
:1059A00001442046FFF78EFF40B394F828004107DA
:1059B00007D50198A1692A460144204600F074F8F1
:1059C00003E000F0FE0084F82800216A20468847A2
:1059D00029E014F8280F00F0FE00207023E094F86E
:1059E000280040F0010084F828000198A06130B13F
:1059F00041192B461A462046FFF764FF13E050205A
:105A000080F31188BFF34F8FBFF36F8FFEE794F8D9
:105A10002800810703D4204603F0A8FF03E000F02C
:105A2000FE0084F8280000226946306804F0E6FB96
:105A3000002894D17FBD000054000020F8B50D4629
:105A4000064604F059F9684600F050F804460098FC
:105A500010B104F061FFF8BD1148ADB101690968EA
:105A6000D9B10025311B2A46006804F015F804F06E
:105A700053FF0028EFD10B494FF080500860BFF36F
:105A80004F8FBFF36F8FF8BDA642EBD804F044FFF1
:105A900021463046FFF740FFF8BD0125E2E7000050
:105AA0005400002004ED00E070B516460C46054693
:105AB00004E0A869296A044428468847A86923465F
:105AC000011932462846FFF7FDFE0028F1D170BDCE
:105AD0000548816B096821B1816BC96809688162D9
