:020000040800F2
:1000000050040020C5010008A50C0008A10C000840
:10001000A30C00085D020008210F0008000000008A
:10002000000000000000000000000000C90C0008F3
:100030005F02000800000000C70C0008CB0C00089D
:10004000DF010008DF010008DF010008DF01000810
:10005000DF010008DF010008DF010008DF01000800
:10006000DF010008DF010008DF010008DF010008F0
:10007000DF010008DF010008DF010008DF010008E0
:10008000DF010008DF010008DF010008DF010008D0
:10009000DF010008DF010008DF010008DF010008C0
:1000A000DF010008DF010008DF010008DF010008B0
:1000B000DF010008DF010008DF010008DF010008A0
:1000C000DF010008DF010008DF010008DF01000890
:1000D000DF010008DF010008DF010008DF01000880
:1000E000DF010008DF010008DF010008DF01000870
:1000F000DF010008DF010008DF010008DF01000860
:10010000DF010008DF010008DF010008DF0100084F
:10011000DF010008DF010008DF010008DF0100083F
:10012000DF010008DF010008DF010008DF0100082F
:10013000DF010008DF010008DF010008DF0100081F
:10014000DF010008DF010008DF010008DF0100080F
:10015000DF010008DF010008DF010008DF010008FF
:10016000DF010008DF010008DF010008DF010008EF
:10017000DF010008DF010008DF01000800000000C7
:10018000DF010008DF010008DF010008DF010008CF
:10019000DF010008DF010008DF010008DF010008BF
:1001A000DF010008DF010008DF010008DFF810D0E0
:1001B00000F042F80048004799110008AFF30080B2
:1001C000500400200648804706480047FEE7FEE747
:1001D000FEE7FEE7FEE7FEE7FEE7FEE7FEE7FEE7F7
:1001E000550D0008AD010008D2B201E000F8012B66
:1001F000491EFBD270470022F6E710B513460A46A7
:1002000004461946FFF7F0FF204610BD30B50B46F7
:10021000014600202022012409E021FA02F59D4236
:1002200005D303FA02F5491B04FA02F52844151E0A
:10023000A2F10102F1DC30BD064C074D06E0E0689A
:1002400040F0010394E8070098471034AC42F6D31D
:10025000FFF7B0FF98120008B8120008FEE77047D9
:100260002DE9F84FDFF890B100224FF001084FF070
:10027000030A4FF00F090BF1040E00BF0B6808FAD8
:1002800002F42340A3426ED14D68022D01D0122DFD
:100290000ED1D50800EB850CDCF820505607F70E80
:1002A00009FA07F6B5430E69BE402E43CCF820602C
:1002B000066855000F790AFA05FC07F0030726EADD
:1002C0000C06AF40374307604E68012E05D0022E62
:1002D00003D0112E01D0122E0ED18768CE6827EAE6
:1002E0000C07AE403E4386604668A6430C79C4F3D3
:1002F0000014944034434460C4688E6824EA0C04BB
:10030000AE402643C6604C68E4006FD53B4C256880
:1003100045F480452560246822F0030504F48044F8
:100320000094374C2E19D6F8084895072F0F09FA74
:1003300007F5AC43334DA84201D100252EE0324DE4
:10034000A84201D1012529E0304DA84201D1022562
:1003500024E02F4DA84201D103251FE02D4DA842D6
:1003600002D104251AE041E02B4DA84201D1052518
:1003700014E02A4DA84201D106250FE0284DA842DD
:1003800001D107250AE0274DA84201D1082505E043
:10039000254DA84201D1092500E00A25BD4025438D
:1003A000C6F80858DBF800405D464E689C43F603EB
:1003B00000D51C432C60DEF8004075464E689C4317
:1003C000B60300D51C432C600B4D08352C684E68D5
:1003D0009C43F60200D51C432C60074D0C352C685D
:1003E0004E689C43B60200D51C432C60521C102A58
:1003F000FFF444AFBDE8F88F003C014044380240B0
:1004000000300140000002400004024000080240A9
:10041000000C02400010024000140240001802408C
:10042000001C0240002002400024024042694A4071
:10043000426170470AB1816170470904FBE700001F
:100440000148006870470000000000200248016871
:10045000491C016070470000000000200B4810B5E7
:10046000016841F400710160016841F4806101603C
:10047000016841F480710160032000F053F800200E
:1004800000F006F800F016F8002010BD003C024015
:1004900010B5044600F0A4F94FF47A71B0FBF1F006
:1004A00000F0BAFB00222146501E00F01BF800208D
:1004B00010BD00000A4808B5016841F480410160A0
:1004C000006800F4804000900548001F016841F07A
:1004D00080510160006800F08050009008BD00006D
:1004E00044380240F0B40E4B1B680C46C3F30223A1
:1004F000C3F10705042D00D90425191D072901D2D0
:10050000002300E0DB1E012606FA05F1491E21400A
:1005100099409E40761E16403143F0BC00F0C3BBAC
:100520000CED00E0064900F0070208684FF6FF03F3
:10053000184040EA0220034A104308607047000058
:100540000CED00E00000FA052DE9F8431E480168B3
:1005500041F0805101600068012600F08050009059
:10056000300490FAA0F0194FB0FA80F047F82060FC
:10057000FFF766FF05464FF47A78154C05E000BF9B
:10058000FFF75EFF401B404515D86068C003F7D5F4
:100590004FF4003090FAA0F0B0FA80F047F82060F5
:1005A000FFF74EFF0546464608E000BFFFF748FF4D
:1005B000401BB04202D90320BDE8F8836068800385
:1005C000F4D50020F8E700004038024000000E4259
:1005D000007000402DE9F05FDFF8FCA104460F46F3
:1005E000DAF80000DFF8F48100F00F017B4807F033
:1005F000FF0941F2883508F10808B94262D28AF849
:100600000090DAF8001001F00F01B9427ED1217894
:10061000890707D5D8F80020A36822F0F0021A4312
:10062000C8F800202178C9072ED0616801291AD0A6
:1006300002291BD0032919D000688007002865DA39
:10064000D8F80000464620F003000843C8F8000030
:10065000FFF7F6FE07466068012810D002281AD07E
:1006600003281ED029E000688003E7E700688001C6
:10067000E4E700BFFFF7E4FEC01BA84259D830688A
:10068000C0F381000128F5D189E000BFFFF7D8FE53
:10069000C01BA8424DD83068C0F381000228F5D1B4
:1006A0007DE03068FFF7CCFEC01BA842F9D940E0DE
:1006B000FFF7C6FEC01BA8423BD8306810F00C0FF5
:1006C000F6D16CE02178890707D5D8F80020A36817
:1006D00022F0F0021A43C8F800202178C9074CD054
:1006E0006168012928D0022929D0032927D0006870
:1006F0008007002849DAD8F8002022F003020A43D4
:10070000C8F80020FFF79CFE064600E03DE0606868
:1007100001281DD0022829D0032838D0AB464546F1
:10072000286810F00C0F28D0FFF78AFE811B59456E
:10073000F6D90320BDE8F09F00688003D9E7006880
:100740008001D6E7FFF77CFE811B594502D9F0E70F
:10075000AB4645462868C0F381000128F2D10CE081
:10076000FFF76EFE811B594502D9E2E7AB464546CD
:100770002868C0F381000228F2D18AF80090DAF8E4
:10078000000000F00F00B84209D00120D2E7444633
:100790002068FFF755FE801BA842F9D9C9E72078E9
:1007A000400707D5D8F80010E26821F4E051114362
:1007B000C8F800102078000708D5D8F80010226982
:1007C00021F4604141EAC201C8F800100020FFF79F
:1007D0005FFE0020AEE70000003C0240003802400F
:1007E00010B500F043F808490968F02292FAA2F225
:1007F00001F0F001B2FA82F2D140044A515CC840E3
:100800000349086010BD0000083802408812000843
:100810000400002010B5FFF7E3FF074909684FF413
:10082000E05292FAA2F201F4E051B2FA82F2D1401F
:10083000024A515CC84010BD0838024088120008C6
:1008400010B5FFF7CDFF074909684FF4604292FAEF
:10085000A2F201F46041B2FA82F2D140024A515C44
:10086000C84010BD083802408812000830B5194849
:10087000006810F00C01184812D0184C04290ED052
:1008800008290DD11349091F0A6802F03F030A68BD
:10089000550247F6C07204D5B4FBF3F003E02046DE
:1008A00030BDB0FBF3F00B680968134092FAA2F276
:1008B000B2FA82F2D34058434FF4403292FAA2F295
:1008C00001F44031B2FA82F2D140491C4900B0FB38
:1008D000F1F030BD083802400024F40040787D017A
:1008E0002DE9F84F04460078DFF81893C64DC0078D
:1008F0004FF0000648D0D9F800104846C1F38101F6
:10090000012908D00068C0F3810002280AD1281DFF
:100910000068400206D52868800335D56068002845
:100920006FD031E0DFF8E08208F1020888F800605B
:10093000FFF786FD074604E0FFF782FDC01B642831
:100940007ED828688003F7D4207988F80000606892
:1009500068B1FFF775FD074605E000BFFFF770FDC2
:10096000C01B6428ECD828688003F7D50CE0FFF79B
:1009700067FD074605E000BFFFF762FDC01B642866
:10098000DED828688003F7D42078A04F80074FF086
:10099000010B46D5D9F80010484611F00C0F4FF066
:1009A000F80A09D00068C0F3810002280BD19548ED
:1009B000001F0068400206D42868800715D5E0684B
:1009C00001281ED111E0E068E0B1C7F800B0FFF7E0
:1009D00037FD804606E000BFFFF732FDA0EB0800C0
:1009E0006428ADD828688007F6D528689AFAAAF254
:1009F0002169B2FA82F220F0F800914008432860A1
:100A00000FE0FCE03E60FFF71BFD804606E000BF04
:100A1000FFF716FDA0EB0800642811D828688007AE
:100A2000F6D42078000729D5DFF8D8A17848616985
:100A30000AF16C0A99B1C0F800B0FFF701FD00E0BF
:100A400086E0804606E000BFFFF7FAFCA0EB080056
:100A500064287DD8DAF800008007F5D50EE006603E
:100A6000FFF7EEFC804605E0FFF7EAFCA0EB08008C
:100A700064286DD8DAF800008007F5D420784007A4
:100A80005AD560483830016841F0805101600068F3
:100A9000DFF880A100F080500090DAF8001041F4F7
:100AA0008071CAF80010FFF7CBFC804606E000BF5B
:100AB000FFF7C6FCA0EB0800642849D8DAF800006C
:100AC000C005F5D5DFF83C8108F1680888F80060BA
:100AD000FFF7B6FC41F2883A009005E0FFF7B0FC62
:100AE0000099411A514533D8D8F800008007F5D451
:100AF000207A88F80000A06878B1FFF7A1FC009088
:100B000006E000BFFFF79CFC0099411A51456ED8E2
:100B1000D8F800008007F5D50EE0FFF791FC0090B3
:100B200006E000BFFFF78CFC0099411A51455ED8E2
:100B3000D8F800008007F5D4A069E8B3D9F8001010
:100B4000C1F3810102295AD002283E6605D000E097
:100B50004DE0FFF775FC04464CE0FFF771FC0646DC
:100B600005E000BFFFF76CFC801B64283FD82868B5
:100B70008001F7D4D4E90701084347F6C07292FA1E
:100B8000A2F2616AB2FA82F29140A26A4FF0FF3398
:100B900003EB52024FF4403393FAA3F3B3FA83F317
:100BA0009A40114308434FF0706292FAA2F2E16A50
:100BB000B2FA82F2914000E01FE008431149091F98
:100BC0000860C7F860B0FFF73BFC044605E000BFD3
:100BD000FFF736FC001B642809D828688001F7D588
:100BE0000BE000BFFFF72CFC001B642802D9032098
:100BF000BDE8F88F28688001F4D40020F8E70120D0
:100C0000F6E7000008380240003802400000474282
:100C1000800E47420070004010B5401EB0F1807F4A
:100C200001D3012010BD4FF0E02460610F21601757
:100C300000F039F80020A06107202061002010BDDD
:100C400070B5040004D094F83900002510B106E016
:100C5000012070BD84F83850204600F020F80220B2
:100C600084F839002068C16821F40051C160204631
:100C700000F09AF82068016921F490410161206830
:100C8000416921F02A0141612068C16841F40051A5
:100C9000C160E563012084F83900002070BD704711
:100CA000FEE7FEE770470907090E002806DA00F0A4
:100CB0000F0000F1E02080F8141D704700F1E020E3
:100CC00080F80014704770477047FFF7BFBB000003
:100CD00030B593B030216846FFF78DFA14210CA887
:100CE000FFF789FA1948016841F0805101600068F6
:100CF00000F0805011901648016841F440410160B5
:100D00000068022400F440401190012000900190FE
:100D10008005CDE906400F250895D820CDE90904C6
:100D200004200B906846FFF7DBFDFFF70DFC002069
:100D30000C95CDE90D404FF4A0500F90E0021090BB
:100D400005210CA8FFF746FC13B030BD4038024027
:100D5000007000401048016841F4700101600F48C4
:100D6000016841F0010101600C4A00210832116064
:100D700002680B4B1A400260031D0A4A1A6002689F
:100D800022F48022026005480C30016002495806B6
:100D9000803908607047000088ED00E000380240AC
:100DA000FFFFF6FE103000242DE9F04101680446F3
:100DB000086920F44052E068104308612268D06856
:100DC00049F20C6188432369A168E56919436369A5
:100DD0002B4319430143D1602168486920F44072D4
:100DE000A06910434861E26964263225B2F5004FDC
:100DF00049494A4822681DD0824201D08A426AD1BC
:100E0000FFF71EFD00EBC00101EB00106168B0466A
:100E10008900B0FBF1F1B1FBF8F6FFF711FD00EB33
:100E2000C00101EB001061688900B0FBF1F7FFF72A
:100E300007FD69E0824201D08A4219D1FFF700FD27
:100E400000EBC00101EB00106168B0464900B0FB47
:100E5000F1F1B1FBF8F6FFF7F3FC00EBC00101EB99
:100E6000001061684900B0FBF1F7FFF7E9FC18E0FA
:100E7000FFF7D0FC00EBC00101EB00106168B04649
:100E80004900B0FBF1F1B1FBF8F6FFF7C3FC00EB52
:100E9000C00101EB001061684900B0FBF1F7FFF7FA
:100EA000B9FC00EBC00101EB001061685FEA410191
:100EB000B0FBF1F1B1FBF8F06FF01801484307EB1C
:100EC000800005EB0011B1FBF8F0216866F31F10FC
:100ED0008860BDE8F081FFF79DFC00EBC00101EBED
:100EE00000106168B0468900B0FBF1F1B1FBF8F683
:100EF000FFF790FC00EBC00101EB00106168890076
:100F0000B0FBF1F7FFF786FC00EBC00101EB00102E
:100F100061688900CCE70000001401400010014026
:100F2000FEE700000FB4054B10B503A9044A029870
:100F300000F018F810BC5DF814FB00000111000867
:100F40000800002002E008C8121F08C1002AFAD1D8
:100F500070477047002001E001C1121F002AFBD139
:100F6000704700002DE9FF4F89B09B4604460025DD
:100F700006E025280BD05A460B999047641C6D1C3F
:100F800020780028F5D10DB02846BDE8F08F002765
:100F9000B8460122474900E0074314F8013F203BCF
:100FA00002FA03F00842F7D120782E2819D114F85C
:100FB000010F47F004072A280ED06FF02F02207887
:100FC000A0F1300109290CD808EB880102EB41019E
:100FD00000EB0108641CF2E70A98641C50F8048BCB
:100FE0000A9020780028CED0642808D0692806D03E
:100FF00075281ED05A460B9990476D1C58E00A99E7
:101000004FF00A0901C90A91002802DA40422D2155
:1010100002E0390504D52B218DF82010012103E0D1
:10102000F90704D02021F7E78A4608AE0DE0002139
:10103000FAE70A994FF00A0901C90A91F7E7494608
:10104000FFF7E4F8303106F8011D0028F7D1ADEBC9
:10105000060000F12009780701D44FF00108C845C7
:1010600002DDA8EB090000E000208046002706E032
:1010700008A85A46C05D0B9990476D1C7F1C5745C8
:10108000F6DB04E030205A460B9990476D1CB8F10E
:101090000001A8F10108F5DC05E016F8010B5A463D
:1010A0000B9990476D1CB9F10001A9F10109F4DC1D
:1010B000641C65E70928010070B5054600244FF45B
:1010C0007A7603E0304600F004F8641CAC42F9D3B1
:1010D00070BD70B54FF0E02400226569B42148432B
:1010E000A169A3698B42FCD002D2A1EB030102E00B
:1010F000A5EB030631440A4419468242F1D370BD80
:1011000004490A685206FCD5024AC1B2121D116098
:101110007047000000440040012211460148FFF7DB
:1011200089B900000004024001210148FFF77EB99F
:1011300000040240012202210148FFF77BB90000B0
:101140000004024070B5124886B0016841F0020107
:1011500001600068012400F002000E4E0094032597
:101160000590019469463046CDE90245FFF778F8CD
:101170000220CDE9000469463046CDE90245FFF77B
:101180006FF8FFF7C9FFFFF7D5FF06B070BD00008D
:101190003038024000040240ADF56E7DFFF75EF985
:1011A000FFF796FDFFF7CEFF4FF4E13000F028F88F
:1011B0004FF46E7421466846FFF71DF8214607A0DC
:1011C000FFF7B0FE4FF4FA74FFF7AEFF08A0FFF789
:1011D000A9FE2046FFF770FFF6E7000073697A6505
:1011E000206F662062756631203D2025640D0A005F
:1011F00068656C6C6F20776F726C640D0A0000007C
:101200001D4910B50A6886B042F400320A600968C8
:1012100001F400310591184910390A6842F00102C1
:101220000A600968154A01F0010105911449C1E9F4
:10123000002000200C22C1E90520C8610861C860B7
:1012400088600846FFF7FCFC07200490022001900C
:10125000042000900120029003200A4C039069466C
:101260002046FEF7FDFF0820009069462046FEF765
:10127000F7FF06B010BD00004038024000440040B7
:101280000C000020000002400000000001020304E6
:101290000102030406070809B81200080000002034
:1012A0000C000000440F0008C41200080C000020CD
:1012B00044040000540F0008000000000024F40063
:0412C000000000002A
:04000005080001AD41
:00000001FF
