:020000040800F2
:100000000832012085020008890D0008850D0008CE
:10001000870D0008410300081110000800000000CF
:10002000000000000000000000000000C501000802
:10003000430300080000000021020008AB0D000887
:100040009F0200089F0200089F0200089F0200080C
:100050009F0200089F0200089F0200089F020008FC
:100060009F0200089F0200089F0200089F020008EC
:100070009F0200089F0200089F0200089F020008DC
:100080009F0200089F0200089F0200089F020008CC
:100090009F0200089F0200089F0200089F020008BC
:1000A0009F0200089F0200089F0200089F020008AC
:1000B0009F0200089F0200089F0200089F0200089C
:1000C0009F0200089F0200089F0200089F0200088C
:1000D0009F0200089F0200089F0200089F0200087C
:1000E0009F0200089F0200089F0200089F0200086C
:1000F0009F0200089F0200089F0200089F0200085C
:100100009F0200089F0200089F0200089F0200084B
:100110009F0200089F0200089F0200089F0200083B
:100120009F0200089F0200089F0200089F0200082B
:100130009F0200089F0200089F0200089F0200081B
:100140009F0200089F0200089F0200089F0200080B
:100150009F0200089F0200089F0200089F020008FB
:100160009F0200089F0200089F0200089F020008EB
:100170009F0200089F0200089F0200080000000084
:100180009F0200089F0200089F0200089F020008CB
:100190009F0200089F0200089F0200089F020008BB
:1001A0009F0200089F0200089F020008DFF810D09D
:1001B00000F0B4F8004800473D130008AFF300809A
:1001C000083201202C4B19680868B0E8F04F80F322
:1001D0000988BFF36F8F4FF0000080F311887047DC
:1001E0000000000008480068006880F308884FF0AD
:1001F000000080F3148862B661B6BFF34F8FBFF37F
:100200006F8F00DF00BF00BF08ED00E0DFF80C00DB
:10021000016841F470010160704700BF88ED00E0A3
:10022000EFF30980BFF36F8F134B1A681EF0100FA6
:1002300008BF20ED108A20E9F04F106009B44FF09C
:10024000500080F31188BFF34F8FBFF36F8F01F021
:10025000AFFF4FF0000080F3118809BC19680868EF
:10026000B0E8F04F1EF0100F08BFB0EC108A80F31A
:100270000988BFF36F8F70471C000020EFF30580E3
:10028000704700000648804706480047FEE7FEE743
:10029000FEE7FEE7FEE7FEE7FEE7FEE7FEE7FEE736
:1002A000450E0008AD01000840EA01039B0703D09A
:1002B00009E008C9121F08C0042AFAD203E011F8A5
:1002C000013B00F8013B521EF9D27047D2B201E067
:1002D00000F8012B491EFBD270470022F6E710B54B
:1002E00013460A4604461946FFF7F0FF204610BDA4
:1002F00030B50B46014600202022012409E021FAF6
:1003000002F59D4205D303FA02F5491B04FA02F5F2
:100310002844151EA2F10102F1DC30BD064C074D48
:1003200006E0E06840F0010394E8070098471034C5
:10033000AC42F6D3FFF73EFF282C0008482C0008FB
:10034000FEE770472DE9F84FDFF890B100224FF03B
:1003500001084FF0030A4FF00F090BF1040E00BF24
:100360000B6808FA02F42340A3426ED14D68022DB7
:1003700001D0122D0ED1D50800EB850CDCF82050F1
:100380005607F70E09FA07F6B5430E69BE402E432D
:10039000CCF82060066855000F790AFA05FC07F0D2
:1003A000030726EA0C06AF40374307604E68012E6C
:1003B00005D0022E03D0112E01D0122E0ED1876847
:1003C000CE6827EA0C07AE403E4386604668A643E7
:1003D0000C79C4F30014944034434460C4688E68BC
:1003E00024EA0C04AE402643C6604C68E4006FD596
:1003F0003B4C256845F480452560246822F00305C0
:1004000004F480440094374C2E19D6F80848950718
:100410002F0F09FA07F5AC43334DA84201D100254F
:100420002EE0324DA84201D1012529E0304DA842ED
:1004300001D1022524E02F4DA84201D103251FE060
:100440002D4DA84202D104251AE041E02B4DA842CF
:1004500001D1052514E02A4DA84201D106250FE05F
:10046000284DA84201D107250AE0274DA84201D115
:10047000082505E0254DA84201D1092500E00A25FF
:10048000BD402543C6F80858DBF800405D464E687D
:100490009C43F60300D51C432C60DEF800407546F3
:1004A0004E689C43B60300D51C432C600B4D0835A9
:1004B0002C684E689C43F60200D51C432C60074D07
:1004C0000C352C684E689C43B60200D51C432C604A
:1004D000521C102AFFF444AFBDE8F88F003C0140E5
:1004E0004438024000300140000002400004024055
:1004F00000080240000C02400010024000140240BC
:1005000000180240001C024000200240002402406B
:100510000069084000D0012070470AB1816170472E
:100520000904FBE701480068704700001000002044
:1005300002480168491C016070470000100000205B
:100540000B4810B5016841F400710160016841F485
:1005500080610160016841F480710160032000F056
:1005600053F8002000F006F800F016F8002010BD47
:10057000003C024010B5044600F0A4F94FF47A7133
:10058000B0FBF1F000F0BAFB00222146501E00F053
:100590001BF8002010BD00000A4808B5016841F4AE
:1005A00080410160006800F4804000900548001F11
:1005B000016841F080510160006800F080500090B7
:1005C00008BD000044380240F0B40E4B1B680C46D6
:1005D000C3F30223C3F10705042D00D90425191D17
:1005E000072901D2002300E0DB1E012606FA05F1EF
:1005F000491E214099409E40761E16403143F0BC72
:1006000000F0C3BB0CED00E0064900F007020868EB
:100610004FF6FF03184040EA0220034A10430860E7
:10062000704700000CED00E00000FA052DE9F843EA
:100630001E48016841F0805101600068012600F009
:1006400080500090300490FAA0F0194FB0FA80F07A
:1006500047F82060FFF766FF05464FF47A78154C9F
:1006600005E000BFFFF75EFF401B404515D86068FE
:10067000C003F7D54FF4003090FAA0F0B0FA80F044
:1006800047F82060FFF74EFF0546464608E000BFEA
:10069000FFF748FF401BB04202D90320BDE8F883B2
:1006A00060688003F4D50020F8E70000403802407D
:1006B00000000E42007000402DE9F05FDFF8FCA161
:1006C00004460F46DAF80000DFF8F48100F00F016D
:1006D0007B4807F0FF0941F2883508F10808B94264
:1006E00062D28AF80090DAF8001001F00F01B942E6
:1006F0007ED12178890707D5D8F80020A36822F099
:10070000F0021A43C8F800202178C9072ED061688A
:1007100001291AD002291BD0032919D000688007AB
:10072000002865DAD8F80000464620F003000843A8
:10073000C8F80000FFF7F6FE07466068012810D0F1
:1007400002281AD003281ED029E000688003E7E7BA
:1007500000688001E4E700BFFFF7E4FEC01BA84289
:1007600059D83068C0F381000128F5D189E000BF75
:10077000FFF7D8FEC01BA8424DD83068C0F38100F7
:100780000228F5D17DE03068FFF7CCFEC01BA842FF
:10079000F9D940E0FFF7C6FEC01BA8423BD830683D
:1007A00010F00C0FF6D16CE02178890707D5D8F846
:1007B0000020A36822F0F0021A43C8F80020217834
:1007C000C9074CD06168012928D0022929D0032902
:1007D00027D000688007002849DAD8F8002022F0E6
:1007E00003020A43C8F80020FFF79CFE064600E01B
:1007F0003DE0606801281DD0022829D0032838D0A8
:10080000AB464546286810F00C0F28D0FFF78AFE4B
:10081000811B5945F6D90320BDE8F09F006880038D
:10082000D9E700688001D6E7FFF77CFE811B5945B8
:1008300002D9F0E7AB4645462868C0F3810001289D
:10084000F2D10CE0FFF76EFE811B594502D9E2E7B9
:10085000AB4645462868C0F381000228F2D18AF8E9
:100860000090DAF8000000F00F00B84209D0012033
:10087000D2E744462068FFF755FE801BA842F9D90D
:10088000C9E72078400707D5D8F80010E26821F4BE
:10089000E0511143C8F800102078000708D5D8F8B7
:1008A0000010226921F4604141EAC201C8F8001039
:1008B0000020FFF75FFE0020AEE70000003C024092
:1008C0000038024010B500F043F808490968F022EA
:1008D00092FAA2F201F0F001B2FA82F2D140044A97
:1008E000515CC8400349086010BD00000838024050
:1008F000182C00081400002010B5FFF7E3FF07498B
:1009000009684FF4E05292FAA2F201F4E051B2FA0F
:1009100082F2D140024A515CC84010BD0838024002
:10092000182C000810B5FFF7CDFF074909684FF4F0
:10093000604292FAA2F201F46041B2FA82F2D1402E
:10094000024A515CC84010BD08380240182C00080B
:1009500030B51948006810F00C01184812D0184C36
:1009600004290ED008290DD11349091F0A6802F085
:100970003F030A68550247F6C07204D5B4FBF3F092
:1009800003E0204630BDB0FBF3F00B68096813406C
:1009900092FAA2F2B2FA82F2D34058434FF44032B4
:1009A00092FAA2F201F44031B2FA82F2D140491C2B
:1009B0004900B0FBF1F030BD083802400024F400DB
:1009C00040787D012DE9F84F04460078DFF8189350
:1009D000C64DC0074FF0000648D0D9F80010484671
:1009E000C1F38101012908D00068C0F38100022809
:1009F0000AD1281D0068400206D52868800335D535
:100A0000606800286FD031E0DFF8E08208F102086A
:100A100088F80060FFF786FD074604E0FFF782FDD7
:100A2000C01B64287ED828688003F7D4207988F812
:100A30000000606868B1FFF775FD074605E000BF7C
:100A4000FFF770FDC01B6428ECD828688003F7D539
:100A50000CE0FFF767FD074605E000BFFFF762FD0A
:100A6000C01B6428DED828688003F7D42078A04F04
:100A700080074FF0010B46D5D9F80010484611F019
:100A80000C0F4FF0F80A09D00068C0F3810002286B
:100A90000BD19548001F0068400206D428688007E3
:100AA00015D5E06801281ED111E0E068E0B1C7F873
:100AB00000B0FFF737FD804606E000BFFFF732FDCC
:100AC000A0EB08006428ADD828688007F6D5286810
:100AD0009AFAAAF22169B2FA82F220F0F800914063
:100AE000084328600FE0FCE03E60FFF71BFD8046F6
:100AF00006E000BFFFF716FDA0EB0800642811D840
:100B000028688007F6D42078000729D5DFF8D8A117
:100B1000784861690AF16C0A99B1C0F800B0FFF732
:100B200001FD00E086E0804606E000BFFFF7FAFC2A
:100B3000A0EB080064287DD8DAF800008007F5D51E
:100B40000EE00660FFF7EEFC804605E0FFF7EAFCEA
:100B5000A0EB080064286DD8DAF800008007F5D40F
:100B6000207840075AD560483830016841F08051FC
:100B700001600068DFF880A100F080500090DAF892
:100B8000001041F48071CAF80010FFF7CBFC8046DA
:100B900006E000BFFFF7C6FCA0EB0800642849D8B8
:100BA000DAF80000C005F5D5DFF83C8108F16808E7
:100BB00088F80060FFF7B6FC41F2883A009005E043
:100BC000FFF7B0FC0099411A514533D8D8F800001E
:100BD0008007F5D4207A88F80000A06878B1FFF784
:100BE000A1FC009006E000BFFFF79CFC0099411AB1
:100BF00051456ED8D8F800008007F5D50EE0FFF714
:100C000091FC009006E000BFFFF78CFC0099411AB0
:100C100051455ED8D8F800008007F5D4A069E8B344
:100C2000D9F80010C1F3810102295AD002283E668A
:100C300005D000E04DE0FFF775FC04464CE0FFF7FF
:100C400071FC064605E000BFFFF76CFC801B6428C2
:100C50003FD828688001F7D4D4E90701084347F654
:100C6000C07292FAA2F2616AB2FA82F29140A26A6A
:100C70004FF0FF3303EB52024FF4403393FAA3F3E8
:100C8000B3FA83F39A40114308434FF0706292FA2B
:100C9000A2F2E16AB2FA82F2914000E01FE008435A
:100CA0001149091F0860C7F860B0FFF73BFC044614
:100CB00005E000BFFFF736FC001B642809D8286850
:100CC0008001F7D50BE000BFFFF72CFC001B642868
:100CD00002D90320BDE8F88F28688001F4D40020F1
:100CE000F8E70120F6E7000008380240003802402B
:100CF00000004742800E47420070004010B5401E81
:100D0000B0F1807F01D3012010BD4FF0E02460617D
:100D10000F21601700F039F80020A0610720206142
:100D2000002010BD70B5040004D094F839000025EF
:100D300010B106E0012070BD84F83850204600F064
:100D400020F8022084F839002068C16821F400519D
:100D5000C160204600F0A0F82068016921F49041AC
:100D600001612068416921F02A0141612068C16860
:100D700041F40051C160E563012084F8390000208E
:100D800070BD7047FEE7FEE770470907090E0028AF
:100D900006DA00F00F0000F1E02080F8141D704723
:100DA00000F1E02080F80014704710B501F0FEFC5F
:100DB000012801D001F0A4FABDE81040FFF7B8BB4C
:100DC00030B593B030216846FFF787FA14210CA89C
:100DD000FFF783FA1948016841F08051016000680B
:100DE00000F0805011901648016841F440410160C4
:100DF0000068022400F4404011900120009001900E
:100E00008005CDE906400F250895D820CDE90904D5
:100E100004200B906846FFF7D5FDFFF707FC002084
:100E20000C95CDE90D404FF4A0500F90E0021090CA
:100E300005210CA8FFF740FC13B030BD403802403C
:100E4000007000401048016841F4700101600F48D3
:100E5000016841F0010101600C4A00210832116073
:100E600002680B4B1A400260031D0A4A1A600268AE
:100E700022F48022026005480C30016002495806C5
:100E8000803908607047000088ED00E000380240BB
:100E9000FFFFF6FE103000242DE9F0410168044602
:100EA000086920F44052E068104308612268D06865
:100EB00049F20C6188432369A168E56919436369B4
:100EC0002B4319430143D1602168486920F44072E3
:100ED000A06910434861E26964263225B2F5004FEB
:100EE00049494A4822681DD0824201D08A426AD1CB
:100EF000FFF718FD00EBC00101EB00106168B04680
:100F00008900B0FBF1F1B1FBF8F6FFF70BFD00EB48
:100F1000C00101EB001061688900B0FBF1F7FFF739
:100F200001FD69E0824201D08A4219D1FFF7FAFC43
:100F300000EBC00101EB00106168B0464900B0FB56
:100F4000F1F1B1FBF8F6FFF7EDFC00EBC00101EBAE
:100F5000001061684900B0FBF1F7FFF7E3FC18E00F
:100F6000FFF7CAFC00EBC00101EB00106168B0465E
:100F70004900B0FBF1F1B1FBF8F6FFF7BDFC00EB67
:100F8000C00101EB001061684900B0FBF1F7FFF709
:100F9000B3FC00EBC00101EB001061685FEA4101A6
:100FA000B0FBF1F1B1FBF8F06FF01801484307EB2B
:100FB000800005EB0011B1FBF8F0216866F31F100B
:100FC0008860BDE8F081FFF797FC00EBC00101EB02
:100FD00000106168B0468900B0FBF1F1B1FBF8F692
:100FE000FFF78AFC00EBC00101EB0010616889008B
:100FF000B0FBF1F7FFF780FC00EBC00101EB001044
:1010000061688900CCE70000001401400010014035
:10101000FEE700000FB4054B10B503A9044A02987F
:1010200000F018F810BC5DF814FB0000F111000886
:101030001800002002E008C8121F08C1002AFAD1D7
:1010400070477047002001E001C1121F002AFBD148
:10105000704700002DE9FF4F89B09B4604460025EC
:1010600006E025280BD05A460B999047641C6D1C4E
:1010700020780028F5D10DB02846BDE8F08F002774
:10108000B8460122474900E0074314F8013F203BDE
:1010900002FA03F00842F7D120782E2819D114F86B
:1010A000010F47F004072A280ED06FF02F02207896
:1010B000A0F1300109290CD808EB880102EB4101AD
:1010C00000EB0108641CF2E70A98641C50F8048BDA
:1010D0000A9020780028CED0642808D0692806D04D
:1010E00075281ED05A460B9990476D1C58E00A99F6
:1010F0004FF00A0901C90A91002802DA40422D2165
:1011000002E0390504D52B218DF82010012103E0E0
:10111000F90704D02021F7E78A4608AE0DE0002148
:10112000FAE70A994FF00A0901C90A91F7E7494617
:10113000FFF7DEF8303106F8011D0028F7D1ADEBDE
:10114000060000F12009780701D44FF00108C845D6
:1011500002DDA8EB090000E000208046002706E041
:1011600008A85A46C05D0B9990476D1C7F1C5745D7
:10117000F6DB04E030205A460B9990476D1CB8F11D
:101180000001A8F10108F5DC05E016F8010B5A464C
:101190000B9990476D1CB9F10001A9F10109F4DC2C
:1011A000641C65E70928010070B5054600244FF46A
:1011B0007A7603E0304600F004F8641CAC42F9D3C0
:1011C00070BD70B54FF0E02400226569B42148433A
:1011D000A169A3698B42FCD002D2A1EB030102E01A
:1011E000A5EB030631440A4419468242F1D370BD8F
:1011F00003490A685206FCD5C2B24A607047000033
:1012000000100140F0B51F4887B0016841F00101AE
:101210000160016801F001010591016841F0800160
:101220000160016801F080010591016841F004014D
:1012300001600068012500F0040000950590032678
:10124000002402200396CDE9014069460E48FFF7CD
:1012500079F808208DE871000C4F69463846FFF791
:1012600071F804208DE8710069463846FFF76AF886
:1012700068038DE8710069460548FFF763F807B019
:10128000F0BD00003038024000000240001C024067
:101290000008024070B514460D460646FFF738F9BF
:1012A000A0420FD134B129463046FFF731F900286A
:1012B000F9D105E029463046FFF72AF90028F9D090
:1012C000012070BD002070BD012211460148FFF7CA
:1012D00024B9000000040240012202210148FFF766
:1012E0001CB900000004024070B5124886B00168C5
:1012F00041F0020101600068012400F002000E4E7E
:10130000009403250590019469463046CDE90245D5
:10131000FFF718F80220CDE9000469463046CDE910
:101320000245FFF70FF8FFF7CFFFFFF7D5FF06B035
:1013300070BD000030380240000402401CB5FFF7C9
:10134000FFF8FFF73DFDFFF7CFFFFFF75BFF4FF41F
:10135000E13000F0D5FC0D490120CDE9000100236A
:1013600080220BA10D4801F0F3F9012805D00CA053
:10137000FFF750FE4FF0FF301CBD00F0D9FE4FF4D8
:10138000FA742046FFF710FFFBE70000040000207E
:1013900073746172745F7461736B0000691C000880
:1013A0004672656552544F5320737461727420669F
:1013B00061696C65640D0A002DE9F0411E4C0F4611
:1013C0000546E6682068001D00F0DEFC38B920689C
:1013D00090F82C1001208840216981432161681C0C
:1013E00015D1A7B1154922684868906023688268C2
:1013F000DA6022688368121D5A602268121D8260BA
:10140000206841610868401C0860BDE8F0812068E0
:101410003544B5424560216805D2E06BBDE8F04136
:10142000091D00F0D2BCA06B091D00F0CEFCA06A23
:101430008542EAD2A562E8E71C000020CC0100202A
:101440002DE9F041054600F0E5FC364CA068401C53
:10145000A0602068344F10B1606940B32DE0256072
:10146000A068012829D1002606EB860007EB800042
:1014700000F09DFC761C052EF6D32B48643000F05E
:1014800096FC2948783000F092FC27488C3000F018
:101490008EFC2548A03000F08AFC2348B43000F0D0
:1014A00086FC21486430A0631430E06305E02068C6
:1014B000E96AC06A884200D82560606A401C6062A0
:1014C0002864E96A0120226988401043206101EB09
:1014D000810007EB80004068A8608168E96082684D
:1014E000291D51608160E86A00EB800007EB8001F4
:1014F000696157F82010491C47F8201000F0AAFC39
:10150000606900280CD02068E96AC06A884207D266
:1015100006494FF080500860BFF34F8FBFF36F8FC5
:10152000BDE8F0811C0000201801002004ED00E05F
:1015300010B500F06FFC0E4C2068A0B90D4800F00B
:1015400036FC0C48143000F032FC0A48E0601430DD
:10155000206100220C210A2000F0E8FE206010B17A
:1015600005A100F0CFFCBDE8104000F073BC000006
:101570005C000020E0010020546D7251000000006A
:1015800030B4026C0B46002A0BD0C1681144C16014
:101590008468A14201D30168C16030BC1846FEF7DF
:1015A00083BE30BC70472DE9F041856B1746044679
:1015B0000026026C82B1C7B1E068FEF775FEE168F3
:1015C000206C091AE1602268914202D2A168081ACF
:1015D000E060022F16D017E02068A8B9A06801F0DB
:1015E00095F906460020A0600EE06068FEF75CFEFC
:1015F000216C606808446060A168884204D3206858
:10160000606001E005B16D1E6D1CA5633046BDE84C
:10161000F08110B50446006B00F030FC2046BDE8B8
:10162000104000F02BBC00000E484FF496314207EA
:1016300006D0C01D0B4920F00700411AC1F59631B4
:10164000094A00230144C2E900030839143A21F091
:10165000070111604B600B600B1AC0E90013936027
:10166000536070470802002084000020144E154C7F
:10167000A6F1A0074FF08058DFF84C9012E000BFB1
:1016800000F0C8FBF068C568281D00F07DFBA0686D
:10169000401EA0606068401E606000F0DBFB2846D2
:1016A000FFF7B7FF60680028EAD138680128F9D948
:1016B000C9F80080BFF34F8FBFF36F8FF2E70000D0
:1016C000B80100201C00002004ED00E02DE9F047E7
:1016D0000D46DDE909841746824691009946089E29
:1016E000A522206BFEF7F2FD6FF00301206B01EBEA
:1016F0008701084420F00707780707D0502080F3BF
:101700001188BFF34F8FBFF36F8FFEE765B10020E5
:101710002218295C82F83410295C11B1401C0A2877
:10172000F6D3002084F83D00052E07D3502080F327
:101730001188BFF34F8FBFF36F8FFEE7E662201D66
:10174000A66400F03FFB04F1180000F03BFB2461AD
:10175000C6F105006462A0614A465146384600F071
:1017600023FA2060B8F1000F01D0C8F80040BDE8AE
:10177000F087000030B5114900E011460A68824246
:10178000FBD34B685C18844203D14068184448601E
:10179000084643681C18944209D1084C143C24683C
:1017A000A24209D052681A4442600A681268026074
:1017B000814200D0086030BD0460F9E78400002059
:1017C00070B5002441600B4D0061914206D8D11ADA
:1017D0008269914206D2011D286907E09A4203D22C
:1017E000994201D3012403E0011DE86800F0EDFAFD
:1017F000204670BD5C00002010B5044600F00AFBD6
:10180000A06B28B15FF0000400F024FB204610BD5F
:101810000124F9E770B506460D480D46C068C0685A
:10182000C468201D00F0B0FA94F82800410705D5DF
:101830002A463146204600F0B5F803E000F0FE00ED
:1018400084F828002046216ABDE87040084700005F
:101850005C0000207FB5374E63E00098002860DB15
:10186000029C606910B1201D00F08EFA03A800F000
:10187000BBF8054600980A2853D2DFE800F052056D
:1018800005282E460505282E94F828002A4640F003
:10189000010084F828000199A069019B01442046B9
:1018A000FFF78EFF40B394F82800410707D5019851
:1018B000A1692A460144204600F074F803E000F0D4
:1018C000FE0084F82800216A2046884729E014F8A1
:1018D000280F00F0FE00207023E094F8280040F06C
:1018E000010084F828000198A06130B141192B460D
:1018F0001A462046FFF764FF13E0502080F311885A
:10190000BFF34F8FBFF36F8FFEE794F82800810776
:1019100003D4204600F0B2FA03E000F0FE0084F8A1
:10192000280000226946306800F038FE002894D173
:101930007FBD00005C000020F8B50D46064600F0B3
:101940002FFC684600F050F80446009810B101F0F2
:10195000A7F8F8BD1148ADB101690968D9B10025F2
:10196000311B2A46006800F0F5FA01F099F80028CA
:10197000EFD10B494FF080500860BFF34F8FBFF39A
:101980006F8FF8BDA642EBD801F08AF821463046A9
:10199000FFF740FFF8BD0125E2E700005C000020F2
:1019A00004ED00E070B516460C46054604E0A86953
:1019B000296A044428468847A86923460119324603
:1019C0002846FFF7FDFE0028F1D170BD0548816B68
:1019D000096821B1816BC9680968816270474FF05D
:1019E000FF31FAE71C0000202DE9F041064600F027
:1019F000EBFE0E4C0546A068854214D24FF0FF372F
:101A000004E0C06839460068FFF704FFE068016839
:101A10000029F6D12169C4E903100120306028466D
:101A2000A560BDE8F0810020F8E700005C00002020
:101A300008484068401C4FF0500080F3118804D0E3
:101A4000BFF34F8FBFF36F8FFEE7BFF34F8FBFF32F
:101A50006F8FFEE78C000020074CE068016841B101
:101A6000C0680021D0F80000FFF766FFFFF7F2FE24
:101A7000F3E701210020F7E75C0000202DE9F041A9
:101A8000044600F0C7F994F9455004F1240609E032
:101A9000606A48B1304600F095FF08B100F002FBE3
:101AA0006D1E6DB2002DF3DC4FF0FF3684F84560FB
:101AB00000F0D0F900F0AEF994F9445004F11007A9
:101AC00009E0206948B1384600F07CFF08B100F019
:101AD000E9FA6D1E6DB2002DF3DC84F84460BDE8B8
:101AE000F04100F0B7B9000070B50446002600F0E0
:101AF00057FB2C4D286808B9FFF796FD7CB304F01E
:101B00000700C0F11000C1438C423DD821180029C4
:101B10003ADD6868814237D822481430024614689A
:101B200001E02046144662688A4202D22268002AF6
:101B3000F7D12A68944227D006682268026060685C
:101B40000836421A102A0FD96018430708D05020CF
:101B500080F31188BFF34F8FBFF36F8FFEE713E061
:101B600042606160FFF706FE61686868401A68605D
:101B7000AA68904200D2A86041F000406060002056
:101B80002060E868401CE86000F08AFF700707D01A
:101B9000502080F31188BFF34F8FBFF36F8FFEE7A4
:101BA000304670BD7000002010B5031F4FF08074E8
:101BB0001C601B1F21F001011960191F044B0B60F1
:101BC00014390A60091F6FF0020244380A6010BD20
:101BD000311A000808B5064D4FF0FF342246694619
:101BE000286800F0DBFC03A00099FFF713FAF5E783
:101BF0000000002072656365697665206461746128
:101C00002069732025640D0A0000000008B500203B
:101C1000134D144C0090002208212846FFF73AFB90
:101C2000B8B100231A466946206800F007FC00237B
:101C30001A466946206800F001FC00231A466946EE
:101C4000206800F0FBFB00231A466946206800F07C
:101C5000F5FB0098401C0090642000F09DF9DAE745
:101C6000001C0240000000207CB500F0D3F80421E5
:101C70000022084600F05AFB1149086010B111A07B
:101C8000FFF7C8F90E4801240830CDE900402502CD
:101C900000232A4611A1144800F05AFD08480023E9
:101CA0000C30CDE900402A4610A1144800F050FD48
:101CB000002000F097F9BDE87C4000F0CBB80000B0
:101CC000000000206372656174652071756575653B
:101CD00020737563636573730D0A000073656E642A
:101CE0005F7461736B0000000D1C00087265636512
:101CF0006976655F7461736B00000000D51B000896
:101D00001D4910B50A6886B042F010020A600968E1
:101D100001F010010591184914390A6842F00102D6
:101D20000A600968154A01F0010105911449C1E9E9
:101D3000002000200C22C1E90520C8610861C860AC
:101D400088600846FEF7EEFF07200490022001900D
:101D5000000200900120029003200A4C0390694683
:101D60002046FEF7EFFA2015009069462046FEF760
:101D7000E9FA06B010BD00004438024000100140EE
:101D80009800002000000240D0E9013201699A6009
:101D9000D0E901235A604A68824201D182684A60D0
:101DA000002202610868401E08600868704700F160
:101DB00008014FF0FF32C0E90112C160016100214A
:101DC0000160704700210161704730B50B685A1CF3
:101DD00002D000F1080202E0026904E022465468E1
:101DE00025689D42FAD953684B6099608A605160BA
:101DF00008610168491C016030BD42684A6093680F
:101E00008B6093685960916008610168491C0160AA
:101E100070470000502080F31188BFF34F8FBFF34D
:101E20006F8F0A494868401C486001280CD1084857
:101E3000006810F0FF0F07D0502080F31188BFF327
:101E40004F8FBFF36F8FFEE7704700008C000020BC
:101E500004ED00E00849486828B1401E486001D1FF
:101E600080F311887047502080F31188BFF34F8FA3
:101E7000BFF36F8FFEE700008C00002070B50028D4
:101E80002AD0A0F108046068002807DB502080F306
:101E90001188BFF34F8FBFF36F8FFEE7216839B111
:101EA000502080F31188BFF34F8FBFF36F8FFEE791
:101EB00020F00040606000F073F9084D60686968C8
:101EC000084468602046FFF755FC2869401C2861DB
:101ED000BDE8704000F0E4BD70BD0000700000205F
:101EE0004FF0E02000210161816105494FF47A72D1
:101EF0000968B1FBF2F1491E416107210161704798
:101F00001400002070B5002260B100291ED0104CD2
:101F1000002300BF04EBC3056E6886420AD104EBC0
:101F2000C3020FE0502080F31188BFF34F8FBFF33F
:101F30006F8FFEE71AB954F8336006B92A465B1C66
:101F4000082BE7D3002A01D0C2E9001070BD0000C1
:101F5000D800002070B515460E460446FFF75AFF1C
:101F600094F944100020491C01D184F8440094F9EC
:101F70004510491C01D184F84500FFF76BFFA06BA9
:101F800028B92A46314604F1240000F0A9F8204679
:101F9000BDE87040FFF772BD10B5020014D00F48C5
:101FA000406B38B1502080F31188BFF34F8FBFF3DF
:101FB0006F8FFEE700F0F4F800211046FFF7FCF900
:101FC00000F06EFD002807D105494FF080500860F1
:101FD000BFF34F8FBFF36F8F10BD00001C000020B8
:101FE00004ED00E070B50546FFF714FF264C05B977
:101FF0002568281DFFF7C8FE58B9E86A234A00EB98
:10200000800152F8211021B90121814020698843C3
:102010002061A86A18B105F11800FFF7B5FE606AE3
:10202000401C60622068854208D11848291DA030F4
:10203000FFF7E3FE6068401C606004E0A068401E9B
:10204000A060FFF7C3FCFFF705FF2068854202D0C0
:102050002846FFF7DEFA6069002814D02068854220
:1020600011D1606B38B1502080F31188BFF34F8FCE
:10207000BFF36F8FFEE706494FF080500860BFF353
:102080004F8FBFF36F8F70BD1C0000201801002020
:1020900004ED00E002490A6A0260C96841607047C5
:1020A0001C00002001490120C86170471C0000206D
:1020B00010B50C4650B1094909681831FFF785FE83
:1020C0002046BDE810400121FFF776B9502080F38B
:1020D0001188BFF34F8FBFF36F8FFEE71C00002006
:1020E000F0B40C46D0B1114943680D68EB619D68AE
:1020F0000E6835620D689E68183575600D68183574
:102100009D60096888620168491C01600AB14FF04E
:10211000FF342046F0BC1146FFF74EB9502080F343
:102120001188BFF34F8FBFF36F8FFEE71C000020B5
:102130007CB517480025CDE900502B46822215A119
:10214000164800F005FB124C2C3C012803D100F08E
:102150003DFD012802D0401C11D00EE0502080F33C
:102160001188BFF34F8FBFF36F8F4FF0FF30A06226
:1021700001206061E56000F049F8206B7CBD5020D3
:1021800080F31188BFF34F8FBFF36F8FFEE700001E
:102190004800002049444C45000000006D1600082E
:1021A0000248416B491C4163704700001C0000203D
:1021B0001448416B11B10121C16170470021C16117
:1021C0000169B1FA81F1C1F11F0101EB81020E49F0
:1021D00051F822306BB101EB820101F108034A682A
:1021E00052684A609A4201D152684A60D1680160DF
:1021F0007047502080F31188BFF34F8FBFF36F8F6C
:10220000FEE700001C000020180100201CB5374824
:102210000168374A914207D1502080F31188BFF3FB
:102220004F8FBFF36F8FFEE700683149491E884228
:1022300007D1502080F31188BFF34F8FBFF36F8F0A
:10224000FEE72C4908780190FF20087008788DF887
:1022500000009DF800009DF8002000F0F000904282
:1022600007D0502080F31188BFF34F8FBFF36F8FDB
:10227000FEE79DF80000204C00F050002070072081
:10228000A06005E09DF8002052008DF80020401E5F
:102290009DF800201206F5D4A060032807D0502036
:1022A00080F31188BFF34F8FBFF36F8FFEE74FF4BA
:1022B0004070A060019808700C482030016841F41B
:1022C00070010160016841F070410160FFF708FE94
:1022D00000206060FDF79AFF0848016841F0404126
:1022E0000160FDF77FFF00201CBD000000ED00E055
:1022F00071C20F4100E400E08C00002034EF00E0E8
:1023000010B5502080F31188BFF34F8FBFF36F8F4C
:1023100000F060FA18B104494FF0805008600020C6
:1023200080F3118810BD000004ED00E02DE9F041BC
:1023300017460E46050020D04FF0FF30B0FBF5F0F9
:10234000B0421AD305FB06F010F1510F15D85030EA
:10235000FFF7CAFB04000CD004F150005EB120600E
:10236000C4E90F562046012100F010F8204684F8F9
:102370004C70BDE8F0812460F2E7502080F31188B2
:10238000BFF34F8FBFF36F8FFEE700002DE9F041E1
:102390000F4604004FF001062DD0E06B98B3B51E38
:1023A000B5FBF0F1206C81423ED3FFF733FDD4E959
:1023B0000F20216802FB0011A1600021A1632168A8
:1023C00061600A46D4E90F01401E00FB012120464E
:1023D000E16000F8445F457004F11000A7B1FFF719
:1023E000E6FC04F12400FFF7E2FC00BFFFF732FD3A
:1023F0003046BDE8F081502080F31188BFF34F8F45
:10240000BFF36F8FFEE70FE021690029EED000F0E7
:10241000D9FA0028EAD008494FF080500860BFF38D
:102420004F8FBFF36F8FE1E7502080F31188BFF328
:102430004F8FBFF36F8FFEE704ED00E02DE9FF47FC
:1024400082B01D468A464FF00008040003D0BAF15E
:10245000000F08D011E0502080F31188BFF34F8F98
:10246000BFF36F8FFEE7206C38B1502080F31188E6
:10247000BFF34F8FBFF36F8FFEE7022D0AD1E06BE2
:10248000012807D0502080F31188BFF34F8FBFF38E
:102490006F8FFEE700F08AF93F4F4FF000094FF0D1
:1024A000805648B9049838B1502080F31188BFF3A2
:1024B0004F8FBFF36F8FFEE7FFF7ACFCA06BE16BB4
:1024C000884207D3022D05D00498D0B1B8F1000F8F
:1024D0001AD01EE02A4651462046FFF764F8616A8A
:1024E00019B104F1240000F06DFA20B13E60BFF391
:1024F0004F8FBFF36F8FFFF7ADFC012006B0BDE833
:10250000F087FFF7A7FC22E06846FFF7C3FD4FF016
:102510000108FFF79FFCFFF743FEFFF77BFC94F9F0
:102520004400401C01D184F8449094F94500401CBB
:1025300001D184F84590FFF78DFC04A9684600F0AE
:10254000C9F830B12046FFF799FA00F0A9FA002047
:10255000D4E7FFF75FFCA06BE16B884213D1FFF774
:1025600079FC04F110000499FFF7A2FD2046FFF763
:1025700085FA00F095FA00289ED13E60BFF34F8F98
:10258000BFF36F8F98E7FFF765FC2046FFF776FAF9
:1025900000F086FA90E7000004ED00E02DE9F7472F
:1025A000002683B08A46040003D0BAF1000F08D099
:1025B00011E0502080F31188BFF34F8FBFF36F8F6E
:1025C000FEE7206C38B1502080F31188BFF34F8FA5
:1025D000BFF36F8FFEE700F0E9F8DFF8F4804FF00B
:1025E00000094FF0805748B9059838B1502080F362
:1025F0001188BFF34F8FBFF36F8FFEE7FFF70AFC21
:10260000A56BC5B151462046FEF7BAFF6D1EA56306
:10261000206950B104F1100000F0D4F928B1C8F8D5
:102620000070BFF34F8FBFF36F8FFFF713FC0120D4
:1026300006B0BDE8F087059808B11EB106E0FFF7C7
:1026400009FC27E06846FFF725FD0126FFF702FC9D
:10265000FFF7A6FDFFF7DEFB94F94400401C01D113
:1026600084F8449094F94500401C01D184F84590C9
:10267000FFF7F0FB05A9684600F02CF8002820467B
:102680000AD0FFF7FBF900F00BFA2046FFF7B4F889
:102690000028B3D00020CBE7FFF7AEF890B104F1EB
:1026A00024000599FFF704FD2046FFF7E7F900F045
:1026B000F7F90028A2D1C8F80070BFF34F8FBFF31D
:1026C0006F8F9BE72046FFF7D9F900F0E9F995E70E
:1026D00004ED00E02DE9F0410C46050014D0DCB11A
:1026E000FFF798FB194EF2686B682068D11A471CF7
:1026F0001AD02F68D6F820C00026674516D093421E
:1027000014D8012526601BE0502080F31188BFF308
:102710004F8FBFF36F8FFEE7502080F31188BFF318
:102720004F8FBFF36F8FFEE7002509E0884205D980
:10273000401A20602846FFF7ADFCF5E7012526602A
:10274000FFF788FB2846BDE8F08100001C00002050
:102750002DE9FF5F8346DDE90E87994616468A46D6
:102760009000FFF7C1F905001DD05820FFF7BCF914
:10277000040015D05821FDF7B0FD25630021CDE9F7
:102780000241CDE900874B46324651465846FEF796
:102790009DFF2046FEF754FE012004B0BDE8F09FE7
:1027A0002846FFF76BFB4FF0FF30F6E7054841691D
:1027B00019B1406B18B1002070470120704702200A
:1027C000704700001C0000200148C06870470000EE
:1027D0001C0000202DE9F0414A4C0026606B28B116
:1027E000A069401CA0613046BDE8F081E5686D1C21
:1027F000E56013D1A06B006838B1502080F31188D8
:10280000BFF34F8FBFF36F8FFEE7A06BE16BA16348
:10281000E063206A401C2062FFF7D8F8A16A3A48BA
:102820008D420FD34FF0000EA16B096839B1A16B37
:10283000C968C9684A68954212D2A26202E04FF0A4
:10284000FF31A1622168C96A01EB810150F82100C2
:10285000012800D90126E0690028C4D00126C2E77A
:10286000D1E902724B69BA60D1E902277A605F68E8
:102870000A1D974201D1CF685F60C1F814E01F685C
:102880007F1E1F60D1F828C0BCF1000F15D0D1E920
:1028900007379F60D1E907377B60DCF8047001F1EE
:1028A00018039F4202D10B6ACCF80430C1F828E02B
:1028B000DCF800305B1ECCF80030CB6A0127D4F87E
:1028C00010C09F4047EA0C07276103EB830300EB2E
:1028D00083035B688B609F68CF609F687A609A60B3
:1028E000CA6A02EB820200EB82034B6150F822308D
:1028F0005B1C40F82230C96A2268D26A914293D99F
:10290000012691E71C0000201801002070B504008A
:102910004FF000014FD0294D2868844207D0502045
:1029200080F31188BFF34F8FBFF36F8FFEE7E06C2A
:1029300038B1401EE064A36CE26A9A423BD040B1D9
:1029400039E0502080F31188BFF34F8FBFF36F8FB2
:10295000FEE7201DFFF718FA012130B994F82C008A
:102960002A6901FA00F082432A61A06CE062C0F19A
:102970000500A061E06A2A6981401143296110497C
:1029800000EB800001EB80004068A0608268E2609C
:102990008368221D5A608260E06A00EB800001EBD0
:1029A00080006061E06A00EB800051F82020521C3A
:1029B00041F820200121084670BD00001C000020C5
:1029C0001801002070B5C068C06850B3D0E9073264
:1029D000816A9A60D0E907235A604A6800F11803B7
:1029E0009A4201D1026A4A60002585620A68521E35
:1029F0000A6029494A6B0124DAB1284D6A68C2612C
:102A00009668066296687360936085622A68521CB5
:102A10002A60C06A0A68D26A90423AD90120CC6121
:102A200070BD502080F31188BFF34F8FBFF36F8FBD
:102A3000FEE7D0E902634269B360D0E90236736011
:102A40005668031D9E4201D1C668566045611568EF
:102A50006D1E1560C26A0E6904FA02F535430D61F8
:102A60000E4D02EB82028C3D05EB820252688260C1
:102A70009668C660966873609360C26A02EB8202D1
:102A800005EB8203436155F822305B1C45F8223088
:102A9000BFE7002070BD00001C000020A401002042
:102AA0002DE9F041464D00242746686B38B1FFF709
:102AB000B1F9686B401E6863686B40B17AE05020E2
:102AC00080F31188BFF34F8FBFF36F8FFEE7A868C5
:102AD0003C4B00264FF00108F0BB6BE0D868C4689F
:102AE000D4E90721A06A9160D4E9071251604268D5
:102AF00004F118018A4201D1216A4160A66201688D
:102B0000491E0160D4E9022160699160D4E9021292
:102B100051604268211D8A4201D1E26842606661CB
:102B20000268521E0260E26AD5F810C008FA02F08C
:102B300040EA0C00286102EB8200224A8C3A02EB48
:102B400080004068A060D0F808C0C4F80CC0D0F87D
:102B500008C0CCF8041000E012E08160E06A00EBED
:102B6000800002EB8001616152F82010491C42F89C
:102B70002010E06A2968C96A884201D3C5F81C8020
:102B800018680028AAD10CB1FEF720FFAC693CB14F
:102B9000FFF720FE08B1C5F81C80641EF8D1AE61B5
:102BA000E86938B10849012738070860BFF34F8F3B
:102BB000BFF36F8FFFF74EF93846BDE8F081000094
:102BC0001C000020A401002004ED00E01CB5FEF76D
:102BD000AFFC0D48006868B10B490220091DCDE922
:102BE000000100234FF4827208A10A48FFF7B0FDEC
:102BF000002807D1502080F31188BFF34F8FBFF317
:102C00006F8FFEE71CBD00005C000020546D722039
:102C100053766300591A0008000000000102030403
:102C20000102030406070809482C000800000020E0
:102C30009800000034100008E02C000898000020E4
:102C40007031010044100008000000000000000086
:102C50000000000000000000000000000024F4005C
:102C60000000000000000000000000000000000064
:102C70000000000000000000000000000000000054
:102C80000000000000000000000000000000000044
:102C90000000000004000000000000000000000030
:102CA0000000000000000000000000000000000024
:102CB0000000000000000000000000000000000014
:102CC0000000000000000000000000000000000004
:102CD0000000000000000000AAAAAAAA000000004C
:04000005080001AD41
:00000001FF
