:020000040800F2
:1000000018D30020E1010008E3220008C322000801
:10001000E122000865090008DD2900080000000051
:10002000000000000000000000000000490100087E
:1000300067090008000000008D0100080523000882
:10004000FB010008FB010008FB010008FB010008A0
:10005000FB010008FB010008FB010008FB01000890
:10006000FB010008FB010008FB010008FB01000880
:10007000FB010008FB010008FB010008FB01000870
:10008000FB010008FB010008FB010008FB01000860
:10009000FB010008FB010008FB010008FB01000850
:1000A000FB010008FB010008FB010008FB01000840
:1000B000A5230008B1230008FB010008FB0100088C
:1000C000FB010008FB010008FB010008FB01000820
:1000D000FB010008FB01000845290008FB0100089E
:1000E000FB010008FB010008FB010008FB01000800
:1000F000FB010008FB010008FB010008FB010008F0
:10010000FB010008FB010008FB010008FB010008DF
:10011000FB010008FB010008FB010008FB010008CF
:10012000FB010008FB010008FB010008FB010008BF
:10013000DFF810D000F086FB00480047FD340008CF
:10014000AFF3008018D30020224B19680868B0E88C
:10015000F00F80F30988BFF36F8F4FF0000080F33A
:1001600011884EF00D0E7047000000000648006830
:10017000006880F3088862B661B6BFF34F8FBFF3A3
:100180006F8F00DF00BF00BF08ED00E0EFF30980D4
:10019000BFF36F8F0F4B1A6820E9F00F106008B59E
:1001A0004FF0500080F31188BFF34F8FBFF36F8F74
:1001B00005F00AFC4FF0000080F31188BDE808400C
:1001C00019680868B0E8F00F80F30988BFF36F8FF3
:1001D000704700BF28000020EFF305807047000043
:1001E0000648804706480047FEE7FEE7FEE7FEE7D1
:1001F000FEE7FEE7FEE7FEE7FEE7FEE75D23000819
:1002000031010008202A04DB203A21FA02F0002103
:10021000704721FA02F3D040C2F120029140084316
:100220001946704740EA01039B0703D009E008C95B
:10023000121F08C0042AFAD203E011F8013B00F8AB
:10024000013B521EF9D27047D2B201E000F8012BF7
:10025000491EFBD270470022F6E710B513460A4646
:1002600004461946FFF7F0FF204610BD421C10F867
:10027000011B0029FBD1801A704710B5002200E055
:10028000521C835C8C5CA34201D1002BF8D1D8B204
:10029000E1B2401A10BD30B505460020034600E02B
:1002A0005B1C934205D2EC5CC85C201A01D1002C87
:1002B000F6D130BD80EA010210B502F000434000E3
:1002C00022D04A001FD0010E01EB1261C0F356008C
:1002D000C2F3560240F4000042F40002A0FB0220E8
:1002E00000047F39140400D0401C50EA124001D4AD
:1002F0004000491EC2B20C0604EBD010401C40085E
:10030000802A02D003E0002010BD20F00100002967
:1003100000DA0020184310BD30B480EA010202F078
:10032000004530F0004221F0004013D090B1C30DE1
:10033000D40DC2F31601C0F31600E41A41F4000113
:1003400040F400027D34914201D3641C00E0490076
:10035000002C02DA30BC002070474FF4000000236C
:10036000914201D3891A034340084FEA4101F7D172
:1003700051B1914202D14FF0004105E002D24FF05D
:10038000010101E06FF0010103EBC450284430BCCF
:1003900000F068B8C10F80EAE0700844CA079623ED
:1003A000002100F068B896230022114600F063B8DF
:1003B00000F0004230F000400AD0C10D01F560713C
:1003C000C0F3160042EA0151C208400711437047CA
:1003D00000200146704730B50B4601460020202220
:1003E000012409E021FA02F59D4205D303FA02F542
:1003F000491B04FA02F52844151EA2F10102F1DCA2
:1004000030BD2DE9F05F0546002092469B468846A8
:100410000646814640241BE0284641464746224680
:10042000FFF7F0FE53465A46C01A914110D31146C9
:100430001846224600F018FA2D1A67EB01084F46BD
:1004400022460120002100F00FFA17EB00094E416F
:10045000201EA4F10104DFDC484631462A4643460B
:10046000BDE8F09F0029A8BF7047401C490008BFA5
:1004700020F00100704710B4B0FA80FC00FA0CF0D4
:1004800050EA010404BF10BC704749B1CCF120040C
:1004900021FA04F411FA0CF118BF01212143084399
:1004A000A3EB0C01CB1D4FEA00614FEA102042BFC5
:1004B000002010BC704700EBC35010440029A4BFBB
:1004C00010BC7047401C490008BF20F0010010BC60
:1004D00070472DE9FE4F804681EA0300C00F0C46AD
:1004E000009021F0004123F00045B8EB0200A94143
:1004F00005D24046214690461C460B46024623F054
:100500000040104347D0270DC7F30A00C3F30A5138
:100510000290401A019040286BDAC3F3130040F4B4
:10052000801B0098924620B10023D2EB030A63EBB4
:100530000B0B01985946C0F14002504600F094F967
:1005400006460D4650465946019A00F09CF910EBBC
:1005500008006141002487EA115284EAE7731A43D4
:1005600040D0009A62B3019A012A4FEA075215DC83
:10057000001B61EB02014FF0004202EA0752CDE995
:100580000042001C41F5801132462B4600F09CF9D8
:1005900003B0BDE8F08F40462146F9E7001B61EB50
:1005A0000201001C41F5801300185B412018A2F5E0
:1005B000001747EB030140EAD570B6196D4111E011
:1005C0006D084FEA360645EAC0754FEA0752001B30
:1005D00061EB0201001C41F5801149084FEA30002F
:1005E0000019514132462B4603B0BDE8F04F00F0F0
:1005F0005CB90098012240000023D0EB020263EBBB
:10060000E073009821464FEAE074B8EB000061EB1C
:100610000401E9E783F000435BE781F0004158E71C
:100620002DE9FE4F81EA030404F0004421F000416B
:1006300000944FF0000B23F0004350EA01045ED019
:1006400052EA03045BD0C3F30A54C1F30A552C44A5
:10065000A4F2F3340194A0FB0254C1F3130141F45A
:100660008011C3F3130343F4801301FB024400FB26
:10067000034E840A970A44EA815447EA8357A4FB4D
:10068000076802958D0A05FB07854FEA932C04FB4A
:100690000C542705029D4FEA065847EA1637B5EB7A
:1006A00008056EEB070C870E920E47EA811742EAA7
:1006B0008312A7FB0201B6EB0B0164EB00042B0DC8
:1006C00043EA0C335E1844EB1C50DA465146E7FB14
:1006D0000201C5F313044FEA0B3343EA14534FEA04
:1006E0000432019C43EA0603A4F10C040294009C2A
:1006F000CDE900B400F0E8F803B0BDE8F08F0020C9
:100700000146F9E72DE9F04D81EA030404F0004BBE
:1007100021F0004514464FF0000A23F0004150EA52
:10072000050220D054EA01021DD0C5F30A57024643
:10073000C5F31303C1F31300C1F30A5640F4801547
:1007400043F48013A7EB0608101BD64608F2FD38C9
:1007500073EB050002D308F1010801E092185B4138
:10076000B8F1000F03DA00200146BDE8F08D00204B
:100770004FF48011064684460EE0171B73EB050705
:1007800005D3121B63EB050306434CEA010C490831
:100790004FEA300092185B4150EA0107EDD152EA6E
:1007A000030012D082EA040083EA0501084305D061
:1007B000101BAB4106D20122002306E000224FF0BD
:1007C000004302E06FF0010253101AEB06004CEBFD
:1007D000085110EB0A0041EB0B01BDE8F04D00F0B1
:1007E00064B8C1F30A52C1F3130140F2FF3341F47C
:1007F00080119A4202DA00200146704740F23343EA
:100800009A42A2F2334202DC5242FFF7FBBC00F0F4
:100810002BB8000030B5041E71F1000404DB4FF06A
:100820000044404264EB0101141E73F1000405DB37
:100830001C464FF00043524263EB0403994208BF49
:10084000904230BD064C074D06E0E06840F00103E1
:1008500094E8070098471034AC42F6D3FFF76CFCDD
:100860001468000834680008202A04DB203A00FAE3
:1008700002F1002070479140C2F1200320FA03F3F7
:10088000194390407047202A06DBCB17203A41FAE3
:1008900002F043EAE07306E041FA02F3D040C2F10D
:1008A0002002914008431946704710B5141E73F199
:1008B000000408DA401C41F1000192185B411A4320
:1008C00001D120F0010010BD2DE9F04D92469B466C
:1008D00011B1B1FA81F202E0B0FA80F22032904612
:1008E000FFF7C2FF04460F4640EA0A0041EA0B0147
:1008F00053465A46084313D0114653EA010019D013
:10090000C8F140025046FFF77DFC05460E465046B2
:1009100059464246FFF7A8FF084305D0012004E0EE
:1009200020463946BDE8F08D0020054346EAE076D2
:100930002C4337430A986305E40AA0EB0800002221
:10094000FD0A44EA47540A3002D500200146E9E78F
:10095000010510196941DDE9084500196941BDE843
:10096000F04DA2E7FEE7704731B500F007F9044605
:1009700000F004F90099001B8842F9D338BD00004B
:100980002DE9F84FDFF8B8A100220AF1040B144654
:1009900001274FF00F090BF1040E00BF0B6807FA97
:1009A00004F52B40AB4274D1DFF898C14E68A6EB3A
:1009B0000C0866452BD00DDC032E34D005DC36B395
:1009C000012E19D0022E2FD11BE0112E16D0122E7F
:1009D0002AD119E0B8F5881F19D006DCB8F5803F98
:1009E00015D0B8F5801F1FD111E0B8F5001F0ED04B
:1009F000B8F5041F18D10AE0CA6815E0CA68121DCC
:100A000012E0CA6808320FE0CA680C320CE08A684B
:100A10002AB1012A4FF0080203D0456104E0042204
:100A200002E0056100E00022FF2B01D8064601E04C
:100A300000F104064FEA840501D9A5F12005D6F896
:100A400000C009FA05F82CEA080C02FA05F54CEA90
:100A5000050CC6F800C04D68ED006AD53A4DAE6988
:100A600046F00106AE61AD6924F0030605F001050C
:100A70000095364D06EB050CDCF80850A6074FEA4A
:100A8000167809FA08F6B543314EB04202D1002675
:100A90001AE04EE02F4EB04201D1012614E02E4E56
:100AA000B04201D102260FE02C4EB04201D1032604
:100AB0000AE02B4EB04201D1042605E0294EB04297
:100AC00001D1052600E0062606FA08F62E43CCF8EA
:100AD00008604D68DAF80060ED03554601D51E4305
:100AE00000E09E432E604D68AD0305D5DBF8006045
:100AF0001E43CBF8006004E0DBF800509D43CBF8C8
:100B000000504D68DEF80060ED02754601D51E43C9
:100B100000E09E432E604D68AD0205D5084D0C35B2
:100B20002E681E432E6004E0054E0C3635689D434A
:100B30003560641C102CFFF431AFBDE8F88F000065
:100B400000040140000011100010024000000140AC
:100B500000080140000C0140001001400014014059
:100B600000180140001C0140C2684A40C260704742
:100B70000AB1016170470904FBE700000148006801
:100B8000704700000C00002002480168491C016009
:100B9000704700000C000020074810B5016841F0C4
:100BA00010010160032000F065F8002000F006F855
:100BB00000F016F8002010BD0020024010B50446D9
:100BC00000F0AEF94FF47A71B0FBF1F000F0A1FD46
:100BD00000222146501E00F02DF8002010BD00001C
:100BE0000C4808B5816941F001018161816901F01A
:100BF00001010091C16941F08051C161C06900F0FB
:100C0000805000900448416821F0E06141F000719B
:100C1000416008BD001002400000014000F01F02CA
:100C2000012191404009800000F1E020C0F800114E
:100C300070470000F0B40E4B1B680C46C3F3022350
:100C4000C3F10705042D00D90425191D072901D278
:100C5000002300E0DB1E012606FA05F1491E2140B3
:100C600099409E40761E16403143F0BC01F03ABBDD
:100C70000CED00E0064900F0070208684FF6FF039C
:100C8000184040EA0220034A104308607047000001
:100C90000CED00E00000FA052DE9F047DFF878924E
:100CA00005460E46D9F80000022300F00707012090
:100CB00041044206994C41F28838B74271D2D9F8C2
:100CC00000C02CF0070C4CEA060CC9F800C0D9F89B
:100CD000007007F00707B7426FD12E78B60705D529
:100CE0006668AF6826F0F0063E4366602E78F60729
:100CF00056D06E68012E0BD0022E1ED093FAA3F1AF
:100D0000B1FA81F141F02001490924D0216823E0A2
:100D100091FAA1F2B2FA82F242F02002520901D015
:100D2000226800E0626A91FAA1F1B1FA81F101F062
:100D30001F018840024240D017E092FAA2F1B1FAB6
:100D400081F141F02001490901D0216800E0616A88
:100D500092FAA2F202E0616A93FAA3F2B2FA82F284
:100D600002F01F029040014227D0606820F003008B
:100D700030436060FFF702FF06466868012809D02B
:100D80000228474613D01EE0FFF7F8FE801BB8424A
:100D900001D992E047466068C0F381000128F3D191
:100DA000A1E015E0FFF7EAFE801BB84273D8606847
:100DB000C0F381000228F5D195E092E0FFF7DEFE56
:100DC000801BB84279D8606810F00C0FF6D18AE029
:100DD0002F78BF0707D56768D5F808C027F0F00758
:100DE00047EA0C0767602F78FF076DD06F68012F07
:100DF0000BD0022F1ED093FAA3F1B1FA81F141F08A
:100E00002001490924D0216823E091FAA1F2B2FA25
:100E100082F242F02002520901D0226800E0626AA8
:100E200091FAA1F1B1FA81F101F01F01884002426B
:100E300057D017E092FAA2F1B1FA81F141F0200106
:100E4000490901D0216800E0616A92FAA2F202E049
:100E5000616A93FAA3F2B2FA82F202F01F029040A2
:100E600001423ED0606820F0030038436060FFF725
:100E700085FE07466868012807D0022811D01FE0C8
:100E8000FFF77CFEC11B414517D86068C0F38100A5
:100E90000128F5D118E010E0FFF770FEC11B4145B5
:100EA0000BD86068C0F381000228F5D10CE000BFC8
:100EB000FFF764FEC11B414502D90320BDE8F0875E
:100EC000606810F00C0FF3D1D9F8001021F0070181
:100ED0003143C9F80010D9F8000000F00700B04213
:100EE00001D00120EAE72878400705D56068E96865
:100EF00020F4E060084360602878000706D5606849
:100F0000296920F4605040EAC10060600020FFF7CA
:100F100055FE0020D2E700000020024000100240F1
:100F200010B500F043F808494968F02292FAA2F29D
:100F300001F0F001B2FA82F2D140044A515CC8409B
:100F40000349086010BD00000010024086640008DC
:100F50001000002010B5FFF7E3FF074949684FF480
:100F6000E06292FAA2F201F4E061B2FA82F2D140B8
:100F7000024A515CC84010BD00100240866400085F
:100F800010B5FFF7CDFF074949684FF4605292FA58
:100F9000A2F201F46051B2FA82F2D140024A515CED
:100FA000C84010BD001002408664000810B519A3A7
:100FB00085B00FCB8DE80F001AA01B4B0068049082
:100FC0005A681A4802F00C0104291DD008291BD1C7
:100FD0004FF4701494FAA4F402F47011B4FA84F487
:100FE000E140D2031DF8011010D55A684FF40033C8
:100FF00093FAA3F302F40032B3FA83F3DA4004ABBA
:101000009A5CB0FBF2F0484305B010BD0848484375
:10101000FAE7000002030405060708090A0B0C0D95
:101020000E0F1010010200000010024000127A00A2
:1010300000093D002DE9F84F05460078DFF8589586
:10104000C0074FF0010429D0D9F804004E46C0F380
:1010500081006704012807D07068C0F3810002286E
:101060001DD17068C0031AD597FAA7F0B0FA80F0C6
:1010700040F02000400901D0306800E0706A97FA23
:10108000A7F1B1FA81F101F01F0104FA01F1084260
:1010900004D06868012801D0052877D182E0306843
:1010A00020F480303060306820F480203060FFF71A
:1010B00065FD804606E000BFFFF760FDA0EB08007D
:1010C00064287DD897FAA7F0B0FA80F040F02000AD
:1010D000400901D0306800E0706A97FAA7F1B1FAD0
:1010E00081F101F01F0104FA01F10842E4D13068F6
:1010F00020F480303060686801280BD0052811D0BA
:10110000306820F480203060686858B3FFF736FDFF
:10111000804611E0306820F480203060306840F470
:101120008030F0E70520B070EEE700BFFFF726FD46
:10113000A0EB08006428C4D897FAA7F0B0FA80F0B2
:1011400040F02000400901D0306800E0706A97FA52
:10115000A7F1B1FA81F101F01F0104FA01F108428F
:10116000E4D01FE0FFF70AFD804605E0FFF706FD2B
:10117000A0EB08006428A4D897FAA7F0B0FA80F092
:1011800040F02000400902D0306801E0B7E0706A0A
:1011900097FAA7F1B1FA81F101F01F0104FA01F108
:1011A0000842E3D12878FD4F80074FF0000A4FF046
:1011B00002066BD5D9F80410484611F00C0F00E078
:1011C000BCE108D04168C846C1F38101022926D19B
:1011D0004168C90323D496FAA6F1B1FA81F141F02E
:1011E0002001490901D0016800E0416A96FAA6F29F
:1011F000B2FA82F202F01F0204FA02F2114202D0A5
:10120000296901297BD10168F82292FAA2F26B695F
:10121000B2FA82F221F0F8019340194335E02869CF
:10122000A8B394FAA4F0B0FA80F047F82040FFF792
:10123000A5FC834606E000BFFFF7A0FCA0EB0B0077
:10124000642898D896FAA6F0B0FA80F040F0200012
:101250004009404601D0006800E0406A96FAA6F1D5
:10126000B1FA81F101F01F0104FA01F10842E3D063
:10127000D8F800104046F82393FAA3F36A69B3FA4A
:1012800083F321F0F8019A401143016026E0FFE763
:1012900094FAA4F1B1FA81F147F821A0FFF76EFCAE
:1012A000834605E0FFF76AFCA0EB0B006428C8D872
:1012B00096FAA6F0B0FA80F040F0200040094046CF
:1012C00001D0006800E0406A96FAA6F1B1FA81F117
:1012D00001F01F0104FA01F10842E3D12878000768
:1012E00071D5A869C8B394FAA4F0B0FA80F007EBFE
:1012F0008000C0F88044FFF741FC804606E0E6E14C
:10130000FFF73CFCA0EB080064289AD896FAA6F0F8
:10131000B0FA80F040F06000B4EB501F02D1D9F871
:1013200000000CE096FAA6F0B0FA80F040F0600001
:10133000B6EB501F484601D1006A00E0406A96FAB9
:10134000A6F1B1FA81F101F01F0204FA02F108429C
:10135000D6D00120FFF708FB35E0FFE794FAA4F1AF
:10136000B1FA81F107EB8101C1F880A4FFF706FC17
:10137000804605E0FFF702FCA0EB0800642896D841
:1013800096FAA6F0B0FA80F040F06000B4EB501F7F
:1013900002D1D9F800000CE096FAA6F0B0FA80F07D
:1013A00040F06000B6EB501F484601D1006A00E0F3
:1013B000406A96FAA6F1B1FA81F101F01F0204FA2F
:1013C00002F10842D6D1287840077DD5D9F81C1003
:1013D00041F08051C9F81C10D9F81C00DFF8C0B1E9
:1013E00000F080500090DBF8001041F48071CBF8E1
:1013F0000010FFF7C3FB804606E000BFFFF7BEFB0F
:10140000A0EB08006428BAD8DBF80000C005F5D5C9
:1014100094FAA4F1B1FA81F107EB8101C1F800A4BB
:101420004FF0040B9BFAABF1B1FA81F107EB8101AC
:10143000C1F800A4FFF7A2FB009008E0FFF79EFBB5
:1014400001460098081A41F28831884276D896FA07
:10145000A6F0B0FA80F040F04000B4EB501F02D18B
:10146000D9F800000CE096FAA6F0B0FA80F040F04F
:101470004000B6EB501F484601D1006A00E0406AC8
:1014800096FAA6F1B1FA81F101F01F0104FA01F117
:10149000A0460842D2D1E868D8B10128504629D0E8
:1014A00094FAA4F1B1FA81F107EB8101C1F80004CB
:1014B0009BFAABF0B0FA80F007EB8000C0F8004474
:1014C000E868012821D000E083E0FFF757FB83465E
:1014D00056E094FAA4F1B1FA81F107EB8101C1F869
:1014E00000A49BFAABF1B1FA81F107EB8101C1F8DD
:1014F00000A4E5E79BFAABF1B1FA81F107EB8101BA
:10150000C1F8000494FAA4F0D4E7FFF737FB834650
:1015100008E000BFFFF732FBA0EB0B0141F288307F
:1015200081420BD896FAA6F0B0FA80F040F0400065
:10153000B8EB501F03D1D9F800000DE09DE096FAFA
:10154000A6F0B0FA80F040F04000B6EB501F4846DD
:1015500001D1006A00E0406A96FAA6F1B1FA81F181
:1015600001F01F0208FA02F10842D3D031E000BFB7
:10157000FFF704FBA0EB0B0141F2883081427CD8DD
:1015800096FAA6F0B0FA80F040F04000B8EB501F99
:1015900008D1D9F8000012E00010024000004242D9
:1015A0000070004096FAA6F0B0FA80F040F04000DB
:1015B000B6EB501F484601D1006A00E0406A96FA37
:1015C000A6F1B1FA81F101F01F0208FA02F1084216
:1015D000CED1E869B0B3D9F804104E46C1F3810109
:1015E000022974D04FF080714FF0007902280AD0A0
:1015F00091FAA1F1B1FA81F147F821A0FFF7BEFA03
:1016000007464D466CE091FAA1F05246B0FA80F0E0
:101610008A46BB4647F82020FFF7B0FA80464F467F
:1016200006E000BFFFF7AAFAA0EB0800642854D830
:1016300097FAA7F0B0FA80F040F02000400902D0FD
:10164000306801E061E0706A97FAA7F1B1FA81F1C0
:1016500001F01F0104FA01F10842E3D1286AB0F554
:10166000803F05D17068A96820F40030084370609D
:10167000D5E908010843716800E02EE021F47411F7
:10168000084370609AFAAAF0B0FA80F04BF8204054
:10169000FFF774FA054604E0FFF770FA401B642870
:1016A0001BD897FAA7F0B0FA80F040F0200040096C
:1016B00001D0306800E0706A97FAA7F1B1FA81F1C1
:1016C00001F01F0104FA01F10842E5D01DE01EE01F
:1016D000FFF754FAC01B642802D90320BDE8F88F35
:1016E00095FAA5F0B0FA80F040F02000400901D052
:1016F000306800E0706A95FAA5F1B1FA81F101F065
:101700001F0104FA01F10842E2D10020E6E70120BE
:10171000E4E710B5401EB0F1807F01D3012010BD79
:101720004FF0E02460610F21601700F0DBFD002026
:10173000A06107202061002010BD7047704730B5C0
:1017400090F83820012A20D0012280F83820022386
:1017500080F8393003685C6824F070045C600368CA
:101760005C680D682C435C6003689C6824F080040E
:101770009C6003689C6849680C439C6080F8392031
:10178000002180F83810084630BD022030BD10B569
:10179000040003D094F8390010B107E0012010BD17
:1017A000002084F83800204600F00CF8022084F86D
:1017B0003900211D206800F001FE012084F8390065
:1017C000002010BD08B500680B49884212D10B48B3
:1017D000C16941F00201C161C069032200F0020049
:1017E000009002211D20FFF725FABDE808401D20CA
:1017F000FFF714BA08BD00000004004000100240CA
:101800000168CA6842F00102CA600068016841F0DC
:101810000101016000207047022180F83910016841
:101820000A6A41F211131A4207D10A6A9B101A423E
:1018300003D10A6822F001020A60012180F8391000
:10184000002070470168CA6822F00102CA6000687F
:10185000016A41F21112114207D1016A921011423C
:1018600003D1016821F0010101600020704770B5CB
:10187000044690F83800012817D0012584F8385024
:10188000022084F839002068826822F0770222F46E
:101890007F4282600868502837D00DDC202859D05C
:1018A00005DC88B3102841D151E0022070BD3028FA
:1018B00053D040283AD13FE060282ED070280BD07A
:1018C000B0F5805F03D0B0F5005F2FD110E0206845
:1018D000816821F0070115E0CB68D1E9012120687A
:1018E00000F0B9FD2168886840F0770088601DE04D
:1018F000CB68D1E90121206800F0ADFD2068816846
:1019000041F48041816011E01EE0CA6849682068A6
:1019100000F0B4FE5021206806E0CA6849682068DB
:1019200000F0BDFE6021206800F09FFD84F8395072
:10193000002084F8380070BDCA684968206800F04B
:101940009DFE40212068EFE700212068ECE7102190
:101950002068E9E720212068E6E730212068E3E7F6
:101960002DE9F0410D46040003D094F8390018B178
:1019700008E00120BDE8F081002084F8380020460E
:1019800000F03AF8022084F839002068816821F0DC
:1019900007018160211D206800F010FD2268906819
:1019A0009169166A2B68AF69034340F203308143A3
:1019B00041EA0721A868EF6908434FF6FC418843D4
:1019C000E96840EA0720014328692F6A000140EADC
:1019D0000730084369686D6926F0AA0646EA0515CE
:1019E000294393602268906120680162012084F895
:1019F00039000020BEE7000000B5006885B0B0F1F6
:101A0000804F1AD10E48C16941F00101C161C1691D
:101A100001F001010491816941F004018161806953
:101A2000694600F00400049000200190032000901B
:101A3000012002900348FEF7A3FF05B000BD00009F
:101A4000001002400008014010B50446006891B142
:101A5000042904D00122002100F0F2FC20680122B8
:101A60005FF0040100F0ECFC2068016841F0010126
:101A70000160002010BD01220021F3E7704770B51E
:101A80000446006801694FF00005C943890715D471
:101A9000C168C943890711D4E91E0161012020767C
:101AA000206880698007204602D0FFF7E7FF04E046
:101AB00000F098F8204600F04DF92576206801697D
:101AC000C943490717D4C168C943490713D46FF004
:101AD00004010161022020762068806910F4407FB3
:101AE000204602D0FFF7CAFF04E000F07BF8204652
:101AF00000F030F9257620680169C943090716D43A
:101B0000C168C943090712D46FF0080101610420BC
:101B100020762068C0698007204602D0FFF7AEFF1C
:101B200004E000F05FF8204600F014F92576206804
:101B30000169C943C90617D4C168C943C90613D48A
:101B40006FF010010161082020762068C06910F450
:101B5000407F204602D0FFF791FF04E000F042F8FA
:101B6000204600F0F7F8257620680169C943C907C7
:101B700008D1C168C943C90704D1891E0161204643
:101B800000F064F920680169C943090609D4C168F5
:101B9000C943090605D46FF0800101612046FFF7B3
:101BA000CCFD20680169C943490609D4C168C9430D
:101BB000490605D46FF040010161204600F095F917
:101BC00020680169C94389060BD4C168C9438906E5
:101BD00007D46FF0200101612046BDE87040FFF797
:101BE000ADBD70BD704770B5044690F838000D4625
:101BF00001280DD0012684F83860022084F83900CD
:101C000042B1042A18D0082A2AD00C2A4DD139E032
:101C1000022070BD206800F031FC2068816941F02D
:101C2000080181612068816921F0040181612068D7
:101C300081692A69114311E0206800F04FFC206897
:101C4000816941F4006181612068816921F48061CA
:101C50008161206881692A6941EA0221816124E069
:101C6000206800F071FC2068C16941F00801C16181
:101C70002068C16921F00401C1612068C1692A6935
:101C8000114311E0206800F093FC2068C16941F421
:101C90000061C1612068C16921F48061C16120686F
:101CA000C1692A6941EA0221C16184F839600020D2
:101CB00084F8380070BD10B5040003D094F83900E2
:101CC00010B107E0012010BD002084F83800204644
:101CD00000F00CF8022084F83900211D206800F083
:101CE0006DFB012084F83900002010BD00B50068AC
:101CF000134985B0884221D11248C16941F00401DD
:101D0000C161C16901F0040104910F494A680F4B98
:101D10001A434A60816941F0200181618069694606
:101D200000F02000049002200190000300900120A8
:101D30000290032003900648FEF722FE05B000BD86
:101D400000080040001002400000014000100002A6
:101D5000001401407047000010B50268044631B11C
:101D6000042908D0082920D00C2908D121E0D06806
:101D700040F0020002E0D06840F00400D060012290
:101D8000206800F05DFB0D492068884202D00C49B4
:101D9000884203D1416C41F40041416420680168EC
:101DA00041F001010160002010BDD06840F0080042
:101DB000E4E7D06840F01000E0E70000002C0140AC
:101DC0000034014010B50268044631B1042908D03E
:101DD00008292FD00C2908D130E0D06820F002006B
:101DE00002E0D06820F00400D0600022206800F0FB
:101DF00027FB144841F2111321689A10814202D046
:101E00001148814209D1086A184206D1086A104275
:101E100003D1486C20F4004048642068016A1942EC
:101E200006D1016A114203D1016821F0010101606C
:101E3000002010BDD06820F00800D5E7D06820F061
:101E40001000D1E7002C01400034014010B50446D9
:101E500000681249884210D1114800680169C943DD
:101E600049070AD46FF0040101610D4804213C3890
:101E7000FFF7A8FF0A48FFF7E5FC2068B0F1804FA4
:101E80000BD10748583000680068C1060548016852
:101E900001D5491E00E0491C016010BD000400404E
:101EA000C40200202400002070B5044690F83800D9
:101EB000012818D0012584F83850022084F8390010
:101EC000204600F09DFB2068C16821F04001C16000
:101ED0002068C16821F48041C16084F83950002035
:101EE00084F8380070BD022070BD7047704738B567
:101EF00004460068016811F0010FC16801F48071A7
:101F000007D031B1016841680091E16B41F00101F6
:101F1000E1630168C1F34002416901F001013AB196
:101F200031B1026842680092E26B42F00402E2635F
:101F30000268C2F380023AB131B10268426800928D
:101F4000E26B42F00202E2630268C2F3C0023AB1FD
:101F500031B1016841680091E16B41F00801E16332
:101F60000168C068C1F3401100F0200019B110B140
:101F7000204600F0A7FB21680868C968C0F3C010BC
:101F800001F0800118B111B1204600F05FFC21681A
:101F90000868CA68C0F3801002F04002012590B1C1
:101FA0008AB1CA68204622F04002CA6094F839100B
:101FB000322911D001684A6922F001024A6180F891
:101FC000395000F07DF9E06B002804D084F83950D6
:101FD0002046FFF78BFF38BD222180F83910F0E74B
:101FE00070B5040004D094F83900002510B106E063
:101FF000012070BD84F83850204600F021F80220FE
:1020000084F839002068C16821F40051C16020467D
:1020100000F0ACFB2068016921F490410161206867
:10202000416921F02A0141612068C16841F40051F1
:10203000C160E563012084F83900002070BD000014
:102040002DE9F0430546006831490027314C324EF6
:1020500085B04FF002084FF0030988421ED1A069F5
:1020600040F00400A061A06900F004000490A069A1
:1020700040F48040A061A069CDE9027900F480407D
:1020800004904815CDE9000869463046FEF778FC13
:102090002015009069463046FEF772FC1F492868FB
:1020A000884231D1A06940F00400A061A06900F02D
:1020B00004000490E06940F40030E061E069CDE99B
:1020C000027900F4003004900420CDE9000869464C
:1020D0003046FEF755FC0820009069463046FEF772
:1020E0004FFC0F480168CA6842F02002CA600068CD
:1020F000C16841F01001C1602620FEF78FFD022269
:1021000001212620FEF796FD05B0BDE8F083000012
:102110000038014000100240000801400044004027
:10212000480200202DE9F047044690F8390099460E
:102130000D46012801D0122858D12DB322B394F8AE
:102140003800012852D0012684F838600027E76360
:1021500094F8390012281AD05FF0220084F8390070
:10216000A285E2854FF48058E08D4B46401EE08505
:10217000A0684FF0000240454FF02001204616D1E4
:1021800000F097FBB0B904E00120BDE8F0873220F1
:10219000E4E7206900282068406803D0C1B225F830
:1021A000011B12E0C0F3080125F8021B0DE000F04E
:1021B00080FB08B10320E8E7206900282068406818
:1021C00001D000F07F0005F8010BE08D0028CBD195
:1021D00094F83900322805D084F8396084F83870D2
:1021E0000020D2E7122084F83900F7E70220CCE77C
:1021F000704700002DE9F047044690F839009946F1
:102200000D46012801D0222858D12DB322B394F8CD
:102210003800012852D0012684F838600027E7638F
:1022200094F8390022281AD05FF0120084F839009F
:10223000A284E2844FF48058E08C4B46401EE08438
:10224000A0684FF0000240454FF08001204613D1B6
:1022500000F02FFB08BB04E00120BDE8F08732202E
:10226000E4E728882168C0F308004860206908B1C5
:102270006D1C08E0AD1C06E000F01BFB68B921688E
:1022800015F8010B4860E08C0028D5D14B460022A0
:102290004021204600F00DFB08B10320DDE794F853
:1022A0003900322806D084F8396000BF84F83870CD
:1022B0000020D2E7222084F83900F7E70220CCE79B
:1022C0007047FEE7054808B5816941F00401816166
:1022D000806900F00400009008BD0000001002407A
:1022E000FEE770470907090E002806DA00F00F0024
:1022F00000F1E02080F8141D704700F1E02080F824
:102300000014704710B503F055FE012801D003F00A
:10231000DDFBBDE81040FEF737BC10B590B02821BA
:102320006846FDF798FF14210AA8FDF794FF0220E4
:102330000090012004901020002405900794684626
:10234000FEF778FE0F20CDE90A040C940D940021CD
:102350000AA80E94FEF7A0FC10B010BD0D4801684D
:1023600041F00101016041680B4A11404160016880
:102370000A4A11400160016821F48021016041682E
:1023800021F4FE0141604FF41F0181600449C00344
:1023900008607047001002400000FFF8FFFFF6FEE3
:1023A00008ED00E00148FFF76ABB00001C030020B5
:1023B0000148FFF764BB0000C4020020F0B50268CA
:1023C0001A4B1B4D1B4E1C4F1C4C4FF0804C98421F
:1023D00009D0A04207D0604505D0A84203D0B04242
:1023E00001D0B84204D122F0700E4A6842EA0E02CF
:1023F000984209D0A04207D0604505D0A84203D03A
:10240000B04201D0B84203D122F44075CA682A43D1
:1024100002608A68C2620A688262984201D0A04261
:1024200001D10969016301214161F0BD002C014026
:102430000004004000080040000C0040003401404F
:1024400010B50123046A8B409C430462036A8A40EE
:102450001343036210BD10B5846842EA032224F4DA
:102460007F440A432243826010BD826822F07002DA
:102470000A4342F00701816070470000F0B5026A2C
:1024800022F001020262036A42688469124E24F05B
:1024900073050C682C4323F002058B682B430D4D0C
:1024A000A84201D0B04205D123F00807CB683B43D6
:1024B00023F00403A84201D0B04205D14D6922F4B3
:1024C000407215438A692A434260846149684163C6
:1024D0000362F0BD002C014000340140F0B5026AF7
:1024E00022F010020262026A436884690D6824F4D3
:1024F000E64444EA05248D6822F0200242EA0512EF
:102500000F4D104EA84201D0B04206D1CF6822F044
:10251000800242EA071222F04002A84201D0B042F3
:1025200007D14D6923F4406343EA85038D6943EA8B
:10253000850343608461496881630262F0BD0000E5
:10254000002C014000340140F0B5026A22F4807290
:102550000262026A4368C46922F4007224F07305BF
:102560000C68124E2C438D6842EA05220E4DA8429B
:1025700001D0B04206D1CF6822F4006242EA0722BD
:1025800022F48062A84201D0B04207D14D6923F401
:10259000405343EA05138D6943EA05134360C46160
:1025A0004968C1630262F0BD002C01400034014063
:1025B00030B5026A22F480520262046A4268C3693A
:1025C0000D6823F4E64343EA05238D6824F40054A0
:1025D00044EA0534084DA84202D0084DA84204D16F
:1025E0004D6922F4804242EA85124260C361496823
:1025F0000164046230BD0000002C01400034014041
:1026000030B403689A6822F070044A68224322F0CA
:1026100007040A6822439A604A6812F00F0F1FD11C
:102620001211082A1CD2DFE802F01B1B1B1B0B1D1A
:1026300023040B69D1E90221006830BCFFF70BBF0E
:102640000268136A146A24F001041462026894692F
:10265000096924F0F00444EA011191610068036201
:1026600030BC70470A698968006830BC00F006B861
:102670000A698968006830BC00F011B810B5036AB7
:10268000046A24F001040462846924F0F00444EA3A
:10269000021423F00A020A438461026210BD10B5DD
:1026A000036A23F0100303628369046A23F470430E
:1026B00043EA023224F0A00343EA0111826101627D
:1026C00010BD000010B590F83910222903D032292E
:1026D00001D0022010BD8168B1F5805F11D0016981
:1026E000002901681FD0496801F07F03816A4A1CF4
:1026F00082620B70C18D491E0904090CC18518D076
:1027000030E00269816A002A0268526805D0D2B2BC
:102710000A80816A491C8162ECE7C2F308020A80E0
:10272000816A891CF7E74A68816A4B1C83620A70D8
:10273000E0E70168CA6822F02002CA6090F8391008
:10274000322911D00168CA6822F48072CA60016817
:102750004A6922F001024A615FF0010180F83910F4
:10276000FFF746FD002010BD1221F7E72DE9F041EB
:10277000044600680169E26821F440511143016197
:102780002169A0680843616908432168CA6841F269
:102790000C639A430243CA6020684169A26921F42C
:1027A0004071114341612849206864254FF0320887
:1027B000884218D1FEF7E4FB00EBC00101EB0010EA
:1027C00061688900B0FBF1F0B0FBF5F6FEF7D8FBCD
:1027D00000EBC00101EB001061688900B0FBF1F76C
:1027E000FEF7CEFB17E0FEF7B5FB00EBC00101EBF7
:1027F000001061688900B0FBF1F0B0FBF5F6FEF760
:10280000A9FB00EBC00101EB001061688900B0FB7F
:10281000F1F7FEF79FFB00EBC00101EB00106168D0
:102820008900B0FBF1F0B0FBF5F06FF01801484300
:1028300007EB800108EB0110B0FBF5F0216866F3AF
:102840001F108860BDE8F0810038014090F8391011
:10285000122903D0322901D0022070478168B1F5D6
:10286000805F016A0BD04A1C0262026809785160DD
:10287000C18C491E0904090CC1840ED017E00988D7
:102880000268C1F30801516001690029016A02D0A0
:10289000491C0162ECE7891CFBE70168CA6822F069
:1028A0008002CA600068C16841F04001C160002038
:1028B00070472DE9F0471D4690460E460446FEF748
:1028C0005DF907465FEA08004FF000094FF0010884
:1028D00008D030E0681C05D095B1FEF74FF9C01B59
:1028E000A8420DD82068006836EA0000F2D127E03F
:1028F000681C20D025B1FEF741F9C01BA8421AD9A7
:102900002068C16821F08001C1602068C16821F0A1
:102910002001C1602068C16821F48071C160206815
:10292000416921F00101416184F8398084F83890CF
:102930000320BDE8F0872068006836EA0000D7D0A1
:102940000020F6E72DE9FC412248FFF7D0FA214E9E
:10295000306800684FF00007C0438006A6F5A274F7
:1029600019D44FF47A73012269463046FFF7DAFB37
:10297000B4F800119DF800006054B4F80001401C48
:1029800080B2A4F80001FF2801D9A4F800713168D1
:102990006FF02000086030680068C043C00617D49C
:1029A000B4F800012754012084F80201002505E055
:1029B000615D094801F0B6FD6D1CEDB2B4F800018F
:1029C000A842F5D8A4F80071306801684068019009
:1029D000BDE8FC8148020020A8CC0020FEE70000F2
:1029E0007CB50C001D461646014601D0601E00E075
:1029F0000020CDE90010064B6A462946304600F01B
:102A0000EDF8002C02D0009A002111707CBD00006E
:102A1000E332000837B514460846064B6A4621469D
:102A200000F0DCF804466946002000F065FC204612
:102A30003EBD0000F932000802E008C8121F08C1BC
:102A4000002AFAD170477047002001E001C1121F2F
:102A5000002AFBD1704700002DE9FF5F82B0002102
:102A6000DDE90430020DDDF840B0034318D044F630
:102A70001050A2F2FF3242431514119801281FD0C2
:102A8000A5EB0B00401C5FEA000A4FF000064E4F1A
:102A9000DFF83891B046504615D5CAF1000413E06E
:102AA000119801244AA3012801D16FEA0B01029871
:102AB000119AC0E90031C0E9024206B0BDE8F09FBA
:102AC000CBF10000DFE704460021404A491842EB01
:102AD0000450CDE9001012E0E00707D032463B4633
:102AE00040464946FDF79CFD8046894632463B46B6
:102AF00010461946FDF794FD06460F466410002C5B
:102B0000EAD1DDE90401DDE90023BAF1000F06DABC
:102B1000FDF786FD42464B46FDF782FD05E0FDF7D9
:102B2000F1FD42464B46FDF7EDFD04460E46002200
:102B3000284BFDF76FFE03D84FF0FF30014607E04A
:102B40000022254B20463146FDF7C3FCFDF749FE28
:102B5000102409E0002C0ADB0A220023FDF751FCB7
:102B6000039B30321A55641E50EA0102F2D1641CF4
:102B7000039AC4F111031444119A012A03D00122CB
:102B800008430DD10AE0084304D000204FF0110B98
:102B9000119072E7A3EB0B056D1E0DE05B4504DDA4
:102BA0004FF0000205F1010504E003DA4FF00002E6
:102BB000A5F10105002AECD002981199C0E9023173
:102BC000C0E9004579E70000000014400000F03F34
:102BD000300000000000F0430000E03F2DE9FF4F0F
:102BE00095B09A46884606460025EEE1252877D11D
:102BF00000242746F94A0121039400E0044316F813
:102C0000013F203B01FA03F01042F7D130782A2827
:102C100011D06FF02F033078A0F13002092A16D8B6
:102C2000039A44F0020402EB820203EB42021044D6
:102C3000761C0390EFE758F8042B0392002A03DA7E
:102C4000504244F40054039044F00204761C30785F
:102C50002E2816D116F8010F44F004042A280DD0AE
:102C60006FF02F023078A0F13003092B09D807EB61
:102C7000870302EB4303C718761CF3E758F8047B7D
:102C8000761C30786C280FD006DC4C2817D06828CA
:102C90000DD06A2814D104E0742810D07A280FD1FE
:102CA0000DE044F400140AE044F4801401E044F41C
:102CB00040147278824202D104F58014761C761C8E
:102CC000307866280BD013DC582877D009DC002830
:102CD00075D04528F6D04628F4D047281AD193E17C
:102CE00018E0632835D0642879D0652812D18BE1AB
:102CF000702873D008DC6728F1D069286FD06E285F
:102D00000DD06F2806D1ACE073282CD0752874D074
:102D1000782853D05246179990476D1C54E1C4F35C
:102D20000250022809D003280DD0D8F8001004283A
:102D30000DD00D6008F1040846E1D8F80010EA173C
:102D4000C1E90052F6E7D8F800100D80F2E70D70E7
:102D5000F0E718F8041B8DF8001000208DF8010032
:102D6000EB46012003E058F804BB4FF0FF30610749
:102D70004FF0000102D40DE009F101018946B9428A
:102D80000FDA8145F8DB1BF809100029F4D108E0BF
:102D900009F1010189468142FADB1BF8091000297B
:102DA000F6D103985346A0EB090721463846179AF7
:102DB00000F080FA284400EB090507E044E008E150
:102DC0000DE01BF8010B524617999047B9F1010924
:102DD000F7D2534621463846179AF2E039E00A21E5
:102DE000C4F302524FF0000B0091022A06D058F8AB
:102DF000040BC117032A09D00AE023E008F10700F9
:102E000020F00702F2E80201904605E000B2C11787
:102E1000042A01D140B2C117002906DA0A4600216E
:102E2000404261EB02012D2202E0220504D52B2253
:102E30008DF80420012203E0E20701D02022F7E709
:102E4000914657E00A2100E010214FF0000B00915D
:102E50000BE010214FF0000B44F004040827009110
:102E600003E008204FF0000B0090C4F30252022A46
:102E700005D058F8040B0021032A08D008E008F117
:102E8000070020F00702F2E80201904603E080B25A
:102E9000042A00D1C0B24FF0000922072AD53278A7
:102EA000702A07D0DDF800C08CF0100C5CEA0B0C27
:102EB00005D00EE040228DF80420012208E050EAFF
:102EC000010306D030238DF804308DF8052002224E
:102ED0009146009B83F0080353EA0B030AD150EAA2
:102EE000010201D1620705D530228DF804204FF090
:102EF00001097F1E3278582A04D039A20C920CAAFC
:102F000002920BE03BA2F9E75B46009AFDF779FAE3
:102F10000C9B9B5C029A521E0292137050EA0102B3
:102F2000F2D1029804A9081A00F1200B600702D51B
:102F300024F4803400E001275F4502DDA7EB0B009D
:102F400000E0002000EB0B01009003984944401A78
:102F50000390E00306D453462146179A039800F0E5
:102F6000A9F90544002706E001A85246C05D17995B
:102F700090476D1C7F1C4F45F6DBE0030CD5534694
:102F80002146179A039800F095F9054404E0302093
:102F90005246179990476D1C0099481E00900029D1
:102FA000F5DC08E00298029952460078491C02912B
:102FB000179990476D1CBBF10001ABF1010BF1DCDF
:102FC0005BE100F065F90544761C307800287FF459
:102FD0000DAE19B02846BDE8F08F000009280100A9
:102FE000303132333435363738396162636465667F
:102FF0000000000030313233343536373839414241
:103000004344454600000000600700D4062708F14D
:10301000070020F00700F0E80223804603F0004C90
:103020005FEA0C0001D097A009E0200501D596A029
:1030300005E0E00701D095A001E0AFF24C0013904D
:10304000307823F0004365280CD006DC452809D0F1
:1030500046281DD047287FD13BE0662818D0672836
:103060007AD136E00021112F01DB112000E0781C1D
:10307000CDE9000104A90CA8FFF7EEFCDDE90D0184
:103080000C9A4FF0000B07F10109109200914EE0ED
:103090004FF000400097CDE9011004A90CA8FFF7FC
:1030A000DBFCDDE90D020C9B0F994FF0000B914604
:1030B0001093009211B9791C00EB0109B7EB0900DC
:1030C00003D4C0F1FF3B07F10109A9EB0700019010
:1030D00042E0012F00DA01270021112F01DD11202C
:1030E00000E03846CDE9000104A90CA8FFF7B4FCC4
:1030F000DDE90D010C9A00914FF0000BB9461092DA
:1031000021070FD4009A4A4503DA914601E0A9F15C
:103110000109B9F1010F05DD109AA9F10101515C16
:103120003029F4D0B84202DA10F1040F03DA012199
:10313000CDE9011010E0002803DC8344A9EB000175
:1031400002E0411C494500DD8946A0EB0B00401C14
:1031500001904FF000400290200705D401984845A7
:1031600002DB4FF0FF30019000208DF84B000298F9
:103170000DF14B07B0F1004F25D002200C902B2011
:103180000D90029800280CDA404202902D200D90FC
:1031900007E00A210298FDF71EF93031029007F886
:1031A000011D0C99481E0C900029F2DC02980028A1
:1031B000EFD1791E0D980870307800F0200040F0B3
:1031C000450007F8020D11A8C01BC01D02901398FE
:1031D000007800B1012000EB0901019801EBE071DA
:1031E000029801440398401A401E0390E00306D45D
:1031F00053462146179A039800F05CF8054413984B
:10320000007818B15246179990476D1CE00323D5FA
:1032100053462146179A039800F04CF805441BE0EA
:10322000BBF1000F07DB0098584504DD1098179993
:1032300010F80B0001E01799302052469047019892
:103240000BF1010B401E05F10105019004D12E2068
:103250005246179990476D1CB9F10001A9F1010977
:10326000DEDC05E017F8010B5246179990476D1CFC
:103270000299481E02900029F4DC53462146179A11
:1032800003989EE62D0000002B00000020000000A7
:103290002DE9F041044600251E461746880404D453
:1032A00005E039462020B0476D1C641EF9D528463C
:1032B000BDE8F0812DE9F041044600251E46904608
:1032C000C80301D5302700E02027880404D505E095
:1032D00041463846B0476D1C641EF9D52846BDE806
:1032E000F0814A68002A06D00A68531C0B601070EF
:1032F0004868401E486070470A68531C0B60107095
:10330000704700000122D103014800F087B8000097
:10331000000C014000224FF40041014800F07EB84B
:10332000000C01402DE9F047384886B0816941F032
:1033300008018161816901F008010491816941F00E
:1033400020018161816901F020010491816941F0CE
:10335000400181618069DFF8B8A000F0400004906E
:103360000120C402CDE90040029003200390694689
:103370005046FDF705FBA710694650460097FDF73C
:10338000FFFADFF890802501694640460095FDF779
:10339000F7FAA600694640460096FDF7F1FA69463D
:1033A00040460094FDF7ECFADFF86C906946484619
:1033B0000095FDF7E5FA694648460096FDF7E0FA04
:1033C00001222146504600F029F801223946504694
:1033D00000F024F801222946404600F01FF801229F
:1033E0003146404600F01AF801222146404600F0DE
:1033F00015F801222946484600F010F8012231460E
:10340000484600F00BF806B0BDE8F0870010024017
:1034100000140140000C01400018014032B1012AA3
:1034200007D0022A09D189B2FDF79EBB89B20122D9
:1034300001E089B20022FDF79BBB704700224FF4E8
:1034400000710A48FFF7EAFF094C0122D103204628
:10345000FFF7E4FFE5144FF4FA76022229462046EE
:10346000FFF7DCFF304602F0A3F9F6E70014014055
:10347000000C014008B50020114C124D124E009076
:1034800029682068496AC0EB004008440246009061
:103490000EA1144800F0BEF8009800EB8000FCF785
:1034A00079FF3146FCF738FFFCF782FF02460B46F6
:1034B0000DA10C4800F0AEF8322002F079F9DFE7F8
:1034C000240000201C03002000007A44696E7075FF
:1034D00074206361702076616C75653A20256409FB
:1034E0000000000008020020726F7574653A202504
:1034F0002E3366206D6D0D0A000000001CB5FDF72F
:103500004BFBFEF70AFFFEF7DDFEFFF70BFF4FF464
:10351000E134204601F0E6FF204601F0F7FF4721A5
:10352000632001F0B5FF01F053FF18211148FEF7A9
:103530008BFA002001F084FF0F490120CDE9000142
:10354000020200230DA1104802F008FD01280FD04F
:103550000EA30AA20FA1134800F05CF801F0EAFFE5
:1035600002F0F2F94FF4FA742046FDF7FDF9FBE79B
:103570000DA3EEE71C0300200000002073746172AD
:10358000745F7461736B0000195300086661696CA5
:10359000656400006372656174652025732025737E
:1035A0000D0A0000080200207375636365737300E1
:1035B00010B50648FEF730F904210448FEF7CCFBAD
:1035C000BDE8104002A1064801F0B4BA880200200C
:1035D0006D6F746F72312073746172740D0A000024
:1035E000A8CC002010B504210448FEF7EBFBBDE891
:1035F000104003A1064801F09DBA00008802002097
:103600006D6F746F72312073746F700D0A0000005B
:10361000A8CC00200FB410B5B2B0044636AA684654
:103620003599FFF7F7F96846FCF720FE82B24FF4B0
:103630007A7369462046FEF7DDFD32B010BC5DF8B6
:1036400014FB0000074910B50A68401ED062C8602C
:103650000846FEF7D5F803480421BDE810403C3881
:10366000FEF77ABBC40200202DE9F0411E4C0F4644
:103670000546E6682068001D01F092FF38B9206811
:1036800090F82C1001208840216981432161681C39
:1036900015D1A7B1154922684868906023688268EF
:1036A000DA6022688368121D5A602268121D8260E7
:1036B000206841610868401C0860BDE8F08120680E
:1036C0003544B5424560216805D2E06BBDE8F04164
:1036D000091D01F086BFA06B091D01F082FFA06AE1
:1036E0008542EAD2A562E8E7280000204C040020C9
:1036F0002DE9F041054601F099FF364CA068401CC9
:10370000A0602068344F10B1606940B32DE025609F
:10371000A068012829D1002606EB860007EB80006F
:1037200001F051FF761C052EF6D32B48643001F0D2
:103730004AFF2948783001F046FF27488C3001F0D5
:1037400042FF2548A03001F03EFF2348B43001F08D
:103750003AFF21486430A0631430E06305E020683C
:10376000E96AC06A884200D82560606A401C6062CD
:103770002864E96A0120226988401043206101EB36
:10378000810007EB80004068A8608168E96082687A
:10379000291D51608160E86A00EB800007EB800121
:1037A000696157F82010491C47F8201001F05EFFAE
:1037B000606900280CD02068E96AC06A884207D294
:1037C00006494FF080500860BFF34F8FBFF36F8FF3
:1037D000BDE8F081280000209803002004ED00E0FF
:1037E00010B501F023FF0E4C2068A0B90D4801F080
:1037F000EAFE0C48143001F0E6FE0A48E06014309E
:10380000206100220C210A2002F088F9206010B10A
:1038100005A101F083FFBDE8104001F027BF0000C3
:103820006800002060040020546D72510000000008
:1038300030B4026C0B46002A0BD0C1681144C16041
:103840008468A14201D30168C16030BC1846FCF70E
:10385000E9BC30BC70472DE9F041856B1746044642
:103860000026026C82B1C7B1E068FCF7DBFCE168BE
:10387000206C091AE1602268914202D2A168081AFC
:10388000E060022F16D017E02068A8B9A06802F007
:1038900041FC06460020A0600EE06068FCF7C2FC18
:1038A000216C606808446060A168884204D3206885
:1038B000606001E005B16D1E6D1CA5633046BDE87A
:1038C000F08110B50446006B01F0E4FE2046BDE82F
:1038D000104001F0DFBE000010484FF4484142079D
:1038E00006D0C01D0D4920F00700411AC1F548411E
:1038F0000B4A00230144C2E900030839183A21F0B9
:10390000070111604B600B600B1AC0E90013936054
:103910004FF0004053605061704700008804002061
:1039200094000020144E154CA6F1A0074FF08058CB
:10393000DFF84C9012E000BF01F078FEF068C56837
:10394000281D01F02DFEA068401EA0606068401E8A
:10395000606001F08BFE2846FFF7B3FF6068002827
:10396000EAD138680128F9D9C9F80080BFF34F8F30
:10397000BFF36F8FF2E7000038040020280000201A
:1039800004ED00E02DE9F05F8846DDE90B94154673
:10399000834691009A460A9EA522206BFCF754FCB0
:1039A0006FF00301206B01EB8501084420F007074D
:1039B000780707D0502080F31188BFF34F8FBFF3F3
:1039C0006F8FFEE70025B8F1000F0FD05FF0000009
:1039D000221818F8001082F8341018F8001011B1ED
:1039E000401C0A28F4D384F83D5001E084F8345098
:1039F000052E07D3502080F31188BFF34F8FBFF3FC
:103A00006F8FFEE7E662C4E91265201D01F0E6FD56
:103A100004F1180001F0E2FD2461C6F105006462C2
:103A2000A061256584F8545052465946384600F046
:103A30007DFA2060B9F1000F01D0C9F80040BDE85F
:103A4000F09F000030B5114900E011460A6882423B
:103A5000FBD34B685C18844203D14068184448602B
:103A6000084643681C18944209D1084C183C246845
:103A7000A24209D052681A4442600A681268026081
:103A8000814200D0086030BD0460F9E79400002056
:103A900070B5002441600B4D0061914206D8D11AE7
:103AA0008269914206D2011D286907E09A4203D239
:103AB000994201D3012403E0011DE86801F091FD62
:103AC000204670BD6800002010B5044601F0AEFD30
:103AD000A06B28B15FF0000401F0C8FD204610BDC6
:103AE0000124F9E7F1B500260098846C5CB1A16B64
:103AF000E06B81420FD3502080F31188BFF34F8FCA
:103B0000BFF36F8FFEE7502080F31188BFF34F8F14
:103B1000BFF36F8FFEE7A16B81420ED294F945503F
:103B2000002269462046FFF796FE0646681C06D02E
:103B30007F2D0FD06D1C84F845503046F8BD606A6B
:103B40000028FAD004F1240002F040FB0028F4D051
:103B50000126F2E7502080F31188BFF34F8FBFF3A7
:103B60006F8FFEE770B506460D480D46C068C06809
:103B7000C468201D01F014FD94F82800410705D504
:103B80002A463146204600F0B5F803E000F0FE007A
:103B900084F828002046216ABDE8704008470000EC
:103BA000680000207FB5374E63E00098002860DB96
:103BB000029C606910B1201D01F0F2FC03A800F026
:103BC000BBF8054600980A2853D2DFE800F05205FA
:103BD00005282E460505282E94F828002A4640F090
:103BE000010084F828000199A069019B0144204646
:103BF000FFF74EFF40B394F82800410707D501981E
:103C0000A1692A460144204600F074F803E000F060
:103C1000FE0084F82800216A2046884729E014F82D
:103C2000280F00F0FE00207023E094F8280040F0F8
:103C3000010084F828000198A06130B141192B4699
:103C40001A462046FFF724FF13E0502080F3118826
:103C5000BFF34F8FBFF36F8FFEE794F82800810703
:103C600003D4204601F016FD03E000F0FE0084F8C6
:103C7000280000226946306802F096F8002894D1A6
:103C80007FBD000068000020F8B50D46064601F033
:103C900093FE684600F050F80446009810B102F018
:103CA00003FBF8BD1148ADB101690968D9B1002520
:103CB000311B2A46006801F059FD02F0F5FA002890
:103CC000EFD10B494FF080500860BFF34F8FBFF327
:103CD0006F8FF8BDA642EBD802F0E6FA21463046D7
:103CE000FFF740FFF8BD0125E2E700006800002073
:103CF00004ED00E070B516460C46054604E0A869E0
:103D0000296A044428468847A8692346011932468F
:103D10002846FFF7BDFE0028F1D170BD0548816B34
:103D2000096821B1816BC9680968816270474FF0E9
:103D3000FF31FAE7280000202DE9F041064602F0A5
:103D400047F90E4C0546A068854214D24FF0FF3764
:103D500004E0C06839460068FFF704FFE0680168C6
:103D60000029F6D12169C4E90310012030602846FA
:103D7000A560BDE8F0810020F8E7000068000020A1
:103D800008484068401C4FF0500080F3118804D070
:103D9000BFF34F8FBFF36F8FFEE7BFF34F8FBFF3BC
:103DA0006F8FFEE79C000020074CE068016841B17E
:103DB000C0680021D0F80000FFF766FFFFF7F2FEB1
:103DC000F3E701210020F7E7680000202DE9F0412A
:103DD000044601F02BFC94F9455004F124060FE051
:103DE000A06C18B12046FFF77DFE04E0606A48B180
:103DF000304602F0EBF908B101F060FD6D1E6DB2C6
:103E0000002DEDDC4FF0FF3684F8456001F02EFC0C
:103E100001F00CFC94F9445004F1100709E020690A
:103E200048B1384602F0D2F908B101F047FD6D1EE5
:103E30006DB2002DF3DC84F84460BDE8F04101F080
:103E400015BC00002DE9F0410546002701F0B4FD46
:103E5000354E306808B9FFF73FFD7069054254D10F
:103E6000F5B305F10804AC424FD9600711D004F056
:103E70000700C0F108002044A04246D9044640078C
:103E800007D0502080F31188BFF34F8FBFF36F8F9F
:103E9000FEE72CB37068844237D8234818300146B7
:103EA0000D6801E028460D466968A14202D22968E2
:103EB0000029F7D131688D4227D007682968016051
:103EC00068680837011B10290FD92819420708D044
:103ED000502080F31188BFF34F8FBFF36F8FFEE741
:103EE00013E041606C60FFF7ADFD69687068401ACF
:103EF0007060B268904200D2B060706901430020E7
:103F0000C5E90001F068401CF06002F0CDF97807C7
:103F100007D0502080F31188BFF34F8FBFF36F8F0E
:103F2000FEE73846BDE8F0817C00002010B5031F95
:103F30004FF080741C601B1F21F001011960191FD4
:103F4000024B0B60143940380A6010BD813D0008F7
:103F5000012100F04DB80B784BB14A7802F00F0206
:103F6000082A04D002685AB11278134208D090F897
:103F70006000C00702D14878C00601D50020704714
:103F80004FF0FF307047000010B500F097FA00289E
:103F900005D00349896BBDE8104001F0ABB910BDF5
:103FA000AC000020F8B505468089E989401A04B2C2
:103FB000202607E08DF80060AA6E01216846904730
:103FC000641E24B2002CF5DC297B2846BDE8F840AD
:103FD00000F07AB810B500F071FA002803D0BDE8FF
:103FE000104000F087BC10BD4FF0FF31AFF30080F0
:103FF000F8B50446481C03D00023E28912B103E05F
:104000000123FAE701295DD0A089824201D14D1C2C
:1040100058D00025824201D1012901D0184613E071
:10402000521E401EE28180B2A08121690D542046BB
:10403000BDE8F840012100F047B822691144421E52
:10404000465C401C8E5400B2A289E189521A824219
:10405000F3DCA089401EA081082643B9E089401EF8
:10406000E0818DF80060A26E012168469047A18929
:1040700020694554B4F90E5009E020690121405DE2
:104080008DF80000A26E684690476D1C2DB2A08985
:10409000A842F2DC20208DF80000A26E01216846C3
:1040A0009047A089E189401A401C05B208E000BF92
:1040B0008DF80060A26E0121684690476D1E2DB2FA
:1040C000002DF5DCF8BD000070B50C46054603E098
:1040D00003A1284601F00EF9641EE4B2F8D270BDC7
:1040E000082008004FF0FF3100F09CBA10B50446DC
:1040F00000F006F82046BDE81040012101F08CB820
:10410000F8B50446808900283CD021690025224E5C
:104110000D5494F86000C00728D0204600F0CEFA75
:1041200008200090A189202304F11402206900F0E6
:10413000A9FE0004000CE086E581A58122D017A12C
:10414000204601F0D7F800232046A26D616900F0F7
:1041500075FD010004D02046BDE8F84000F010BD18
:104160002046B169BDE8F84001F0C4B82068816814
:104170002069FCF782F830B1716B204601F0BAF883
:10418000A581E581F8BD94F8600040F0010084F855
:1041900060003168F1E70000AC0000200D0A00006B
:1041A0000178272906D0014600200A785C2A03D02E
:1041B00010467047411CF7E749786E290FD004DCA0
:1041C0003029F6D0622904D105E0722905D074297E
:1041D00007D008467047082070470D2070470A2016
:1041E00070470920704700002DE9F0410746002381
:1041F00000780A2601221D461C462D2808D00020E2
:104200003844002190F800C0BCF1300F04D01FE00A
:104210004FF0FF320120F3E74178782907D0582981
:1042200005D0622905D0422903D0022110E00321E4
:104230000EE001210CE000BF90F800C0BCF12E0F91
:1042400006D190F801C0BCF1000F01D0042111E0AB
:1042500010F801CBBCF1000FEED1012908D00229E2
:1042600003D0032906D1102603E00826012301E02C
:10427000022602233B44501C02D0002003441FE0CE
:104280000120FBE72E2805D0A0F13007092F03D825
:10429000F8B20FE0012412E0A0F16107052F01D868
:1042A000573804E0A0F14107052F02D83738C0B2D3
:1042B00000E0002005FB060504EB840044005B1CC5
:1042C00018780028DED1042913D194B11046FCF7E8
:1042D00061F806462046FCF766F804462846FCF7D7
:1042E00062F82146FCF718F83146BDE8F041FBF7CB
:1042F000E1BF05FB02F0BDE8F0812DE9F041044685
:1043000008781E464FF0FF3522B1242833D14A7871
:1043100022B930E027280AD02D2803D0A0F130029E
:10432000092A0BD80846FFF75FFF306036E04A786D
:10433000002AF3D00846FFF733FFF6E74FF00008F6
:10434000242806D0B8B100270D460C46222814D0E8
:104350001EE04A78002AF6D000232046491CA26DB0
:1043600000F06CFC010006D0204600F0BBF8306085
:104370004046BDE8F0812846FBE76C1C254607E077
:104380005C280DD0222811D0E8557F1CBFB2641CD8
:1043900020780028F4D105F8078035600020E8E790
:1043A0002046FFF7FDFEE855641CEEE705F80780A0
:1043B000EBE72DE9F04F8BB00C4683469A46154645
:1043C000202103A8FBF747FFA0786E1E00F00F071F
:1043D000B74200DC374600254FF0FF380DF10C09DD
:1043E0000AE00AEB850009EB850341680022584684
:1043F000FFF783FFB0BB6D1CB542F2DB082F3DD247
:10440000DFE807F004090D12181E2631A068804766
:104410000BB0BDE8F08FA16803988847F8E7DDE9A5
:104420000301A2689047F3E703ADA36895E807008E
:104430009847EDE703ADA46895E80F00A047E7E7CC
:10444000A468079803AD009095E80F00A047DFE748
:10445000A468DDE9070103ADCDE9000195E80F008F
:10446000A047D5E70AE007ABA46893E807008DE80A
:10447000070003AD95E80F00A047C9E74046C7E72E
:10448000C068704700B500210B4A30235354491CC3
:10449000C9B20929FAD3417801F00F01012903D9E2
:1044A000072901D9082901D8406800BD40680249A0
:1044B00000F05AFE004800BD9CCC002008490020B6
:1044C00051F8202032B192F86020920702D551F8BD
:1044D00020007047401C00B20528F1DB0020704727
:1044E00088CC00204A78002002F00F02921E062A93
:1044F00006D2DFE802F003060A0D0D0F8868006897
:1045000070478868B0F90000704788680078704785
:10451000886870478868416809B1006808470020CA
:10452000704700002DE9F05F5FEA0109044660D0A2
:10453000A06B1825002710F47F4F03D000256FF0E3
:10454000FF070AE010F47F0F02D008252A4F04E08D
:10455000000E02D010254FF07F470026B246D4F857
:10456000588032E008EB061B9BF8010000F00F00BA
:10457000092828D159462046FFF7EDFC18BBDBF887
:104580000400A26B00EA070191421CD1FF2303FA49
:1045900005F1084009FA05F1884214D10A434FF0A9
:1045A0000009A26335B1A5F10801DBF804008B40D6
:1045B000184208D108EB0610816809B120468847E7
:1045C000C4F838A00EE0761C36B2B4F85C00B042F5
:1045D000C8DCB9F1000F05D049462046C4F838A020
:1045E00000F0A0FAFCF7CAFA002802D0FCF7C6FADD
:1045F0006060BDE8F09F00000000FFFF10B50B46B3
:104600000446FFF75BFF00280BD0012C05D008DD26
:104610005968BDE8104000F0D3BDBDE8104000F07F
:104620005FB910BD70B500250446002918DDB4F946
:104630005430A3F10100A4F85400B4F85010B4F8B9
:104640005200814201D90A4600E00246524293429A
:1046500012DC814200D908464042A4F854000BE025
:1046600009DAB4F85400401C00B2A4F85400002841
:1046700002DDA4F8545070BD2046FFF793FCB4F956
:104680005400C0B1B4F8521008440521401D90FBFD
:10469000F1F201FB120004EB8000C16B206900F015
:1046A00079FCA0810028E6D0E08120462169BDE8A0
:1046B000704000F01FBEA581E58170BD70B500257A
:1046C0000446A0F85450B0F8500058B1B4F8520065
:1046D000216900B9052004EB8000806BFBF7CDFD5C
:1046E00000281ED0B4F85200216904EB8000C06B92
:1046F00000F050FC20B1B4F85200401CA4F8520065
:10470000B4F85000401C80B2A4F85000052802D92B
:104710000520A4F85000B4F85200052801D3A4F8ED
:10472000525070BD10B504460020A081E0810B46B8
:10473000206094F8601041F0010184F860100621B7
:10474000B2FBF1F12361A186A4F85400A4F8500053
:10475000A4F85200A28E411C02FB013204EB80003F
:10476000C26308B20528F5DB11481249A065081A92
:104770000009A4F85C001049002000BF51F8202077
:104780009AB1401C00B20528F8DB00230BA120469B
:10479000A26D00F053FA0146204600F087FA204649
:1047A000BDE81040012100F037BD41F82040ECE7A2
:1047B000346800089469000888CC0020777168008C
:1047C000F8B504468089A28E521E90420EDB364810
:1047D0004168204600F08EFD0121204600F01CFDBE
:1047E00020462169BDE8F84000F084BDE28900233D
:1047F000824217D1256900F10102A2812954A289C0
:1048000020698354E08900F10100E08194F86000A0
:10481000C00700D12A218DF80010A26E0121684640
:104820009047F8BDFDD2801A00B206E0E589226902
:104830001544421EAE5C465510B20028F6DCE089F5
:104840002569421CE2812954A0892169401C80B25B
:10485000A0810B54E089401E05B20FE094F860007F
:10486000C00702D02069405D00E02A208DF80000DA
:10487000A26E0121684690476D1C2DB2A089A84206
:10488000ECDCE18980B2401A05B2082608E000BFDE
:104890008DF80060A26E0121684690476D1E2DB212
:1048A000002DF5DCF8BD0000AC00002010B5FFF7CE
:1048B00005FE002803D0BDE8104000F0BBB810BDD5
:1048C00038B50446C089002809D008208DF80000BA
:1048D000A26E012168469047E089401EE08138BD04
:1048E00010B5044600F006F82046BDE8104000F080
:1048F000A1B800002DE9F0410646876D0F48816898
:10490000304600F0F7FC002412E000BF07EB04156E
:10491000687800F00F00012808D829463046FFF7D4
:104920001AFB18B92946304600F00AF8641C24B274
:10493000B6F85C00A042E9DCBDE8F081AC000020E4
:10494000F8B505460E460846FFF79CFD0146284689
:1049500000F0D0FCC0F1160004B2002C00DC0424EE
:104960005FF020078DF80070AA6E0121684690471D
:10497000641E24B2002CF5D1707800F00F01294894
:10498000012901D8016C0CE0072901D8416C08E02D
:10499000082901D8816C04E0092901D8C16C00E024
:1049A000016D284600F0A6FC1FA1284600F0A2FCDD
:1049B00007240127307807FA04F1084201D0782053
:1049C00000E02D208DF80000AA6E01216846904776
:1049D000641E64B2002CEDDA13A1284600F08AFCB4
:1049E0003046FFF74DFDAA6E03460021A2B102E05A
:1049F000491C89B2401C04781CB10D2C01D00A2C32
:104A0000F6D1242906D9242118469047032107A06E
:104A1000AA6E00E0184690472846BDE8F84004A179
:104A200000F068BCAC000020202000002E2E2E00DC
:104A30000D0A00002DE9F0410646876D10484169D6
:104A4000304600F057FC002414E000BF07EB0415CB
:104A5000687800F00F0008280AD9092808D82946E4
:104A60003046FFF778FA18B929463046FFF768FF55
:104A7000641C24B2B6F85C00A042E7DCBDE8F0811B
:104A8000AC0000202DE9F0410646876D1048016911
:104A9000304600F02FFC002414E000BF07EB0415A3
:104AA000687800F00F0007280AD9082808D8294696
:104AB0003046FFF750FA18B929463046FFF740FF55
:104AC000641C24B2B6F85C00A042E7DCBDE8F081CB
:104AD000AC0000202DE9F0410646876D1048C16802
:104AE000304600F007FC002413E000BF07EB04157C
:104AF000687800F00F00801E052808D82946304647
:104B0000FFF729FA18B929463046FFF719FF641C48
:104B100024B2B6F85C00A042E8DCBDE8F0810000F9
:104B2000AC00002090F8602022F0040280F86020A1
:104B3000FFF746BE0FB410B5A0B004000CD024ABF4
:104B400080216846239AFDF74BFF802800DD8020F6
:104B500081B2A26E6846904720B010BC5DF814FB8D
:104B600008B5C1898289914209D203694A1CC28170
:104B7000595C8DF80010826E01216846904708BD8F
:104B80002DE9F047044690F860000F4640F002001F
:104B900084F86000497800250A0704F114090BD055
:104BA00001F00F0001282FD0811E052937D8394682
:104BB000204600F00FF938E00025A84617E000BFB6
:104BC00004EB850670690178222904D180F8008001
:104BD0007069401C7061FBF749FB80B27169401E2F
:104BE0000A5C222A01D101F800806D1CADB2E08E72
:104BF000A842E5D8BA68E08E494690470AE02946BF
:104C0000204600F037FB10E0E28E4B463946204646
:104C1000FFF7CFFB054678788006F0D505E0082839
:104C200003D13946204600F041F814F8600F20F017
:104C3000020020702846BDE8F08700002DE9F0470B
:104C400006468A46B16DB0F85C00511AA0EB11100F
:104C50009946154687B200241BE000BF05EB0418F7
:104C600098F8010000F00F00092810D041463046A6
:104C7000FFF771F958B94046FFF704FC0146B9F156
:104C800000000BD002465046FBF705FB50B1641CF8
:104C9000A4B2BC42E2D30020BDE8F0875046FBF747
:104CA000ECFAF3E705EB0410F6E7000070B50446F4
:104CB000016088680D4600B3FBF7D8FAE8B1E08ED2
:104CC000022804D3A169A868FBF7D7FAA8B194F821
:104CD000600020F0010000BF0B4D84F8600020460A
:104CE000A96B00F007FB94F86000C0070AD02046CB
:104CF0002968BDE8704000F0FDBA94F8600040F00B
:104D00000100E9E770BD0000AC0000202DE9F04192
:104D10000E460746FFF7D2FB041E16D00023394685
:104D2000A26DFFF78BFF0E4D010010D0487800F008
:104D30000F00801E06280CD33946204600F0DAFA10
:104D4000696A204600F0D6FA0020BDE8F081A96A21
:104D5000F7E732462046BDE8F04100F003B8000016
:104D6000AC00002070B50C460546497818484B0643
:104D700001D5016A18E001F00F01891E062921D230
:104D8000DFE801F00306090C1116A068026019E0C3
:104D9000A068028016E0A068027013E01146A068C7
:104DA00000F0F8F80EE0C169284600F0A3FA09E027
:104DB000A068836833B1006810B11146984701E0DC
:104DC0001046984721462846BDE8704000F002B8DA
:104DD000AC000020FEB523A20C46064607CA8DE8AB
:104DE000070021463046FFF77DFB054630466168E7
:104DF00000F080FA1EA1304600F07CFA607800F0E6
:104E00000F00052823D06946284600F087F9C0F135
:104E10000B006C460119304600F06CFA15A13046C3
:104E200000F068FA002130206054491C09B20B29B7
:104E3000FADB6946284600F097F96946304600F0EB
:104E400059FA0EA1304600F055FA2846FEBD0CA1D5
:104E5000304600F04FFA2946304600F04BFA08A1E0
:104E6000ECE700003030303030303030303030005F
:104E7000203D20002C203078000000000D0A0000AA
:104E8000220000002DE9FF4F0126002484B089464E
:104E9000DDF844B00094019402942246A0462146D5
:104EA000A646039404E0069C44F821E0491C09B29C
:104EB0005945F8DB0021B9F1000F53D92B4DEA46D3
:104EC000445C9C4211D0012E04D00EE0002AF7D0A1
:104ED00000241AE0D84508DA069C461844F82860F1
:104EE0000026344608F1010821E09C4201D0202C24
:104EF00000D10EB100241AE0441800F801E06478F3
:104F0000202C2BD0012629E092B105EB440C475C04
:104F10009CF801C067450AD10AEB020715F814C0D6
:104F200017F8017C674502D1521ED2B20EE0475CF1
:104F300015F814C0674505D10AF802C0521C02F0EA
:104F40000F0203E0641C14F0FF04DDD0445C5C2C11
:104F500004D1441864780CB1491C89B2491C89B247
:104F60004945B3D308B04046BDE8F08FA800002003
:104F700030B504460020024605E0AB4209D1401C92
:104F8000521C80B292B2A35C002B02D08D5C002D2B
:104F9000F3D130BD0246002002E01354401C80B221
:104FA0000B5C002BF9D10021115470472DE9F05F03
:104FB0000446B0F834804FF0000980894D4630B186
:104FC0002269CA46564602F800A0A76D3BE020467B
:104FD000FFF786FC0121204600F01EF95EE000BFCD
:104FE00007EB06118B462046FEF7B5FF48BB584637
:104FF000FFF748FA01462069FFF7BAFFA189884206
:105000001FD1D5B1012D03D13FA1204600F072F987
:1050100007EB091949462046FFF792FC5846FFF76F
:1050200031FA83464846FFF72DFA5946FFF7A0FFAD
:105030004146804500D8084680466D1C1FFA86F917
:10504000ADB2761C36B2B4F85C00B042C8DC002DBC
:1050500058D0012D02D12046FEF7A4FF07EB09101E
:105060000646FFF70FFA01462069FFF793FFA0817C
:10507000012D09D931462046FFF762FC0121204667
:1050800000F0CAF8A4F80C80A289216901F802A0F6
:10509000A089E0812046216900F02CF9FBF76EFD24
:1050A00000282FD0012D28D194F86000400724D586
:1050B000FBF764FD6168401AC8281ED22046FEF73F
:1050C00071FFB4F90C0005E02169421D0B5C401E24
:1050D0008B5400B20028F7DA0CA12069FFF75AFFC1
:1050E000216920200871A089401DA081E08120460F
:1050F0002169BDE8F05F00F0FDB814F8600F40F0E2
:1051000004002070BDE8F09F0D0A000068656C7017
:10511000000000000A2000F04BFBFBE730B50B223B
:10512000031E00DA43420024CC720A240AE000BFC6
:1051300093FBF4F504FB153593FBF4F3521ED2B246
:1051400030358D54002BF3D1002802DA4FF02D00BA
:1051500002E005D14FF03000A2F10102D2B2885432
:10516000C2F10B0040B230BD082200230B720AE0EE
:1051700000F00F03092B01D9573300E03033521EE2
:10518000D2B200098B540028F2D1C2F1080040B21B
:1051900070470121FFF746BA10B5FFF78FF90028D5
:1051A00003D0BDE81040FFF76DBC10BD10B5FFF790
:1051B00085F9002803D0BDE81040FFF78BBC10BD77
:1051C00070B505460023826DFFF738FD04001048D6
:1051D00017D0C16A284600F08DF82046FFF752F933
:1051E0000146284600F086F80AA1284600F082F819
:1051F0002046FFF745F90146284600F07BF805A157
:1052000000E081692846BDE8704000F073B80000F6
:10521000AC0000200D0A000010B5044690F86000B4
:10522000C00719D019B10EA1204600F063F820681C
:105230004168204600F05EF80AA1204600F05AF8C6
:10524000A16801B908A1204600F054F807A1204642
:10525000BDE8104000F04EB80548016BF7E70000CC
:105260000D0A00003A0000002F000000242000007A
:10527000AC000020FEB516A20D46064607CA8DE812
:10528000070016A1304600F035F869462846FFF7BA
:1052900045FFC0F10B006C460119304600F02AF8BA
:1052A00011A1304600F026F800223020A054521CF4
:1052B00012B20B2AFADB69462846FFF755FF69460A
:1052C000304600F017F80AA1304600F013F8FEBD92
:1052D000303030303030303030303000526574751E
:1052E000726E3A20000000002C2030780000000090
:1052F0000D0A000010B50B46846E00211A461CB939
:10530000002010BD491C89B212F8010B0028F9D108
:105310001846A04780B210BD7CB500F087F9042480
:105320001748A501CDE9004000232A4615A11848D9
:1053300000F014FE01281ED016A312A217A11B48CC
:10534000FEF768F90E480023001DCDE900402A460B
:1053500017A11C4800F002FE01280ED00DA314A2D4
:105360000EA11248FEF756F9002000F047FABDE8FA
:105370007C4000F07BB914A3DFE713A3EFE7000044
:10538000040000206C65645F7461736B00000000B2
:105390003D3400086661696C656400006372656194
:1053A00074652025732025730D0A00000802002073
:1053B0006C696E6561725F656E636F6465725F7460
:1053C00061736B00753400087375636365737300F4
:1053D00010B51A4C8AB04FF080410020C4E900108B
:1053E0004FF6FF72C4E9020203222061CDE90020DA
:1053F0000122CDE902200D230493CDE90502CDE978
:105400000703486269462046FCF7AAFA21686FF054
:10541000010008612068016841F004010160206812
:10542000C16841F00101C160022201211C20FBF78B
:1054300001FC1C20FBF7F2FB0AB010BD1C0300208E
:1054400010B512498AB000240C61C1E902400E4A2D
:10545000C1E900240846FCF79AF94FF48050059002
:1054600005A90A48FCF703FA3020019005200090B6
:1054700004940294694603940448FCF715FD03481C
:10548000FCF7E0F90AB010BD00040040C40200209F
:105490001CB5134A0446114810600020C2E90340BD
:1054A000C2E901101046FCF706FC20200090802085
:1054B000019069460A48FCF742F9094860217830B2
:1054C0000422016061084160022181600146783850
:1054D000FCF789FB0248FCF79FF91CBD000800405F
:1054E000880200200849074AC1E9002000200C2258
:1054F000C1E90520C8610861C86088600846FCF7FA
:105500006FBD000000380140080200200849074A2A
:10551000C1E9002000200C22C1E90520C861086112
:10552000C86088600846FCF75BBD0000004400408E
:10553000480200201CB5012000F0DEFA0B494FF4B0
:10554000007208600B490A4888666C310948FFF709
:10555000E9F800210320CDE90001064B4FF48062F9
:1055600005A1074800F0FAFC1CBD00000001002066
:1055700085550008A8CC00207368656C6C0000009D
:105580001551000810B50C460A46014640F2FF13BB
:105590000248FCF72FFE20B210BD00004802002098
:1055A000D0E9013201699A60D0E901235A604A6862
:1055B000824201D182684A60002202610868401E6E
:1055C00008600868704700F108014FF0FF32C0E939
:1055D0000112C16001610021016070470021016179
:1055E000704730B50B685A1C02D000F1080202E087
:1055F000026904E02246546825689D42FAD953683E
:105600004B6099608A60516008610168491C0160C3
:1056100030BD42684A6093688B60936859609160BE
:1056200008610168491C016070470000502080F348
:105630001188BFF34F8FBFF36F8F0A494868401C32
:10564000486001280CD10848006810F0FF0F07D00F
:10565000502080F31188BFF34F8FBFF36F8FFEE7A9
:10566000704700009C00002004ED00E008494868F5
:1056700028B1401E486001D180F311887047502046
:1056800080F31188BFF34F8FBFF36F8FFEE70000E9
:105690009C00002070B500282AD0164DA0F1080407
:1056A00060686969084207D1502080F31188BFF310
:1056B0004F8FBFF36F8FFEE722683AB1502080F31F
:1056C0001188BFF34F8FBFF36F8FFEE78843606091
:1056D00000F072F960686968084468602046FEF767
:1056E000B1F92869401C2861BDE8704000F0DCBDBC
:1056F00070BD00007C0000204FF0E020002101611F
:10570000816105494FF47A720968B1FBF2F1491ED3
:1057100041610721016170471000002070B568B138
:10572000002200291ED0104C002300BF04EBC3054B
:105730006E6886420AD104EBC3020FE0502080F36A
:105740001188BFF34F8FBFF36F8FFEE71AB954F87C
:10575000336006B92A465B1C082BE7D3002A01D028
:10576000C2E9001070BD00005803002070B5154656
:105770000E460446FFF75AFF94F944100020491CD6
:1057800001D184F8440094F94510491C01D184F8F2
:105790004500FFF76BFFA06B28B92A46314604F19C
:1057A000240000F0A9F82046BDE87040FEF70EBBCB
:1057B00010B5020014D00F48406B38B1502080F370
:1057C0001188BFF34F8FBFF36F8FFEE700F0F4F83F
:1057D00000211046FDF748FF00F066FD002807D1C4
:1057E00005494FF080500860BFF34F8FBFF36F8FB4
:1057F00010BD00002800002004ED00E070B5054653
:10580000FFF714FF264C05B92568281DFFF7C8FED1
:1058100058B9E86A234A00EB800152F8211021B9F7
:1058200001218140206988432061A86A18B105F1EF
:105830001800FFF7B5FE606A401C60622068854270
:1058400008D11848291DA030FFF7E3FE6068401C0E
:10585000606004E0A068401EA060FEF75FFAFFF7FA
:1058600005FF2068854202D02846FEF72AF86069C5
:10587000002814D02068854211D1606B38B15020C7
:1058800080F31188BFF34F8FBFF36F8FFEE7064998
:105890004FF080500860BFF34F8FBFF36F8F70BD24
:1058A000280000209803002004ED00E002490A6A65
:1058B0000260C9684160704728000020014901204A
:1058C000C86170472800002010B50C4650B1094946
:1058D00009681831FFF785FE2046BDE81040012118
:1058E000FDF7C2BE502080F31188BFF34F8FBFF386
:1058F0006F8FFEE728000020F0B40C46D0B11149AC
:1059000043680D68EB619D680E6835620D689E689E
:10591000183575600D6818359D60096888620168E2
:10592000491C01600AB14FF0FF342046F0BC11461B
:10593000FDF79ABE502080F31188BFF34F8FBFF35D
:105940006F8FFEE7280000207CB517480025CDE9C1
:1059500000502B46822215A1164800F0FFFA124C87
:105960002C3C012803D100F035FD012802D0401C59
:1059700011D00EE0502080F31188BFF34F8FBFF39A
:105980006F8F4FF0FF30A06201206061E56000F092
:1059900049F8206B7CBD502080F31188BFF34F8FF6
:1059A000BFF36F8FFEE700005400002049444C45D0
:1059B00000000000253900080248416B491C416382
:1059C00070470000280000201448416B11B10121EC
:1059D000C16170470021C1610169B1FA81F1C1F172
:1059E0001F0101EB81020E4951F822306BB101EB2E
:1059F000820101F108034A6852684A609A4201D163
:105A000052684A60D16801607047502080F3118865
:105A1000BFF34F8FBFF36F8FFEE700002800002019
:105A2000980300201CB5264908780190FF200870D3
:105A300008788DF800009DF800009DF8002000F027
:105A4000F000904207D0502080F31188BFF34F8FB1
:105A5000BFF36F8FFEE79DF800001A4C00F0500076
:105A600020700720A06005E09DF8002052008DF80E
:105A70000020401E9DF800201206F5D4A0600328E7
:105A800007D0502080F31188BFF34F8FBFF36F8F83
:105A9000FEE74FF44070A060019808700A48016862
:105AA00041F470010160016841F070410160FFF74D
:105AB00023FE00206060FAF759FB00201CBD0000A7
:105AC00000E400E09C00002020ED00E010B5502034
:105AD00080F31188BFF34F8FBFF36F8F00F07EFA12
