:020000040801F1
:10000000B057002085020108BD1F0108B91F010873
:10001000BB1F010815030108892201080000000028
:10002000000000000000000000000000C501010801
:10003000590301080000000021020108DF1F010828
:100040008D2201089F0201089F0201089F020108FA
:100050009F0201089F0201085D0301089F02010839
:100060008D030108A50301089F0201089F020108F2
:100070009F0201089F0201089F0201089F020108D8
:100080009F0201089F0201089F0201089F020108C8
:100090009F0201089F0201089F0201089F020108B8
:1000A0009F0201089F0201089F0201089F020108A8
:1000B0009F0201089F0201089F0201089F02010898
:1000C0009F0201089F0201089F0201089F02010888
:1000D0009F020108352201089F0201089F020108C2
:1000E000750301089F0201089F0201089F02010891
:1000F0009F0201089F0201089F0201089F02010858
:100100009F0201089F0201089F0201089F02010847
:100110009F0201089F0201089F0201089F02010837
:100120009F0201089F0201089F0201089F02010827
:100130009F0201089F0201089F0201089F02010817
:100140009F0201089F0201089F0201089F02010807
:10015000190301089F020108250301089F020108F5
:100160009F0201089F0201089F0201089F020108E7
:100170009F0201089F0201089F0201080000000081
:100180009F0201089F0201089F0201089F020108C7
:100190009F0201089F0201089F0201089F020108B7
:1001A0009F0201089F0201089F020108DFF810D09A
:1001B00000F09EF800480047AD230108AFF300802F
:1001C000B05700202C4B19680868B0E8F04F80F356
:1001D0000988BFF36F8F4FF0000080F311887047DC
:1001E0000000000008480068006880F308884FF0AD
:1001F000000080F3148862B661B6BFF34F8FBFF37F
:100200006F8F00DF00BF00BF08ED00E0DFF80C00DB
:10021000016841F470010160704700BF88ED00E0A3
:10022000EFF30980BFF36F8F134B1A681EF0100FA6
:1002300008BF20ED108A20E9F04F106009B44FF09C
:10024000500080F31188BFF34F8FBFF36F8F02F020
:100250006FFE4FF0000080F3118809BC1968086830
:10026000B0E8F04F1EF0100F08BFB0EC108A80F31A
:100270000988BFF36F8F70470C000020EFF30580F3
:10028000704700000648804706480047FEE7FEE743
:10029000FEE7FEE7FEE7FEE7FEE7FEE7FEE7FEE736
:1002A00079200108AD01010840EA01039B0703D052
:1002B00009E008C9121F08C0042AFAD203E011F8A5
:1002C000013B00F8013B521EF9D27047D2B201E067
:1002D00000F8012B491EFBD270470022F6E710B54B
:1002E00013460A4604461946FFF7F0FF204610BDA4
:1002F000064C074D06E0E06840F0010394E8070073
:1003000098471034AC42F6D3FFF754FF7837010812
:1003100098370108FEE70000014800F079B80000B6
:1003200030020020014800F073B80000E001002016
:1003300030B50468256825F480252560046863606D
:100340008368402B036803D099600068C26030BDA9
:100350009A600068C16030BD7047000004480168C1
:10036000C90703D00121016001F0D2BF704700002E
:10037000143C014004480168890403D5411401601C
:1003800001F0D4BF70470000143C014004480168EC
:10039000490703D50421016001F0B2BF7047000096
:1003A000143C014004480168090703D50821016095
:1003B00001F0C4BF70470000143C01402DE9F0413A
:1003C00004460068016821F00101016001F0DCF8D9
:1003D000054600264FF47A770FE001F0D5F8401B70
:1003E000B8420AD954F84C0F40F0200044F81809DC
:1003F000032026706070BDE8F08120680068C007A7
:10040000EBD104F8346F012060700020F3E70000A6
:100410002DE9F05FFF4B0446FE4EFF4F0068591573
:10042000DFF8F093DFF8F0A3DFF8E8B38A02FA4DC3
:10043000483E60374FF0007C09F118090AF1180AAC
:10044000ABF1300B984227D9F24B543B2AE0484598
:1004500039D1082308E0EF4B303398423CD10B46AA
:1004600002E0134600E0634618EA030F75D0036804
:100470005B0772D5036823F004030360E54B206833
:1004800098425CD9A84205D0B04203D0B84201D00E
:10049000484532D108214FE0DF4BA833984204D9B8
:1004A000DC4B583BD3F8008006E0DB4B48339842E6
:1004B000DA4BF7D9D3F80480A842CAD0B042C8D0EA
:1004C000B842C6D0C3E75045C9D05845C7D0D24B73
:1004D00078339842C3D0BEE7CF4B30339842C0D078
:1004E000CC4B183B9842BCD0CB4B90339842B8D001
:1004F000C84B48339842B6D1B3E750451CD0584555
:100500001AD0C54B7833984216D0C24B303398423C
:1005100012D0C149303188420BD0BE4918398842C7
:1005200007D0BD499031884203D0BA49483188424A
:1005300001D1114600E06146B6484C382FE0B64B79
:10054000A83398422DD9A84205D0B04203D0B84272
:1005500001D0484502D108211FE08BE050451CD056
:1005600058451AD0AC4B7833984216D0A94B30334B
:10057000984212D0A849303188420BD0A549183989
:10058000884207D0A4499031884203D0A14948311C
:10059000884201D1114600E061469E485038016012
:1005A0005AE09D4B483398422BD9A84205D0B0421F
:1005B00003D0B84201D0484501D108211EE0504582
:1005C0001CD058451AD0944B7833984216D0914B92
:1005D0003033984212D09049303188420BD08D4947
:1005E0001839884207D08C499031884203D0894914
:1005F0004831884201D1114600E061468748C16018
:100600002AE0A84205D0B04203D0B84201D0484504
:1006100001D108211EE050451CD058451AD07E4B10
:100620007833984216D07B4B3033984212D07A49B7
:10063000303188420BD077491839884207D0764943
:100640009031884203D073494831884201D1114624
:1006500000E0614671488160E06C40F00100E064B8
:10066000042084F83500002084F83400A16C09B11E
:10067000204688476A49674B2068CA114FF4800CAE
:10068000984233D9634B543B36E0484545D10B463D
:1006900008E0604B3033984248D1402302E01346D3
:1006A00000E0634618EA030F7ED043691B067BD542
:1006B000436923F080034361564B206898425CD91C
:1006C000A84257D0B04255D0B84253D0484551D037
:1006D000504509D0584507D04F497831884203D05A
:1006E0004C493031884232D1402143E04A4BA83353
:1006F000984204D9474B583BD3F8008006E0464B5C
:1007000048339842454BF7D9D3F80480A842BED06D
:10071000B042BCD0B842BAD0B7E75045BDD058457A
:10072000BBD03D4B78339842B7D0B2E73A4B303329
:100730009842B4D0374B183B9842B0D0364B9033E8
:100740009842ACD0334B48339842AAD1A7E73249FC
:10075000303188420BD02F491839884207D02E49B2
:100760009031884203D02B494831884201D111464B
:1007700000E0614627484C3830E0274BA8339842C8
:100780002ED9A84228D0B04226D0B84224D048451D
:1007900022D050450BD0584509D01F4978318842A6
:1007A00005D01C49303100E089E0884201D1402168
:1007B00012E01949303188420BD016491839884265
:1007C00007D015499031884203D0124948318842F8
:1007D00001D1114600E061460E485038016060E0EA
:1007E0000D4B4833984232D9A8422CD0B0422AD07F
:1007F000B84228D0484526D0504509D0584507D0A2
:1008000005497831884203D002493031884209D104
:10081000402118E05864024010600240006002402D
:1008200001008000FE4988420AD0FE49884207D074
:10083000FB496031884203D0FA496031884201D1D6
:10084000114600E06146F6484038C16029E0A84200
:1008500024D0B04222D0B84220D048451ED05045C6
:1008600009D0584507D0EE494831884203D0ED49B8
:100870004831884201D1402110E0E94988420AD03C
:10088000E849884207D0E6496031884203D0E5490B
:100890006031884201D1114600E06146E0484038AD
:1008A0008160E06C40F00200E064042084F83500D0
:1008B000002084F83400A16C09B120468847DA4949
:1008C000DFF860C320680CF1180CCA134B114FF00D
:1008D000807E60453ED9DFF84CC3ACF13C0C43E070
:1008E000484555D18C460AE0DFF838C30CF1480C76
:1008F000604558D1944602E09C4600E0F44618EA70
:100900000C0F75D0D0F800C05FEA8C7C70D5D0F8A1
:1009100000C02CF0020CC0F800C0DFF808C320684B
:100920000CF1180C604568D9A84263D0B04261D080
:10093000B8425FD048455DD0504509D0584507D0F2
:10094000B7494831884203D0B649483188423FD13F
:1009500011464FE0DFF8C8C20CF1780C604506D9AB
:10096000DFF8C0C2ACF1400CDCF8008009E0DFF831
:10097000B0C20CF1180C6045DFF8B0C2F4D9DCF855
:100980000480A842AED0B042ACD0B842AAD0A7E70B
:100990005045AFD05845ADD0DFF884C20CF1480CBB
:1009A0006045A7D0A0E7DFF878C26045A4D0DFF8A3
:1009B00074C26045A0D0DFF868C20CF1600C6045DD
:1009C0009AD0DFF860C20CF1600C604596D193E7D5
:1009D000934988420AD09349884207D090496031B0
:1009E000884203D08F496031884202D1194601E024
:1009F0009BE071468B4834382EE0DFF824C20CF1BE
:100A0000780C60452AD9A84224D0B04222D0B842FE
:100A100020D048451ED0504509D0584507D08049C0
:100A20004831884203D07F494831884201D111467C
:100A300010E07B4988420AD07A49884207D0784939
:100A40006031884203D077496031884201D119462C
:100A500000E0714673483838016058E0DFF8C0C1E3
:100A60000CF1180C604529D9A84224D0B04222D0FC
:100A7000B84220D048451ED0504509D0584507D02F
:100A800067494831884203D066494831884201D1DC
:100A9000114610E0624988420AD06249884207D074
:100AA0005F496031884203D05E496031884201D19C
:100AB000194600E071465D48C16028E0A84224D094
:100AC000B04222D0B84220D048451ED0504509D06F
:100AD000584507D052494831884203D051494831DE
:100AE000884201D1114610E04D4988420AD04D4953
:100AF000884207D04A496031884203D04949603171
:100B0000884201D1194600E0714648488160E06C96
:100B100040F00400E064042084F83500002084F8EC
:100B20003400A16C09B1204688473E4B2068183339
:100B300019158A024FF0806C98422BD9394B3C3BF7
:100B40002EE048453DD1102308E0364B483398420B
:100B500040D10B4602E0134600E0634618EA030F5B
:100B600066D003681B0763D503685FEA43384FF01C
:100B700031037BD5DFF8AC8008F11808404565D912
:100B8000A84205D0B04203D0B84201D0484530D188
:100B9000102158E0224B7833984204D9214B403B36
:100BA000D3F8008006E01E4B183398421F4BF7D94C
:100BB000D3F80480A842C6D0B042C4D0B842C2D054
:100BC000BFE75045C5D05845C3D0154B4833984270
:100BD000BFD0BAE7124B9842BDD0124B9842BAD060
:100BE0000F4B60339842B6D00E4B60339842B4D16D
:100BF000B1E7504527D0584525D0DFF8248008F1CB
:100C0000480840451FD0DFF81C8008F148084045DF
:100C100019D00349884213D00249884210D008E015
:100C200040600240406402400400800000600240D6
:100C3000B6E0F8496031884202D0F749884201D1D4
:100C4000114600E06146F448943833E0DFF8C4838D
:100C500008F1780840452FD9A84205D0B04203D00A
:100C6000B84201D0484502D1102121E0A7E050450B
:100C70001ED058451CD0DFF89C8308F14808404539
:100C800016D0DFF89483A8F11808404510D0E14948
:100C900088420AD0E0496039884206D0DD49603197
:100CA000884202D0DC49884201D1114600E0614609
:100CB000D9489838016062E0DFF8588308F11808D5
:100CC00040452ED9A84205D0B04203D0B84201D049
:100CD000484501D1102120E050451ED058451CD078
:100CE000DFF8308308F14808404516D0DFF8288344
:100CF000A8F11808404510D0C64988420AD0C64914
:100D00006039884206D0C3496031884202D0C24966
:100D1000884201D1114600E06146BE484038C160BA
:100D20002DE0A84205D0B04203D0B84201D04845DA
:100D300001D1102120E050451ED058451CD0DFF8CD
:100D4000D48208F14808404516D0DFF8CC82A8F1DB
:100D50001808404510D0AF4988420AD0AE496039E2
:100D6000884206D0AB496031884202D0AA49884205
:100D700001D1114600E06146A648403881602068F4
:100D80000168090302D484F8353005E000680003E7
:100D900002D5412084F83500216C09B120468847EE
:100DA000DFF874C24FF400612068ACF1480C8A028D
:100DB0004FF0006E604572D9974B9C3B01E1D0F833
:100DC00000805FEAC85805D4D0F8008028F00808F1
:100DD000C0F80080DFF840822068A8F1480840454C
:100DE0002DD9A84205D0B04203D0B84201D0484521
:100DF00001D1102120E050451ED058451CD0DFF80D
:100E0000148208F14808404516D0DFF80C82A8F19A
:100E10001808404510D07F4988420AD07E49603981
:100E2000884206D07B496031884202D07A498842A4
:100E300001D1114600E061467748943833E0DFF88D
:100E4000D48108F1780840452FD9A84205D0B04296
:100E500003D0B84201D0484501D1102121E05045CE
:100E60001FD058451DD0DFF8AC8108F14808404537
:100E700017D0DFF8A481A8F11808404511D06549C2
:100E800088420AD064496039884206D0614960319D
:100E9000884202D06049884202D1114601E08AE0CE
:100EA00061465D48983801606DE7DFF8688108F1B8
:100EB000180840452ED9A84205D0B04203D0B84208
:100EC00001D0484501D1102120E050451ED05845A1
:100ED0001CD0DFF8408108F14808404516D0DFF803
:100EE0003881A8F11808404510D04A4988420AD0F4
:100EF00049496039884206D046496031884202D06B
:100F00004549884201D1114600E0614641484038D8
:100F1000C16038E7A84205D0B04203D0B84201D042
:100F2000484501D1102120E050451ED058451CD025
:100F3000DFF8E08008F14808404516D0DFF8D88097
:100F4000A8F11808404510D0324988420AD03249E9
:100F50006039884206D02F496031884202D02E493C
:100F6000884201D1114600E061462A48403881603C
:100F700009E7484536D1202308E0274B183B984223
:100F800039D10B4602E0134600E0734618EA030F1E
:100F900074D00368DB0671D503685B036FD56045C9
:100FA0005ED9A84205D0B04203D0B84201D048452E
:100FB00036D1202151E0174B7833984204D9164B93
:100FC000A03BD3F8008006E0124B18339842134B35
:100FD000F7D9D3F80480A842CDD0B042CBD0B842E4
:100FE000C9D0C6E75045CCD05845CAD0094B483384
:100FF0009842C6D0C1E7074B9842C4D0064B603B2D
:101000009842C0D0034B60339842BCD0024B984208
:10101000BBD1B8E740600240A064024000600240DB
:1010200050451AD0584518D0BE4B984215D0BE4BEB
:10103000984212D0BB49483988420BD0BA49483946
:10104000884207D0B7491831884203D0B6491831D1
:10105000884201D1114600E07146B3487C382EE049
:10106000B04B303398422CD9A84205D0B04203D0BF
:10107000B84201D0484503D120211EE0FBE089E0C1
:1010800050451AD0584518D0A64B984215D0A64BBB
:10109000984212D0A349483988420BD0A249483916
:1010A000884207D09F491831884203D09E491831A1
:1010B000884201D1114600E071469B4880380160AA
:1010C00058E0984B303B98422AD9A84205D0B0420C
:1010D00003D0B84201D0484501D120211CE0504541
:1010E0001AD0584518D08F4B984215D08E4B984245
:1010F00012D08C49483988420BD08B4948398842F4
:1011000007D088491831884203D08749183188426E
:1011100001D1114600E0714682488838C16029E05B
:10112000A84205D0B04203D0B84201D0484501D111
:1011300020211CE050451AD0584518D0794B9842D0
:1011400015D0794B984212D07649483988420BD055
:1011500075494839884207D072491831884203D00E
:1011600071491831884201D1114600E071466D483D
:101170008838816020680168090301D4616C03E04C
:101180000068000377D5E16B002974D02046BDE8E4
:10119000F05F08470368DB0503D4036823F01003FE
:1011A00003602068604529D9A84205D0B04203D029
:1011B000B84201D0484501D120211CE050451AD049
:1011C000584518D0574B984215D0574B984212D0DB
:1011D0005449483988420BD053494839884207D08E
:1011E00050491831884203D04F491831884201D103
:1011F000114600E071464C487C382CE0494B3033B6
:1012000098422AD9A84205D0B04203D0B84201D0B2
:10121000484501D120211CE050451AD0584518D02E
:10122000404B984215D0404B984212D03D49483926
:1012300088420BD03C494839884207D03949183197
:10124000884203D038491831884201D1114600E064
:10125000714635488038016059E0324B303B984246
:101260002BD9A84205D0B04203D0B84201D048459E
:1012700002D120211DE053E050451AD0584518D026
:10128000284B984215D0284B984212D0254948390E
:1012900088420BD024494839884207D02149183167
:1012A000884203D020491831884201D1114600E01C
:1012B00071461C488838C16029E0A84205D0B04278
:1012C00003D0B84201D0484501D120211CE050454F
:1012D0001AD0584518D0134B984215D0124B98424B
:1012E00012D01049483988420BD00F4948398842FA
:1012F00007D00C491831884203D00B491831884275
:1013000001D1114600E07146064888388160E06CE2
:10131000E064112084F83500002084F8340032E7BE
:10132000BDE8F09F886002408864024070B50446C2
:1013300090F8340001282DD0012084F834000220D8
:1013400084F835002068056825F001050560204611
:10135000FEF7EEFF2068016841F01001016020688F
:10136000016841F0080101602068016841F0040152
:1013700001602068416941F0800141612068016895
:1013800041F0020101602068016841F00101016043
:10139000002070BD022070BD2DE9F84FDFF8A0914C
:1013A000002209F1040A0AF1040B4FF00F080BF1B7
:1013B000040E01260B6896403340B34271D14C684D
:1013C000022C01D0122C11D1D40800EB84073D6A05
:1013D0005407E40E08FA04FC25EA0C05D1F810C005
:1013E0000CFA04FC4CEA050CC7F820C0076854004E
:1013F000032591F804C0A5400CF0030CAF430CFA90
:1014000004FC4CEA070CC0F800C04F68012F05D05F
:10141000022F03D0112F01D0122F11D18768D1F8DC
:101420000CC0AF430CFA04FC4CEA070CC0F808C02F
:101430004768B7430E79C6F3001696403E434660B0
:10144000C668AE438D68A5403543C5604C68E4006E
:101450006FD53C4C256845F480452560246822F012
:10146000030504F480440094374C2E19D6F808780C
:101470009407250F08FA05F4A743344CA04201D184
:1014800000242EE0324CA04201D1012429E0314C4D
:10149000A04201D1022424E02F4CA04202D1032417
:1014A0001FE046E02D4CA04201D1042419E02C4C51
:1014B000A04201D1052414E02A4CA04201D1062407
:1014C0000FE0294CA04201D107240AE0274CA0429A
:1014D00001D1082405E0264CA04201D1092400E0F6
:1014E0000A24AC403C43C6F80848D9F800404D46B1
:1014F0004E689C43F60300D51C432C60DAF800408C
:1015000055464E689C43B60300D51C432C60DBF85F
:1015100000405D464E689C43F60200D51C432C609B
:10152000DEF8004075464E689C43B60200D51C4369
:101530002C60521C102AFFF43CAFBDE8F88F00006D
:10154000003C0140443802400030014000000240AD
:101550000004024000080240000C0240001002405B
:101560000014024000180240001C0240002002400B
:101570000024024042694A40426170470AB18161D9
:1015800070470904FBE7000001480068704700004D
:101590000400002002480168491C016070470000F7
:1015A000040000200B4810B5016841F4007101608F
:1015B000016841F480610160016841F4807101605B
:1015C000032000F053F8002000F006F800F016F8B1
:1015D000002010BD003C024010B5044600F0A0F908
:1015E0004FF47A71B0FBF1F000F084FB0022214649
:1015F000501E00F01BF8002010BD00000A4808B57E
:10160000016841F480410160006800F4804000906E
:101610000548001F016841F080510160006800F03A
:101620008050009008BD000044380240F0B40E4BDA
:101630001B68C3F30223C3F10704042C00D904245C
:101640001D1D072D01D2002300E0DB1E012606FA36
:1016500004F56D1E0D409D409E40761E164045EAE5
:101660000601F0BC00F0ABBC0CED00E0064A00F057
:10167000070110684FF6FF03184040EA01200349B4
:1016800008431060704700000CED00E00000FA0510
:101690002DE9F8431D48016841F080510160006860
:1016A000012700F080500090380490FAA0F0DFF895
:1016B0006080B0FA80F048F82070FFF765FF0446BC
:1016C0004FF47A75134E04E0FFF75EFF001BA8424B
:1016D00013D87068C003F7D54FF4003090FAA0F02B
:1016E000B0FA80F048F82070FFF74EFF044607E09C
:1016F000FFF74AFF001BA84202D90320BDE8F88388
:1017000070688003F4D50020F8E7000040380240FC
:1017100000000E42007000402DE9F05FDFF8F8A1F4
:1017200004460F46DAF80000DFF8F08100F00F02FF
:10173000C8B27A49814641F2883608F10808BA42AF
:1017400061D202468AF80020DAF8000000F00F00AB
:10175000B8427DD12078800707D5D8F80020A3684B
:1017600022F0F0021A43C8F800202078C0072DD0DC
:10177000606801281AD002281BD0032819D00968F4
:101780008907002964DAD8F80010474621F00301E0
:101790000143C8F80010FFF7F7FE0546606801280E
:1017A0000FD0022818D003281CD027E0096889032D
:1017B000E7E709688901E4E7FFF7E6FE401BB0426E
:1017C00058D83868C0F381000128F5D188E0FFF7C8
:1017D000DBFE401BB0424DD83868C0F381000228C0
:1017E000F5D17DE03868FFF7CFFE401BB042F9D954
:1017F00040E0FFF7C9FE401BB0423BD8386810F00C
:101800000C0FF6D16CE02078800707D5D8F80020BF
:10181000A36822F0F0021A43C8F800202078C0071D
:101820004CD06068012828D0022829D0032827D06E
:1018300009688907002949DAD8F8002022F0030254
:101840000243C8F80020FFF79FFE0546606800E0ED
:101850003CE001281DD0022829D0032838D0B34607
:101860004646306810F00C0F28D0FFF78DFE411B64
:101870005945F6D90320BDE8F09F09688903D9E7E7
:1018800009688901D6E7FFF77FFE411B594502D958
:10189000F0E7B34646463068C0F381000128F2D134
:1018A0000CE0FFF771FE411B594502D9E2E7B34650
:1018B00046463068C0F381000228F2D18AF80090D1
:1018C000DAF8000000F00F00B84209D00120D2E79A
:1018D00044462068FFF758FE401BB042F9D9C9E7DB
:1018E0002078400707D5D8F80010E26821F4E051CD
:1018F0001143C8F800102078000708D5D8F8001068
:10190000226921F4604141EAC201C8F800100020B8
:10191000FFF762FE0020AEE7003C024000380240C4
:1019200010B500F017F808490968F02292FAA2F2FF
:1019300001F0F001B2FA82F2D140044A515CC84091
:101940000349086010BD00000838024068370108EC
:101950000800002030B51948006810F00C01184844
:1019600012D0184C04290ED008290DD1134A121F89
:101970001168136801F03F015D0247F6C07304D59A
:10198000B4FBF1F003E0204630BDB0FBF1F011688C
:10199000194093FAA3F3B3FA83F3D940484311688B
:1019A0004FF4403292FAA2F201F44031B2FA82F2DC
:1019B000D140491C4900B0FBF1F030BD083802406D
:1019C0000024F40040787D012DE9F84F04460078AA
:1019D000DFF80CB3C34DC0074FF0000646D0DBF86C
:1019E00000105846C1F38101012908D00068C0F3F6
:1019F000810002280AD1281D0068400206D5286807
:101A0000800333D56068002876D02FE0DFF8D482D9
:101A100008F1020888F80060FFF7B6FD074604E009
:101A2000FFF7B2FDC01B642867D828688003F7D48D
:101A3000207988F80000606860B1FFF7A5FD0746CF
:101A400004E0FFF7A1FDC01B6428EDD828688003DF
:101A5000F7D50BE0FFF798FD074604E0FFF794FD8C
:101A6000C01B6428E0D828688003F7D42078DFF80A
:101A70007882800750D5DBF80010584611F00C0F23
:101A80004FF0F80909D00068C0F38100022816D190
:101A90009348001F0068400211D42868800702D5CF
:101AA000E068012828D1286899FAA9F22169B2FAD8
:101AB00082F220F0F8009140084328602CE0E068B2
:101AC000E0B10120C8F80000FFF75EFD074604E022
:101AD000FFF75AFDC01B6428A6D828688007F7D5F1
:101AE000286899FAA9F220F0F8012069B2FA82F286
:101AF0009040014329600FE0F0E07FE0C8F800600B
:101B0000FFF742FD074604E0FFF73EFDC01B6428D7
:101B100074D828688007F7D42078000724D5DFF828
:101B2000C0917248616909F16C0979B101210160C4
:101B3000FFF72AFD074604E0FFF726FDC01B6428D7
:101B40005CD8D9F800008007F6D50DE00660FFF7F5
:101B50001BFD074604E0FFF717FDC01B64284DD8A6
:101B6000D9F800008007F6D42078400754D55C48A7
:101B70003830016841F0805101600068DFF87091F1
:101B800000F080500090D9F8001041F48071C9F83D
:101B90000010FFF7F9FC074604E0FFF7F5FCC01B57
:101BA00064282BD8D9F80000C005F6D5DFF830A19D
:101BB0000AF1680A8AF80060FFF7E6FC074641F27E
:101BC000883904E0FFF7E0FCC11B49457ED8DAF80C
:101BD00000008007F6D4217A8AF80010A06870B15E
:101BE000FFF7D2FC074604E0FFF7CEFCC11B4945D6
:101BF0006CD8DAF800008007F6D50DE066E0FFF754
:101C0000C3FC074604E0FFF7BFFCC11B49455DD894
:101C1000DAF800008007F6D4A069E8B3DBF800101A
:101C2000C1F38101022959D0022805D0C8F86060AB
:101C3000FFF7AAFC04464CE04746C8F86060FFF78F
:101C4000A3FC064604E0FFF79FFC801B64283DD8F8
:101C500028688001F7D4D4E90701084347F6C07229
:101C600092FAA2F2616AB2FA82F29140A26A4FF04D
:101C7000FF3303EB52024FF4403393FAA3F3B3FA6A
:101C800083F39A4011434FF07062084392FAA2F234
:101C9000B2FA82F2E16A00E01EE091400843104986
:101CA000091F086001203866FFF76EFC044604E057
:101CB000FFF76AFC001B642808D828688001F7D564
:101CC0000AE0FFF761FC001B642802D90320BDE88D
:101CD000F88F28688001F4D40020F8E70120F6E7A7
:101CE000083802400038024000004742800E474258
:101CF0000070004010B5401EB0F1807F01D301207C
:101D000010BD4FF0E02460610F21601700F057F91B
:101D10000020A06107202061002010BD08B590F8C8
:101D2000381001290FD0012180F8381090F83910AF
:101D300012290AD090F8391022290BD090F83910C6
:101D400032290CD018E0022008BD01684A6942F02F
:101D5000800210E001680A684A68009208E00168A1
:101D60000A684A6800924A6942F080024A61016842
:101D70004A6942F040024A61002180F83810084662
:101D800008BD10B504460068416921F08001416139
:101D90002068416921F040014161206B08B1FEF7E4
:101DA0000DFB606B08B1FEF709FB012084F83900D8
:101DB000002010BD704738B5016804460868CA683D
:101DC000C0F3000002F4807238B132B1086848688C
:101DD0000090E06B40F00100E06308684A69C0F3DE
:101DE000400002F0010238B132B108684868009042
:101DF000E06B40F00400E0630868C0F380024869CB
:101E000000F001003AB130B1086848680090E06B1A
:101E100040F00200E06308684A69C0F3C00002F0C5
:101E2000010238B132B1086848680090E06B40F0B8
:101E30000800E0630868C968C0F3401001F02001A1
:101E400018B111B1204600F06FF920680168C06830
:101E5000C1F3C01100F0800019B110B1204600F0AC
:101E6000B6F921680868CA68C0F3801002F0400221
:101E70000125B8B1B2B1CA68204622F04002CA605A
:101E800094F83910322916D00168CA6822F4807299
:101E9000CA6001684A6922F001024A6180F839503B
:101EA00000F052F8E06B002804D084F83950204646
:101EB000FFF780FF38BD222180F83910F0E70000DD
:101EC00037B5044690F839001346012801D012288E
:101ED0002FD1019A4AB343B394F83800012828D08F
:101EE000012084F83800A262A3850025E56394F8F8
:101EF000390012281BD0222084F83900616B0E486B
:101F0000C863616B0D480864616B0D488864216883
:101F1000606B091DFFF70AFA2068416941F0400132
:101F2000416184F8385000203EBD01203EBD322082
:101F3000E2E702203EBD0000EB2001081F2101085E
:101F4000CD20010870477047704710B504460068FF
:101F50004168C94389050DD48068C043C00709D1D1
:101F6000204600F01DF8012060742168C01E8860C2
:101F70000020207410BD10B5027C012A0ED0012370
:101F80000374022242740268146824F07F040C4334
:101F90001460437400210174084610BD022010BD76
:101FA00010B57F210348FFF7E6FFBDE8104000F0C1
:101FB000CDB90000CC010020FEE7FEE7704709071D
:101FC000090E002806DA00F00F0000F1E02080F88A
:101FD000141D704700F1E02080F80014704710B520
:101FE00001F0F4F9012801D001F04AF8BDE81040F1
:101FF000FFF7D0BA30B593B030216846FEF76DF9DF
:1020000014210CA8FEF769F91948016841F08051C4
:102010000160006800F0805011901648016841F49A
:10202000404101600068022400F44040119001200A
:10203000009001908005CDE906400F250895D82035
:10204000CDE9090404200B906846FFF7BDFCFFF7BB
:102050001FFB00200C95CDE90D404FF4A0500F90D0
:10206000E002109005210CA8FFF756FB13B030BD1D
:1020700040380240007000401048016841F470018F
:1020800001600F48016841F0010101600C4A002124
:102090000832116002680B4B1A400260031D0A4AA5
:1020A0001A60026822F48022026005480C30016048
:1020B00002495806803908607047000088ED00E04A
:1020C00000380240FFFFF6FE1030002410B5806B90
:1020D0000021C185C184012180F83910C16B41F014
:1020E0001001C163FFF766FE10BD10B50146806B9D
:1020F00009680968C9050DD40021C18501684A69CC
:1021000022F040024A6190F83910322905D00121AD
:1021100080F83910FFF716FF10BD1221F8E710B54F
:10212000806BFFF710FF10BD10B590F83910222911
:1021300003D0322901D0022010BD8168B1F5805F43
:1021400011D00169002901681FD0496801F07F039F
:10215000816A4A1C82620B70C18D491E0904090CF8
:10216000C18518D02FE00269816A002A026852688E
:1021700005D0D2B20A80816A491C8162ECE7C2F3C1
:1021800008020A80816A891CF7E74A68816A4B1C49
:1021900083620A70E0E70168CA6822F02002CA6020
:1021A00090F83910322910D00168CA6822F4807280
:1021B000CA6001684A6922F001024A61012180F87F
:1021C0003910FFF7BFFE002010BD1221F7E790F88D
:1021D0003910122903D0322901D0022070478168BA
:1021E000B1F5805F016A0BD04A1C0262026809786F
:1021F0005160C18C491E0904090CC1840ED017E03E
:1022000009880268C1F30801516001690029016A67
:1022100002D0491C0162ECE7891CFBE70168CA682F
:1022200022F08002CA600068C16841F04001C160CC
:102230000020704738B51248FFF7BDFD1048006810
:102240000168C943C90619D40168406800900C4868
:10225000FFF797FD0B4800684068094C4042403446
:1022600084F800010648FFF759FD4FF480722146BB
:102270000348FFF725FE012084F8010138BD000066
:102280008800002030020020FEE700000148FFF730
:102290005CBE0000CC01002002E008C8121F08C18B
:1022A000002AFAD170477047002001E001C1121FD7
:1022B000002AFBD1704770B5054600244FF47A76AA
:1022C00003E0304600F004F8641CAC42F9D370BD62
:1022D00070B54FF0E02500216C69B422AB69504322
:1022E000AA699A42FCD002D2A3EB020302E0A4EB5B
:1022F00002063344194413468142F1D370BD0000F5
:10230000012211460148FFF739B9000000040240DC
:10231000002201210148FFF731B90000000402400A
:1023200001210148FFF726B90004024001220221E1
:102330000148FFF723B900000004024000220221F7
:102340000148FFF71BB900000004024002210148C8
:10235000FFF710B90004024070B5124886B001685A
:1023600041F0020101600068012400F002000E4EFD
:10237000009403250590019469463046CDE9024555
:10238000FFF70AF80220CDE9000469463046CDE99E
:102390000245FFF701F8FFF7B3FFFFF7C7FF06B0ED
:1023A00070BD000030380240000402401CB51049E6
:1023B0000E480860FFF7F6F8FFF71CFEFFF7CCFFAA
:1023C0000C490120CDE90001420200230AA10D4879
:1023D00000F0CEFF00F06CFD4FF4FA74FFF7A0FFA1
:1023E000FFF7B4FF2046FFF766FFF7E7000001089C
:1023F00008ED00E00000002073746172745F746186
:10240000736B0000B92B01082DE9F0411E4D0F46FA
:102410000446EE682868001D00F0DCFB38B9286827
:1024200090F82C1001208840296981432961601CA3
:1024300015D1A7B115492A68486890602B68826851
:10244000DA602A688368121D5A602A68121D826049
:10245000286841610868401C0860BDE8F081286870
:102460003444B4424460296805D2E86BBDE8F041C9
:10247000091D00F0D0BBA86B091D00F0CCFBA86AB9
:102480008442EAD2AC62E8E70C000020740300202A
:102490002DE9F041044600F0D7FB364EB068401CF1
:1024A000B0603068344F10B1706940B32DE03460D3
:1024B000B068012829D1002505EB850007EB8000D5
:1024C00000F09BFB6D1C052DF6D32B48643000F00B
:1024D00094FB2948783000F090FB27488C3000F0BE
:1024E0008CFB2548A03000F088FB2348B43000F076
:1024F00084FB21486430B0631430F06305E0306839
:10250000E16AC06A884200D83460706A0121401CC8
:1025100070622064E06A326981401143316100EBEE
:10252000800007EB80004068A0608168E1608268FD
:10253000211D51608160E06A00EB800007EB8001A3
:10254000616157F82010491C47F8201000F09CFBEF
:10255000706900280CD03068E16AC06A884207D2EE
:1025600006494FF080500860BFF34F8FBFF36F8F65
:10257000BDE8F0810C000020C002002004ED00E066
:1025800010B500F061FB0E4C2068A0B90D4800F0BA
:1025900034FB0C48143000F030FB0A48E060143083
:1025A000206100220C210A2000F080FD206010B183
:1025B00005A100F0C1FBBDE8104000F065BB0000C4
:1025C0004C00002088030020546D72510000000070
:1025D00030B4026C0B46002A0BD0C1681144C160B4
:1025E0008468A14201D30168C16030BC1846FDF780
:1025F0005BBE30BC704710B50446006B00F058FB62
:102600002046BDE8104000F053BB00000E484FF4D8
:10261000A041420706D0C01D0B4920F00700411A17
:10262000C1F5A041094B00220144C3E90002083969
:10263000143B21F0070119604A600A600A1AC0E9D8
:1026400000129A605A607047B003002074000020A6
:10265000134E144DA6F1A0074FF08058DFF84890B4
:1026600011E000F0F1FAF068C468201D00F0B2FA41
:10267000A868401EA8606868401E686000F004FBFF
:102680002046FFF7B8FF68680028EAD138680128BB
:10269000F9D9C9F80080BFF34F8FBFF36F8FF2E70E
:1026A000600300200C00002004ED00E02DE9F0475D
:1026B0000D46DDE909841746824691009946089E39
:1026C000A522206BFDF702FE6FF00301206B01EBEA
:1026D0008701084420F00707780707D0502080F3CF
:1026E0001188BFF34F8FBFF36F8FFEE765B10020F6
:1026F0002218295C82F83410295C11B1401C0A2888
:10270000F6D3002084F83D00052E07D3502080F337
:102710001188BFF34F8FBFF36F8FFEE7E662201D76
:10272000A66400F075FA04F1180000F071FA246153
:10273000C6F105006462A0614A465146384600F081
:1027400025FA2060B8F1000F01D0C8F80040BDE8BC
:10275000F087000030B5114900E011460A68824256
:10276000FBD34B685C18844203D14068184448602E
:10277000084643681C18944209D1084C143C24684C
:10278000A24209D052681A4442600A681268026084
:10279000814200D0086030BD0460F9E77400002079
:1027A00070B5002441600B4D0061914206D8D11AEA
:1027B0008269914206D2011D286907E09A4203D23C
:1027C000994201D3012403E0011DE86800F023FAD7
:1027D000204670BD4C00002010B5044600F034FACD
:1027E000A06B20B1002400F04FFA204610BD012458
:1027F000F9E7000070B506460D480D46C068C06890
:10280000C468201D00F0E6F994F82800410705D5BA
:102810002A463146204600F0B5F803E000F0FE00FD
:1028200084F828002046216ABDE87040084700006F
:102830004C0000207FB5374E63E00098002860DB35
:10284000029C606910B1201D00F0C4F903A800F0DB
:10285000BBF8054600980A2853D2DFE800F052057D
:1028600005282E460505282E94F828002A4640F013
:10287000010084F828000198A1690346014420461C
:10288000FFF78EFF40B394F82800410707D5019861
:10289000A1692A460144204600F074F803E000F0E4
:1028A000FE0084F82800216A2046884729E014F8B1
:1028B000280F00F0FE00207023E094F8280040F07C
:1028C000010084F828000198A06130B141192B461D
:1028D0001A462046FFF764FF13E0502080F311886A
:1028E000BFF34F8FBFF36F8FFEE794F82800810787
:1028F00003D4204600F0DCF903E000F0FE0084F889
:10290000280000226946306800F058FC002894D165
:102910007FBD00004C000020F8B50D46064600F0D3
:10292000FFFA684600F050F80446009810B100F035
:1029300063FEF8BD1148ADB101690968D9B1002540
:10294000311B2A46006800F01DFA00F055FE0028F1
:10295000EFD10B494FF080500860BFF34F8FBFF3AA
:102960006F8FF8BDA642EBD800F046FE21463046F8
:10297000FFF740FFF8BD0125E2E700004C00002012
:1029800004ED00E070B516460C46054604E0A86963
:10299000296A044428468847A86923460119324613
:1029A0002846FFF7FDFE0028F1D170BD0548816B78
:1029B000096821B1816BC9680968816270474FF06D
:1029C000FF31FAE70C0000202DE9F041064600F047
:1029D0000BFD0E4D0446A868844214D24FF0FF3719
:1029E00004E0C06839460068FFF704FFE868016842
:1029F0000029F6D12969C5E903100120306020467D
:102A0000AC60BDE8F0810020F8E700004C00002039
:102A100008484068401C4FF0500080F3118804D0F3
:102A2000BFF34F8FBFF36F8FFEE7BFF34F8FBFF33F
:102A30006F8FFEE77C000020084CE068016839B128
:102A4000002139B10020FFF767FFFFF7F3FEF4E73D
:102A50000121F6E7C0680068F5E700004C0000209F
:102A60002DE9F041044600F0EFF894F9455004F1E7
:102A7000240609E0606A48B1304600F04FFD08B115
:102A800000F0D0F96D1E6DB2002DF3DC4FF0FF3673
:102A900084F8456000F0F8F800F0D6F894F9445056
:102AA00004F1100709E0206948B1384600F036FD0E
:102AB00008B100F0B7F96D1E6DB2002DF3DC84F89B
:102AC0004460BDE8F04100F0DFB8000070B5044696
:102AD000002500F025FA2C4E306808B9FFF796FD66
:102AE0007CB304F00700C0F11000C1438C423DD814
:102AF000211800293ADD7068814237D8224A143201
:102B00001046046801E0224604466068884202D20A
:102B100020680028F7D13068844227D015682068E3
:102B2000106060680835421A102A0FD960184307F0
:102B300008D0502080F31188BFF34F8FBFF36F8F01
:102B4000FEE713E042606160FFF704FE61687068B1
:102B5000401A7060B268904200D2B06041F000400C
:102B6000606000202060F068401CF06000F044FDD0
:102B7000680707D0502080F31188BFF34F8FBFF351
:102B80006F8FFEE7284670BD6000002010B5031F60
:102B90004FF080741C601B1F21F001011960191F88
:102BA000044B0B6014390A60091F6FF002024438AD
:102BB0000A6010BD112A0108FFF7AAFBFFF7B6FB58
:102BC0004FF4FA74FFF7C2FBFFF7AAFB204600F0B0
:102BD000FBF8F7E7D0E9013201699A60D0E90123F7
:102BE0005A604A68824201D182684A6000220261CA
:102BF0000868401E08600868704700F108014FF03F
:102C0000FF32C0E90112C16001610021016070471B
:102C100000210161704730B50C68621C02D000F1E0
:102C2000080202E0026904E01A4653681D68A542E2
:102C3000FAD953684B6099608A60516008610168F5
:102C4000491C016030BD0000502080F31188BFF3A3
:102C50004F8FBFF36F8F0A494868401C48600128B6
:102C60000CD10848006810F0FF0F07D0502080F307
:102C70001188BFF34F8FBFF36F8FFEE770470000DF
:102C80007C00002004ED00E00849486828B1401E9F
:102C9000486001D180F311887047502080F311887B
:102CA000BFF34F8FBFF36F8FFEE700007C00002063
:102CB00070B500282AD0A0F108046068002807DB5E
:102CC000502080F31188BFF34F8FBFF36F8FFEE763
:102CD000216839B1502080F31188BFF34F8FBFF3C3
:102CE0006F8FFEE720F00040606000F019F9084D9A
:102CF00060686968084468602046FFF72BFD286912
:102D0000401C2861BDE8704000F076BC70BD00003A
:102D1000600000204FF0E020002101618161054941
:102D20004FF47A720968B1FBF2F1491E4161072143
:102D3000016170470800002070B5002358B10029D8
:102D40001DD00F4D002205EBC204666886420AD1F1
:102D500005EBC2030FE0502080F31188BFF34F8FC3
:102D6000BFF36F8FFEE71BB955F8326006B92346F3
:102D7000521C082AE7D3002B01D0C3E9001070BD14
:102D80008002002070B515460E460446FFF75CFF32
:102D900094F944100020491C01D184F8440094F9AE
:102DA0004510491C01D184F84500FFF76DFFA06B69
:102DB00028B92A46314604F1240000F051F8204693
:102DC000BDE87040FFF74CBE10B5020014D00F48AC
:102DD000406B38B1502080F31188BFF34F8FBFF3A1
:102DE0006F8FFEE700F09CF800211046FFF70CFB08
:102DF00000F002FC002807D105494FF08050086020
:102E0000BFF34F8FBFF36F8F10BD00000C00002089
:102E100004ED00E002490A6A0260C9684160704737
:102E20000C00002001490120C86170470C000020FF
:102E300010B50C4650B1094909681831FFF7EBFE8F
:102E40002046BDE810400121FFF7DEBA502080F394
:102E50001188BFF34F8FBFF36F8FFEE70C00002088
:102E6000F0B40C46D0B1114B41681D68E9618D6822
:102E70001E6835621D688E68183575601D681835C6
:102E80008D60196888620168491C01600AB14FF0C1
:102E9000FF342046F0BC1146FFF7B6BA502080F34D
:102EA0001188BFF34F8FBFF36F8FFEE70C00002038
:102EB0007CB517480025CDE900502B464FF48072B1
:102EC00014A1164800F054FA114C2C3C012803D1EF
:102ED00000F026FC012802D0401C11D00EE050204A
:102EE00080F31188BFF34F8FBFF36F8F4FF0FF3028
:102EF000A06201206061E56000F048F8206B7CBDB5
:102F0000502080F31188BFF34F8FBFF36F8FFEE720
:102F10003800002049444C450000000051260108BB
:102F20000248416B491C4163704700000C000020BF
:102F3000144A506B10B10120D06170470020D0615D
:102F400010691149B0FA80F0C0F11F0000EB800059
:102F500051F820306BB101EB800000F108034168AB
:102F600049684160994201D149684160C868106070
:102F70007047502080F31188BFF34F8FBFF36F8FDE
:102F8000FEE700000C000020C00200201CB53748FE
:102F90000168374A914207D1502080F31188BFF36E
:102FA0004F8FBFF36F8FFEE700683149491E88429B
:102FB00007D1502080F31188BFF34F8FBFF36F8F7D
:102FC000FEE72C4908780190FF20087008788DF8FA
:102FD00000009DF800009DF8002000F0F0009042F5
:102FE00007D0502080F31188BFF34F8FBFF36F8F4E
:102FF000FEE79DF80000204C00F0500020700720F4
:10300000A06006E0401EA0609DF8000040008DF822
:1030100000009DF800000006A068F3D4032807D044
:10302000502080F31188BFF34F8FBFF36F8FFEE7FF
:103030004FF44070A060019808700C48203001687F
:1030400041F470010160016841F070410160FFF7D7
:1030500061FE00206060FDF7D9F80848016841F082
:1030600040410160FDF7BEF800201CBD00ED00E00E
:1030700071C20F4100E400E07C00002034EF00E06A
:1030800010B5502080F31188BFF34F8FBFF36F8FBF
:1030900000F0B0F918B104494FF0805008600020EA
:1030A00080F3118810BD000004ED00E02DE9F0412F
:1030B00017460E46050020D04FF0FF30B0FBF5F06C
:1030C000B0421AD305FB06F010F1510F15D850305D
:1030D000FFF7FCFC04000CD004F150005EB120604E
:1030E000C4E90F562046012100F010F8204684F86C
:1030F0004C70BDE8F0812460F2E7502080F3118825
:10310000BFF34F8FBFF36F8FFEE700002DE9F04153
:103110000E4604004FF001052CD0E06B90B3AF1EBB
:10312000B7FBF0F1206C81423DD3FFF78DFDD4E970
:103130000F20216802FB0011A1600021A16321681A
:1031400061600A46D4E90F01401E00FB01212046C0
:10315000E16000F8447F477004F110009EB1FFF772
:103160004CFD04F12400FFF748FDFFF78DFD2846D4
:10317000BDE8F081502080F31188BFF34F8FBFF37B
:103180006F8FFEE70FE021690029EED000F0C6F94D
:103190000028EAD008494FF080500860BFF34F8FF5
:1031A000BFF36F8FE1E7502080F31188BFF34F8F9B
:1031B000BFF36F8FFEE7000004ED00E02DE9F74755
:1031C00083B08A4604004FF0000603D0BAF1000F26
:1031D00008D011E0502080F31188BFF34F8FBFF368
:1031E0006F8FFEE7206C38B1502080F31188BFF359
:1031F0004F8FBFF36F8FFEE700F0E8F8DFF8F09035
:1032000000274FF0805848B9059838B1502080F316
:103210001188BFF34F8FBFF36F8FFEE7FFF714FDE9
:10322000A56BC5B151462046FFF7D2F96D1EA563C7
:10323000206950B104F1100000F070F928B1C9F80C
:103240000080BFF34F8FBFF36F8FFFF71DFD01208D
:1032500006B0BDE8F087059808B11EB106E0FFF79B
:1032600013FD27E06846FFF7D5FD0126FFF70CFDAB
:10327000FFF756FEFFF7E8FC94F94400401C01D12B
:1032800084F8447094F94500401C01D184F84570DD
:10329000FFF7FAFC05A9684600F02CF80028204644
:1032A0000AD0FFF7DDFB00F0A7F92046FFF794FAFC
:1032B0000028B3D00020CBE7FFF78EFA90B104F1DD
:1032C00024000599FFF7B4FD2046FFF7C9FB00F085
:1032D00093F90028A2D1C9F80080BFF34F8FBFF344
:1032E0006F8F9BE72046FFF7BBFB00F085F995E762
:1032F00004ED00E02DE9F0410C46050014D0DCB1EE
:10330000FFF7A2FC194EF1686B682268C81A571CB7
:103310001AD02F68D6F820C00026674516D08B42F9
:1033200014D8012526601BE0502080F31188BFF3DC
:103330004F8FBFF36F8FFEE7502080F31188BFF3EC
:103340004F8FBFF36F8FFEE7002509E0824205D95A
:10335000101A20602846FFF75DFDF5E7012526607D
:10336000FFF792FC2846BDE8F08100000C00002029
:103370002DE9FF5F8346DDE90E87994616468A46AA
:103380009000FFF7A3FB05001DD05820FFF79EFB20
:10339000040015D05821FCF7A0FF25630021CDE9DA
:1033A0000241CDE900874B46324651465846FFF769
:1033B0007DF92046FFF76CF8012004B0BDE8F09FCE
:1033C0002846FFF775FC4FF0FF30F6E705484169E6
:1033D00019B1406B18B100207047012070470220DE
:1033E000704700000C0000200148C06870470000D2
:1033F0000C0000202DE9F041464E0025706B28B1ED
:10340000B069401CB0612846BDE8F081F468641CD6
:10341000F46013D1B06B006838B1502080F311888C
:10342000BFF34F8FBFF36F8FFEE7B06BF16BB163EC
:10343000F063306A401C3062FFF7B8FAB06ADFF818
:10344000D8E084420BD34FF0000CB06B0068A0B101
:10345000B06BC068C1684868844211D2B0623068FD
:10346000C06A00EB80005EF82000012800D9012529
:10347000F0690028C7D00125C5E74FF0FF30EDE720
:10348000D1E9023248699A60D1E902235A6043685F
:103490000A1D934201D1CB684360C1F814C0036890
:1034A0005B1E0360886A88B1D1E907379F60D1E964
:1034B00007377B60476801F118039F4201D10B6A0F
:1034C0004360C1F828C003685B1E0360C86A01231B
:1034D000376983403B43336100EB80000EEB800093
:1034E000406888608368CB6083685A608260C86A7D
:1034F00000EB80000EEB80024A615EF82020521C37
:103500004EF82020C86A3168C96A88429DD90125D1
:103510009BE700000C000020C002002070B5C068CE
:10352000C06850B3D0E90732816A9A60D0E90723B6
:103530005A604B6800F11802934201D1036A4B6054
:10354000002585620B685B1E0B60294B596B0124BB
:10355000D9B1284D6968C1618E6806628E68726053
:103560008A6085622968491C2960C06A1968C96A2D
:1035700088423AD90120DC6170BD502080F3118867
:10358000BFF34F8FBFF36F8FFEE7D0E9026241694F
:10359000B260D0E9022672604E68021D964201D1E7
:1035A000C6684E6045610D686D1E0D60C16A1E697A
:1035B00004FA01F535431D610E4D01EB81018C3D8F
:1035C00005EB8101496881608E68C6608E68726013
:1035D0008A60C16A01EB810105EB8102426155F805
:1035E0002120521C45F82120BFE7002070BD0000BB
:1035F0000C0000204C0300202DE9F047454D00242D
:10360000A146686B38B1FFF71FFB686B401E68630B
:10361000686B40B179E0502080F31188BFF34F8F81
:10362000BFF36F8FFEE7A868DFF8ECC000264FF00D
:103630000108E0BB69E0DCF80C00C468D4E90721AC
:10364000A06A9160D4E907125160426804F1180140
:103650008A4201D1216A4160A6620168491E016067
:10366000D4E9022160699160D4E902125160426894
:10367000211D8A4201D1E268426066610268521EE1
:103680000260E06A2F69434608FA00F23A432A6171
:10369000214A00EB80008C3A02EB80004068A06079
:1036A0008768E760876879608160E06A00E00FE022
:1036B00000EB800002EB8001616152F82010491C90
:1036C00042F82010E06A2968C96A884200D3EB6199
:1036D000DCF800000028AED10CB1FFF767F9AC6947
:1036E0003CB14746FFF786FE00B1EF61641EF9D199
:1036F000AE61E86948B109494FF080504FF00109C7
:103700000860BFF34F8FBFF36F8FFFF7BDFA4846D6
:10371000BDE8F0870C0000204C03002004ED00E021
:103720001CB5FEF72DFF0C48006860B10A49022065
:10373000091DCDE900010202002308A10948FFF795
:1037400017FE002807D1502080F31188BFF34F8F58
:10375000BFF36F8FFEE71CBD4C000020546D72203C
:1037600053766300392A01080000000001020304B7
:103770000102030406070809983701080000002029
:1037800088000000982201082038010888000020E5
:1037900028570000A82201080000000000000000D7
:1037A0000024F40000000000000000000000000001
:1037B0000000000000000000000000000000000009
:1037C00000000000000000000000000000000000F9
:1037D00000000000040000000000000000000000E5
:1037E00000000000000000000000000000000000D9
:1037F00000000000000000000000000000000000C9
:1038000000000000000000000000000000000000B8
:103810000000000000000000AAAAAAAA0000000000
:04000005080101AD40
:00000001FF
