:020000040800F2
:10000000004E00209D0100088B1B00084B1B0008C0
:10001000891B00082F0C0008452000080000000084
:1000200000000000000000000000000005010008C2
:10003000310C000800000000490100088D1B000879
:10004000B7010008B7010008B7010008B7010008B0
:10005000B7010008B7010008B7010008B7010008A0
:10006000B7010008B7010008B7010008B701000890
:10007000B7010008B7010008B7010008B701000880
:10008000B7010008B7010008B7010008B701000870
:10009000B7010008B7010008B7010008B701000860
:1000A000B7010008B7010008B7010008B701000850
:1000B000B7010008B7010008B7010008B701000840
:1000C000B7010008B7010008B7010008B701000830
:1000D000B7010008011F00086D1F0008D91F0008A4
:1000E000B7010008B7010008B7010008DFF810D019
:1000F00000F03AFD00480047A9410008AFF3008036
:10010000004E0020224B19680868B0E8F00F80F319
:100110000988BFF36F8F4FF0000080F311884EF015
:100120000D0E70470000000006480068006880F36C
:10013000088862B661B6BFF34F8FBFF36F8F00DFE1
:1001400000BF00BF08ED00E0EFF30980BFF36F8F41
:100150000F4B1A6820E9F00F106008B54FF05000FF
:1001600080F31188BFF34F8FBFF36F8F06F04EF807
:100170004FF0000080F31188BDE808401968086856
:10018000B0E8F00F80F30988BFF36F8F704700BFAE
:1001900070000020EFF3058070470000064880479C
:1001A00006480047FEE7FEE7FEE7FEE7FEE7FEE75C
:1001B000FEE7FEE7FEE7FEE7011C0008ED00000891
:1001C0002DE9F0410024061B254671F1000605DAF1
:1001D00001240027D0EB070067EB0101161E73F125
:1001E000000605DA0027D2EB0702012567EB0303BF
:1001F00000F075FB86460E4617469C46AC4204D07E
:100200000025D0EB050E65EB010624B10020D2EBF2
:10021000000760EB030C704631463A466346BDE882
:10022000F081202A04DB203A21FA02F000217047F5
:1002300021FA02F3D040C2F120029140084319464E
:10024000704740EA01039B0703D009E008C9121F69
:1002500008C0042AFAD203E011F8013B00F8013B80
:10026000521EF9D27047D2B201E000F8012B491EAC
:10027000FBD270470022F6E710B513460A46044643
:100280001946FFF7F0FF204610BD30B505462A4657
:100290000B4612F8010B13F8014B08B1A042F8D03D
:1002A0001CB1002802D06D1CF1E7284630BD421C6D
:1002B00010F8011B0029FBD1801A704710B50022ED
:1002C00000E0521C835C8C5CA34201D1002BF8D16E
:1002D000D8B2E1B2401A10BD30B504460020034642
:1002E00000E05B1C934203D2E05CCD5C401BF8D085
:1002F00030BD034611F8012B00F8012B002AF9D17B
:1003000018467047F0B480EA0102D40F4200B2EB05
:10031000410F02D20246084611464A0042D0C30DA0
:10032000DDB2C1F3C752AD1A202D35DAC1F3160183
:1003300041F4000204B15242C5F1200602FA06F16E
:100340002A411044B3EBD05F23D0C4B1012DA0EB00
:10035000C35009DCF0BC4FF0004202EAC352DBB2EA
:1003600000F5000000F016BB400000F1807000EBCB
:10037000C350A0F1807040EAD170490009E04908FB
:1003800041EAC071A0EBC35000F50000400800EB4B
:10039000C350F0BC00F0F5BA6142012202EB41010A
:1003A000001BF6E7F0BC704781F00041AAE780F03F
:1003B0000040A7E780EA010210B502F000434000C8
:1003C00022D04A001FD0010E01EB1261C0F356008B
:1003D000C2F3560240F4000042F40002A0FB0220E7
:1003E00000047F39140400D0401C50EA124001D4AC
:1003F0004000491EC2B20C0604EBD010401C40085D
:10040000802A02D003E0002010BD20F00100002966
:1004100000DA0020184310BD30B480EA010202F077
:10042000004530F0004221F0004013D090B1C30DE0
:10043000D40DC2F31601C0F31600E41A41F4000112
:1004400040F400027D34914201D3641C00E0490075
:10045000002C02DA30BC002070474FF4000000236B
:10046000914201D3891A034340084FEA4101F7D171
:1004700051B1914202D14FF0004105E002D24FF05C
:10048000010101E06FF0010103EBC450284430BCCE
:1004900000F077BA420005D0C0F3C75252429142F1
:1004A00001DC0020704700EBC15070472DE9FE4F82
:1004B000804681EA0300C00F0C46009021F0004105
:1004C00023F00045B8EB0200A94105D24046214681
:1004D00090461C460B46024623F00040104347D08E
:1004E000270DC7F30A00C3F30A510290401A019086
:1004F00040286BDAC3F3130040F4801B0098924647
:1005000020B10023D2EB030A63EB0B0B0198594691
:10051000C0F14002504600F013FA06460D46504620
:100520005946019A00F01BFA10EB080061410024C3
:1005300087EA115284EAE7731A4340D0009A62B303
:10054000019A012A4FEA075215DC001B61EB0201F8
:100550004FF0004202EA0752CDE90042001C41F58B
:10056000801132462B4600F052FA03B0BDE8F08FFE
:1005700040462146F9E7001B61EB0201001C41F5F2
:10058000801300185B412018A2F5001747EB030108
:1005900040EAD570B6196D4111E06D084FEA360694
:1005A00045EAC0754FEA0752001B61EB0201001CCF
:1005B00041F5801149084FEA300000195141324697
:1005C0002B4603B0BDE8F04F00F012BA00980122AC
:1005D00040000023D0EB020263EBE0730098214659
:1005E0004FEAE074B8EB000061EB0401E9E783F047
:1005F00000435BE781F0004158E72DE9FE4F81EAB7
:10060000030404F0004421F0004100944FF0000B7B
:1006100023F0004350EA01045ED052EA03045BD0A9
:10062000C3F30A54C1F30A552C44A4F2F3340194E1
:10063000A0FB0254C1F3130141F48011C3F313036F
:1006400043F4801301FB024400FB034E840A970A23
:1006500044EA815447EA8357A4FB076802958D0A50
:1006600005FB07854FEA932C04FB0C542705029DDC
:100670004FEA065847EA1637B5EB08056EEB070C4C
:10068000870E920E47EA811742EA8312A7FB020106
:10069000B6EB0B0164EB00042B0D43EA0C335E1840
:1006A00044EB1C50DA465146E7FB0201C5F3130444
:1006B0004FEA0B3343EA14534FEA0432019C43EAF6
:1006C0000603A4F10C040294009CCDE900B400F0F0
:1006D0009EF903B0BDE8F08F00200146F9E72DE94F
:1006E000F04D81EA030404F0004B21F0004514466C
:1006F0004FF0000A23F0004150EA050220D054EAEE
:1007000001021DD0C5F30A570246C5F31303C1F316
:100710001300C1F30A5640F4801543F48013A7EB8D
:100720000608101BD64608F2FD3873EB050002D30D
:1007300008F1010801E092185B41B8F1000F03DAFB
:1007400000200146BDE8F08D00204FF480110646E0
:1007500084460EE0171B73EB050705D3121B63EBF2
:10076000050306434CEA010C49084FEA3000921891
:100770005B4150EA0107EDD152EA030012D082EA50
:10078000040083EA0501084305D0101BAB4106D2E3
:100790000122002306E000224FF0004302E06FF048
:1007A000010253101AEB06004CEB085110EB0A0043
:1007B00041EB0B01BDE8F04D00F01AB9C10F80EA22
:1007C000E0700844CA079623002100F0E3B896239E
:1007D0000022114600F0DEB80EB5C10F80EAE070CD
:1007E0000844CA07002140F233438DE80E000A4650
:1007F0000B4600F00CF903B000BD00F0004220F001
:100800000040C10DC0F3160040F400007F2901DA5A
:1008100000207047962903DCC1F19601C84001E031
:1008200096398840002AF4D04042704720F00040BA
:10083000C10DC0F3160040F400007F2901DA00204A
:100840007047962903DCC1F19601C840704796397C
:100850008840704700F0004230F000400AD0C10DDF
:1008600001F56071C0F3160042EA0151C208400769
:100870001143704700200146704701F0004330B437
:1008800021F0004150EA010206D00A0DA2F5607283
:10089000C1F31301002A02DC30BC00207047440F72
:1008A00044EAC104C100E01830BC00EBC25000F0C3
:1008B00068B830B50B46014600202022012409E02B
:1008C00021FA02F59D4205D303FA02F5491B04FA09
:1008D00002F52844151EA2F10102F1DC30BD2DE91C
:1008E000F05F0546002092469B46884606468146B4
:1008F00040241BE02846414647462246FFF791FC2C
:1009000053465A46C01A914110D311461846224602
:1009100000F016F82D1A67EB01084F462246012019
:10092000002100F00DF817EB00094E41201EA4F144
:100930000104DFDC484631462A464346BDE8F09FC5
:10094000202A04DB203A00FA02F10020704791408F
:10095000C2F1200320FA03F3194390407047202A84
:1009600006DBCB17203A41FA02F043EAE07306E0D7
:1009700041FA02F3D040C2F12002914008431946E7
:1009800070470029A8BF7047401C490008BF20F0ED
:100990000100704710B4B0FA80FC00FA0CF050EA85
:1009A000010404BF10BC704749B1CCF1200421FA06
:1009B00004F411FA0CF118BF012121430843A3EB01
:1009C0000C01CB1D4FEA00614FEA102042BF00200E
:1009D00010BC704700EBC35010440029A4BF10BCEA
:1009E0007047401C490008BF20F0010010BC704750
:1009F00010B5141E73F1000408DA401C41F1000127
:100A000092185B411A4301D120F0010010BD2DE97D
:100A1000F04D92469B4611B1B1FA81F202E0B0FA74
:100A200080F220329046FFF78BFF04460F4640EAE3
:100A30000A0041EA0B0153465A46084313D01146B7
:100A400053EA010019D0C8F140025046FFF7E9FB14
:100A500005460E46504659464246FFF771FF084389
:100A600005D0012004E020463946BDE8F08D002085
:100A7000054346EAE0762C4337430A986305E40AC7
:100A8000A0EB08000022FD0A44EA47540A3002D5D0
:100A900000200146E9E7010510196941DDE9084533
:100AA00000196941BDE8F04DA2E770B521F000439F
:100AB00003430CD0C1F30A550024D5EB040564EBC5
:100AC0000403D617AD1AB34102DB0020014670BD06
:100AD000201841EB025170BDC1F30A52C1F313015A
:100AE00040F2FF3341F480119A4202DA00200146BD
:100AF000704740F233439A42A2F2334202DC524240
:100B0000FFF78FBBFFF71CBF30B5041E71F1000467
:100B100004DB4FF00044404264EB0101141E73F10A
:100B2000000405DB1C464FF00043524263EB040314
:100B30008B4208BF824230BD30B5041E71F1000403
:100B400004DB4FF00044404264EB0101141E73F1DA
:100B5000000405DB1C464FF00043524263EB0403E4
:100B6000994208BF904230BD064C074D06E0E06850
:100B700040F0010394E8070098471034AC42F6D3E4
:100B8000FFF7B8FA48790008687900082DE9F04DB8
:100B900000231A461B1A8A4103DB00200146BDE8E8
:100BA000F08DC1F30A52C1F3130141F480154FF0E7
:100BB000000BD10702D100186D41521E00270446D8
:100BC00040F2FF11384601EB620A3E46804602467B
:100BD00000204FF48011FFF724FBC2197141BB18AC
:100BE00046EB0100B4EB030C75EB000C04D3E41AE4
:100BF00065EB000517460E46241908F101006D410A
:100C000080463428E3DDF91946EB0600091BA841AC
:100C100003D24FF0FF32134601E0002213461BEBD4
:100C2000070046EB0A51BDE8F04DFFF7E1BEFEE7D5
:100C30007047000010B54FF480710548FFF71AFBAC
:100C40000348002180F80211A0F8001110BD000037
:100C5000D004002000B58DB0FFF7ECFF21A122A049
:100C600000F09AF80028F9D1FFF7E4FF1DA120A0B9
:100C700000F092F80028F9D1FFF7DCFF19A120A0BD
:100C800000F08AF80028F9D1FFF7D4FF20A323A2AF
:100C900023A1684601F0E8F927A1684600F07CF836
:100CA0000028F9D1FFF7C6FF26A328A22BA168468A
:100CB00001F0DAF930A1684600F06EF80028F9D1A9
:100CC000FFF7B8FF07A12EA000F066F80028F9D1C1
:100CD000FFF7B0FF03A12CA000F05EF80028F9D1C7
:100CE0000DB000BD4F4B000041540D0A0000000044
:100CF00041542B43574D4F44453D310D0A000000F0
:100D000041542B4357444843503D312C310D0A0088
:100D1000313233343536373800000000575148003F
:100D200041542B43574A41503D222573222C222502
:100D300073220D0A000000005749464920474F54CE
:100D40002049500035303031000000003139322E5A
:100D50003136382E302E31333900000041542B43C8
:100D6000495053544152543D22544350222C222581
:100D700073222C25730D0A00434F4E4E45435400F9
:100D8000415445300D0A000041542B4349504D4F0A
:100D900044453D300D0A000070B50E46054644F648
:100DA0002064FFF784FA82B2C82329460B4800F07A
:100DB0007FFE0B4D0DE000BF95F80201012808D120
:100DC00031460748FFF761FA18B1FFF733FF0020FB
:100DD00070BD641EA4B2EFD2012070BD800200205D
:100DE000D004002070B5044600F010F90546601CE0
:100DF00002D004480078044400F008F9401BA042E7
:100E0000FAD370BD240000202DE9F84FDFF8B89127
:100E10000024A9F1040B23460F2709F1040AABF1C2
:100E2000040EC9E00125A5402A40AA427DD1674EA3
:100E3000D1F804C0ACEB0608B44532D014DCBCF1E8
:100E4000030F3AD009DCBCF1000F2AD0BCF1010F2E
:100E50001CD0BCF1020F31D11DE0BCF1110F17D035
:100E6000BCF1120F2AD119E0B8F5881F19D006DCA1
:100E7000B8F5803F15D0B8F5801F1FD111E0B8F547
:100E8000001F0ED0B8F5041F18D10AE0CB6815E09A
:100E9000CB681B1D12E0CB6808330FE0CB680C3326
:100EA0000CE08B682BB1012B4FF0080303D0456198
:100EB00004E0042302E0056100E00023FF2A01D8DA
:100EC000064601E000F104064FEA840501D9A5F1C8
:100ED0002005D6F8008007FA05FC28EA0C0803FA7A
:100EE00005F548EA0508C6F800804D68ED0062D5B2
:100EF000374DAE6946F00106AE61AD6924F00306D8
:100F000005F001050095334D06EB050CDCF80850A3
:100F1000A607360F07FA06F825EA0805DFF8B880B5
:100F2000404503D14FF0000817E044E0DFF8AC8003
:100F3000404502D14FF001080FE0DFF8A4804045A2
:100F400002D14FF0020808E0DFF89880404502D156
:100F50004FF0030801E04FF0040808FA06F848EAE9
:100F60000508CCF808804D68D9F80060ED024D46C0
:100F700001D5164300E096432E604D68DAF8006014
:100F8000AD02554601D5164300E096432E604D68EC
:100F9000DBF80060AD035D4601D5164300E09643E3
:100FA0002E604D68DEF80060ED03754601D51643EE
:100FB00000E096432E60641C0D682A46E5407FF4ED
:100FC00031AFBDE8F88F00000804014000001110A7
:100FD000001002400000014000080140000C0140E8
:100FE00000100140001401408068084000D001203A
:100FF0007047C26821EA02030A4043EA02410161E4
:1010000070470AB1016170470904FBE70148806835
:1010100070470000240000200248816802781144D3
:101020008160704724000020074810B5016841F036
:1010300010010160032000F075F80F2000F006F8A1
:1010400000F024F8002010BD0020024070B50D4DC6
:1010500004464FF47A712878B1FBF0F00A49096828
:10106000B1FBF0F000F0DCFA48B9102C07D20022F6
:101070002146501E00F036F800206C6070BD012043
:1010800070BD000024000020300000200C4808B58E
:10109000816941F001018161816901F001010091E3
:1010A000C16941F08051C161C06900F08050009079
:1010B0000448416821F0E06141F00071416008BDE1
:1010C0000010024000000140002809DB00F01F0270
:1010D000012191404009800000F1E020C0F800119A
:1010E00070470000F0B40E4B1B680C46C3F302239C
:1010F000C3F10705042D00D90425191D072901D2C4
:10110000002300E0DB1E012606FA05F1491E2140FE
:1011100099409E40761E16403143F0BC00F0CCBF93
:101120000CED00E0064900F0070208684FF6FF03E7
:10113000184040EA0220034A10430860704700004C
:101140000CED00E00000FA052DE9F0470F46050020
:1011500061D0434E306800F00700B84209D23068D1
:1011600020F0070038433060306800F00700B842D4
:1011700051D128683B4C810712D5400703D56068E0
:1011800040F4E06060602878000703D5606840F4B0
:10119000605060606068A96820F0F00008436060FB
:1011A0002878C00728D06868012810D02168022854
:1011B00010D0890700292EDA616821F0030101436C
:1011C0006160FFF723FF804641F288390DE0216816
:1011D0008903EFE78901EDE7FFF718FFA0EB0801AE
:1011E000494502D90320BDE8F0876068696800F0CE
:1011F0000C00B0EB810FEFD1306800F00700B8426F
:101200000BD9306820F0070038433060306800F0B8
:101210000700B84201D00120E5E72878400705D54E
:101220006068E96820F4E06008436060287800079F
:1012300006D56068296920F4605040EAC10060600A
:1012400000F038F86168084AC1F30311515CC840E6
:101250000649086006480068FFF7F8FE0020C2E76C
:101260000020024000100240A26B00083000002065
:10127000280000200448054900684968044AC1F371
:101280000221515CC840704730000020001002402D
:10129000B26B00080448054900684968044AC1F374
:1012A000C221515CC840704730000020001002404D
:1012B000B26B00080E4A51680E4801F00C03042B73
:1012C00011D0082B0FD10C48C1F38343C903C05C74
:1012D0000AD55168084AC1F34041921E515C054A43
:1012E0005043B0FBF1F07047044948437047000099
:1012F0000010024000127A00926B000800093D00C5
:101300002DE9F84F040070D02078C04DC00749D0B7
:101310006868C0F38100012807D06868C0F38100C5
:10132000022809D16868C00306D52868800339D52A
:1013300060680028E7D035E06068B0F5803F0BD0EA
:1013400010B1B0F5A02F11D0286820F480302860AB
:10135000286820F4802002E0286840F4803028606B
:10136000606890B1FFF752FE06460AE0286840F434
:1013700080202860F0E700BFFFF748FE801B64284C
:1013800073D828688003F7D50CE0FFF73FFE0646C8
:1013900005E000BFFFF73AFE801B6428F0D82868FC
:1013A0008003F7D420789A4E80074FF001094FF060
:1013B000000839D5686810F00C0F07D06868C0F3D2
:1013C0008100022809D16868C00306D42868800714
:1013D00014D52069012808D110E02069B0B1C6F801
:1013E0000090FFF713FE074605E00AE1FFF70EFE47
:1013F000C01B0228C4D828688007F7D5286861690F
:1014000020F0F80040EAC10028600DE0C6F8008036
:10141000FFF7FCFD074604E0FFF7F8FDC01B0228BC
:1014200023D828688007F7D4207800072CD579487E
:10143000A169D9B1C0F80090FFF7E8FD074604E0C4
:10144000FFF7E4FDC01B02280FD8686A8007F7D5B4
:1014500071484FF4FA510068B0FBF1F0009000BF02
:101460000098411E0091FAD20EE080E0C0F80080A2
:10147000FFF7CCFD074604E0FFF7C8FDC01B0228BC
:1014800075D8686A8007F7D42078400760D5E86986
:101490000027C00008D4E86940F08050E861E8699E
:1014A000012700F0805000905C480168C90513D402
:1014B0000168834641F480710160FFF7A7FD824611
:1014C00006E000BFFFF7A2FDA0EB0A0064284ED89B
:1014D000DBF80000C005F5D5E06801280AD008B1A6
:1014E000052813D0286A20F001002862286A20F01D
:1014F000040002E0286A40F001002862E06841F23E
:10150000883B98B1FFF782FD82460BE0286A40F0E5
:1015100004002862EEE700BFFFF778FDA0EB0A01A8
:1015200059455AD8286A8007F6D50CE0FFF76EFDBA
:10153000824605E0FFF76AFDA0EB0A0159454CD849
:10154000286A8007F6D41FB1E86920F08050E8616E
:10155000E06988B36968C1F38101022944D0022897
:10156000C6F8608004D0FFF751FD044638E034E04F
:10157000FFF74CFD074604E0FFF748FDC01B0228BB
:101580002BD828688001F7D4206AB0F5803F05D1B8
:101590006868A16820F4003008436860D4E9080155
:1015A0000843696821F4741108436860C6F86090C4
:1015B000FFF72CFD044606E025E000BFFFF726FDFF
:1015C000001B022809D828688001F7D51BE000BF5E
:1015D000FFF71CFD001B022802D90320BDE8F88F8D
:1015E00028688001F4D40EE00128F7D06868226AE8
:1015F00000F48031914204D1616A00F47010884295
:1016000001D00120EAE70020E8E7000000100240D6
:10161000000042428004424230000020007000403E
:1016200010B5401EB0F1807F01D3012010BD4FF0F6
:10163000E02460610F21601700F03EFD0020A061F2
:1016400007202061002010BD70B5044690F83C00D2
:1016500000260D4601280FD0012084F83C006AB115
:10166000042A1DD0082A2FD00C2A3FD001260020A2
:1016700084F83C00304670BD022070BD206800F048
:1016800005FB2068816941F008018161206881695A
:1016900021F004018161206881692A69114311E008
:1016A000206800F01BFB2068816941F400618161C2
:1016B0002068816921F480618161206881692A69DB
:1016C00041EA02218161D2E7206800F033FB206803
:1016D000C16941F00801C1612068C16921F00401BC
:1016E000C1612068C1692A69114311E0206800F0D6
:1016F0004DFB2068C16941F40061C1612068C16986
:1017000021F48061C1612068C1692A6941EA02212E
:10171000C161ACE710B5040003D094F83D0010B1EE
:1017200007E0012010BD002084F83C00204600F0B6
:101730001EF8022084F83D00211D206800F062FAA6
:10174000012084F8460084F83E0084F83F0084F8C5
:10175000400084F8410084F8420084F8430084F893
:10176000440084F8450084F83D00002010BD704717
:1017700010B50446022249B104290ED0082913D01D
:1017800094F84100012816D0012010BD94F83E00C5
:101790000128F9D184F83E200FE094F83F00012899
:1017A000F2D184F83F2008E094F840000128EBD102
:1017B00084F8402001E084F841200122206800F0F4
:1017C00057FA0F492068884203D1426C42F4004224
:1017D00042642068884208D0B0F1804F05D00949A2
:1017E000884202D00849884204D1816801F007018B
:1017F000062903D0016841F001010160002010BDFD
:10180000002C0140000400400008004070B50400B6
:1018100004D094F84100002510B106E0012070BD0D
:1018200084F84050204600F023F8242084F841003A
:101830002068C16821F40051C160204600F0C8FA58
:101840002068016921F4904101612068416921F01B
:101850002A0141612068C16841F40051C16065649A
:10186000202084F8410084F842006563002070BDA8
:10187000F0B5054602685E485C4B002402215D4ECF
:10188000071585B09A4236D1826942F0040282611E
:10189000826902F004020492826942F48042826109
:1018A000826902F480420492826942F001028261FC
:1018B000806900F00100049008028DE81300039194
:1018C00069463046FFF7A0FACDE900746946304614
:1018D000FFF79AFA2868C16841F02001C1602868C2
:1018E000C16841F01001C1602520FFF7EDFB032224
:1018F0001146252039E0404B9A423AD1826942F0A4
:1019000004028261826902F004020492C26942F414
:101910000032C261C26902F400320492826942F06C
:1019200001028261806900F00100049004208DE8CA
:101930001300039169463046FFF766FA0820CDE9A7
:10194000000469463046FFF75FFA2868C16841F035
:101950002001C1602868C16841F01001C1602620E3
:10196000FFF7B2FB022203212620FFF7BBFB05B0E5
:10197000F0BD224B9A42FAD1826942F0080282619C
:10198000826902F008020492C26942F48022C261B4
:10199000C26902F480220492826942F001028261EB
:1019A00080690097CDE9011400F00100CDE9031032
:1019B000134E69463046FFF727FAF014CDE90004CC
:1019C00069463046FFF720FA2868C16841F02001D7
:1019D000C1602868C16841F01001C1602720FFF78D
:1019E00073FB012203212720BFE7000000380140DC
:1019F0000010024000080140004400400048004040
:101A0000000C01402DE9F843044690F84200994645
:101A100016460D46202802D00220BDE8F883ADB15D
:101A2000A6B100206064222184F842102063FFF7F1
:101A3000EDFAA6858046E685A0684FF48057B84247
:101A400001D1206920B12E46002526E00120E4E7DF
:101A5000002622E04346002220212046CDF80090B7
:101A600000F012FA08B10320D7E726B1A068B84207
:101A70001BD038B108E020684068C0F3080025F8A2
:101A8000020B07E0206980B12068406800F07F0009
:101A900006F8010BE08D401EE085E08D0028D9D1CD
:101AA000202084F842000020B7E720684068EFE774
:101AB0002DE9F843044690F841001F4616460D46AE
:101AC000202802D00220BDE8F8837DB176B1002045
:101AD0006064212084F84100FFF798FAA6848046CC
:101AE000E684A068B0F5805F02D003E00120EAE759
:101AF000206910B12E4600250EE000260CE0802162
:101B0000204600F0C1F9A0B9AEB116F8010B21686A
:101B10004860E08C401EE084E08C43464FF00002B9
:101B200000970028EBD14FF04001204600F0ACF9BF
:101B300030B10320C7E735F8020BC0F30800E6E731
:101B4000202084F841000020BDE7FEE70D4808B5DD
:101B5000816941F020018161816901F020010091DA
:101B6000816941F004018161816901F00401009102
:101B7000816941F008018161806900F008000090EE
:101B800008BD000000100240FEE7FEE710B504F0BB
:101B900027FE012801D004F07DFCBDE81040FFF7CE
:101BA0003BBA30B58FB028216846FEF763FB14219D
:101BB0000AA8FEF75FFB01210804CDE9001000240C
:101BC000029402250491CDE907504FF4E0100990EA
:101BD0006846FFF795FB08B172B6FEE70F20CDE926
:101BE0000A054FF48060CDE90C4002210AA80E944A
:101BF000FFF7AAFA002801D072B6FEE70FB030BD99
:101C000070470000F0B50268164B174C174D4FF0A7
:101C10008047984205D0B84203D0A04201D0A842E4
:101C200003D122F070064A683243984205D0B84288
:101C300003D0A04201D0A84203D122F44074CA6864
:101C400022434C6922F08002224302608A68C26209
:101C50000A688262984201D10969016301214161E8
:101C6000F0BD0000002C01400004004000080040CE
:101C700010B501F01F030121046A99408C430462EE
:101C8000016A9A401143016210BD000030B5036A39
:101C9000026A22F0010202624268846924F073053C
:101CA0000C682C4323F002058B682B430A4DA84295
:101CB0000BD123F00805CB6822F440722B434D6909
:101CC00023F0040315438A692A434260846149680A
:101CD0004163036230BD0000002C014030B5026A50
:101CE000036A23F010030362436884690D6824F4D7
:101CF000E64444EA05248D6822F0200242EA0512F7
:101D00000B4DA8420ED1CD6822F0800242EA0512A6
:101D10004D6923F4406343EA85038D6922F0400254
:101D200043EA85034360846149688163026230BD90
:101D3000002C014030B5036A026A22F4807202620C
:101D40004268C46923F4007324F073050C682C43C3
:101D50008D6843EA05230C4DA8420ED1CD6823F4CB
:101D6000006343EA05234D6922F4405242EA05121A
:101D70008D6923F4806342EA05124260C4614968B8
:101D8000C163036230BD0000002C014030B5046A1D
:101D9000026A22F4805202624268C3690D6823F429
:101DA000E64343EA05238D6824F4005444EA0534ED
:101DB000064DA84204D14D6922F4804242EA8512C0
:101DC0004260C36149680164046230BD002C014077
:101DD00070B5044600680169E26821F4405111437E
:101DE00001612169A0680843616908432168CA68E4
:101DF00041F20C639A430243CA6020684169A269B8
:101E000021F44071114341611E492068884202D18A
:101E1000FFF740FA01E0FFF72DFA00EBC00101EBFC
:101E20000012606864218000B2FBF0F3B3FBF1F3B1
:101E30006FF018067343B2FBF0F5B2FBF0F605EB5A
:101E40008305322303EB0515B5FBF1F5B6FBF1F67F
:101E500005F0F00505EB0615B2FBF0F6B2FBF0F06D
:101E6000B0FBF1F06FF01802504306EB800003EB7B
:101E70000010B0FBF1F0216800F00F0028448860EA
:101E800070BD0000003801402DE9F041984617462A
:101E90000E460446069D27E0681C25D02DB1FFF7AD
:101EA000B5F8A0EB0800A8421ED920680C3050E815
:101EB000001F21F4D07140E80012002AF5D12068FB
:101EC000143050E8001F21F0010140E80012002A00
:101ED000F5D1202084F8410084F84200002084F8E5
:101EE00040000320BDE8F0812068006836EA000069
:101EF00004D00020B842CFD00020F3E70120F9E75A
:101F00007CB5194D286800684FF00006C043800674
:101F100005F1D80419D44FF47A7301226946284692
:101F2000FFF770FDB4F800119DF800006054B4F89C
:101F30000001401C80B2A4F80001FF2801D9A4F8D8
:101F4000006129686FF02000086028680168C943B3
:101F5000C90608D4B4F800116654012184F80211AE
:101F60000168406801907CBDF00100207CB5194DEE
:101F7000286800684FF00006C043800605F5CA7463
:101F800019D44FF47A73012269462846FFF73AFDC7
:101F9000B4F800119DF800006054B4F80001401C32
:101FA00080B2A4F80001FF2801D9A4F800612968D3
:101FB0006FF02000086028680168C943C90608D48A
:101FC000B4F800116654012184F8021101684068D8
:101FD00001907CBD380200207CB5194D286800684E
:101FE0004FF00006C043800605F5147419D44FF471
:101FF0007A73012269462846FFF704FDB4F8001100
:102000009DF800006054B4F80001401C80B2A4F8B0
:102010000001FF2801D9A4F8006129686FF02000B1
:10202000086028680168C943C90608D4B4F80011DB
:102030006654012184F802110168406801907CBD5A
:1020400080020020FEE700000FB4054B10B503A985
:10205000044A029800F080F910BC5DF814FB0000FF
:10206000753A0008340000200FB4084B10B504A9DD
:1020700002AA039800F070F9044602A9002000F0BB
:10208000EEFC204610BC5DF814FB00005F2A00083F
:10209000490050EAC12018BF04204A0D18BF40F083
:1020A000010040F2FF72B2EB515F08BF40F0020046
:1020B000012808BF052070470907090E002804DB26
:1020C00000F1E02080F80014704700F00F0000F1EC
:1020D000E02080F8141D70472DE9F0414F1E00EB01
:1020E000C7010446D1E9000115461E4637F0060235
:1020F0000DD02A463346FEF780FA7F1E04EBC70355
:10210000D3E90023FEF7D2F937F00602F1D1022F0E
:1021100025D0042F13D0062F18BFBDE8F0812A4622
:102120003346FEF76AFAD4E90A23FEF7BFF92A46D6
:102130003346FEF762FAD4E90823FEF7B7F92A46D8
:102140003346FEF75AFAD4E90623FEF7AFF92A46DA
:102150003346FEF752FAD4E90423FEF7A7F92A46DC
:102160003346FEF74AFAD4E90223FEF79FF92A46DE
:102170003346FEF742FAD4E90023BDE8F041FEF70A
:1021800095B90122FEF791BCFEF790B900221346E3
:1021900010461146FEF7A3BA024A00201107FEF7C7
:1021A00084BC000001FDFFFF02E008C8121F08C147
:1021B000002AFAD170477047002001E001C1121FC8
:1021C000002AFBD1704700000149086070470000F9
:1021D000EC0000202DE9FF5F82B00021DDE9043032
:1021E000020DDDF840B0034318D044F61050A2F2BF
:1021F000FF3242431514119801281FD0A5EB0B00A4
:10220000401C5FEA000A4FF000064E4FDFF838919D
:10221000B046504615D5CAF1000413E011980124C8
:102220004AA3012801D16FEA0B010298119AC0E973
:102230000031C0E9024206B0BDE8F09FCBF10000DA
:10224000DFE704460021404A491842EB0450CDE93B
:10225000001012E0E00707D032463B4640464946B0
:10226000FEF7CBF98046894632463B461046194672
:10227000FEF7C3F906460F466410002CEAD1DDE9EB
:102280000401DDE90023BAF1000F06DAFEF7B5F923
:1022900042464B46FEF7B1F905E0FEF720FA42460A
:1022A0004B46FEF71CFA04460E460022284BFEF76A
:1022B00043FC03D84FF0FF30014607E00022254BD6
:1022C00020463146FEF7F2F8FEF706FC102409E03E
:1022D000002C0ADB0A220023FEF701FB039B3032AD
:1022E0001A55641E50EA0102F2D1641C039AC4F12B
:1022F00011031444119A012A03D0012208430DD17D
:102300000AE0084304D000204FF0110B119072E74F
:10231000A3EB0B056D1E0DE05B4504DD4FF00002E5
:1023200005F1010504E003DA4FF00002A5F1010513
:10233000002AECD002981199C0E90231C0E90045A9
:1023400079E70000000014400000F03F300000007A
:102350000000F0430000E03F2DE9FF4F95B09A46A2
:10236000884606460025EEE1252877D10024274639
:10237000F94A0121039400E0044316F8013F203B91
:1023800001FA03F01042F7D130782A2811D06FF00B
:102390002F033078A0F13002092A16D8039A44F0AE
:1023A000020402EB820203EB42021044761C03900B
:1023B000EFE758F8042B0392002A03DA504244F462
:1023C0000054039044F00204761C30782E2816D175
:1023D00016F8010F44F004042A280DD06FF02F02E4
:1023E0003078A0F13003092B09D807EB870302EB03
:1023F0004303C718761CF3E758F8047B761C307843
:102400006C280FD006DC4C2817D068280DD06A281D
:1024100014D104E0742810D07A280FD10DE044F4D0
:1024200000140AE044F4801401E044F4401472788B
:10243000824202D104F58014761C761C307866281E
:102440000BD013DC582877D009DC002875D045283C
:10245000F6D04628F4D047281AD193E118E0632833
:1024600035D0642879D0652812D18BE1702873D0DB
:1024700008DC6728F1D069286FD06E280DD06F284E
:1024800006D1ACE073282CD0752874D0782853D0AE
:102490005246179990476D1C54E1C4F3025002282C
:1024A00009D003280DD0D8F8001004280DD00D60F5
:1024B00008F1040846E1D8F80010EA17C1E9005213
:1024C000F6E7D8F800100D80F2E70D70F0E718F885
:1024D000041B8DF8001000208DF80100EB46012050
:1024E00003E058F804BB4FF0FF3061074FF00001E4
:1024F00002D40DE009F101018946B9420FDA8145A4
:10250000F8DB1BF809100029F4D108E009F10101FA
:1025100089468142FADB1BF809100029F6D103989D
:102520005346A0EB090721463846179A00F080FA77
:10253000284400EB090507E044E008E10DE01BF842
:10254000010B524617999047B9F10109F7D253464A
:1025500021463846179AF2E039E00A21C4F30252C4
:102560004FF0000B0091022A06D058F8040BC11757
:10257000032A09D00AE023E008F1070020F007024F
:10258000F2E80201904605E000B2C117042A01D129
:1025900040B2C117002906DA0A460021404261EB29
:1025A00002012D2202E0220504D52B228DF8042001
:1025B000012203E0E20701D02022F7E7914657E02D
:1025C0000A2100E010214FF0000B00910BE01021D8
:1025D0004FF0000B44F004040827009103E00820AA
:1025E0004FF0000B0090C4F30252022A05D058F8B5
:1025F000040B0021032A08D008E008F1070020F0AE
:102600000702F2E80201904603E080B2042A00D1FA
:10261000C0B24FF0000922072AD53278702A07D0BD
:10262000DDF800C08CF0100C5CEA0B0C05D00EE05D
:1026300040228DF80420012208E050EA010306D070
:1026400030238DF804308DF8052002229146009B3E
:1026500083F0080353EA0B030AD150EA010201D1C7
:10266000620705D530228DF804204FF001097F1E46
:102670003278582A04D039A20C920CAA02920BE0AC
:102680003BA2F9E75B46009AFEF729F90C9B9B5C9D
:10269000029A521E0292137050EA0102F2D102987D
:1026A00004A9081A00F1200B600702D524F4803435
:1026B00000E001275F4502DDA7EB0B0000E00020F2
:1026C00000EB0B01009003984944401A0390E0038B
:1026D00006D453462146179A039800F0A9F90544F9
:1026E000002706E001A85246C05D179990476D1C6F
:1026F0007F1C4F45F6DBE0030CD553462146179A65
:10270000039800F095F9054404E0302052461799EB
:1027100090476D1C0099481E00900029F5DC08E0E8
:102720000298029952460078491C029117999047E5
:102730006D1CBBF10001ABF1010BF1DC5BE100F0C2
:1027400065F90544761C307800287FF40DAE19B089
:102750002846BDE8F08F00000928010030313233EF
:1027600034353637383961626364656600000000CD
:1027700030313233343536373839414243444546B7
:1027800000000000600700D4062708F1070020F0D1
:102790000700F0E80223804603F0004C5FEA0C00DB
:1027A00001D097A009E0200501D596A005E0E0073B
:1027B00001D095A001E0AFF24C001390307823F0E7
:1027C000004365280CD006DC452809D046281DD0DA
:1027D00047287FD13BE0662818D067287AD136E0B9
:1027E0000021112F01DB112000E0781CCDE9000150
:1027F00004A90CA8FFF7EEFCDDE90D010C9A4FF0DF
:10280000000B07F10109109200914EE04FF00040DB
:102810000097CDE9011004A90CA8FFF7DBFCDDE966
:102820000D020C9B0F994FF0000B914610930092F4
:1028300011B9791C00EB0109B7EB090003D4C0F111
:10284000FF3B07F10109A9EB0700019042E0012FCE
:1028500000DA01270021112F01DD112000E03846A8
:10286000CDE9000104A90CA8FFF7B4FCDDE90D01D6
:102870000C9A00914FF0000BB946109221070FD42B
:10288000009A4A4503DA914601E0A9F10109B9F13C
:10289000010F05DD109AA9F10101515C3029F4D036
:1028A000B84202DA10F1040F03DA0121CDE9011078
:1028B00010E0002803DC8344A9EB000102E0411C86
:1028C000494500DD8946A0EB0B00401C01904FF00C
:1028D00000400290200705D40198484502DB4FF0E4
:1028E000FF30019000208DF84B0002980DF14B074E
:1028F000B0F1004F25D002200C902B200D900298B3
:1029000000280CDA404202902D200D9007E00A21A9
:102910000298FDF7CEFF3031029007F8011D0C99A7
:10292000481E0C900029F2DC02980028EFD1791E95
:102930000D980870307800F0200040F0450007F84E
:10294000020D11A8C01BC01D02901398007800B1A1
:10295000012000EB0901019801EBE07102980144AC
:102960000398401A401E0390E00306D453462146C4
:10297000179A039800F05CF805441398007818B192
:102980005246179990476D1CE00323D553462146C4
:10299000179A039800F04CF805441BE0BBF1000FB8
:1029A00007DB0098584504DD1098179910F80B00C4
:1029B00001E0179930205246904701980BF1010B26
:1029C000401E05F10105019004D12E2052461799B1
:1029D00090476D1CB9F10001A9F10109DEDC05E0A9
:1029E00017F8010B5246179990476D1C0299481E23
:1029F00002900029F4DC53462146179A03989EE67C
:102A00002D0000002B000000200000002DE9F04107
:102A1000044600251E461746880404D405E03946BE
:102A20002020B0476D1C641EF9D52846BDE8F08112
:102A30002DE9F041044600251E469046C80301D505
:102A4000302700E02027880404D505E041463846B9
:102A5000B0476D1C641EF9D52846BDE8F0810A68B0
:102A6000531C0B60107070472DE9FE4F07460E4651
:102A70000025684601F00AF800246FF00F0AE846C6
:102A80004FF0010957F8240056F82410401A00D5D9
:102A90004042FDF793FE5146FDF7FCFC58F8241028
:102AA00011F0FF4F0BD0FDF7B7FC4FF07E51FDF753
:102AB0007BFC0A4920F00040884205DC07E0084919
:102AC00008440849884202D309FA04F00543641C0B
:102AD000032CD7DB2846BDE8FE8F0000295C0F3EA3
:102AE000666666C19A99D9002DE9F04D8D4F21F0A7
:102AF000004A86B005460C46BA452ADBAAEB070019
:102B000028430AD08848824501DC1AD1CDB106B0ED
:102B10002846BDE8F04DFFF734BB844A844B284675
:102B2000FDF76BFD07460E46824A834B2846214639
:102B3000FDF763FD06B03A463346BDE8F04DFDF7BC
:102B4000B5BC0120FFF740FB06B0BDE8F04DFFF734
:102B50001DBB7A48824542DABAF1795F0BDA284622
:102B6000FFF796FA042808BFFFF716FB284606B0C1
:102B70002146BDE8F08D2A460B461046FDF73DFD87
:102B8000834602466E480E460B4606217844FFF700
:102B9000A3FA5A463346FDF730FD804669488A4617
:102BA0005A46334604217844FFF796FA5A4633468C
:102BB000FDF723FD00223B46FDF778FC02460B465D
:102BC00040465146FDF78BFD2A462346FDF715FD8D
:102BD00006B02A462346BDE8F04DFDF767BC2846FF
:102BE00024F0004100223D463B46FDF703FD4FF037
:102BF000FF32FDF75AFF0646024653480F460B4682
:102C000006217844FFF768FA32463B46FDF7F5FCAB
:102C1000CDE900014D4832463B4604217844FFF798
:102C20005BFA32463B46FDF7E8FC00222B46FDF7F7
:102C30003DFC834602913046394602F071FF8046E2
:102C400043480D46504517DCDDE900015A46029B1A
:102C5000FDF745FD42462B46FDF7CFFC42462B468D
:102C6000FDF724FC0122FDF720FF304A304BFDF731
:102C7000BEFC304A304B4CE04FF0000A52460B4647
:102C80004046FDF713FCCDE9031052462B46104693
:102C90001946FDF7B2FC32463B46FDF7ABFCDDE9D9
:102CA0000332FDF71CFD06460F46DDE900015A46DA
:102CB000029BFDF714FD8346009101223046394600
:102CC000FDF7F3FE194A1A4BFDF794FC06460F4632
:102CD000012240462946FDF7E8FE5A46009BFDF7D3
:102CE0008CFC32463B46FDF782FC06460F4601222D
:102CF00050462946FDF7D9FE0E4DDFF858802A468A
:102D00004346FDF777FC32463B46FDF773FC2A4607
:102D10004346FDF76FFC002CD8BF81F0004106B0A0
:102D2000BDE8F08D0000F03F0000F07F075C143339
:102D300026A6913C182D4454FB21F93F0000E03FAA
:102D4000784C00008E4C0000024C0000184C000033
:102D50003333EF3FFB21E93F2DE9F84F04460D46A1
:102D600021F0004000917349814211DC7249884290
:102D700001DC06D12CB120462946BDE8F84FFFF70B
:102D800000BA6E48002DCCBF6D496E49BDE8F88F82
:102D90006D49814211DD6D498142D8BF4FF0FF3648
:102DA0006DDD20462946FFF773F9042808BFFFF7B9
:102DB000F3F920462946BDE8F88F6549654F25F0AF
:102DC0000045814233DD6449814219DD00263246E7
:102DD0004FF0804320462946FDF768FB80468A462F
:102DE000012220462946FDF760FE00223B46FDF702
:102DF000FEFB42465346FDF772FC04460D463EE09C
:102E000001260022BA463B4620462946FDF74EFBE6
:102E100080460F460022534620462946FDF7E7FB31
:102E200042463B46FDF75BFC04460D4627E04B4916
:102E300081421BDDDFF828A10226002253462046EE
:102E40002946FDF7DAFB00223B46FDF72FFB8046C3
:102E50000F460022534620462946FDF7C8FB42464E
:102E60003B46FDF73CFC04460D4608E0032622469F
:102E70002B4600203B49FDF732FC04460D46224616
:102E80002B4610461946FDF7B8FB8B468246024694
:102E90000B46FDF7B2FB07460246334888460B4611
:102EA00006217844FFF718F952465B46FDF7A5FB6B
:102EB00082462E488B463A46434605217844FFF722
:102EC0000BF93A464346FDF798FB02460B46002EA7
:102ED000504659460CDAFDF7E9FA22462B46FDF733
:102EE0008CFB01B022462B46BDE8F04FFDF782BBBC
:102EF000FDF7DCFA22462B46FDF77FFB1C4A7A449D
:102F000002EBC603D3E90023FDF771FB22462B46F3
:102F1000FDF76DFB174A7A4402EBC603D3E90023A1
:102F2000FDF768FB009A002AB8BF81F00041BDE8B8
:102F3000F88F0000000010440000F07F182D44546A
:102F4000FB21F93FFB21F9BF0000DC3F0000203EE0
:102F50000000F33F0000F03F0000E63F0080034028
:102F60000000F83F0000F0BF1A4A0000D8490000F6
:102F7000764900003E4900002DE9F04D9446CCF121
:102F8000000423F000464CEA0404594F46EAD47486
:102F90009A46884621F00042BC4206D8454240EAA3
:102FA000050442EAD474BC4204D9BDE8F04D62463F
:102FB000FFF7EAB8AAF14055A5F17F6555EA0C0480
:102FC0000BD0022404EAAA744A4DDFF82CE144EA4B
:102FD000D87452EA000B04D00CE0BDE8F04DFFF7C6
:102FE000BBBE002C14BF012CBDE8F08D022C30D0EC
:102FF000032C32D056EA0C0B0AD0BE4220D1BA4282
:1030000009D126F0804622F080423346114617E06F
:1030100000291ADB25E0DFF8E4B0FB44002C04BFF4
:10302000DBE90001BDE8F08D012C02BFDBE9000106
:1030300081F00041BDE8F08D022C0AD0032C0CD0A9
:10304000BA4212D1B8F1000F0BDA2A482C49BDE878
:10305000F08D28462B49BDE8F08D28467146BDE825
:10306000F08D24482849BDE8F08D921B12153C2AAA
:10307000C4BF204F244E10DCBAF1000FBEBF12F1C6
:103080003C0F00273E4608DB6246FDF728FB21F097
:103090000041FFF761FE07460E4694B1012C08BFC0
:1030A00086F000460DD0194A194B022C384631469D
:1030B00015D0FDF79CFA2A46BDE8F04D114BFDF7FF
:1030C00096BA0022134638463146FDF71DFD04BF6F
:1030D0000220FFF779F838463146BDE8F08DFDF75C
:1030E00086FA2A46BDE8F04D064BFDF783BA00008C
:1030F0000000F07F182D4454FB2109C0D248000085
:10310000FB21F9BFFB210940FB21F93F075C143388
:1031100026A6A13C08B1002070474FF0FF30704751
:1031200008B560B120208DF8000028208DF801003E
:1031300030208DF8020038208DF8030004E0A3222F
:1031400004216846FDF78FF86A46042140F69E2068
:1031500001F0DEFF01F09CFC08BD00003EB5044616
:1031600002208DF80000CA208DF80100E3208DF8C0
:10317000020009208DF803006A460421682001F04E
:10318000C7FFA3208DF80000610609D5C0218DF886
:103190000110C8218DF80210C2218DF8031005E03E
:1031A0008DF801008DF802008DF8030014F4C07F43
:1031B00009D0C4218DF80410CC218DF80510C6214A
:1031C0008DF8061005E08DF804008DF805008DF8E7
:1031D00006008DF808008DF807008DF809006A4692
:1031E0000A2140F6A72001F093FFA0074FF0D80571
:1031F00003D020208DF8000001E08DF800506A46D1
:10320000012140F6B62001F083FFA00601D5012080
:1032100000E0002000F08EF814F4C07F1ED0E0051E
:103220000AD5B2208DF800008B208DF80100B62061
:103230008DF802009B2009E0B0208DF8000080206E
:103240008DF80100B4208DF8020090208DF8030065
:103250006A46042140F6A22001F05AFFE1074FF42C
:103260000B6022D0F8218DF800106A46012101F090
:103270004FFFFA21072000F049FB072000F014FB64
:10328000012000F031FB642000F0D4FB4FF4FA7011
:1032900000F0E0FBC821254800F0CEFA282000F01D
:1032A000E3FA0A2000F0F0FA05E08DF800506A46D3
:1032B000012101F02DFFA00703D5D9208DF80000D2
:1032C00001E08DF800506A46012140F23D7001F0A6
:1032D0001FFF600701D5012000E0002000F048F842
:1032E000E00601D5012000E00020FFF719FF104D96
:1032F00044F00800688101F0CBFB0020A873600651
:1033000001D50620A87314F4C07F02D0A87B801DCD
:10331000A87314F0140F02D0A87B1030A873A00774
:1033200002D0A87B001DA87300203EBD09E3CA029D
:10333000D80700200EB54FF4976310B106A107C956
:1033400001E008A207CA8DE807006A46092118466D
:1033500001F0DEFE0EBD0000B8AAB38DB4980D35A5
:103360005D000000B8AAAAAAB088C3C5C7000000C3
:1033700008B560B1C0208DF80000C2208DF80100B2
:10338000C4208DF80200C6208DF8030004E08B22D3
:1033900004216846FCF767FF6A46042140F698203E
:1033A00001F0B6FE01F074FB08BD0000C8234FF425
:1033B0008062024940F6F63001F04CBA0C6C00080D
:1033C0002DE9FF4F89B01746DDE916520024544E0F
:1033D000884681462C80A246B07B694601F0E6FA19
:1033E0004FF0FF3B18B158460DB0BDE8F08F708923
:1033F00010F0140F4CD0BDF800109DF8022049BA0F
:10340000090441EA02239DF803100B433B60BDF819
:1034100004109DF8062049BA090441EA02229DF8E9
:1034200007101B140A437A60BDF808109DF80A4083
:1034300049BA090441EA04219DF80B4012142143C2
:10344000B960BDF80C409DF80EC064BA240444EA8B
:103450000C2C9DF80F4009144CEA040CC7F80CC062
:103460004FEA2C475B43494302FB023207FB07113B
:1034700011441024A1F17061B1F1007F04D901F071
:1034800007FBA5F800A0AEE7298841F480712980E8
:103490004206694611D50A19A41D13885BBAA8F81B
:1034A000003053885BBAA8F80230928852BAA8F864
:1034B00004202A8842F008022A8010F4C07F11D02C
:1034C0000A19A41D13885BBAA9F8003053885BBAA7
:1034D000A9F80230928852BAA9F804202A8842F04A
:1034E00070022A80800716D00C44E07800F0C005F6
:1034F00000F03F016078C00706D0C80801F007015E
:103500003268491C02B190476078000703D57168A2
:1035100009B1A80988470C9800F064FE002063E711
:10352000D80700202DE9FF41044603A801F048F820
:10353000BDF80C00410CC3032F48008900F00302C2
:1035400054F82250420700D56D42C0F3C1028606EE
:1035500054F8222000D55242C0F38116C00554F819
:10356000264000D56442A5FB0367E81700FB037003
:1035700005FB0100850045EA9670A2FB0367D5179D
:1035800005FB037502FB0152950045EA9672A4FB08
:103590000367E51705FB037304FB01318B0043EA66
:1035A0009671030E8DF80030030C8DF80130030A7C
:1035B0008DF802308DF80300100E8DF80400100C09
:1035C0008DF80500100A8DF80600080E8DF8080029
:1035D000080C8DF80900080A8DF80A008DF80720FC
:1035E0008DF80B106A460C214FF4257001F090FD08
:1035F00004B0BDE8F0810000D807002030B50446D3
:1036000013A285B007CA8DE807004FF0FF35C82C1C
:1036100016D8C820B0FBF4F1491E080A8DF80C003A
:103620008DF80D1003AA022140F2162001F070FD62
:1036300030B96A460C2140F6C12001F069FD10B195
:10364000284605B030BD054884810020F9E7000018
:10365000FEF2ABC4AAF1DFDFBBAFDFDFD80700208B
:10366000F8B53049098901F0030250F822404A07B1
:1036700000D56442C1F3C1028B0650F8222000D568
:103680005242C1F3811350F82330C80500D55B4284
:10369000254984FB0140850045EA947082FB014284
:1036A000A40F44EA820483FB0121950F45EA8105BA
:1036B000010E8DF80010010C8DF80110010A8DF833
:1036C00002108DF803006A4604214FF4747001F073
:1036D0001FFD4FF0FF3688B9200E8DF80000200C3A
:1036E0008DF80100200A8DF802008DF803406A462B
:1036F00004214FF4757001F00BFD08B13046F8BDA0
:10370000280E8DF80000280C8DF80100280A8DF88D
:1037100002008DF803506A4604214FF4767001F0E0
:10372000F7FCF8BDD807002009E3CA022DE9FF41E4
:1037300004463CA004F00303006802903AA000682D
:1037400003903AA006683AA0056802A8C15C8DF80B
:103750000010C4F3C101425C8DF80120C4F3811252
:10376000805C8DF8020003A8C35C8DF80430415CD6
:103770008DF80510805C8DF806006A46032140F242
:10378000264001F0C5FC4FF0FF37E0BB01AA032142
:1037900040F22A4001F0BCFCA8BBCDE900656007FF
:1037A0000BD59DF8000040F001008DF800009DF859
:1037B000040040F001008DF80400A0060BD59DF830
:1037C000010040F001008DF801009DF8050040F077
:1037D00001008DF80500E0050BD59DF8020040F0D2
:1037E00001008DF802009DF8060040F001008DF800
:1037F00006006A4603214FF4886001F089FC10B985
:1038000001AA032100E004E040F2314001F080FC15
:1038100018B1384604B0BDE8F081064804810020A4
:10382000F8E700004CCD6C000CC92C003656760031
:1038300026466600D80700204FF47A7290FBF2F01B
:1038400008B54843010E8DF80010010C8DF80110E9
:10385000010A8DF802108DF803006A4604214FF426
:10386000AE7001F055FC08BD0521B0FBF1F008B5C4
:10387000010A8DF800108DF801006A4602214FF40C
:10388000AD7001F045FC08BD0521B0FBF1F008B5B5
:10389000010A8DF800108DF801006A4602214FF4EC
:1038A000AC7001F035FC08BD08B500218DF80010A2
:1038B000C10702D030218DF80010810705D59DF891
:1038C000001041F00C018DF80010400705D59DF85F
:1038D000000040F003008DF800006A4601214FF41B
:1038E000A47001F015FC08BD08B560B1042800D92A
:1038F0000420401E8DF800006A46012140F24F105E
:1039000001F006FC08BD0120F3E700002DE9FC41B1
:10391000054640074FF0FF367CD0B1F5C86F79D827
:103920000846FCF754FF3E49FCF776FD074601A820
:1039300000F028FE9DF80400022806D004280DD0CF
:1039400008282ED0102865D134E00E213846FCF727
:10395000A1FDFCF76BFF84B2324907E00D21384628
:10396000FCF798FDFCF762FF2F4984B23846FCF75C
:1039700021FDFCF75BFF210A8DF8001080B28DF865
:103980000140010A8DF802108DF80300E8076C462B
:1039900020D0224602214FF4EA7001F0B9FBC8BBE7
:1039A00011E00C213846FCF775FDFCF73FFF84B2AF
:1039B0001E49DBE70B213846FCF76CFDFCF736FFB0
:1039C00084B21B49D2E7A21C02214FF4927001F08D
:1039D0009FFBF8B9A8070DD56A4602214FF4EC7099
:1039E00001F096FBB0B9A21C02214FF4947001F0D3
:1039F0008FFB78B9680710D56A4602214FF4EE7044
:103A000001F086FB30B9A21C02214FF4967001F040
:103A10007FFB10B13046BDE8FC810020FBE70000D1
:103A200000004843000040460000C04500004045FB
:103A30000000C0440521B0FBF1F008B5010A8DF883
:103A400000108DF801006A4602214FF4EF7001F07A
:103A50005FFB08BD0521B0FBF1F008B5010A8DF848
:103A600000108DF801006A4602214FF4ED7001F05C
:103A70004FFB08BD04490A685206FCD5024AC1B290
:103A8000121D116070470000003801402DE9FE430F
:103A90000646264801AB042240680D21007800F05C
:103AA000C9FB10B10720BDE8FE839DF804101C205F
:103AB00000EAD1029DF80710DFF87490C1F30113FA
:103AC0001A438DF800209DF80520C1F3810300EA18
:103AD000D2021A438DF801209DF8062001F003015F
:103AE00000EAD20008430024124F8DF80200A046DD
:103AF0006D46285D10B146F824900AE046F824800F
:103B00000DE000BF56F824003946FCF753FC46F898
:103B10002400285D401E10F0FF002855F2D1641CDF
:103B2000E4B2032CE5D30020BDE7000038000020FC
:103B30007B14AE3E1D5A843F10B506A1FCF7A5FBD1
:103B4000002805D004A1FCF7A0FB002800D0401CF1
:103B500010BD0000495044003A0000002DE9FE4F1E
:103B600005460120C14E8DF800004FF000088DF889
:103B7000018030680C461746817C70686B460222D3
:103B8000007800F08DFB4FF0FF3A00287AD1C82072
:103B9000FDF728F98DF8008030686B460122C17B63
:103BA0007068007800F07CFB0028EFD130686B462D
:103BB000012241797068007800F072FB0028E5D19D
:103BC00030686B460122817C7068007800F068FBE9
:103BD0000028DBD130686B460122C17D7068007817
:103BE00000F05EFB0028D1D130686B4601220179DC
:103BF0007068007800F054FB0028C7D14FF00C0922
:103C00008DF8009030686B46012201797068007869
:103C100000F046FB002835D10F20FDF7E3F8B06A2D
:103C20006B460122407A8DF8000030688178706818
:103C3000007800F035FB002824D1B06A6B460122E1
:103C4000007A8DF80000306841787068007800F0E4
:103C500027FB002873D1B06A807A0FB140F0E000F2
:103C60008DF8000030686B46012281797068007819
:103C700000F016FB002862D12FB1B06AC07A40F084
:103C8000E00001E04AE018208DF8000030686B4643
:103C90000122C1797068007800F002FBF0BB17B117
:103CA000C820FDF79FF840208DF8000030686B4673
:103CB000012201797068007800F0F2FA70BB782078
:103CC0008DF8000030686B460122417970680078F9
:103CD00000F0E6FA10BB3220FDF784F88DF8008082
:103CE000306847466B46417970680122007800F0E1
:103CF000D7FA98B931687068B046897A00786B460F
:103D0000022200F097FA48B9BDF80000AF6040BA4F
:103D1000B0FBF9F06F60C6B22F6000E00FE0A76063
:103D200067602760002739E0D8F80010D8F8040051
:103D30006B46C97A00780C2200F07CFA10B150462C
:103D4000BDE8FE8FBDF80000236840BA00B2BDF8A0
:103D50000210BDF804201844206049BA606809B216
:103D60000844606052BAA06812B21044A060BDF866
:103D700006002B6840BA01B2BDF80800BDF80A2061
:103D80001944296040BA696800B20844686052BAB0
:103D9000A86812B210447F1CFFB2A860B742C3D318
:103DA00028688322C117090441EA10410004002356
:103DB000FCF706FA32460023FCF702FA286068682E
:103DC0008322C117090441EA104100040023FCF7D3
:103DD000F7F932460023FCF7F3F96860A8688322FC
:103DE000C117090441EA104100040023FCF7E8F977
:103DF00032460023FCF7E4F9A86020684FF4006520
:103E0000C117090441EA104100042A460023FCF7C7
:103E1000D7F932460023FCF7D3F9206060682A46C0
:103E2000C117090441EA104100040023FCF7C8F956
:103E300032460023FCF7C4F96060A0682A46C11727
:103E4000090441EA104100040023FCF7B9F93246A5
:103E50000023FCF7B5F9A060002802DDA0F5803052
:103E600001E000F58030A060002069E73800002004
:103E700001210148FDF7BDB8000C01402DE9F84FC4
:103E800081462E488846002540686B46032200780C
:103E90000D2100F0CFF910B10720BDE8F88F9DF893
:103EA0000000002400F01F008DF800009DF80100C4
:103EB0006FF00F0B00F01F008DF801009DF802005D
:103EC0006E4600F01F008DF802004FF0010A00BF9F
:103ED00059F8241058F82400081A00D54042FCF77D
:103EE0006DFC5946FCF7D6FA0746305DC0B1144860
:103EF00002E01449FCF75EFA315D491E11F0FF0142
:103F00003155F6D101463846FCF786FA4FF07E511E
:103F1000FCF74AFA0C4920F00040884205DC07E033
:103F20000A483844B0F1D97F02D90AFA04F00543AF
:103F3000641C032CCCDB2846AFE7000038000020CF
:103F40000000C84154E3853F295C0F3E0000E0BEFD
:103F500010B501F073FD01F099FD01F08FFD09200E
:103F6000401EFDD201F062FD0820401EFDD2BDE8DA
:103F7000104001F063BD00000D4800B5816985B0B7
:103F800041F00801816180694FF4407100F0080040
:103F900004900120CDE90010029003906946054885
:103FA000FCF732FF01F052FD01F040FD05B000BD0D
:103FB00000100240000C014010B501F03FFD01F07F
:103FC00065FD01F043FD0920401EFDD201F02EFDEC
:103FD0000820401EFDD2BDE8104001F02FBD70B595
:103FE0000646002401F03AFD002501F027FD0820D7
:103FF000401EFDD201F01AFD6006040E01F086FCA1
:1040000008B1641CE4B20820401EFDD26D1CEDB264
:10401000082DEAD316B1FFF79BFF01E0FFF7CCFFB5
:10402000204670BD70B5054601F030FD01F006FD7B
:104030000024280602D501F009FD01E001F01EFD73
:104040006806050E0820401EFDD201F0EFFC082096
:10405000401EFDD201F0F2FC0820401EFDD2641C7F
:10406000E4B2082CE5D370BD10B501F00FFD01F0EE
:10407000EDFC01F0DBFC0920401EFDD201F0FEFC4E
:104080000820401EFDD2BDE8104001F0D7BC10B59D
:1040900001F0FCFC01F0D2FC01F0F0FC0920401E14
:1040A000FDD201F0C3FC01F0D1FC0820401EFDD27E
:1040B00010BD10B5002401F0D1FC01F0C7FC0420B4
:1040C000401EFDD201F0B2FC0320401EFDD207E0ED
:1040D000641CE4B2FA2C03D9FFF7D9FF012010BD0C
:1040E00001F014FC0028F3D101F0A8FC002010BD61
:1040F00000B5024600F00DF80346D01C00F009F8A8
:1041000043EAC003901D00F004F843EA801080B237
:1041100000BD90F90010002902DD4FF0000070474B
:1041200002DA4FF00400704790F90110002902DD17
:104130004FF00100704702DA4FF00500704790F928
:104140000200002802DD4FF00200704702DA4FF053
:10415000060070474FF0070070470000104810B588
:10416000816986B041F0080181618069032100F016
:10417000080004900120CDE90010CDE90201094CAE
:1041800069462046FCF740FE002201212046FCF74C
:1041900038FF002202212046FCF733FF06B010BD95
:1041A00000100240000C01401CB5FCF73DFFFDF77C
:1041B000F8FCFDF7CBFC06490120CDE90001002306
:1041C000402204A1064802F0DDFA01F0DFFFFEE71D
:1041D0001800002073746172745F7461736B000067
:1041E0006D5B00087047000008B56B460222412154
:1041F000682000F01FF8BDF8000040BA00B2FCF7DC
:10420000EBFA0022074BFCF76AFA074A074BFCF768
:104210004DF9FCF732FB0649FCF7CCF8FCF7EDFA58
:1042200000B208BD00407540A4703D0AD74342402B
:104230000000C8422DE9F0411D4614460F460646CF
:10424000FFF712FF7006000EFFF7ECFEFFF731FFDD
:1042500020B1FFF71CFF0120BDE8F0813846FFF7D1
:10426000E1FEFFF726FFFFF7FFFE012000EB46000F
:10427000C0B2FFF7D7FEFFF71CFF09E0012C0DD0FD
:104280005FF00100FFF7ABFE641E05F8010BE4B21E
:10429000002CF3D1FFF7FBFE0020DDE70020F1E763
:1042A0002DE9F0411E4615460F460446FFF7DCFE99
:1042B0006006000EFFF7B6FEFFF7FBFE60B938465A
:1042C000FFF7B0FEFFF7F5FE00240CE0305DFFF7CE
:1042D000A9FEFFF7EEFE20B1FFF7D9FE0120BDE8F1
:1042E000F081641CE4B2AC42F0D3FFF7D0FE0020B2
:1042F000F5E700002DE9F041124C20F00101002506
:1043000094F8240010B10020BDE8F081A07A4FF0AD
:10431000FF3668B10840277C2074884200D03546BB
:1043200041B1012001F0C0FB00F0B2FB38B12774AD
:104330003046E9E7207D00B1012001F0B5FB2846B9
:10434000E2E70000380000202DE9F74F8EB00CA9FD
:1043500002A8CDE900010BAB03AA09A907A8FFF742
:104360002FF818B1012011B0BDE8F08FBDF808009A
:10437000C0057DD50398FCF721FA6FF01D04214696
:10438000FCF788F882460498FCF718FA2146FCF7F7
:1043900081F881460598FCF711FA2146FCF77AF876
:1043A00080460698FCF70AFA2146FCF773F80546A2
:1043B00001215046FCF76EF806464146FBF7FAFF2E
:1043C00004464FF040414846FBF7F4FF07462946B4
:1043D000FBF7F0FF2146FBF795FFFCF73BFAFEF7F2
:1043E00083FB4FF0663B5A463D4BFCF706F9FCF762
:1043F00044FA0E99086001214046FCF74BF841460B
:104400000090FBF7D7FF044638464946FBF7D2FF3A
:104410002146FBF7C9FF4FF07E51FBF773FFFCF716
:1044200019FA07460C4630464946FBF7C3FF0646D5
:1044300029460098FBF7BEFF3146FBF763FFFCF708
:1044400009FA3A462346FEF797FD5A46244BFCF7F5
:10445000D4F8FCF712FA0F99086029460846FBF7D2
:10446000A9FF074641460846FBF7A4FF064600E0C1
:1044700034E049460846FBF79DFF0446514608468E
:10448000FBF798FF2146FBF73DFF3146FBF78CFF1A
:104490003946FBF789FFFCF7DDF906460C4629464D
:1044A0005046FBF787FF054641464846FBF782FF2B
:1044B0002946FBF727FF0121FBF7ECFFFCF7CAF9C0
:1044C00032462346FEF758FD5A46054BFCF795F851
:1044D000FCF7D3F910990860002044E7022042E776
:1044E00066A64C4010B500F0F1F808B10A2010BDE6
:1044F000782000F0B1FD10F0FF0F01D0012010BDB9
:104500007820FFF7F7FE10F0FF0F01D0022010BD5A
:10451000642000F061FD10F0FF0F01D0032010BDFA
:10452000FEF744FF10F0FF0F01D0042010BD144827
:10453000FFF7DEFDFFF7FAF810F0FF0F01D00520BE
:1045400010BD40F27310FEF709FE10F0FF0F01D00E
:10455000062010BD6420FFF751F810F0FF0F01D0C6
:10456000072010BD01F0DAF908B1082010BD0120C4
:1045700000F058FC10F0FF00F8D0092010BD00003A
:10458000640000200D494A7A42B1012A08D0022A6B
:104590000FD0032A0FD04FF0FF307047022200E007
:1045A00004220270C97C11B11106C90D01700020EE
:1045B00070470822F5E71022F3E7000038000020DA
:1045C0000F494A7A42B1012A09D0022A11D0032A9E
:1045D00012D04FF0FF3070474FF4804201E041F6B7
:1045E0009C720280C97C11B1C2F34E01018000208F
:1045F00070474FF48052F4E74FF40062F1E7000097
:10460000380000200B49097A39B1012907D0022965
:104610000AD003290BD0002103E0FA2101E04FF476
:10462000FA710180002070474FF47A71F9E74FF476
:10463000FA61F6E7380000200A49097A41B10129F8
:1046400008D002290AD003290AD04FF0FF30704762
:10465000054900E005490160002070470449FAE778
:104660000449F8E7380000200000034300008342BB
:1046700033330342333383410C49C97A072913D2B8
:10468000DFE801F01204060A0C0E1000BC2100E065
:1046900062210180002070472A21FAE71421F8E7FF
:1046A0000A21F6E70521F4E70021F2E738000020AF
:1046B000054991F8242012B14FF0FF307047C989A5
:1046C0000180002070470000380000202DE9FC41E7
:1046D0004C4C80208DF8000020686B460122817CC4
:1046E00060680078FFF7DCFD4FF0FF37002832D11B
:1046F0006420FCF777FB00258DF8005020686B469E
:104700000122817C60680078FFF7CAFD002870D123
:1047100020686B460622817D60680078FFF78AFD7D
:10472000002866D19DF805009DF80310C007400FD2
:1047300001F0010140EA41019DF801004FF001063E
:1047400000F00100014309D0012905D0022915D04C
:104750002DA0FDF779FC4CE0E67410E020686B4674
:104760000122C17860680078FFF764FD40BB9DF8C6
:10477000000010F00F0020D0042822D0E574FF20A4
:1047800004F80A0F4FF6FF7104F8020C04F8010C4C
:104790006070A180A0712072A67026766576E572A1
:1047A000A572E56025616561A576E576A5834FF480
:1047B000FA6000F073FB18B907E01D48FDF744FCF0
:1047C00017E01CA0FDF740FCC6E7022000F088FAC5
:1047D00078B92A2000F0CAFB58B9322000F0FCFB5F
:1047E00038B90020FFF786FD18B9002000F0ACFAB8
:1047F00010B13846BDE8FC81002000F02DFC0020FF
:10480000F8E7000038000020556E737570706F7205
:1048100074656420736F6674776172652070726F5F
:1048200064756374207265762025642E0A0000008A
:10483000F878000848616C662073656E7369746966
:1048400076697479207061727420666F756E642E5B
:104850000A0000002DE9FF4FDFF89480064685B07E
:1048600098F8250015460F464FF0FF39B0BBAFB39F
:10487000002420E0301B102800DD102080B2834689
:104880003A1901469246204600F042FC30BB6A4687
:104890005946204600F0D2F800BB50465A466946B9
:1048A000FBF71AFD20B16FF0010009B0BDE8F08FF1
:1048B00004EB0B0084B2B442DCD3280A8DF810005C
:1048C0008DF81150D8F80000444604AB817ED8F82A
:1048D000040002220078FFF7E3FC08B14846E4E751
:1048E000012084F825000898E0840020DDE700001E
:1048F000380000202DE9F84305464FF0FF392828FD
:1049000044D80727284C00267DB1012000F0FCFA8E
:1049100020208DF800004FF00108012D17D0052D43
:1049200018D88DF8018005201FE0002000F0ECFA77
:104930008DF800608DF8017020686B460222817C42
:1049400060680078FFF7ACFC00BB267529E08DF8A5
:104950000160E8E7142D04D802208DF801000A2038
:1049600003E003208DF80100142000F0FFFA9DF809
:1049700001006B4607EB80108DF8010020680222D1
:10498000817C60680078FFF78BFC10B14846BDE879
:10499000F8830820A072267384F814800020FFF7A3
:1049A000A9FC0020F3E70000380000202DE9F843BF
:1049B000214C0646174694F8240089464FF0FF38EC
:1049C00090B3A07A80B320686B460222817A606837
:1049D0000078FFF72FFC38BBBDF8000045BAB542A0
:1049E00002D2002038701FE060684188B5EB510F9B
:1049F00011D9216800786B46497C0122FFF71AFC27
:104A000090B99DF80000C00605D500F041F86FF0A0
:104A10000100BDE8F8832068F2B24B46C17A6068B5
:104A20000078FFF707FC08B14046F2E7B5FBF6F067
:104A3000401E38700020ECE738000020F8B5160062
:104A40000D464FF0FF371FD0104CA17AE1B1010A9B
:104A50008DF80010C0B28DF80100411960684289DC
:104A6000914211D8216800786B46097E0222FFF737
:104A700017FC48B92068EAB23346417D6068007887
:104A8000FFF7D8FB002800D03846F8BD38000020DA
:104A9000F8B5564C4FF0FF36A07A00287DD000259F
:104AA0008DF8005020686B460122C17B6068007859
:104AB000FFF7F6FB002870D120686B460122417990
:104AC00060680078FFF7ECFB002866D120686B4631
:104AD0000122017960680078FFF7E2FB00285CD1D1
:104AE00094F82400E0B30C208DF8000020686B4699
:104AF0000122017960680078FFF7D2FB002872D1AB
:104B00003220FCF76FF9C0208DF80000A07AC007B2
:104B100002D0E0208DF8000020686B460122017968
:104B200060680078FFF7BCFB00285CD1607C18B19E
:104B300002208DF8000001E08DF8005020686B46DF
:104B40000122C17B60680078FFF7AAFB28BB8DF8C3
:104B5000005020686B4601224179606800783EE091
:104B6000FFE704208DF8000020686B4601220179E0
:104B700060680078FFF794FB78B9A07C90B9A07AC0
:104B8000C0070FD05FF060008DF8000020686B4612
:104B9000012201796068007800E024E0FFF780FBE3
:104BA00008BB01E04020EFE73220FCF71BF9607CF6
:104BB00018B101208DF8000001E08DF80050206848
:104BC0006B460122C17B60680078FFF769FB50B932
:104BD0002068064B01224179606810330078FFF7A6
:104BE0005FFB002800D03046F8BD000038000020F0
:104BF0002DE9F047394C82468AB094F824000F46DC
:104C000020B1002000F00EF9012600E0002607A8E0
:104C1000FFF7F8FC06A8FFF7B5FC09A8FFF72CFD85
:104C200008A8FFF745FD94F80A9094F81080002535
:104C3000002239465046FEF791FF10B16D1C022D3F
:104C4000F6DB022D1AD00025012203A96846FEF7E3
:104C500085FF10B16D1C022DF6DB022D0ED003A9CD
:104C60003846FDF701FFC7B269465046FFF706F91F
:104C700010F0FF0F4FF0000502D002E0002503E026
:104C800001250FB945F00205FF2020726072E07225
:104C90004FF6FF71E181A072207401202073BDF8EE
:104CA0001C0000F0FBF89DF8180000F019F8BDF8A2
:104CB000240000F05BF9BDF8200000F08DF94846B3
:104CC00000F0CAF94046FFF715FB16B1012000F0CD
:104CD000A9F80AB02846BDE8F08700003800002097
:104CE00038B5184C4FF0FF35A17A19B3022806D019
:104CF000042806D008280ED010281BD10DE0002073
:104D000000E008208DF80000607A9DF80010B0EBFC
:104D1000D10F04D005E01020F4E71820F2E70020BE
:104D200038BD20686B460122C17960680078FFF7C2
:104D3000B7FA08B1284638BD9DF80000C008607277
:104D4000EDE7000038000020F8B5354C0546A07CA2
:104D5000A84201D10020F8BD31484FF0FF366B4624
:104D6000D0E900104FF001020979007835B3FFF760
:104D700061FA70BB9DF800006B4620F020008DF8B2
:104D8000000020680122017960680078FFF788FA46
:104D9000F8B90320FCF726F802208DF8000094F8FB
:104DA000220078B382202BE020686B460122017D2F
:104DB00060680078FFF774FA58B92EE0FFF73AFA06
:104DC00038B9A07AC0079DF8000003D040F0200059
:104DD00002E00CE020F020008DF8000020686B4617
:104DE0000122017960680078FFF75AFA08B130466D
:104DF000F8BD0320FBF7F6FF94F8220000B18020F5
:104E00008DF8000094F823000028CDD09DF8000014
:104E100040F030008DF80000C6E7A5749AE7000066
:104E20003800002038B51C4C94F8241081421DD065
:104E3000002500B394F82500D0B1002000F034FE26
:104E40000020FFF781FFE08C00F0C6F88DF80050DD
:104E500060686B46012200782321FFF721FA0120C8
:104E600084F8240000F020FEFFF712FE002038BD79
:104E70004FF0FF3038BD002000F016FE207C8DF88A
:104E8000000060686B46012200782321FFF708FAD2
:104E900084F82450E8E700003800002038B5194CA9
:104EA0004FF0FF35A17A31B3FA2809D0B0F5FA7F77
:104EB00008D0B0F57A7F0FD0B0F5FA6F1BD10DE0B6
:104EC000002000E008208DF80000207A9DF80010F6
:104ED000B0EBD10F04D005E01020F4E71820F2E782
:104EE000002038BD20686B46012281796068007817
:104EF000FFF7D6F908B1284638BD9DF80000C00874
:104F00002072EDE73800002038B5174C054694F8BC
:104F10002300A84201D1002038BD0DB1302000E0AF
:104F200000208DF80000A07C28B19DF8000040F022
:104F300002008DF8000094F8220028B19DF80000CE
:104F400040F080008DF8000020686B460122017D52
:104F500060680078FFF7A4F910B14FF0FF3038BD5A
:104F600084F82350D7E700003800002038B5194CEA
:104F70004FF0FF35A17A31B3BC2801D3012010E0F6
:104F8000622801D302200CE02A2801D3032008E084
:104F9000142801D3042004E00A2801D3052000E0EE
:104FA00006208DF80000E07A9DF80010884201D1BB
:104FB000002038BD20686B46012281786068007847
:104FC000FFF76EF908B1284638BD9DF80000E07281
:104FD000EEE7000038000020F8B51E4D04464FF003
:104FE000FF37A87A48B395F8240030BB287D4FF4EA
:104FF0007A7648B164B1282C03D8E0B2FFF77AFC86
:1050000026E00020FFF776FC042C05D2042406E0FD
:105010000020FFF76FFCF9E7B44200D93446B6FB35
:10502000F4F0401E8DF8000028686B46012241789C
:1050300068680078FFF734F908B13846F8BD9DF884
:105040000000401CB6FBF0F0E8814008FFF78EFF3F
:105050000020F8BD38000020F8B5054610F0700FAC
:105060004FF0000601D0012004E015B18DF800607A
:1050700002E040208DF80000244C6B46012220689D
:10508000817C60680078FFF70BF94FF0FF3760BB59
:105090009DF8000020F0400020738DF80060680645
:1050A00002D404208DF80000A80605D49DF8000065
:1050B00040F002008DF80000E80605D49DF80000DD
:1050C00040F001008DF80000280705D49DF800008D
:1050D00040F038008DF8000020686B460122C17C4A
:1050E00060680078FFF7DCF810B1A6723846F8BDAA
:1050F00025B1082D02D00020FFF706FFA572267506
:105100003220FBF76FFE0020F8BD000038000020C1
:10511000F8B516000D464FF0FF371FD0104CA17A9E
:10512000E1B1010A8DF80010C0B28DF801004119FB
:1051300060684289914211D8216800786B46097EE7
:105140000222FFF7ADF848B92068EAB23346417D44
:1051500060680078FFF7A4F8002800D03846F8BD52
:10516000380000202DE9F0411E4C0F460546E66848
:105170002068001D00F036FE38B9206890F82C1029
:1051800001208840216981432161681C15D1A7B1A4
:10519000154922684868906023688268DA6022684E
:1051A0008368121D5A602268121D82602068416166
:1051B0000868401C0860BDE8F08120683544B542AD
:1051C0004560216805D2E06BBDE8F041091D00F0A3
:1051D0002ABEA06B091D00F026FEA06A8542EAD215
:1051E000A562E8E770000020C00900202DE9F04129
:1051F000054600F03DFE364CA068401CA0602068CB
:10520000344F10B1606940B32DE02560A0680128DB
:1052100029D1002606EB860007EB800000F0F5FDA3
:10522000761C052EF6D32B48643000F0EEFD29489D
:10523000783000F0EAFD27488C3000F0E6FD254884
:10524000A03000F0E2FD2348B43000F0DEFD21483C
:105250006430A0631430E06305E02068E96AC06A46
:10526000884200D82560606A401C60622864E96A50
:105270000120226988401043206101EB810007EB87
:1052800080004068A8608168E9608268291D5160DB
:105290008160E86A00EB800007EB8001696157F8E4
:1052A0002010491C47F8201000F002FE6069002819
:1052B0000CD02068E96AC06A884207D206494FF0DC
:1052C00080500860BFF34F8FBFF36F8FBDE8F08150
:1052D000700000200C09002004ED00E010B500F083
:1052E000C7FD0E4C2068A0B90D4800F08EFD0C489B
:1052F000143000F08AFD0A48E0601430206100227A
:105300000C210A2001F0DCF8206010B105A100F0AA
:1053100027FEBDE8104000F0CBBD0000B00000202B
:10532000D4090020546D72510000000030B4026CAA
:105330000B46002A0BD0C1681144C1608468A142A9
:1053400001D30168C16030BC1846FAF77ABF30BC9F
:10535000704710B50446006B00F0BEFD2046BDE866
:10536000104000F0B9BD00000E484FF480414207E4
:1053700006D0C01D0B4920F00700411AC1F580413D
:10538000094A00230144C2E900030839143A21F014
:10539000070111604B600B600B1AC0E900139360AA
:1053A00053607047FC090020E4000020144E154CA7
:1053B000A6F1A0074FF08058DFF84C9012E000BF34
:1053C00000F056FDF068C568281D00F00BFDA068D0
:1053D000401EA0606068401E606000F069FD2846C5
:1053E000FFF7B7FF60680028EAD138680128F9D9CB
:1053F000C9F80080BFF34F8FBFF36F8FF2E7000053
:10540000AC0900207000002004ED00E02DE9F04719
:105410000D46DDE909841746824691009946089EAB
:10542000A522206BFAF71FFF6FF00301206B01EB41
:105430008701084420F00707780707D0502080F341
:105440001188BFF34F8FBFF36F8FFEE765B1002068
:105450002218295C82F83410295C11B1401C0A28FA
:10546000F6D3002084F83D00052E07D3502080F3AA
:105470001188BFF34F8FBFF36F8FFEE7E662201DE9
:10548000A66400F0CDFC04F1180000F0C9FC246112
:10549000C6F105006462A0614A465146384600F0F4
:1054A00023FA2060B8F1000F01D0C8F80040BDE831
:1054B000F087000030B5114900E011460A688242C9
:1054C000FBD34B685C18844203D1406818444860A1
:1054D000084643681C18944209D1084C143C2468BF
:1054E000A24209D052681A4442600A6812680260F7
:1054F000814200D0086030BD0460F9E7E40000207C
:1055000070B5002441600B4D0061914206D8D11A5C
:105510008269914206D2011D286907E09A4203D2AE
:10552000994201D3012403E0011DE86800F07BFCEF
:10553000204670BDB000002010B5044600F098FC75
:10554000A06B28B15FF0000400F0B2FC204610BD53
:105550000124F9E770B506460D480D46C068C068DD
:10556000C468201D00F03EFC94F82800410705D5D2
:105570002A463146204600F0B5F803E000F0FE0070
:1055800084F828002046216ABDE8704008470000E2
:10559000B00000207FB5374E63E00098002860DB44
:1055A000029C606910B1201D00F01CFC03A800F0F3
:1055B000BBF8054600980A2853D2DFE800F05205F0
:1055C00005282E460505282E94F828002A4640F086
:1055D000010084F828000199A069019B014420463C
:1055E000FFF78EFF40B394F82800410707D50198D4
:1055F000A1692A460144204600F074F803E000F057
:10560000FE0084F82800216A2046884729E014F823
:10561000280F00F0FE00207023E094F8280040F0EE
:10562000010084F828000198A06130B141192B468F
:105630001A462046FFF764FF13E0502080F31188DC
:10564000BFF34F8FBFF36F8FFEE794F828008107F9
:1056500003D4204600F040FC03E000F0FE0084F894
:10566000280000226946306800F0B2FF002894D17B
:105670007FBD0000B0000020F8B50D46064600F0E2
:10568000BDFD684600F050F80446009810B101F0E6
:10569000C5F9F8BD1148ADB101690968D9B1002556
:1056A000311B2A46006800F083FC01F0B7F900289E
:1056B000EFD10B494FF080500860BFF34F8FBFF31D
:1056C0006F8FF8BDA642EBD801F0A8F9214630460D
:1056D000FFF740FFF8BD0125E2E70000B000002021
:1056E00004ED00E070B516460C46054604E0A869D6
:1056F000296A044428468847A86923460119324686
:105700002846FFF7FDFE0028F1D170BD0548816BEA
:10571000096821B1816BC9680968816270474FF0DF
:10572000FF31FAE7700000202DE9F041064601F054
:1057300065F80E4C0546A068854214D24FF0FF373D
:1057400004E0C06839460068FFF704FFE0680168BC
:105750000029F6D12169C4E90310012030602846F0
:10576000A560BDE8F0810020F8E70000B00000204F
:1057700008484068401C4FF0500080F3118804D066
:10578000BFF34F8FBFF36F8FFEE7BFF34F8FBFF3B2
:105790006F8FFEE7C4000020074CE068016841B14C
:1057A000C0680021D0F80000FFF766FFFFF7F2FEA7
:1057B000F3E701210020F7E7B00000202DE9F041D8
:1057C000044600F055FB94F9455004F1240609E025
:1057D000606A48B1304601F0B3F808B100F090FCBF
:1057E0006D1E6DB2002DF3DC4FF0FF3684F845607E
:1057F00000F05EFB00F03CFB94F9445004F110070C
:1058000009E0206948B1384601F09AF808B100F083
:1058100077FC6D1E6DB2002DF3DC84F84460BDE8AA
:10582000F04100F045BB000070B50446002600F0D2
:10583000E5FC2C4D286808B9FFF796FD7CB304F011
:105840000700C0F11000C1438C423DD82118002947
:105850003ADD6868814237D822481430024614681D
:1058600001E02046144662688A4202D22268002A79
:10587000F7D12A68944227D00668226802606068DF
:105880000836421A102A0FD96018430708D0502052
:1058900080F31188BFF34F8FBFF36F8FFEE713E0E4
:1058A00042606160FFF706FE61686868401A6860E0
:1058B000AA68904200D2A86041F0004060600020D9
:1058C0002060E868401CE86001F0A8F8700707D085
:1058D000502080F31188BFF34F8FBFF36F8FFEE727
:1058E000304670BDD000002010B5031F4FF080740B
:1058F0001C601B1F21F001011960191F024B0B6076
:10590000143940380A6010BD715700084FF4007117
:105910000148FBF769BB0000000C014010B588B0DE
:10592000694604A8FFF764F9032802D0012008B0F3
:1059300010BD07A8FEF780FE0498FAF73FFF07990D
:105940000C46FAF737FDFAF758FF04900598FAF776
:1059500035FF2146FAF72EFDFAF74FFF059006981E
:10596000FAF72CFF2146FAF725FDFAF746FF0690D5
:1059700004A8FDF775FE03A8FEF722FEBDF80C0093
:10598000009941430091019941430191029941439A
:1059900068460291FDF7C6FD0020C8E7002542F2E7
:1059A0000F772C462E468F21384600F003F98F21C1
:1059B000384600F04BF98F21384600F093F9FEF796
:1059C000DBFA00BFFEF78EFD0028FBD1DFF854A004
:1059D000642741F288384FF4FA7900BF95FBF7F05D
:1059E00007FB105020B9104A111F081FFEF7ACFC2E
:1059F000AEB1641E444500DB0126002C00DC00260D
:105A000022460121504600F07BF84D4502D100F0BE
:105A10002BFC002501206D1C00F0ECFADEE7641C75
:105A2000E8E70000002C01401000002001221102D4
:105A30000148FBF7E6BA0000000C014000224FF4D9
:105A400080710148FBF7DDBA000C014001225102D0
:105A50000148FBF7D6BA0000000C01401FB500203A
:105A600001904FF4007000900120039069460248B5
:105A7000FBF7CAF91FBD0000000C014000224FF4E3
:105A800000710148FBF7BDBA000C01401FB50120B1
:105A90004102CDE900100290039069460148FBF7EE
:105AA000B3F91FBD000C0140F8B5144C0146224665
:105AB00094F82460D2E9000200235D1E56B179B14A
:105AC000022111E0C17B10786B460122FEF7E8FB52
:105AD00068B90EE0A67A56B111B1617C61B902E0F5
