:020000040800F2
:10000000E8500020110300080F300008632F00089B
:100010000D300008391E00083D34000800000000C3
:10002000000000000000000000000000790200084D
:100030003B1E000800000000BD0200080931000856
:100040002B0300082B0300082B0300082B030008D8
:100050002B0300082B0300082B0300082B030008C8
:100060002B0300082B0300082B0300082B030008B8
:100070002B0300082B0300082B0300082B030008A8
:100080002B0300082B0300082B0300082B03000898
:100090002B0300082B0300082B0300082B03000888
:1000A0002B0300087D3100082B0300082B030008F8
:1000B0002B0300082B0300082B0300082B03000868
:1000C0002B0300082B0300082B0300082B03000858
:1000D0002B030008313300082B030008B933000854
:1000E0002B0300082B0300082B0300082B03000838
:1000F0002B0300082B0300082B0300082B03000828
:100100002B0300082B0300082B0300082B03000817
:100110002B0300082B0300082B0300082B03000807
:100120002B0300082B0300082B0300082B030008F7
:1001300000F002F800F090F80AA090E8000C824469
:100140008344AAF10107DA4501D100F085F8AFF246
:10015000090EBAE80F0013F0010F18BFFB1A43F0A5
:10016000010318471440000034400000103A24BF37
:1001700078C878C1FAD8520724BF30C830C144BF0C
:1001800004680C607047000000230024002500264E
:10019000103A28BF78C1FBD8520728BF30C148BFEA
:1001A0000B6070476E2900F0D783702900F0AB8197
:1001B000662903F05187652903F04E87672903F00C
:1001C0004B87612903F04A8703681B0A28BF41F067
:1001D0008001692900F01C81642900F019817529CA
:1001E00000F016816F2900F0CF84782900F0778124
:1001F000E92900F06984E42900F06684F52900F01B
:100200006384EF2900F0CC84F82900F0768103683C
:10021000DB0928BF41F08001632900F0D8837329EE
:1002200000F0DD83E32901F09F80F32901F0A48031
:10023000002070471FB501F0F5F8040000200021F0
:1002400003F0F4FE401C60600020002103F0D8FEA3
:10025000E0601FBD10B510BD01F0B6F81146FFF704
:10026000E9FF03F00BFA01F08FF903B4FFF7F2FF97
:1002700003BC03F0F6F90000224B19680868B0E8E7
:10028000F00F80F30988BFF36F8F4FF0000080F309
:1002900011884EF00D0E70470000000006480068FF
:1002A000006880F3088862B661B6BFF34F8FBFF372
:1002B0006F8F00DF00BF00BF08ED00E0EFF30980A3
:1002C000BFF36F8F0F4B1A6820E9F00F106008B56D
:1002D0004FF0BF0080F31188BFF34F8FBFF36F8FD4
:1002E00003F0E6FC4FF0000080F31188BDE8084001
:1002F00019680868B0E8F00F80F30988BFF36F8FC2
:10030000704700BF1C000020EFF30580704700001D
:100310000948804709480047FEE7FEE7FEE7FEE799
:10032000FEE7FEE7FEE7FEE7FEE7FEE704480549D5
:10033000054A064B704700007B3100083101000878
:10034000E84A0020E8500020E84C0020E84C00205B
:10035000704700001CB50C46064B7B446946009074
:10036000204600F012FB04460020694600F020FB06
:1003700020461CBD530600000FB4044910B503AA63
:10038000029800F031FB10BC5DF814FB180000204F
:100390000FB41CB5084B06AA7B446946009005982B
:1003A00000F0F3FA04460020694600F001FB204605
:1003B0001CBC5DF814FB00001506000070B50C466F
:1003C0000546012A05D02878800600D5EA69002371
:1003D00002E0012305E05B1C934202D2E05C0028AE
:1003E000F9D1A869E618C01AA861286A18442862D9
:1003F000284600F01FFA04E0D5E9012114F8010BAA
:100400009047B442F8D3284600F02AFA70BD0000A5
:100410002DE9F0410646002410687529314616A5DD
:1004200010D000F02EFA002802DA404213A507E0AF
:1004300031688A0701D512A502E0490704D511A544
:10044000012401E000F026FA00210A2206F1240727
:1004500009E0B0FBF2FCB0FBF2F302FB1C00303011
:1004600078541846491C0028F3D123462A463046C2
:10047000BDE8F04100F017BA000000002D000000B8
:100480002B00000020000000F0B40D460188090593
:1004900002D5214C7C4402E01F4C7C440E340021E8
:1004A00000F1240608E002F00F071209E75D42EAB6
:1004B00003721B097754491C52EA0307F3D10278EF
:1004C0000023120704D5702D06D009B10223113480
:1004D0002246F0BC00F0E7B901231034F8E770B50C
:1004E00004460D462146106800F0D4F9024629461C
:1004F0002046BDE870400023C6E7D21D22F0070366
:10050000D3E90023C0E70368126843F020030360C7
:100510000823C3610023B7E7E03B00002DE9F05F4B
:10052000894604464FF0000ADFF874B1FB44C0F876
:1005300020A02046E1688847002874D0252806D0EE
:10054000D4E901219047206A401C2062F1E700268F
:100550005F462046E16888472028054607DB312DA5
:1005600005D2781910F8200C08B10643F1E7B0075E
:1005700001D526F00406C4F81CA00027C4F818A072
:100580002A2D09D0284603F065F838B304EB870814
:10059000303DC8F8185019E059F8041B204604EB08
:1005A00087029161E1688847012F054618D1E0690B
:1005B000002820DA26F020061DE0D8F8180000EB0D
:1005C000800005EB40003038C8F818002046E1688C
:1005D0008847054603F03EF80028EED1012F0AD0E7
:1005E0002E2D08D12046E16888477F1C0546022F42
:1005F00046F02006C4DBA069002803DA404246F03A
:100600000106A061F00701D026F010066C2D0BD07A
:10061000682D09D04C2D39D06A2D35D0742D35D0A8
:100620007A2D33D016E038E0E1682F46204688471F
:10063000B842054609D16C2F26D04FF48060E1689E
:10064000064320468847054604E06C2F1AD04FF435
:10065000807006430DB3A5F14100192802D820355A
:1006600046F400664A462946204626604E46FFF775
:1006700099FD80B101280BD0F61D26F0070000F18E
:10068000080956E74020E4E78020D8E70020D6E7B5
:1006900006F104094DE7284652E7206ABDE8F09FBD
:1006A000703B0000401ECAB210F8011F8A4202D0FF
:1006B0000029F9D10020704730B505460B462A467F
:1006C00013F8014B12F8010B08B1A042F8D01CB18D
:1006D000002802D06D1CF1E7284630BD10B5431C40
:1006E00002E010F8011B71B18107FAD14FF001321D
:1006F00002C88C1A8C4314EAC211F9D0C01A0A0637
:1007000003D0C01E10BDC01A10BD0A0401D0801E47
:1007100010BD0902FCD0401E10BD4FF0000204299C
:10072000C0F0128010F0030C00F01B80CCF1040C20
:10073000BCF1020F18BF00F8012BA8BF20F8022B54
:10074000A1EB0C0100F00DB85FEAC17C24BF00F8FA
:10075000012B00F8012B48BF00F8012B70474FF028
:10076000000200B5134694469646203922BFA0E801
:100770000C50A0E80C50B1F12001BFF4F7AF09070D
:1007800028BFA0E80C5048BF0CC05DF804EB8900FE
:1007900028BF40F8042B08BF704748BF20F8022B41
:1007A00011F0804F18BF00F8012B70474FF0013C4B
:1007B00050F8042B51F8043B9A4221D1A2EB0C03D0
:1007C000934313EACC1317D150F8042B51F8043B90
:1007D0009A4215D1A2EB0C03934313EACC130BD12D
:1007E00050F8042B51F8043B9A4209D1A2EB0C03B8
:1007F000934313EACC13DBD04FF00000704700BFE7
:10080000D01A01BAB1FA81F101F0180122FA01F00F
:10081000CB40C1F12001DBB2C0B2C01A2CFA01F307
:10082000D11A914311EAC311E6D17047704770475E
:100830007047704770B5044685690068C10601D5E8
:10084000302600E02026C00707D070BDD4E9012182
:1008500030469047206A401C20626D1EF6D570BD60
:1008600070B5044685690078C00707D170BDD4E92A
:10087000012120209047206A401C20626D1EF6D581
:1008800070BD09684A0501D540B27047C905FCD55D
:1008900000B2704709684A0501D5C0B27047C90562
:1008A000FCD580B270472DE9F0470D469946924637
:1008B000044600F124080168880604D5E06921F0A7
:1008C0001001216000E00120A84201DD471B00E08B
:1008D0000027A1697A1902EB0900081AA0612078A3
:1008E000C00602D42046FFF7A5FF002608E0D4E9A1
:1008F00001211AF806009047206A401C761C2062ED
:100900004E45F4DB2078C0060AD52046FFF792FF5B
:1009100006E0D4E9012130209047206A401C206283
:10092000381EA7F10107F4DC07E0D4E9012118F82B
:1009300005009047206A401C2062281EA5F1010591
:10094000F3DC2046FFF78CFF2078000602D502205A
:10095000BDE8F0870120FBE711680268006A5305D3
:1009600001D508700AE0D30501D5088006E013061A
:1009700003D5C217C1E9000200E0086001207047FA
:1009800001694A1C02610878704700B58FB0CDE953
:1009900001310021059105497944CDE90310114643
:1009A0006846FFF7BBFD0FB000BD0000E5FFFFFF8D
:1009B0000A6802F8010B0A60704710B5436913B169
:1009C000AFF3008001E0FFF7F9FC012010BD1278C1
:1009D00000F124010A7000224A700122EDE711683B
:1009E0004FF0FF32E9E70000074B70B50D467B443E
:1009F000FFF7CBFF0446284600F0C2FC10B14FF0D1
:100A0000FF3070BD204670BD732C00002DE9FF5FE4
:100A100015468A460446DFF8AC80F8440027D8E93A
:100A200000103E46CDE9001010E03AF816106A4674
:100A300002A800F0A9FC411C07D02178890603D543
:100A4000E269391891420DD80744761C2078800657
:100A500002D5E069B84205DDAE42E6DB3AF81600A1
:100A60000028E2D1A069C01BA0612046FFF7E2FE8A
:100A7000D8E90010CDE90010002017E03AF818106E
:100A80006A4602A800F080FCB0F1FF3F81460BD01F
:100A900000250DF1080B05E0D4E901211BF8050044
:100AA00090476D1C4D45F7D308F10100B0428046D8
:100AB000E4DB206A384420622046FFF7D1FEBDE81F
:100AC000FF9F0000963600002DE9F0418046D21DC0
:100AD00022F007020025D2E90002F52915A614D05C
:100AE000011E72F1000106DA0023D0EB030063EB74
:100AF000020211A608E0D8F800108B0701D50FA656
:100B000002E0490701D50EA601251146002408F18F
:100B1000240704E000F04EF830323A55641C50EAE5
:100B20000102F7D12B46324621464046BDE8F0414E
:100B3000FFF7B9BE000000002D0000002B000000F0
:100B40002000000030B4002100F1240408E002F08D
:100B50000705D208303542EA4372DB086554491C68
:100B600052EA0305F3D10468002310A2250708D533
:100B700004F020040C4304D0C46901230CA2641EB9
:100B8000C46130BCFFF78FBE10B504462146106823
:100B9000FFF780FE02462046BDE810400023D1E763
:100BA000D21D22F00701D1E90023CBE700000000AD
:100BB0003000000030B5B0F10A024FEA900E71F13A
:100BC00000034EEA817EB0EB0E0061EB91014FEA2B
:100BD000101E4EEA017E10EB0E0041EB11114FEAA0
:100BE000102E4EEA016E10EB0E0041EB11214FEA80
:100BF000104E4EEA014E10EB0E0041EB1141401831
:100C000041F100014FEAD00040EA41704FEAD101C2
:100C100010EB80054FEA810444EA907444EB010430
:100C20006D1944EB0404521BA3414FF0000348BF6D
:100C30000A3200D530BD401C41F1000130BD704783
:100C40002DE9FF4F0C461E464FF0FF378BB0D2E91F
:100C50000001DDF860800A908A46C1F30A5505B9A3
:100C60003D46002108464FF00000BAF1000F00F4A5
:100C7000400005DA00EB80004FF4400101EA50002B
:100C80004FEA9059B9F1010F00DDB9460A9850EAD0
:100C90004A000ED044F61050A5F2FF3545432F14FC
:100CA000B8F1000F1ED07542291E1EDDC9F10002E9
:100CB0001CE0B8F1010F4FF0000001D0302103E03B
:100CC000F24305E02154401CB042FBDB30460022D9
:100CD000002121540B99C1F80880C1E900200FB010
:100CE000BDE8F08FBD1B6D1CDEE74A4600DA6942A5
:100CF00006A800F0DBFB06AB93E8070003AB83E834
:100D0000070050460A9900F049FC8DE80700A0F55D
:100D100000501F3800900398002D09DD42F21F019A
:100D20004A46084403A90390684600F0A8FE08E07C
:100D3000A0F500504A461F3803A90390684600F00A
:100D4000B2FE8DE807000004000C03D04FF0FF3026
:100D5000410800E01046B8F1000F03D000220092D5
:100D600015461EE0751E05D4FFF724FF303262558C
:100D70006D1EF9D5B3460122084302D000227F1C24
:100D800004E02078302801D100227F1E002A099734
:100D900086D01DE0112D07DAFFF70CFF30326255C7
:100DA0006D1C50EA0102F5D1084302D00098C8B189
:100DB0000EE00021681E05E0235C625C635422544F
:100DC000401E491C8142F7DBAB46A81B401E099020
:100DD000002004F80B000B98099AC0F80880C0E9BD
:100DE000002B7CE711264FF0000859E72DE9F04F62
:100DF00088460446D21D22F0070191B0D1E90001D6
:100E0000CDE90A0102F002FC02460B98C00F01D0A6
:100E10002D2007E02068810701D52B2002E020214A
:100E200001EAC000032A099001D0072A05DB034626
:100E30004146204600F0FAFA0BE12078800601D501
:100E4000E06900E00620B8F1650F814606D0B8F1F0
:100E5000660F18D0B8F1670F70D131E00020B9F1FA
:100E6000110F009001DB112301E009F101030AAA2F
:100E700001A90CA8FFF7E4FEDDE90C70002609F1DA
:100E80000105834647E001204B4600904FF00047A4
:100E90000AAA01A90CA8FFF7D3FEDDE90DB00C9951
:100EA0005D46002610B909F101000D18B9EB0500E7
:100EB00003D4C0F1FF3609F10105A5EB09002BE0D1
:100EC000B9F1010F01DA4FF001090020B9F1110F5A
:100ED0000090484601DD112300E003460AAA01A95B
:100EE0000CA8FFF7ADFEDDE90C704D4600268346E9
:100EF000207800070AD4AB4500DA5D4601A8012D31
:100F000004DD411911F8011C302907D04F4502DAE0
:100F100017F1040F04DA012082460FE06D1EEEE7A0
:100F2000002F02DCED1B3E4403E0781CA84200DDEC
:100F30007D1CB81B00F1010A4FF000472078000724
:100F400003D4AA4501DB4FF0FF3A0021B7F1004F6F
:100F50000DF143088DF8431024D002202B23002FDD
:100F600001DA7F422D230A21021EA0F1010000DCDC
:100F70005FB197FBF1FC97FBF1F201FB1C7C17467C
:100F80000CF1300C08F801CDEEE7A8F10100037078
:100F90002188090501D5452100E06521A0F101085E
:100FA00000F8011C09980FA9A1EB0807FF1D00B16B
:100FB0000120411901EBEA70A1693844081A401E6A
:100FC000A0612078C00602D42046FFF733FC0998C0
:100FD00028B1D4E901219047206A401C2062207882
:100FE000C00622D52046FFF725FC1EE0002E04DBBC
:100FF000B34502DD01A8805D00E03020D4E9012185
:101000009047206A401C2062761CAAF101005FEA2A
:10101000000A0AD100F006FAC0680168405CD4E911
:1010200001219047206A401C2062281EA5F101057D
:10103000DCDC07E0D4E9012118F8010B9047206AB5
:10104000401C2062381EA7F10107F3DC2046FFF7A1
:1010500007FC032011B043E62DE9F04F04460D468E
:10106000D21D22F0070089B0D0E900924846174609
:10107000394602F0CBFA0246F80F01D02D2307E0E3
:101080002068810701D52B2302E0202101EAC0035B
:101090008DF820300BB1012000E00020032A8246A9
:1010A00001D0072A04DB2946204600F0BFF93DE1C4
:1010B0002078800601D40D2500E0E569C7F30A56C3
:1010C0000D2D49DA00214FEA175B08464FF000006A
:1010D000002F00F4400007DA00EB80004FF44001DD
:1010E00000EBD07001EA60008115012901DD4FF0AD
:1010F000FF3100224FEA850CBCF1180F06D31346CE
:10110000ACF118004FF08052C24003E04FF480135E
:1011100023FA0CF30CF10C0CBCF1200F04D3ACF14E
:10112000200C09FA0CF001E007FA0CF000294FF04E
:10113000004801DD18B90FE00ED140450CD319EB82
:1011400002095F4121B9404502D19F4329EA0209C2
:10115000BBEB175F00D0761C2088000502D57B48CA
:10116000784402E079487844193808AA302302F814
:101170000A30037C0AF10101002E0AF1020A5354DD
:101180006A4602DC4FF0300101E04FF031014FF0D0
:1011900001088DF8001002D0A6F2FF3603E059EAEC
:1011A000470100D06A4E002D02DC2178090704D5E2
:1011B0004FF002082E218DF80110C44600210BE0EB
:1011C000C7F303433F01C35C491C6D1E02F808309E
:1011D000052908F1010801DA002DF1DC00210CE0FD
:1011E00000EB1973491C1B786D1E082902F80830A2
:1011F0004FEA091908F1010801DA002DF0DC217825
:10120000890602D514E0A8F10108E04505DD02EBEE
:10121000080111F8011C3029F5D0B8F1000F07DDE5
:1012200002EB080111F8011C2E2901D1A8F10108D7
:10123000002D05DD3E2102F808106D1E08F10108A1
:10124000407C002E02F8080008F1010804DA2D2085
:10125000764202F8080002E02B2002F808000A217A
:101260004FF47A70864208F101080BDB96FBF0F32D
:10127000303302F8083096FBF0F308F1010800FB68
:10128000136601E0642E0CDB642096FBF0F3303330
:1012900002F8083096FBF0F308F1010800FB136632
:1012A00001E00A2E06DB96FBF1F0303002F8080070
:1012B00008F1010896FBF1F001FB1060303002F8F4
:1012C0000800A16908F1010808EB050202EB0A0019
:1012D000081AA0612078C00602D42046FFF7AAFAB7
:1012E000216A08AE01EB0A00206204E0D4E9012182
:1012F00016F8010B9047BAF1010AF7D22078C00620
:1013000002D52046FFF796FA6E4609E016F8010B63
:101310003E280FD0D4E901219047206A401C20626A
:10132000B8F10108F2D22046FFF79AFA09B003207B
:10133000BDE8F08F206A2844206203E0D4E901214F
:10134000302090476D1EEBD3F8E700006B2F0000B4
:1013500002FCFFFF10B5436913B1AFF3008001E059
:10136000FFF754FB012010BD128800F12401828494
:101370000022C2840122EDE711684FF0FF32E9E755
:10138000007B00F08000704770B516460C4605469D
:1013900000F040F8036893F80101012806D0FF2C03
:1013A0000FD8185D68B101202C7070BDD3F807010B
:1013B0003246214603F2071303442846BDE8704035
:1013C00018474FF0FF3070BD754600F0E3F8AE46A9
:1013D00005006946534620F00700854618B020B541
:1013E000FEF7A4FFBDE820404FF000064FF00007D5
:1013F0004FF000084FF0000B21F00701AC46ACE8BD
:10140000C009ACE8C009ACE8C009ACE8C0098D4629
:101410007047000010B500F005F8001D10BD00BFBA
:101420000D2C000000487047A44A00202DE9F0412F
:101430001F46044603260168072A01F4006004DB06
:1014400008B116A505E016A503E008B115A500E052
:1014500015A521F010002060A069C01EA0610FB189
:10146000401EA0612046FFF7E5F94FB1D4E9012104
:1014700038469047206A401C2062C01C206206E06B
:10148000206AFAE7D4E9012115F8010B9047761E8E
:10149000F8D22046FFF7E4F9BDE8F0814E414E0056
:1014A0006E616E00494E4600696E66002DE9F04798
:1014B000814616468AB0334878440DC88DE80D0041
:1014C00030487844801C03AC0DC884E80D0041F618
:1014D0009B300844372190FBF1F290FBF1F5A5F128
:1014E000800501FB12041B3C02D56442012000E090
:1014F0000020DFF890A080460027FA44AAF1BE0A37
:101500000DE0E00709D03246684607EB47010AEBD9
:10151000810100F0C8FA8DE8070064107F1C002CE0
:10152000EFD1184F7F44AC3F18E0E80714D007EB29
:1015300004100DF1180A90E80E008AE80E00C06849
:10154000F04201D198190890324606A903A800F08C
:10155000AAFA03AB83E807006D10641C002DE4D1E8
:1015600032466946B8F1000F03A802D000F087FAAE
:1015700001E000F098FAC9E90001C9F808200AB0B2
:10158000BDE8F087A42C00000446AFF3008020469D
:10159000FEF76BFE00487047844A00205FEA400C6B
:1015A00008BF91F0000F4FEA8C234FEAC12243EAB3
:1015B00051514FEA1C5018BF00F5F0404FEA30007F
:1015C00018BF41F000415FEA6C5C00F02980BCF17B
:1015D000FF3F08BF40F080407047130C06BF120465
:1015E0004FF0100C4FF0000C130E04BF12020CF160
:1015F000080C130F04BF12010CF1040C930F04BF6D
:1016000092000CF1020CD30F04BF52000CF1010C3C
:1016100011464FF00002A0F11F00A0EB0C00704734
:1016200011F0004F08BF704731F000413FF4D5AFD3
:101630000B0C06BF09044FF0100C4FF0000C0B0E02
:1016400004BF09020CF1080C0B0F04BF09010CF1D7
:10165000040C8B0F04BF89000CF1020CCB0F04BFEC
:1016600049000CF1010CCCF12003A0EB0C0022FA94
:1016700003F302FA0CF241EA030100F101007047A2
:1016800020F07F4C80EA030023F07F47ACEB070398
:1016900003F57C5300F0004003F1FF032DE980497E
:1016A0004FEA154B09B44FEA144325EA0B4E24EADE
:1016B00003480FF2042606EB132749083E785FEA39
:1016C000320203FB0667C7F5000707FB06F64FEA81
:1016D00054374FEAD64606F1020607FB066CCCF1FA
:1016E000005C4FEA1C472CEA074C07FB06F40CFB96
:1016F00006F504EB15464FEA961634BF00204FF06E
:1017000000404FEAD13706FB07FC4FEA1C4C0CFBAC
:101710000BF7D21B03FB0CF761EB07010CFB0EF779
:10172000B0EB074072EB17420CFB08F734BFA2EB9B
:101730000742B2EB074261EB17414FEA0C444FEA14
:10174000910706FB07FC4FEA1C4C0CFB0BF7B0EBB8
:10175000C74072EB573203FB0CF734BFA2EBC74212
:10176000B2EBC74261EB57310CFB0EF7B0EBC70091
:1017700072EB57720CFB08F734BFA2EBC702B2EB57
:10178000C70261EB5771039F4FEA816141EA9211F1
:1017900004EBCC044FEAD1374FEA826206FB07FC28
:1017A00042EA90124FEA80604FEA1C4C0CFB0BF7A8
:1017B000D21B03FB0CF761EB07010CFB0EF7B0EB40
:1017C000074072EB17420CFB08F734BFA2EB07424D
:1017D000B2EB074261EB17414FEA8C554FEA910794
:1017E00004EB9C2406FB07FC4FEA1C4C0CFB0BF79C
:1017F000B0EBC74072EB573203FB0CF734BFA2EBE0
:10180000C742B2EBC74261EB57310CFB0EF7B0EBAE
:10181000C70072EB57720CFB08F734BFA2EBC7028C
:10182000B2EBC70261EB577115EB4C254FEA8161B2
:1018300041EA92114FEA82624FEAD13742EA9012AE
:1018400006FB07FC44F100044FEA80604FEA1C4CA1
:101850000CFB0BF7D21B03FB0CF761EB07010CFB36
:101860000EF7B0EB074072EB17420CFB08F734BFE2
:10187000A2EB0742B2EB074261EB174115EB1C15D7
:101880004FEA813141EA92414FEA823242EA904284
:101890004FEA80304FEA0C7644F1000448EA0343F3
:1018A0004EEA0B484FF0000EB2EB080C71EB030749
:1018B00024BF624639464EEB0E0E4FF0000B001867
:1018C000524149414BEB0B0BB2EB080C71EB030798
:1018D0007BF1000B24BF624639464EEB0E0E4FF0F3
:1018E000000B0018524149414BEB0B0BB2EB080CBB
:1018F00071EB03077BF1000B24BF624639464EEBC8
:101900000E0E51EA020718BF46F0010616EB0E76DE
:1019100055F1000254F1000103D5BDE88901BDE88D
:101920000088BDE88901BDE80048B619524141EB85
:101930000101A3F10103704780807F7E7D7C7B7A6B
:101940007978777676757473727171706F6E6E6D6B
:101950006C6C6B6A6A696868676666656464636311
:1019600062616160605F5F5E5E5D5D5C5C5B5B5A97
:101970005A59595858575756565555555454535304
:1019800052525251515050504F4F4F4E4E4D4D4D5F
:101990004C4C4C4B4B4B4A4A4A49494948484847AA
:1019A00047474746464645454544444444434343E8
:1019B0004342424242414141002B26D4770021D08C
:1019C0001CB54FEA370703B44FF010004FF0100179
:1019D0004FF000000FBCBDE810400BF1010BBBF154
:1019E000010F08BF5FEA170722BF12F1010211F1D0
:1019F00001014FF0004143F1000300F0004043EAD1
:101A000000007047F9D35708DAE746EA064613F1B3
:101A1000400F4FEA16461FDD13F1200FDFBF1643BC
:101A20000A46002120335B42C8D0C3F1200746EAB2
:101A3000064602FA07F74FEA164646EA0706C3F1DA
:101A4000200722FA03F201FA07F721FA03F14FF017
:101A5000000342EA0702B1E746EA020646EA064602
:101A60004FEA164646EA0106BCBF46EA0646360C71
:101A70004FF000034FF000024FF000019EE72DE908
:101A8000C048934630B491E8380007C831EA400CAA
:101A900048BF34EA430C03D5FFF7F2FDFFF78CFF94
:101AA000F0BCBDE800882DE9C048934630B491E809
:101AB000380007C810F0804F08BF13F0804F03D1E3
:101AC00000F005F8FFF778FFF0BCBDE8008820F0D3
:101AD0007F4780EA030023F07F4C07EB0C03A3F55C
:101AE0007C5300F00040A3F1FE0392F0000F00F0E1
:101AF000B38095F0000F00F077802DE901494FEA9F
:101B000011404FEA144621EA004800FB06FC24EA93
:101B1000064708FB06F607FB08F800FB07F718EB7B
:101B200006484CEB164C4FEA124B18EB07484FEAAD
:101B300015464CEB174022EA0B4E0BFB06FC25EA40
:101B400006470EFB06F607FB0EFE0BFB07F71EEB28
:101B5000064E4CEB164C4FF000061EEB074E4CEBBE
:101B6000174B18EB0B0840F1000018EB0E0B58EB6D
:101B7000000840F100008F1A4FF000013CBFC9433C
:101B8000661B14BFB5EB040C00213CBFC943F61B18
:101B90004FEA17444EEA8E0E27EA04454FEA1C47E7
:101BA00004FB07622CEA074C05FB07F70CFB05F664
:101BB00004FB0CFC16EB074642EB174216EB0C46F7
:101BC00042EB1C421BEB060658EB0202414146EA7F
:101BD0009E0601D5BDE80189B619524141EB0101CC
:101BE000A3F10103BDE801894FEA14454FEA11470B
:101BF00024EA054621EA074C05FB07F406FB07F734
:101C00000CFB06F105FB0CFC11EB074144EB174400
:101C10004FEA124711EB0C4144EB1C4422EA074CFB
:101C200005FB07F206FB07F70CFB06F605FB0CFCB1
:101C300016EB074642EB174216EB0C4642EB1C45EF
:101C40006A1854F1000148BF7047B619524141EB80
:101C50000101A3F10103704795F0000F37D04FEA5F
:101C600011424FEA144721EA024624EA074C02FBDC
:101C700007F106FB07F70CFB06F402FB0CFC14EB68
:101C8000074441EB17414FEA154714EB0C4441EB75
:101C90001C4125EA074C02FB07F506FB07F70CFB86
:101CA00006F602FB0CFC16EB074645EB174516EB58
:101CB0000C4645EB1C42121951F1000148BF704718
:101CC000B619524141EB0101A3F1010370474FEAFC
:101CD00014454FEA114724EA054621EA074C05FB63
:101CE00007F106FB07F70CFB06F24FF0000605FBB9
:101CF0000CFC12EB074241EB174112EB0C4251EB8B
:101D00001C4148BF7047921841EB0101A3F1010348
:101D1000704700002DE9F047C8213C48FEF7FDFC64
:101D20003BA73DA50FF2FC08DFF8E09010203FA68E
:101D300089F800004C463846FEF7D0FC000AA07037
:101D40003846FEF7CBFCE0704D20207151206071C9
:101D50005420A071E07104212172C2206072002021
:101D6000A0727820E0722846FEF7B8FC000A2073C3
:101D70002846FEF7B3FC60730E24002705E0E95DFA
:101D800009F80410641CE4B27F1C2846FEF7A6FC88
:101D9000B842F4D84046FEF7A1FC000A09F8040056
:101DA000641C4D46E4B24046FEF798FC2855641C7E
:101DB000E5B200274C4605E018F8070060556D1C99
:101DC000EDB27F1C4046FEF789FCB842F4D830469D
:101DD000FEF784FC000A60556D1CEDB23046FEF73C
:101DE0007DFC60556D1CEDB2002704E0F05D605590
:101DF0006D1CEDB27F1C3046FEF770FCB842F5D882
:101E0000AD1E65700148BDE8F08700009004002019
:101E10004D515454000000003130353939313835D6
:101E20003839000035383334383000003131313141
:101E30003131313100000000FEE7704710B5C82194
:101E40000448FEF76AFC0449002008800349087032
:101E500010BD0000380200201400002010000020F7
:101E600070B50D4D04460026287801280CD10BA131
:101E70000B48FEF721FC30B13A21FEF713FC002895
:101E800000D0401C70BD2E700A2001F0C9FE204613
:101E9000641EA4B2E8D270BD100000204950440076
:101EA0003802002010B5FFF7C9FF29A0FEF764FA39
:101EB0002AA12BA000F0E6F80028F9D12AA0FEF70D
:101EC0005BFA4FF4FA64204600F036F929A0FEF7D9
:101ED00053FA22A12BA000F0D5F80028F9D12DA0AB
:101EE000FEF74AFA204600F027F92EA0FEF744FA42
:101EF0001AA130A000F0C6F80028F9D131A0FEF7F1
:101F00003BFA204600F018F932A0FEF735FA35A169
:101F100037A000F0B7F80028F9D13CA0FEF72CFA62
:101F2000204600F009F93CA0FEF726FA3FA141A0A7
:101F300000F0A8F80028F9D149A0FEF71DFA2046C4
:101F400000F0FAF8BDE8104049A0FEF715BA00000D
:101F500041542073746172740D0A00004F4B0000ED
:101F600041540D0A00000000415420454E440D0A22
:101F70000000000043574D4F444520737461727454
:101F80000D0A000041542B43574D4F44453D310D40
:101F90000A00000043574D4F444520454E440D0A6A
:101FA000000000004357444843502073746172742A
:101FB0000D0A000041542B4357444843503D312CF7
:101FC000310D0A0043574448435020454E440D0A02
:101FD0000000000043574A41502073746172740D31
:101FE0000A0000005749464920474F5420495000F5
:101FF00041542B43574A41503D22575148222C22ED
:102000003132333435363738220D0A0043574A41CE
:102010005020454E440D0A004349505354415254F8
:102020002073746172740D0A00000000434F4E4E1D
:102030004543540041542B43495053544152543D5D
:1020400022544350222C223138332E3233302E3456
:10205000302E3339222C363030320D0A0000000089
:10206000434950535441525420454E440D0A0000F8
:102070004553503832363620496E6974204F4B0D27
:102080000A00000070B50D460146C8240CA001F0FE
:1020900027FD0C4E0EE03078012808D129460A4869
:1020A000FEF70AFB18B1FFF7C9FE002070BD0A2039
:1020B00000F042F8641EE4B2EDD2012070BD0000D1
:1020C00025730000100000203802002030B58DB0CC
:1020D0000C460546FFF7B2FE224609A16846FEF708
:1020E00057F90BA16846FFF7CDFF002805D1C8239B
:1020F00022462946074800F0DBFE0DB030BD000047
:1021000041542B43495053454E443D25640D0A002C
:102110004F4B00002C01002001222021014800F03B
:1021200019B900000018014000222021014800F0E8
:1021300011B900000018014070B5044600F010F914
:102140000546601C02D004480078044400F008F9F9
:10215000401BA042FAD370BD000000202DE9F84FCB
:10216000DFF8C891002409F1040A0AF1040B2346A0
:102170000F270BF1040ED1E00125A54006EA050268
:10218000AA4276D1DFF8A8C14E68A6EB0C086645D6
:102190002BD00DDC032E34D005DC36B3012E19D044
:1021A000022E2FD11BE0112E16D0122E2AD119E0AB
:1021B000B8F5881F19D006DCB8F5803F15D0B8F502
:1021C000801F1FD111E0B8F5001F0ED0B8F5041F15
:1021D00018D10AE0CB6815E0CB681B1D12E0CB6874
:1021E00008330FE0CB680C330CE08B682BB1012B6C
:1021F0004FF0080303D0456104E0042302E00561C9
:1022000000E00023FF2A01D8064601E000F10406A1
:102210004FEA840501D9A5F12005D6F8008007FA18
:1022200005FC28EA0C0803FA05F548EA0508C6F893
:1022300000804D68ED0070D53E4DAE6946F0010658
:10224000AE61AD6924F0030605F0010500953A4D35
:1022500006EB050CDCF80850A607360F07FA06F85F
:1022600025EA0805DFF8D480404503D14FF0000887
:1022700025E052E0DFF8C880404502D14FF0010868
:102280001DE0DFF8C080404502D14FF0020816E0A3
:10229000DFF8B480404502D14FF003080FE0DFF8CB
:1022A000AC80404502D14FF0040808E0DFF8A08080
:1022B000404502D14FF0050801E04FF0060808FA4A
:1022C00006F848EA0508CCF808804D68D9F800609F
:1022D000ED034D4601D5164300E096432E604D6850
:1022E000DAF80060AD03554601D5164300E0964389
:1022F0002E604D68DBF80060ED025D4601D51643A7
:1023000000E096432E604D68DEF80060AD02754631
:1023100001D5164300E096432E60641C0A681646F9
:10232000E2407FF429AFBDE8F88F000000040140CF
:1023300000001110001002400000014000080140A0
:10234000000C014000100140001401400018014041
:10235000001C01400AB1016170470904FBE700005D
:102360000148806870470000000000200248816832
:10237000027811448160704700000020074810B5C2
:10238000016841F010010160032000F09BF80F206C
:1023900000F006F800F04AF8002010BD00200240CE
:1023A00030B505461C4887B0816941F40061816100
:1023B000806906A900F40060009001A800F02AF9E5
:1023C00000F058F91549164AB0FBF1F11548491EBD
:1023D0000260416040F2E7320021C0E903218160E0
:1023E000816100F01FFB040012D10E4800F048FB91
:1023F00004000DD1192000F037F8102D07D200226B
:102400002946192000F03EF80748056000E0012445
:1024100007B0204630BD00000010024040420F00CF
:10242000002C014080000020040000200C4808B56A
:10243000816941F001018161816901F0010100912F
:10244000C16941F08051C161C06900F080500090C5
:102450000448416821F0E06141F00071416008BD2D
:102460000010024000000140002809DB00F01F02BC
:10247000012191404009800000F1E020C0F80011E6
:1024800070470000F0B40E4B1B680C46C3F30223E8
:10249000C3F10705042D00D90425191D072901D210
:1024A000002300E0DB1E012606FA05F1491E21404B
:1024B00099409E40761E16403143F0BC01F0BAB8F8
:1024C0000CED00E0064900F0070208684FF6FF0334
:1024D000184040EA0220034A104308607047000099
:1024E0000CED00E00000FA052DE9F0470F4605006D
:1024F00061D0434E306800F00700B84209D230681E
:1025000020F0070038433060306800F00700B84220
:1025100051D128683B4C810712D5400703D560682C
:1025200040F4E06060602878000703D5606840F4FC
:10253000605060606068A96820F0F0000843606047
:102540002878C00728D06868012810D021680228A0
:1025500010D0890700292EDA616821F003010143B8
:102560006160FFF7FDFE804641F288390DE0216889
:102570008903EFE78901EDE7FFF7F2FEA0EB080121
:10258000494502D90320BDE8F0876068696800F01A
:102590000C00B0EB810FEFD1306800F00700B842BB
:1025A0000BD9306820F0070038433060306800F005
:1025B0000700B84201D00120E5E72878400705D59B
:1025C0006068E96820F4E0600843606028780007EC
:1025D00006D56068296920F4605040EAC100606057
:1025E00000F058F86168084AC1F30311515CC84013
:1025F0000649086006480068FFF7D2FE0020C2E7DF
:102600000020024000100240604000080C00002042
:10261000040000200F2202600C4A536803F00303F9
:102620004360536803F0F0038360536803F4E0638E
:10263000C36052684FF4E06303EAD20202610448C7
:10264000006800F0070008607047000000100240BA
:10265000002002400448054900684968044AC1F363
:102660000221515CC84070470C000020001002405D
:10267000704000080448054900684968044AC1F3ED
:10268000C221515CC84070470C000020001002407D
:102690007040000812A185B00FC98DE80F0014A08A
:1026A000144A006804905168134801F00C03042B8D
:1026B00010D0082B0ED1C1F38343C9031DF80300CA
:1026C0000AD5516804AAC1F34041515C0A4A5043FB
:1026D000B0FBF1F005B0704708494843FAE7000045
:1026E00002030405060708090A0B0C0D0E0F101053
:1026F000010200000010024000127A0000093D00B3
:102700002DE9F84F040070D02078C04DC00749D0A3
:102710006868C0F38100012807D06868C0F38100B1
:10272000022809D16868C00306D52868800339D516
:1027300060680028E7D035E06068B0F5803F0BD0D6
:1027400010B1B0F5A02F11D0286820F48030286097
:10275000286820F4802002E0286840F48030286057
:10276000606890B1FFF7FCFD06460AE0286840F477
:1027700080202860F0E700BFFFF7F2FD801B64288F
:1027800073D828688003F7D50CE0FFF7E9FD06460B
:1027900005E000BFFFF7E4FD801B6428F0D828683F
:1027A0008003F7D420789A4E80074FF001094FF04C
:1027B000000839D5686810F00C0F07D06868C0F3BE
:1027C0008100022809D16868C00306D42868800700
:1027D00014D52069012808D110E02069B0B1C6F8ED
:1027E0000090FFF7BDFD074605E00AE1FFF7B8FDE1
:1027F000C01B0228C4D828688007F7D528686169FB
:1028000020F0F80040EAC10028600DE0C6F8008022
:10281000FFF7A6FD074604E0FFF7A2FDC01B022854
:1028200023D828688007F7D4207800072CD579486A
:10283000A169D9B1C0F80090FFF792FD074604E006
:10284000FFF78EFDC01B02280FD8686A8007F7D5F6
:1028500071484FF4FA510068B0FBF1F0009000BFEE
:102860000098411E0091FAD20EE080E0C0F800808E
:10287000FFF776FD074604E0FFF772FDC01B022854
:1028800075D8686A8007F7D42078400760D5E86972
:102890000027C00008D4E86940F08050E861E8698A
:1028A000012700F0805000905C480168C90513D4EE
:1028B0000168834641F480710160FFF751FD824653
:1028C00006E000BFFFF74CFDA0EB0A0064284ED8DD
:1028D000DBF80000C005F5D5E06801280AD008B192
:1028E000052813D0286A20F001002862286A20F009
:1028F000040002E0286A40F001002862E06841F22A
:10290000883B98B1FFF72CFD82460BE0286A40F027
:1029100004002862EEE700BFFFF722FDA0EB0A01EA
:1029200059455AD8286A8007F6D50CE0FFF718FDFC
:10293000824605E0FFF714FDA0EB0A0159454CD88B
:10294000286A8007F6D41FB1E86920F08050E8615A
:10295000E06988B36968C1F38101022944D0022883
:10296000C6F8608004D0FFF7FBFC044638E034E092
:10297000FFF7F6FC074604E0FFF7F2FCC01B022855
:102980002BD828688001F7D4206AB0F5803F05D1A4
:102990006868A16820F4003008436860D4E9080141
:1029A0000843696821F4741108436860C6F86090B0
:1029B000FFF7D6FC044606E025E000BFFFF7D0FC99
:1029C000001B022809D828688001F7D51BE000BF4A
:1029D000FFF7C6FC001B022802D90320BDE8F88FD0
:1029E00028688001F4D40EE00128F7D06868226AD4
:1029F00000F48031914204D1616A00F47010884281
:102A000001D00120EAE70020E8E7000000100240C2
:102A100000004242800442420C000020007000404E
:102A20007047704710B5040003D094F83D0010B112
:102A300007E0012010BD002084F83C00204600F093
:102A40001EF8022084F83D00211D206800F09CFB48
:102A5000012084F8460084F83E0084F83F0084F8A2
:102A6000400084F8410084F8420084F8430084F870
:102A7000440084F8450084F83D00002010BD7047F4
:102A800090F83D10012901D001207047022180F803
:102A90003D100168CA6842F00102CA6000680E4930
:102AA00088420ED00D4988420BD0B0F1804F08D03B
:102AB0000B49884205D00B49884202D00A49884216
:102AC00004D1816801F00701062903D0016841F0B3
:102AD0000101016000207047002C014000340140DA
:102AE0000004004000080040000C0040704770B532
:102AF0000446006801694FF00005C943890715D4F1
:102B0000C168C943890711D4E91E016101202077FA
:102B1000206880698007204602D0FFF7E7FF04E0C5
:102B200000F098F8204600F096F8257720680169B3
:102B3000C943490717D4C168C943490713D46FF083
:102B400004010161022020772068806910F4407F31
:102B5000204602D0FFF7CAFF04E000F07BF82046D1
:102B600000F079F8257720680169C943090716D470
:102B7000C168C943090712D46FF00801016104203C
:102B800020772068C0698007204602D0FFF7AEFF9B
:102B900004E000F05FF8204600F05DF8257720683B
:102BA0000169C943C90617D4C168C943C90613D40A
:102BB0006FF010010161082020772068C06910F4CF
:102BC000407F204602D0FFF791FF04E000F042F87A
:102BD000204600F040F8257720680169C943C907FD
:102BE00008D1C168C943C90704D1891E01612046C3
:102BF00000F032F820680169C943090609D4C168A8
:102C0000C943090605D46FF0800101612046FFF732
:102C100007FF20680169C943490609D4C168C9434F
:102C2000490605D46FF040010161204600F01EF80E
:102C300020680169C94389060BD4C168C943890664
:102C400007D46FF0200101612046BDE87040FFF716
:102C5000E8BE70BD7047704700680349884201D1E3
:102C6000FFF784BB70470000002C0140704770B52F
:102C7000040004D094F83D00002510B106E00120C6
:102C800070BD84F83C50204600F022F8242084F8DF
:102C90003D002068C16821F40051C160204600F069
:102CA000B9FA2068016921F4904101612068416905
:102CB00021F02A0141612068C16841F40051C160DE
:102CC0002564202084F83D0084F83E00002070BD7B
:102CD0002DE9F047054600684049414C022703268C
:102CE00086B04FF000094FF48068884235D1A06962
:102CF00040F48040A061A06900F480400490A06985
:102D000040F00400A061A06900F004000490A069F4
:102D100040F00100A061A069DFF8C8A000F0010048
:102D200004904815CDE90007694603965046FFF721
:102D300015FA694650460396CDE90089FFF70EFA69
:102D40002868C16841F02001C1602520FFF78CFB95
:102D5000032211462520FFF795FB23492868884266
:102D600039D1E06940F48020E061E06900F480201E
:102D70000490A06940F00800A061A06900F008007C
:102D80000490A06940F00100A061A069174C00F018
:102D90000100CDE90360CDE9008769462046FFF7D1
:102DA000DDF9E014CDE90009694603962046FFF7F6
:102DB000D5F92868C16841F02001C1602868C16860
:102DC00041F01001C1602720FFF74EFB032211469E
:102DD0002720FFF757FB06B0BDE8F0870038014019
:102DE000001002400008014000480040000C014073
:102DF0002DE9F84F044690F83E009A4616460D46D7
:102E0000202853D1FDB1F6B194F83C0001284DD0F3
:102E1000012084F83C0000272764222084F83E002B
:102E20002763FFF79DFAA6858146E685A0684FF4E3
:102E30008058404501D1206940B12E465FF0000521
:102E400084F83C7027E00120BDE8F88F0026F7E702
:102E50004B46002220212046CDF800A000F036FA93
:102E600008B10320F0E726B1A06840451BD038B177
:102E700008E020684068C0F3080025F8020B07E06E
:102E8000206980B12068406800F07F0006F8010BDF
:102E9000E08D401EE085E08D0028D9D1202084F807
:102EA0003E000020D0E720684068EFE70220CBE733
:102EB0002DE9F843044690F83D001F4616460D469E
:102EC00020284CD1C5B1BEB194F83C00012846D0B1
:102ED000012084F83C004FF00008C4F84080212015
:102EE00084F83D00FFF73CFAA6848146E684A0689A
:102EF000B0F5805F03D004E00120BDE8F8832069CD
:102F000028B12E465FF0000584F83C800EE00026D4
:102F1000FAE78021204600F0D9F9A0B9AEB116F841
:102F2000010B21684860E08C401EE084E08C4B4639
:102F30004FF0000200970028EBD14FF040012046EF
:102F400000F0C4F930B10320D7E735F8020BC0F325
:102F50000800E6E7202084F83D000020CDE70220AD
:102F6000CBE7FEE7F8B51A48816941F008018161B5
:102F7000816901F008010091816941F0400181619E
:102F80008069012400F040000090124820250326AB
:102F9000C0E90054C0E902460F4F01463846FFF72A
:102FA000DDF80C4810300146C0E90054C0E9024683
:102FB0000A4C2046FFF7D2F8012220213846FFF7BD
:102FC000C9F92046BDE8F84001222021FFF7C2B927
:102FD00000100240C8000020000C01400018014011
:102FE000094808B5816941F040018161816901F0BA
:102FF00040010091816941F004018161806900F024
:103000000400009008BD000000100240FEE7FEE74B
:103010002DE9F0410D46064664213248FDF77DFB5F
:103020003046FDF75BFBC4B22846FDF757FB2D4A3F
:10303000302304F10E011370002393700323D37027
:103040002423137164235371702393710223D3716A
:103050000023137251727B2191722021D17222239D
:10306000137364275773732797735F27D773692781
:1030700017746427577493743A27D77411751621FF
:103080005375002707E000BF16F807C002F801C01B
:10309000491C89B27F1CA742F6DB5354491C89B2F4
:1030A0007D235354491C89B2030E5354491C89B2E1
:1030B000030C5354491C89B2030A5354491C89B266
:1030C0005054491C89B2002304E0EC5C5454491C60
:1030D00089B25B1C8342F8D3891E51700148BDE858
:1030E000F081000058050020012220210148FFF74F
:1030F00031B90000000C0140002220210148FFF7F7
:1031000029B90000000C014010B500F04DFE012867
:1031100003D0BDE8104000F005BE10BD30B58FB043
:1031200028216846FDF71BFB14210AA8FDF717FBB1
:1031300001210804CDE90010002402940225049125
:10314000CDE907504FF4E01009906846FFF7D8FA30
:1031500008B172B6FEE70F20CDE90A054FF4806092
:10316000CDE90C4002210AA80E94FFF7BDF9002812
:1031700001D072B6FEE70FB030BD70470148FFF7CF
:10318000B6BC000080000020F0B502681C4B1D4D4D
:103190001D4E1E4F1E4C4FF0804C984209D0A0424D
:1031A00007D0604505D0A84203D0B04201D0B84254
:1031B00004D122F0700E4A6842EA0E02984209D009
:1031C000A04207D0604505D0A84203D0B04201D04C
:1031D000B84203D122F44075CA682A434D6922F0EF
:1031E00080022A4302608A68C2620A688262984248
:1031F00001D0A04201D10969016301214161F0BD03
:10320000002C01400004004000080040000C004079
:103210000034014070B5044600680169E26821F499
:103220004051114301612169A06808436169084365
:103230002168CA6841F20C639A430243CA6020685D
:103240004169A26921F44071114341611E4920681E
:10325000884202D1FFF70EFA01E0FFF7FBF900EB1D
:10326000C00101EB0012606864218000B2FBF0F342
:10327000B3FBF1F36FF018067343B2FBF0F5B2FB4A
:10328000F0F605EB8305322303EB0515B5FBF1F5ED
:10329000B6FBF1F605F0F00505EB0615B2FBF0F60E
:1032A000B2FBF0F0B0FBF1F06FF01802504306EB08
:1032B000800003EB0010B0FBF1F0216800F00F007C
:1032C0002844886070BD0000003801402DE9F041BD
:1032D000984617460E460446069D1DE0681C1BD006
:1032E0002DB1FFF73DF8A0EB0800A84214D92068E3
:1032F000C16821F4D071C1602068416921F00101E9
:103300004161202084F83D0084F83E00002084F8CC
:103310003C000320BDE8F0812068006836EA000028
:1033200004D00020B842D9D00020F3E70120F9E70B
:1033300038B5164800680068C043800613D44FF4BF
:103340007A73012269461148FFF752FD10484188FF
:103350000A0408D44B049DF800304FF0000206D553
:103360000A2B01D0428038BD41F400410CE00D2B06
:1033700008D0064C88346354491C89B24180C7295F
:10338000F0D838BD41F48041418038BDE8000020CC
:10339000100000200749064AC1E90020002088608B
:1033A000C86008610C2048610846FFF760BC000057
:1033B00000380140E80000207CB5154D2868006801
:1033C000144CC04380064FF0000616D44FF47A73B5
:1033D000012269462846FFF70BFDA08805F5867295
:1033E0009DF800101154401C80B2A080C72800D95D
:1033F000A68029686FF02000086028680168C9432A
:10340000C90604D4012121700168406801907CBD87
:103410002C010020100000200749064AC1E90020C5
:1034200000208860C86008610C2048610846FFF7EA
:103430001EBC0000004800402C010020FEE70000F8
:103440008EB04FA0002400680D90FEF7F7FCFEF749
:1034500061FC2A21FEF73AFE4FF49670FEF700FD5C
:1034600020B1C17847A0FCF787FF02E049A0FCF734
:1034700083FFFEF7E3FC42F2107744F6206A47F23E
:103480003059DFF824B1494E1AE049A14AA0FFF7AC
:10349000BFFD4178891CFEF719FE0AE0544508D1AA
:1034A00047A145A0FFF7B4FD4178891CFEF70EFE49
:1034B00006E04C4504D102210DA8FEF707FE0024CA
:1034C0003078012853D140480588322D4DDD4FF02A
:1034D000000834216846FDF742F90020A84209DAC5
:1034E0001BF8001000F101002F29F7D1C0B25FEAEC
:1034F000000802D135A0FCF73FFFA5EB08002438F7
:1035000082B208F124000021EC465B4606E000BFD1
:1035100013F800800CF80180401C491CA842F7DB1E
:10352000C82361462C48FFF7C3FC2CA16846FDF771
:103530003DF978B12CA16846FDF738F968B12DA1A5
:103540006846FDF733F958B12DA16846FDF72EF90D
:1035500048B10AE0FEF7E8FD07E0FEF7DDFD04E014
:10356000FFF7CAFD01E0FFF7BFFDFEF767FC641C33
:10357000A4B2012000F054FBBC428FD185E70000CB
:10358000C000000070446174615B335D203D202504
:10359000580D0A00636F756C64206E6F7420676548
:1035A00074204950440D0A00380200201000002009
:1035B0003132333435360000546573740000000036
:1035C0003637383900000000140000206E6F742078
:1035D000666F756E640D0A00E8000020677265650D
:1035E0006E6C65646F6E0000677265656E6C656415
:1035F0006F6666007265646C65646F6E0000000043
:103600007265646C65646F6666000000490050EA8C
:10361000C12018BF04204A0D18BF40F0010040F23D
:10362000FF72B2EB515F08BF40F00200012808BFF3
:10363000052070470907090E002804DB00F1E0208F
:1036400080F80014704700F00F0000F1E02080F8CF
:10365000141D704730380A2801D20120704700201D
:103660007047704704490A685206FCD5024AC1B245
:10367000121D116070470000003801401CB5FEF7B4
:103680007DFEFFF74BFDFFF76DFC4FF4E134204664
:10369000FFF780FE2046FFF7BFFE4FF4FA74204686
:1036A000FEF74AFDFFF79CFCFEF7FCFB0021012022
:1036B000CDE900010B4640F6B83205A1074800F0FD
:1036C00047FB00F0C5FA2046FEF736FDFBE7000099
:1036D000574946495F5461736B000000413400084C
:1036E0002DE9F0411E4C0F460546E6682068001D96
:1036F00000F016FA38B9206890F82C1001208840A4
:10370000216981432161681C15D1A7B1154922683F
:103710004868906023688268DA6022688368121DB6
:103720005A602268121D8260206841610868401C4E
:103730000860BDE8F08120683544B54245602168E5
:1037400005D2E06BBDE8F041091D00F00ABAA06B9C
:10375000091D00F006FAA06A8542EAD2A562E8E7F0
:103760001C000020700600202DE9F041054600F005
:1037700011FA364CA068401CA0602068344F10B18C
:10378000606940B32DE02560A068012829D100269A
:1037900006EB860007EB800000F0D5F9761C052EBD
:1037A000F6D32B48643000F0CEF92948783000F089
:1037B000CAF927488C3000F0C6F92548A03000F03F
:1037C000C2F92348B43000F0BEF921486430A06348
:1037D0001430E06305E02068E96AC06A884200D8D6
:1037E0002560606A0121401C6062E86A22698140AC
:1037F0001143216100EB800007EB80004068A86066
:103800008168E9608268291D51608160E86A00EB87
:10381000800007EB8001696157F82010491C47F8C8
:10382000201000F0C5F9606900280CD02068E96A12
:10383000C06A884207D207494FF080500860BFF342
:103840004F8FBFF36F8FBDE8F08100001C00002098
:10385000BC05002004ED00E010B50446006B00F04C
:10386000B1F92046BDE8104000F0ACB910484FF463
:103870008841420706D0C01D0D4920F00700411ABB
:10388000C1F588410B4A00230144C2E9000308390D
:10389000183A21F0070111604B600B600B1AC0E968
:1038A000001393604FF00040536050617047000078
:1038B0008406002074000020144E154CA6F1A007C9
:1038C0004FF08058DFF84C9012E000BF00F062F932
:1038D000F068C568281D00F023F9A068401EA060AC
:1038E0006068401E606000F063F92846FFF7B4FF8F
:1038F00060680028EAD138680128F9D9C9F8008041
:10390000BFF34F8FBFF36F8FF2E700005C0600201C
:103910001C00002004ED00E02DE9F0479A46DDE9A7
:10392000097481466FF00303206B03EB8202089E4B
:10393000104420F00708002561B1002023180A5C1C
:1039400083F834200A5C12B1401C1028F6D384F8A6
:10395000435001E084F83450052E00D30426201D86
:10396000E66200F0FBF804F1180000F0F7F82461BB
:10397000C6F105006462A061656484F8485052464F
:103980004946404600F09AF82060002F00D03C6085
:10399000BDE8F08730B5114900E011460A6882425F
:1039A000FBD34B685C18844203D1406818444860DC
:1039B000084643681C18944209D1084C183C2468F6
:1039C000A24209D052681A4442600A681268026032
:1039D000814200D0086030BD0460F9E77400002027
:1039E0000548816B096821B1816BC96809688162EA
:1039F00070474FF0FF31FAE71C000020BF2080F332
:103A00001188BFF34F8FBFF36F8FFEE72DE9F041B1
:103A10000546002700F044F9274E306808B9FFF743
:103A200025FF7069054241D1F5B305F10804AC42A8
:103A30003CD9600707D004F00700C0F1080020441B
:103A4000A04233D904467CB3706884422ED81A4809
:103A5000183001460D6801E028460D466968A1420C
:103A600002D229680029F7D131688D421ED007683B
:103A70002968016068680837011B102904D92819D2
:103A800041606C60FFF786FF69687068401A70607B
:103A9000B268904200D2B060706901430020C5E96D
:103AA0000001F068401C00E000E0F06000F01CFA4B
:103AB0003846BDE8F08100005C00002010B5031F0F
:103AC0004FF080741C601B1F21F001011960191F49
:103AD000024B0B60143940380A6010BDFD390008F4
:103AE0000FB40D4870B505AA0499FCF733FC0A48D9
:103AF000FCF7F4FD81B2094A0020074B141D06E0D3
:103B000015686D06FCD51D5C2560401C80B288429E
:103B1000F6D370BC5DF814FB0003002000480040A1
:103B2000D0E9013201699A60D0E901235A604A68FC
:103B3000824201D182684A60002202610868401E08
:103B400008600868704700F108014FF0FF32C0E9D3
:103B50000112C16001610021016070470021016113
:103B6000704730B50B685A1C02D000F1080202E021
:103B7000026904E02246546825689D42FAD95368D8
:103B80004B6099608A60516008610168491C01605E
:103B900030BD0000BF2080F31188BFF34F8FBFF30B
:103BA0006F8F02480168491C016070477C0000204B
:103BB00003490868401E086001D180F311887047EE
:103BC0007C00002070B500281BD00E4DA0F1080429
:103BD00061686869014214D02268002A11D18143CA
:103BE000616000F05DF860686968084468602046BC
:103BF000FFF7D0FE2869401C2861BDE8704000F046
:103C000073B970BD5C0000204FF0E020002101611D
:103C10008161024941610721016170473F1901003B
:103C200010B5020009D000F03BF800211046FFF764
:103C300057FD00F059F9002807D104494FF0805092
:103C40000860BFF34F8FBFF36F8F10BD04ED00E02E
:103C50007CB50F480025CDE900502B4680220DA1F0
:103C60000E4800F075F80A4C2C3C01280ED1BF20FC
:103C700080F31188BFF34F8FBFF36F8F4FF0FF308A
:103C8000A06201206061E56000F034F8206B7CBD2B
:103C90004800002049444C4500000000B9380008A5
:103CA0000248416B491C4163704700001C00002022
:103CB0000E48416B11B10121C16170470021C16102
:103CC00001690B4AB1FA81F1C1F11F0101EB8101D8
:103CD00002EB810101F108034A6852684A609A4286
:103CE00001D152684A60D168016070471C00002011
:103CF000BC050020094810B5016841F47F0101604E
:103D0000016841F07F410160FFF77EFF0449002018
:103D10000860FCF7C3FA002010BD000020ED00E0B1
:103D20007C00002010B5BF2080F31188BFF34F8FB7
:103D3000BFF36F8F00F046F818B104494FF0805080
:103D40000860002080F3118810BD000004ED00E041
:103D50002DE9FF5F8346DDE90E87994616468A46C0
:103D60009000FFF753FE05001AD04C20FFF74EFEDF
:103D7000040012D025630021CDE90241CDE900877E
:103D80004B46324651465846FFF7C6FD2046FFF7E0
:103D9000EBFC012004B0BDE8F09F2846FFF712FFBE
:103DA0004FF0FF30F6E700000548416919B1406B5C
:103DB00018B10020704701207047022070470000B2
:103DC0001C0000202DE9F041454C0026606B28B115
:103DD000A069401CA0613046BDE8F081E5686D1C1B
:103DE000E56008D1A06BE16BA163E063206A401C31
:103DF0002062FFF7F5FDA16A3A488D420FD34FF0DC
:103E0000000EA16B096839B1A16BC968C9684A681D
:103E1000954212D2A26202E04FF0FF31A162216806
:103E2000C96A01EB810150F82100012800D901265F
:103E3000E0690028CFD00126CDE7D1E902724B69B5
:103E4000BA60D1E902277A605F680A1D974201D102
:103E5000CF685F60C1F814E01F687F1E1F60D1F853
:103E600028C0BCF1000F15D0D1E907379F60D1E918
:103E700007377B60DCF8047001F118039F4202D120
:103E80000B6ACCF80430C1F828E0DCF800305B1E87
:103E9000CCF80030CB6A0127D4F810C09F4047EA25
:103EA0000C07276103EB830300EB83035B688B60E4
:103EB0009F68CF609F687A609A60CA6A02EB82024C
:103EC00000EB82034B6150F822305B1C40F822303B
:103ED000C96A2268D26A914293D3012691E7000011
:103EE0001C000020BC0500202DE9F04100242746DD
:103EF000FFF750FE3F4D686B401E6863686B0028FB
:103F000072D1A8683C4B00264FF00108F0BB6BE073
:103F1000D868C468D4E90721A06A9160D4E907127F
:103F20005160426804F118018A4201D1216A41605E
:103F3000A6620168491E0160D4E9022160699160AE
:103F4000D4E9021251604268211D8A4201D1E2681F
:103F5000426066610268521E0260E26AD5F810C0D3
:103F600008FA02F040EA0C00286102EB8200224AC3
:103F70008C3A02EB80004068A060D0F808C0C4F81A
:103F80000CC0D0F808C0CCF8041000E012E081604A
:103F9000E06A00EB800002EB8001616152F82010C2
:103FA000491C42F82010E06A2968C96A884201D396
:103FB000C5F81C8018680028AAD10CB1FFF710FDC5
:103FC000AC693CB1FFF7FEFE08B1C5F81C80641E69
:103FD000F8D1AE61E86938B10849012738070860AF
:103FE000BFF34F8FBFF36F8FFFF7E2FD3846BDE899
:103FF000F08100001C0000204806002004ED00E0D5
:1040000010B500290AD00878002807D00548784460
:10401000FCF7CCFB002801D0002010BD02487844FA
:1040200010BD00008A0100008201000010B50029C7
:104030000AD00878002807D005487844FCF7B6FB7A
:10404000002801D0002010BD0248784410BD0000B7
:104050007A01000072010000FCF7C8BEFCF7FCBF4B
:104060000000000000000000010203040607080928
:10407000000000000102030430313233343536379A
:10408000383941424344454640305800303132339C
:10409000343536373839616263646566403078009C
:1040A0000400000800000000000000020001000001
:1040B000100000000000000000000000303132332A
:1040C000343536373839616263646566787000303C
:1040D0003132333435363738394142434445465816
:1040E0005000000002400000000000A0000000009E
:1040F00005400000000000C8000000000C40000067
:104100000000409C00000000194000000020BCBEE0
:104110000000000034400000BFC91B8E00000004F6
:10412000B5400000504BCFD06607E2CF0100000041
:104130006C4100003E8251AADFEEA734010000006E
:10414000D9420000DCB5A0E23A301F97FFFFFFFF25
:10415000B4450000FD25A0C8E9A3C14FFFFFFFFF44
:10416000FF3F00000000008000000000FF3F000053
:104170000000008000000000C44200080000002091
:10418000800000006C01000844430008800000200B
:1041900068500000880100081C0000004300000077
:1041A000F8FFFFFF0C0000000E0000000F000000F1
:1041B0002E0000001001000043000000F8FFFFFF88
:1041C000004040404040404040404141414141402A
:1041D00040404040404040404040404040404040DF
:1041E000400502020202020202020202020202026E
:1041F0000220202020202020202020020202020273
:1042000002029090909090901010101010101010CA
:1042100010101010101010101010101002020202D6
:10422000020288888888888808080808080808081A
:104230000808080808080808080808080202020216
:10424000400000000000000000000000000000002E
:10425000000000000000000000000000000000005E
:10426000000000000000000000000000000000004E
:10427000000000000000000000000000000000003E
:10428000000000000000000000000000000000002E
:10429000000000000000000000000000000000001E
:1042A000000000000000000000000000000000000E
:1042B00000000000000000000000000000000000FE
:1042C00000000000010000001000000000000000DD
:1042D0000024F400000000000000000000000000C6
:1042E00000000000000000000000000000000000CE
:1042F00000000000000000000000000000000000BE
:1043000000000000000000000000000000000000AD
:104310000400000000000000000000000000000099
:10432000000000000000000000000000000000008D
:10433000000000000000000000000000000000007D
:04434000AAAAAAAAD1
:0400000508000131BD
:00000001FF
