:020000040800F2
:10000000B833012085020008B92B0008B52B000881
:10001000B72B0008150300083D3000080000000061
:10002000000000000000000000000000C501000802
:10003000590300080000000021020008DB2B000823
:10004000413000089F0200089F0200089F0200083C
:100050009F0200089F0200085D0300089F0200083D
:100060008D030008A50300089F0200089F020008F6
:100070009F0200089F0200089F0200089F020008DC
:100080009F0200089F0200089F0200089F020008CC
:100090009F0200089F0200089F0200089F020008BC
:1000A0009F0200089F0200089F0200089F020008AC
:1000B0009F0200089F0200089F0200089F0200089C
:1000C0009F0200089F0200089F0200089F0200088C
:1000D0009F020008E92F00089F0200089F02000805
:1000E000750300089F0200089F0200089F02000895
:1000F0009F0200089F0200089F0200089F0200085C
:100100009F0200089F0200089F0200089F0200084B
:100110009F0200089F0200089F0200089F0200083B
:100120009F0200089F0200089F0200089F0200082B
:100130009F0200089F0200089F0200089F0200081B
:100140009F0200089F0200089F0200089F0200080B
:10015000190300089F020008250300089F020008F9
:100160009F0200089F0200089F0200089F020008EB
:100170009F0200089F0200089F0200080000000084
:100180009F0200089F0200089F0200089F020008CB
:100190009F0200089F0200089F0200089F020008BB
:1001A0009F0200089F0200089F020008DFF810D09D
:1001B00000F09EF80048004709320008AFF30080C5
:1001C000B83301202C4B19680868B0E8F04F80F371
:1001D0000988BFF36F8F4FF0000080F311887047DC
:1001E0000000000008480068006880F308884FF0AD
:1001F000000080F3148862B661B6BFF34F8FBFF37F
:100200006F8F00DF00BF00BF08ED00E0DFF80C00DB
:10021000016841F470010160704700BF88ED00E0A3
:10022000EFF30980BFF36F8F134B1A681EF0100FA6
:1002300008BF20ED108A20E9F04F106009B44FF09C
:10024000500080F31188BFF34F8FBFF36F8F03F01F
:10025000BBFE4FF0000080F3118809BC19680868E4
:10026000B0E8F04F1EF0100F08BFB0EC108A80F31A
:100270000988BFF36F8F70470C000020EFF30580F3
:10028000704700000648804706480047FEE7FEE743
:10029000FEE7FEE7FEE7FEE7FEE7FEE7FEE7FEE736
:1002A000752C0008AD01000840EA01039B0703D04C
:1002B00009E008C9121F08C0042AFAD203E011F8A5
:1002C000013B00F8013B521EF9D27047D2B201E067
:1002D00000F8012B491EFBD270470022F6E710B54B
:1002E00013460A4604461946FFF7F0FF204610BDA4
:1002F000064C074D06E0E06840F0010394E8070073
:1003000098471034AC42F6D3FFF754FF2848000852
:1003100048480008FEE70000014800F05FBD00000B
:1003200034020020014800F059BD0000E401002023
:1003300030B50468256825F480252560046863606D
:100340008368402B036803D099600068C26030BDA9
:100350009A600068C16030BD7047000004480168C1
:10036000C90703D00121016002F000BF70470000FF
:10037000143C014004480168890403D5411401601C
:1003800002F002BF70470000143C014004480168BD
:10039000490703D50421016002F0E0BE7047000068
:1003A000143C014004480168090703D50821016095
:1003B00002F0F2BE70470000143C01402DE9F0410C
:1003C00004460068016821F00101016001F01AFE95
:1003D000054600264FF47A7710E000BF01F012FEC8
:1003E000401BB8420AD954F84C0F40F0200044F8A2
:1003F0001809032026706070BDE8F081206800684D
:10040000C007EBD104F8346F012060700020F3E7DF
:100410002DE9F04FF0B390F8351002294BD0016868
:100420000A6822F001020A60026800211160026875
:100430005160026891600268D160026811610268CF
:1004400021215161DFF808E4DFF8FC83DFF8FCC309
:10045000DFF8FCB34FF480794FF4802AAEF1600EE0
:10046000FB4AF94BFA4CF84DF94EF74F0168A83AA0
:10047000483B483C1835903E303F41453DD991427C
:1004800038D0994236D0A14234D0A94232D0B142BC
:100490000FD000E00FE0B9420BD0DFF8B4C3ACF1ED
:1004A000300C614505D0DFF8A0C30CF1300C61457C
:1004B00004D1CC461EE00120BDE8F08FDFF890C3E8
:1004C000ACF1780C614511D0DFF87CC3ACF1180CAD
:1004D00061450BD0DFF878C3ACF1180C614505D04D
:1004E000DFF864C30CF1480C614501D1D44601E04A
:1004F0004FF0807CD4494C3939E059453AD9914282
:1005000033D0994231D0A1422FD0A9422DD0B1424F
:100510000DD0B9420BD0DFF838C3ACF1300C6145D7
:1005200005D0DFF824C30CF1300C614501D1CC4675
:100530001BE0DFF81CC3ACF1780C614511D0DFF88B
:1005400008C3ACF1180C61450BD0DFF804C3ACF163
:10055000180C614505D0DFF8F0C20CF1480C61457C
:1005600001D1D44601E04FF0807CB7495039C1F841
:1005700000C076E071453AD9914233D0994231D0EA
:10058000A1422FD0A9422DD0B1420DD0B9420BD0FB
:10059000DFF8BCC2ACF1300C614505D0DFF8A8C271
:1005A0000CF1300C614501D1CC461BE0DFF8A0C254
:1005B000ACF1780C614511D0DFF88CC2ACF1180CAD
:1005C00061450BD0DFF888C2ACF1180C614505D04D
:1005D000DFF874C20CF1480C614501D1D44601E04A
:1005E0004FF0807C9A49B839C1F80CC039E091428B
:1005F00033D0994231D0A1422FD0A9422DD0B1425F
:100600000DD0B9420BD0DFF848C2ACF1300C6145D7
:1006100005D0DFF834C20CF1300C614501D1CC4675
:100620001BE0DFF82CC2ACF1780C614511D0DFF88B
:1006300018C2ACF1180C61450BD0DFF814C2ACF154
:10064000180C614505D0DFF800C20CF1480C61457B
:1006500001D1D44601E04FF0807C7D49B839C1F822
:1006600008C0DFF8E48101684FF4006C4FF4001912
:100670004FF0006A414538D9914205D0994203D0E4
:10068000A14201D0A94202D14FF0200C2AE0B14290
:1006900028D0B94226D0DFF8B881A8F1300841450A
:1006A00020D0DFF8A48108F1300841451AD0DFF8E6
:1006B000A0C1ACF1780C614511D0DFF88CC1ACF170
:1006C000180C61450BD0DFF888C1ACF1180C6145FE
:1006D00005D0DFF874C10CF1480C614501D1CC465E
:1006E00000E0D44658494C3939E059453AD991424D
:1006F00005D0994203D0A14201D0A94202D14FF0C6
:10070000200C2AE0B14228D0B94226D0DFF840813F
:10071000A8F13008414520D0DFF82C8108F13008DD
:1007200041451AD0DFF828C1ACF1780C614511D0F1
:10073000DFF814C1ACF1180C61450BD0DFF810C123
:10074000ACF1180C614505D0DFF8FCC00CF1480C89
:10075000614501D1CC4600E0D4463B495039C1F84F
:1007600000C07BE071453AD9914205D0994203D04F
:10077000A14201D0A94202D14FF0200C2AE0B1429F
:1007800028D0B94226D0DFF8C880A8F1300841450A
:1007900020D0DFF8B48008F1300841451AD0DFF8E6
:1007A000B0C0ACF1780C614511D0DFF89CC0ACF161
:1007B000180C61450BD0DFF898C0ACF1180C6145FE
:1007C00005D0DFF884C00CF1480C614501D1CC465E
:1007D00000E0D4461E49B839C1F80CC03EE0914251
:1007E00005D0994203D0A14201D0A94202D14FF0D5
:1007F000200C30E0B1422ED0B9422CD0DFF850802E
:10080000A8F13008414526D0DFF83C8008F13008D7
:10081000414520D0DFF838C0ACF1780C614511D0EB
:10082000DFF824C0ACF1180C61450BD0DFF820C014
:10083000ACF1180C614505D0DFF80CC00CF1480C88
:10084000614507D1CC4606E05864024004008000B0
:10085000B8600240D446FE49C1F808C0DFF8F4830E
:1008600001684FF4007C4FF400294FF0007A4145B5
:1008700038D9914205D0994203D0A14201D0A94272
:1008800002D14FF0080C2AE0B14228D0B94226D05C
:10089000DFF8BC8308F18808414520D0DFF8B48335
:1008A00008F1300841451AD0DFF8A4C30CF1400C20
:1008B000614511D0DFF89CC3ACF1180C61450BD039
:1008C000DFF88CC30CF1A00C614505D0DFF884C3C0
:1008D0000CF1480C614501D1CC4600E0D446DD491D
:1008E0004C3939E059453AD9914205D0994203D063
:1008F000A14201D0A94202D14FF0080C2AE0B14236
:1009000028D0B94226D0DFF8488308F1880841454D
:1009100020D0DFF8408308F1300841451AD0DFF8D5
:1009200030C30CF1400C614511D0DFF828C3ACF1A5
:10093000180C61450BD0DFF818C30CF1A00C614511
:1009400005D0DFF810C30CF1480C614501D1CC464D
:1009500000E0D446BF495039C1F800C074E0714589
:1009600039D9914205D0994203D0A14201D0A94280
:1009700002D14FF0080C2AE0B14228D0B94226D06B
:10098000DFF8CC8208F18808414520D0DFF8C48226
:1009900008F1300841451AD0DFF8B4C20CF1400C20
:1009A000614511D0DFF8ACC2ACF1180C61450BD039
:1009B000DFF89CC20CF1A00C614505D0DFF894C2B1
:1009C0000CF1480C614501D1CC4600E0D446A04969
:1009D000C1F80CC038E0914205D0994203D0A14241
:1009E00001D0A94202D14FF0080C2AE0B14228D030
:1009F000B94226D0DFF8588208F18808414520D056
:100A0000DFF8508208F1300841451AD0DFF840C2C3
:100A10000CF1400C614511D0DFF838C2ACF1180C74
:100A200061450BD0DFF828C20CF1A00C614505D060
:100A3000DFF820C20CF1480C614501D1CC4600E042
:100A4000D4468349C1F808C0DFF808820168DFF89E
:100A500008C24FF480394FF4800A414538D9914299
:100A600033D0994231D0A1422FD0A9422DD0B142EA
:100A70000DD0B9420BD0DFF8D8C10CF1880C61451C
:100A800005D0DFF8D0C10CF1300C614502D14FF038
:100A9000400C1AE0DFF8B8C10CF1400C614511D0F0
:100AA000DFF8B0C1ACF1180C61450BD0DFF8A0C184
:100AB0000CF1A00C614505D0DFF898C10CF1480C91
:100AC000614501D1CC4600E0D44662494C3939E059
:100AD00059453AD9914233D0994231D0A1422FD0D1
:100AE000A9422DD0B1420DD0B9420BD0DFF860C180
:100AF0000CF1880C614505D0DFF858C10CF1300CC1
:100B0000614502D14FF0400C1AE0DFF844C10CF10E
:100B1000400C614511D0DFF83CC1ACF1180C6145C7
:100B20000BD0DFF82CC10CF1A00C614505D0DFF82B
:100B300024C10CF1480C614501D1CC4600E0D446FB
:100B400044495039C1F800C074E0714539D9914227
:100B500033D0994231D0A1422FD0A9422DD0B142F9
:100B60000DD0B9420BD0DFF8E8C00CF1880C61451C
:100B700005D0DFF8E0C00CF1300C614502D14FF038
:100B8000400C1AE0DFF8C8C00CF1400C614511D0F0
:100B9000DFF8C0C0ACF1180C61450BD0DFF8B0C075
:100BA0000CF1A00C614505D0DFF8A8C00CF1480C91
:100BB000614501D1CC4600E0D4462549C1F80CC0BE
:100BC00038E0914233D0994231D0A1422FD0A9428E
:100BD0002DD0B1420DD0B9420BD0DFF874C00CF16A
:100BE000880C614505D0DFF86CC00CF1300C614514
:100BF00002D14FF0400C1AE0DFF854C00CF1400C69
:100C0000614511D0DFF84CC0ACF1180C61450BD038
:100C1000DFF83CC00CF1A00C614505D0DFF834C012
:100C20000CF1480C614501D1CC4600E0D44608499E
:100C3000C1F808C0DFF81C8001684FF4806C4FF4E5
:100C400080194FF0806A414531D991420CD005E0BE
:100C5000006002405864024001008000994203D0C5
:100C6000A14201D0A94202D14FF0100C1CE0B142C8
:100C70001AD0B94218D0574A914215D0564A9142DB
:100C800012D0544A483A91420BD0534A483A9142C2
:100C900007D0504A1832914203D04F4A183291423D
:100CA00001D1CC4600E0D4464B497C392BE0594574
:100CB0002CD9914205D0994203D0A14201D0A9423A
:100CC00002D14FF0100C1CE0B1421AD0B94218D03A
:100CD000404A914215D0404A914212D03D4A483A8A
:100CE00091420BD03C4A483A914207D0394A1832D7
:100CF000914203D0384A1832914201D1CC4600E0EB
:100D0000D44635498039C1F800C05AE071452CD924
:100D1000914205D0994203D0A14201D0A94202D10B
:100D20004FF0100C1CE0B1421AD0B94218D0294A39
:100D3000914215D0284A914212D0264A483A91420F
:100D40000BD0254A483A914207D0224A18329142A4
:100D500003D0214A1832914201D1CC4600E0D4465A
:100D60001C498839C1F80CC02BE0914205D099424A
:100D700003D0A14201D0A94202D14FF0100C1CE0D7
:100D8000B1421AD0B94218D0124A914215D0124A33
:100D9000914212D00F4A483A91420BD00E4A483A3B
:100DA000914207D00B4A1832914203D00A4A1832B6
:100DB000914201D1CC4600E0D44606498839C1F8B9
:100DC00008C00021C16480F8351080F8341008464E
:100DD000BDE8F08F88600240886402402DE9F05F32
:100DE000FB490746FA4DFB4E00684A15DFF8E093D1
:100DF000DFF8E0A3DFF8D8B39302F64C483D603645
:100E00004FF0007C09F118090AF1180AABF1300B18
:100E100088422BD9EE4954392EE048453BD100BFDA
:100E20004FF008080AE0DFF8A88308F130084045D1
:100E30003CD1904602E0984600E0E04611EA080FF7
:100E40006FD0016849076CD5016821F00401016089
:100E5000DF493868884265D9A04205D0A84203D04E
:100E6000B04201D048453AD1082257E0D949A831CB
:100E7000884203D9D6495839096805E0D54948312F
:100E80008842D549F8D94968A042C9D0A842C7D0FC
:100E9000B042C5D0C1E75045CBD05845C9D0DFF8E6
:100EA000348308F178084045C3D0BCE7DFF82483D9
:100EB00008F130084045BED0DFF81483A8F11808C7
:100EC0004045B8D0DFF80C8308F190084045B2D017
:100ED000DFF8FC8208F148084045AED1ABE7504549
:100EE0001CD058451AD0BB497831884216D0B84931
:100EF0003031884212D0B749303188420BD0B449E2
:100F00001839884207D0B3499031884203D0B0499C
:100F10004831884201D11A4600E06246AC484C385C
:100F20002FE099E0AB49A83188422CD9A04205D0E6
:100F3000A84203D0B04201D0484501D108221EE0AA
:100F400050451CD058451AD0A2497831884216D055
:100F50009F493031884212D09E49303188420BD0AF
:100F60009B491839884207D09A499031884203D06A
:100F700097494831884201D11A4600E062469448B8
:100F8000503802605AE09349483188422BD9A04238
:100F900005D0A84203D0B04201D0484501D1082273
:100FA0001EE050451CD058451AD08A4978318842F5
:100FB00016D087493031884212D086493031884274
:100FC0000BD083491839884207D082499031884232
:100FD00003D07F494831884201D11A4600E0624679
:100FE0007D48C2602AE0A04205D0A84203D0B042AA
:100FF00001D0484501D108221EE050451CD058457B
:101000001AD074497831884216D0714930318842FB
:1010100012D07049303188420BD06D49183988425E
:1010200007D06C499031884203D0694948318842E1
:1010300001D11A4600E0624667488260F86C40F0D1
:101040000100F864042087F83500002087F8340098
:10105000B96C09B138468847604A5D493868D31190
:101060004FF4800C884237D9594954393AE0484501
:1010700047D190460CE0DFF8588108F13008404530
:101080004AD100BF4FF0400802E0984600E0E04639
:1010900011EA080F6FD0416909066CD5416921F04A
:1010A000800141614A493868884265D9A0425FD0D1
:1010B000A8425DD0B0425BD0484559D0504509D0D8
:1010C000584507D043497831884203D040493031F0
:1010D00088423AD140224BE03E49A831884203D9A8
:1010E0003B495839096805E03A49483188423A494C
:1010F000F8D94968A042BCD0A842BAD0B042B8D012
:10110000B5E75045BED05845BCD0DFF8C88008F1DF
:1011100078084045B6D0AEE7DFF8B88008F130086F
:101120004045B2D0DFF8A880A8F118084045ACD0FF
:10113000DFF8A08008F190084045A6D0DFF8908045
:1011400008F148084045A2D19FE722493031884242
:101150000BD01F491839884207D01E499031884268
:1011600003D01B494831884201D11A4600E062464B
:1011700017484C3836E0A1E01649A831884233D9E7
:10118000A0422ED0A8422CD0B0422AD0484528D028
:10119000504509D0584507D00E497831884203D0D0
:1011A0000B493031884201D140221AE009493031DF
:1011B00088420BD006491839884207D0054990313A
:1011C000884203D002494831884209D11A4608E0D2
:1011D000586402401060024000600240010080003C
:1011E0006246F94802605BE0F84988422CD9A04287
:1011F00026D0A84224D0B04222D0484520D0504525
:1012000009D0584507D0F1493031884203D0EE4922
:101210008031884201D1402212E0EC4918398842DD
:101220000BD0E9493831884207D0E8494831884233
:1012300003D0E5499831884201D11A4600E0624660
:10124000E2485838C2602BE0A04226D0A84224D001
:10125000B04222D0484520D0504509D0584507D04B
:10126000DA493031884203D0D7498031884201D1F0
:10127000402212E0D549183988420BD0D249383182
:10128000884207D0D1494831884203D0CE499831AD
:10129000884201D11A4600E06246CC485838826044
:1012A000F86C40F00200F864042087F83500002054
:1012B00087F83400B96C09B138468847C249C44A36
:1012C0003868503153114FF4807C4FF0807E884253
:1012D00036D9BD49091F39E0484545D190460AE055
:1012E000DFF8E48208F18008404548D1E04602E09A
:1012F000984600E0F04611EA080F6FD001688907B0
:101300006CD5016821F002010160AF4938685031A5
:10131000884264D9A0425ED0A8425CD0B0425AD084
:10132000484558D0504509D0584507D0A7493031D5
:10133000884203D0A4498031884239D162464AE0CC
:10134000A2496031884203D99F490839096804E0FD
:101350009E4988429F49F9D94968A042BED0A84217
:10136000BCD0B042BAD0B7E75045BFD05845BDD089
:10137000DFF8588208F130084045B7D0B0E7DFF811
:101380004C82A8F118084045B2D0DFF83C8208F141
:1013900038084045ACD0DFF8348208F148084045B1
:1013A000A6D0DFF8248208F198084045A2D19FE733
:1013B0008649183988420BD083493831884207D092
:1013C00082494831884203D07F499831884201D10F
:1013D0001A4600E072467C48001D2EE097E07B49EB
:1013E000603188422BD9A04226D0A84224D0B042F6
:1013F00022D0484520D0504509D0584507D07349E0
:101400003031884203D070498031884201D1624630
:1014100012E06E49183988420BD06B493831884246
:1014200007D06A494831884203D0674998318842D9
:1014300001D11A4600E072466348026059E06349F0
:1014400088422BD9A04226D0A84224D0B04222D034
:10145000484520D0504509D0584507D05B49303128
:10146000884203D058498031884201D1624612E057
:101470005649183988420BD053493831884207D031
:1014800052494831884203D04F499831884201D1AE
:101490001A4600E072464F48C2602AE0A04226D0B9
:1014A000A84224D0B04222D0484520D0504509D08F
:1014B000584507D045493031884203D042498031F0
:1014C000884201D1624612E04049183988420BD067
:1014D0003D493831884207D03C494831884203D0E1
:1014E00039499831884201D11A4600E0724639489C
:1014F0008260F86C40F00400F864042087F835003E
:10150000002087F83400B96C09B138468847DFF805
:10151000B8C04FF4806138680CF1500C8A020B049B
:10152000604534D9DFF8A0C0ACF1040C39E048457F
:1015300052D100BF4FF010080AE0DFF88C8008F1AC
:101540008008404551D1884602E0904600E0984628
:101550001CEA080F7ED0D0F800C05FEA0C7C79D579
:10156000D0F800C05FEA4C384FF0310C73D5DFF88B
:10157000588008F15008404575D9A04205D0A842CE
:1015800003D0B04201D0484546D1102168E0DFF8D1
:101590003CC00CF1600C604506D9DFF82CC0ACF102
:1015A000080CDCF800C007E0DFF820C06045DFF879
:1015B00024C0F6D9DCF804C0A042BBD0A842B9D000
:1015C000B042B7D0B3E70000086402405860024060
:1015D00004008000006002405045B4D05845B2D0AD
:1015E000DFF84C844045AED0A7E7DFF84484A8F18B
:1015F00048084045A9D0DFF83C844045A5D0DFF835
:10160000308408F1180840459FD0DFF8288408F19D
:10161000600840459BD198E7504521D058451FD0E0
:10162000DFF80C8440451BD0DFF8088408F1480837
:10163000404515D0FE49483988420AD0FD498842C4
:1016400007D0FB491831884203D0FA4960318842FB
:1016500005D102E0ADE0BBE005E0114600E019462F
:10166000F448343831E0DFF8C88308F130084045E9
:101670002DD9A04205D0A84203D0B04201D04845A0
:1016800001D110211FE050451DD058451BD0DFF877
:10169000A083404517D0DFF89C8308F148084045F7
:1016A00011D0E349483988420AD0E249884207D03C
:1016B000DF491831884203D0DE496031884201D1C8
:1016C000114600E01946DB483838016060E0DFF879
:1016D0006083A8F1300840452DD9A04205D0A8422A
:1016E00003D0B04201D0484501D110211FE0504540
:1016F0001DD058451BD0DFF83883404517D0DFF8A0
:10170000348308F14808404511D0C9494839884216
:101710000AD0C849884207D0C5491831884203D049
:10172000C4496031884201D1114600E01946C048E1
:101730008838C1602CE0A04205D0A84203D0B04256
:1017400001D0484501D110211FE050451DD058451A
:101750001BD0DFF8DC82404517D0DFF8D88208F1D3
:101760004808404511D0B249483988420AD0B149A9
:10177000884207D0AE491831884203D0AD49603164
:10178000884201D1114600E01946A9488838816095
:1017900038680168090302D487F835C005E000689D
:1017A000000302D5412087F83500396C09B138466D
:1017B0008847DFF880C24FF4006138680CF1180CDC
:1017C0008A024FF0006E604570D99A4B3C3B00E1B5
:1017D000D0F800805FEAC85805D4D0F8008028F01F
:1017E0000808C0F80080DFF84C82386808F1180853
:1017F00040452CD9A04205D0A84203D0B04201D028
:10180000484501D110211FE050451DD058451BD03F
:10181000DFF81C82404517D0DFF8188208F148082D
:10182000404511D08249483988420AD081498842CE
:1018300007D07F491831884203D07E496031884201
:1018400001D1114600E019467A48343832E0DFF819
:10185000E08108F1300840452ED9A04205D0A842C9
:1018600003D0B04201D0484501D1102120E05045BD
:101870001ED058451CD0DFF8B881404518D0DFF89D
:10188000B48108F14808404512D069494839884276
:101890000AD06849884207D065491831884203D088
:1018A00064496031884202D1114601E08BE019465B
:1018B0006048383801606FE7DFF87481A8F13008BC
:1018C00040452DD9A04205D0A84203D0B04201D056
:1018D000484501D110211FE050451DD058451BD06F
:1018E000DFF84C81404517D0DFF8488108F14808FF
:1018F000404511D04E49483988420AD04D49884266
:1019000007D04B491831884203D04A496031884298
:1019100001D1114600E0194645488838C1603BE7CF
:10192000A04205D0A84203D0B04201D0484501D121
:1019300010211FE050451DD058451BD0DFF8F08026
:10194000404517D0DFF8EC8008F14808404511D039
:101950003749483988420AD03649884207D0344945
:101960001831884203D033496031884201D1114691
:1019700000E019462E48883881600DE7484537D188
:101980004FF020080AE0DFF8AC8008F14808404535
:1019900037D1884602E0904600E0F04613EA080F8F
:1019A0007AD00368DB0677D503685B0375D560459D
:1019B00064D9A04205D0A84203D0B04201D0484526
:1019C0003CD1202157E01A4B3033984203D9194BB0
:1019D000403B1B6805E0164B303B9842164BF8D94C
:1019E0005B68A042CCD0A842CAD0B042C8D0C5E7FC
:1019F0005045CED05845CCD0DFF834804045C8D0D3
:101A0000C1E7DFF8348008F140084045C3D0DFF873
:101A100024804045BFD0DFF8188008F11808404501
:101A2000B9D0DFF8108008F160084045B5D1B2E7C1
:101A300088600240406402400060024050451AD075
:101A4000584518D0BE4B984215D0BE4B984212D084
:101A5000BB49483988420BD0BA494839884207D037
:101A6000B7491831884203D0B6491831884201D1AC
:101A7000114600E07146B3487C382EE0B04B30335D
:101A800098422CD9A04205D0A84203D0B04201D040
:101A9000484503D120211EE0FBE089E050451AD0E3
:101AA000584518D0A64B984215D0A64B984212D054
:101AB000A349483988420BD0A2494839884207D007
:101AC0009F491831884203D09E491831884201D17C
:101AD000114600E071469B488038016058E0984B01
:101AE000303B98422AD9A04205D0A84203D0B04248
:101AF00001D0484501D120211CE050451AD058455D
:101B000018D08F4B984215D08E4B984212D08C49EA
:101B1000483988420BD08B494839884207D08849D8
:101B20001831884203D087491831884201D11146C3
:101B300000E0714682488838C16029E0A04205D0A3
:101B4000A84203D0B04201D0484501D120211CE079
:101B500050451AD0584518D0794B984215D0794B3A
:101B6000984212D07649483988420BD07549483995
:101B7000884207D072491831884203D07149183120
:101B8000884201D1114600E071466D488838816075
:101B900038680168090301D4796C03E00068000328
:101BA00077D5F96B002974D03846BDE8F05F084757
:101BB0000368DB0503D4036823F01003036038686F
:101BC000604529D9A04205D0A84203D0B04201D037
:101BD000484501D120211CE050451AD0584518D065
:101BE000574B984215D0574B984212D05449483918
:101BF00088420BD053494839884207D050491831A0
:101C0000884203D04F491831884201D1114600E083
:101C100071464C487C382CE0494B303398422AD9E5
:101C2000A04205D0A84203D0B04201D0484501D11E
:101C300020211CE050451AD0584518D0404B9842FE
:101C400015D0404B984212D03D49483988420BD0BC
:101C50003C494839884207D039491831884203D075
:101C600038491831884201D1114600E071463548A3
:101C70008038016059E0324B303B98422BD9A0426A
:101C800005D0A84203D0B04201D0484502D120215E
:101C90001DE053E050451AD0584518D0284B9842C3
:101CA00015D0284B984212D02549483988420BD08C
:101CB00024494839884207D021491831884203D045
:101CC00020491831884201D1114600E071461C4874
:101CD0008838C16029E0A04205D0A84203D0B042B4
:101CE00001D0484501D120211CE050451AD058456B
:101CF00018D0134B984215D0124B984212D010496D
:101D0000483988420BD00F494839884207D00C49DE
:101D10001831884203D00B491831884201D111464D
:101D200000E07146064888388160F86CF86411203C
:101D300087F83500002087F8340032E7BDE8F09FCF
:101D4000886002408864024070B5D0B10221446AC4
:101D500080F8351003681A6816490A40D0E9011561
:101D60002943D0E903563543294345692943856909
:101D70002943C5692943056A29431143042C02D02C
:101D800005E0012070BDD0E90B2422431143196006
:101D900003685969426A21F007011143042A01D1FD
:101DA000826A114359610021C164012180F8351014
:101DB000002070BD3F8010F070B5044690F83400EC
:101DC00001282DD0012084F83400022084F8350049
:101DD0002068056825F0010505602046FEF7A8FA91
:101DE0002068016841F0100101602068016841F03D
:101DF000080101602068016841F004010160206869
:101E0000416941F0800141612068016841F00201AF
:101E100001602068016841F001010160002070BD8F
:101E2000022070BD2DE9F84FDFF890B100224FF08D
:101E300001084FF0030A4FF00F090BF1040E00BF29
:101E40000B6808FA02F42340A3426ED14D68022DBC
:101E500001D0122D0ED1D50800EB850CDCF82050F6
:101E60005607F70E09FA07F6B5430E69BE402E4332
:101E7000CCF82060066855000F790AFA05FC07F0D7
:101E8000030726EA0C06AF40374307604E68012E71
:101E900005D0022E03D0112E01D0122E0ED187684C
:101EA000CE6827EA0C07AE403E4386604668A643EC
:101EB0000C79C4F30014944034434460C4688E68C1
:101EC00024EA0C04AE402643C6604C68E4006FD59B
:101ED0003B4C256845F480452560246822F00305C5
:101EE00004F480440094374C2E19D6F8084895071E
:101EF0002F0F09FA07F5AC43334DA84201D1002555
:101F00002EE0324DA84201D1012529E0304DA842F2
:101F100001D1022524E02F4DA84201D103251FE065
:101F20002D4DA84202D104251AE041E02B4DA842D4
:101F300001D1052514E02A4DA84201D106250FE064
:101F4000284DA84201D107250AE0274DA84201D11A
:101F5000082505E0254DA84201D1092500E00A2504
:101F6000BD402543C6F80858DBF800405D464E6882
:101F70009C43F60300D51C432C60DEF800407546F8
:101F80004E689C43B60300D51C432C600B4D0835AE
:101F90002C684E689C43F60200D51C432C60074D0C
:101FA0000C352C684E689C43B60200D51C432C604F
:101FB000521C102AFFF444AFBDE8F88F003C0140EA
:101FC000443802400030014000000240000402405A
:101FD00000080240000C02400010024000140240C1
:101FE00000180240001C0240002002400024024071
:101FF00042694A40426170470AB1816170470904F1
:10200000FBE7000001480068704700000400002062
:1020100002480168491C016070470000040000206C
:102020000B4810B5016841F400710160016841F48A
:1020300080610160016841F480710160032000F05B
:102040005FF8002000F006F800F016F8002010BD40
:10205000003C024010B5044600F0B0F94FF47A712C
:10206000B0FBF1F000F0C6FB00222146501E00F04C
:1020700027F8002010BD00000A4808B5016841F4A7
:1020800080410160006800F4804000900548001F16
:10209000016841F080510160006800F080500090BC
:1020A00008BD00004438024000F01F0201219140A9
:1020B0004009800000F1E020C0F8001170470000E6
:1020C000F0B40E4B1B680C46C3F30223C3F10705A3
:1020D000042D00D90425191D072901D2002300E091
:1020E000DB1E012606FA05F1491E214099409E405B
:1020F000761E16403143F0BC00F05FBD0CED00E0F1
:10210000064900F0070208684FF6FF03184040EA4E
:102110000220034A10430860704700000CED00E005
:102120000000FA052DE9F8431E48016841F080518E
:1021300001600068012600F080500090300490FAA1
:10214000A0F0194FB0FA80F047F82060FFF75AFF6F
:1021500005464FF47A78154C05E000BFFFF752FFB3
:10216000401B404515D86068C003F7D54FF40030D8
:1021700090FAA0F0B0FA80F047F82060FFF742FF35
:102180000546464608E000BFFFF73CFF401BB04253
:1021900002D90320BDE8F88360688003F4D50020ED
:1021A000F8E700004038024000000E420070004096
:1021B0002DE9F05FDFF8FCA104460F46DAF80000D5
:1021C000DFF8F48100F00F017B4807F0FF0941F2CE
:1021D000883508F10808B94262D28AF80090DAF826
:1021E000001001F00F01B9427ED12178890707D58F
:1021F000D8F80020A36822F0F0021A43C8F80020A3
:102200002178C9072ED0616801291AD002291BD074
:10221000032919D000688007002865DAD8F8000083
:10222000464620F003000843C8F80000FFF7EAFE26
:1022300007466068012810D002281AD003281ED053
:1022400029E000688003E7E700688001E4E700BF59
:10225000FFF7D8FEC01BA84259D83068C0F38100F0
:102260000128F5D189E000BFFFF7CCFEC01BA842D2
:102270004DD83068C0F381000228F5D17DE0306888
:10228000FFF7C0FEC01BA842F9D940E0FFF7BAFE35
:10229000C01BA8423BD8306810F00C0FF6D16CE0A0
:1022A0002178890707D5D8F80020A36822F0F0022A
:1022B0001A43C8F800202178C9074CD06168012969
:1022C00028D0022929D0032927D0006880070028B8
:1022D00049DAD8F8002022F003020A43C8F80020A7
:1022E000FFF790FE064600E03DE0606801281DD043
:1022F000022829D0032838D0AB464546286810F07C
:102300000C0F28D0FFF77EFE811B5945F6D903201C
:10231000BDE8F09F00688003D9E700688001D6E738
:10232000FFF770FE811B594502D9F0E7AB464546E1
:102330002868C0F381000128F2D10CE0FFF762FEAB
:10234000811B594502D9E2E7AB4645462868C0F3F0
:1023500081000228F2D18AF80090DAF8000000F03B
:102360000F00B84209D00120D2E744462068FFF7A9
:1023700049FE801BA842F9D9C9E72078400707D554
:10238000D8F80010E26821F4E0511143C8F80010B9
:102390002078000708D5D8F80010226921F46041A0
:1023A00041EAC201C8F800100020FFF753FE0020E8
:1023B000AEE70000003C02400038024010B500F0DB
:1023C00043F808490968F02292FAA2F201F0F001FC
:1023D000B2FA82F2D140044A515CC8400349086015
:1023E00010BD00000838024018480008080000200E
:1023F00010B5FFF7E3FF074909684FF4E05292FA7E
:10240000A2F201F4E051B2FA82F2D140024A515CE8
:10241000C84010BD083802401848000810B5FFF742
:10242000CDFF074909684FF4604292FAA2F201F425
:102430006041B2FA82F2D140024A515CC84010BDFC
:10244000083802401848000830B51948006810F0F4
:102450000C01184812D0184C04290ED008290DD1AF
:102460001349091F0A6802F03F030A68550247F63C
:10247000C07204D5B4FBF3F003E0204630BDB0FBDE
:10248000F3F00B680968134092FAA2F2B2FA82F2F2
:10249000D34058434FF4403292FAA2F201F4403153
:1024A000B2FA82F2D140491C4900B0FBF1F030BDD4
:1024B000083802400024F40040787D012DE9F84FEF
:1024C00004460078DFF81893C64DC0074FF00006A9
:1024D00048D0D9F800104846C1F38101012908D03D
:1024E0000068C0F3810002280AD1281D006840025C
:1024F00006D52868800335D5606800286FD031E0A4
:10250000DFF8E08208F1020888F80060FFF77AFD42
:10251000074604E0FFF776FDC01B64287ED82868D4
:102520008003F7D4207988F80000606868B1FFF76D
:1025300069FD074605E000BFFFF764FDC01B642886
:10254000ECD828688003F7D50CE0FFF75BFD074661
:1025500005E000BFFFF756FDC01B6428DED82868E1
:102560008003F7D42078A04F80074FF0010B46D5A9
:10257000D9F80010484611F00C0F4FF0F80A09D0B6
:102580000068C0F3810002280BD19548001F006845
:10259000400206D42868800715D5E06801281ED1BE
:1025A00011E0E068E0B1C7F800B0FFF72BFD80460E
:1025B00006E000BFFFF726FDA0EB08006428ADD8B9
:1025C00028688007F6D528689AFAAAF22169B2FA33
:1025D00082F220F0F8009140084328600FE0FCE010
:1025E0003E60FFF70FFD804606E000BFFFF70AFDE3
:1025F000A0EB0800642811D828688007F6D420785A
:10260000000729D5DFF8D8A1784861690AF16C0A7A
:1026100099B1C0F800B0FFF7F5FC00E086E0804615
:1026200006E000BFFFF7EEFCA0EB080064287DD8B1
:10263000DAF800008007F5D50EE00660FFF7E2FC4F
:10264000804605E0FFF7DEFCA0EB080064286DD8AB
:10265000DAF800008007F5D4207840075AD56048A2
:102660003830016841F0805101600068DFF880A1D6
:1026700000F080500090DAF8001041F48071CAF840
:102680000010FFF7BFFC804606E000BFFFF7BAFC72
:10269000A0EB0800642849D8DAF80000C005F5D599
:1026A000DFF83C8108F1680888F80060FFF7AAFCB1
:1026B00041F2883A009005E0FFF7A4FC0099411A26
:1026C000514533D8D8F800008007F5D4207A88F82F
:1026D0000000A06878B1FFF795FC009006E000BF0D
:1026E000FFF790FC0099411A51456ED8D8F80000C8
:1026F0008007F5D50EE0FFF785FC009006E000BFEF
:10270000FFF780FC0099411A51455ED8D8F80000C7
:102710008007F5D4A069E8B3D9F80010C1F38101AE
:1027200002295AD002283E6605D000E04DE0FFF7AE
:1027300069FC04464CE0FFF765FC064605E000BF77
:10274000FFF760FC801B64283FD828688001F7D41D
:10275000D4E90701084347F6C07292FAA2F2616A0F
:10276000B2FA82F29140A26A4FF0FF3303EB5202B9
:102770004FF4403393FAA3F3B3FA83F39A4011432F
:1027800008434FF0706292FAA2F2E16AB2FA82F262
:10279000914000E01FE008431149091F0860C7F895
:1027A00060B0FFF72FFC044605E000BFFFF72AFCEE
:1027B000001B642809D828688001F7D50BE000BF0A
:1027C000FFF720FC001B642802D90320BDE8F88F26
:1027D00028688001F4D40020F8E70120F6E7000023
:1027E000083802400038024000004742800E47424D
:1027F0000070004010B5401EB0F1807F01D3012071
:1028000010BD4FF0E02460610F21601700F0D5F992
:102810000020A06107202061002010BD08B590F8BD
:10282000381001290FD0012180F8381090F83910A4
:1028300012290AD090F8391022290BD090F83910BB
:1028400032290CD018E0022008BD01684A6942F024
:10285000800210E001680A684A68009208E0016896
:102860000A684A6800924A6942F080024A61016837
:102870004A6942F040024A61002180F83810084657
:1028800008BD10B504460068416921F0800141612E
:102890002068416921F040014161206B08B1FDF7DA
:1028A0008DFD606B08B1FDF789FD012084F83900CA
:1028B000002010BD7047000038B501680446086864
:1028C00010F0010FC86800F4807007D030B10868BC
:1028D00048680090E06B40F00100E06308684A69D6
:1028E000C0F3400002F0010238B132B10868486814
:1028F0000090E06B40F00400E0630868C0F38002E1
:10290000486900F001003AB130B1086848680090A9
:10291000E06B40F00200E0630868C0F3C002486961
:1029200000F001003AB130B1086848680090E06BEF
:1029300040F00800E0630868C968C0F3401001F087
:10294000200118B111B1204600F00AFA2168086888
:10295000C968C0F3C01001F0800118B111B1204660
:1029600000F00EFB21680868CA68C0F3801002F00E
:1029700040020125C0B1BAB1CA68204622F0400227
:10298000CA6094F83910322917D00168CA6822F455
:102990008072CA6001684A6922F001024A6180F8C7
:1029A000395000BF00F0CCF8E06B002804D084F868
:1029B00039502046FFF77EFF38BD222180F83910BC
:1029C000F0E770B5040004D094F83900002510B188
:1029D00006E0012070BD84F83850204600F020F851
:1029E000022084F839002068C16821F40051C160D8
:1029F000204600F009FA2068016921F49041016144
:102A00002068416921F02A0141612068C16841F4D0
:102A10000051C160E563012084F83900002070BDD9
:102A20007047000070B5044690F83900012801D0C5
:102A3000122832D169B362B394F8380001282CD03F
:102A4000012084F83800A162A2850025E56394F88E
:102A5000390012281FD0222084F83900636B1048F7
:102A6000D863636B0F481864636B0F48986408461B
:102A70001346666B216802463046091DFFF79CF934
:102A80002068416941F04001416184F838500020DC
:102A900070BD012070BD3220DEE7022070BD000055
:102AA000E92C00081F2D0008C92C0008704770474A
:102AB00070B5044690F83900012801D0222836D19B
:102AC00081B37AB394F83800012830D0012084F81B
:102AD00038002162A284E2840025E56394F839007D
:102AE000222822D05FF0120084F83900236B1148AD
:102AF000D863236B10481864236B104898642668C9
:102B00001346321D206BFFF757F921686FF0400024
:102B100008602068416941F08001416184F83850C3
:102B2000002070BDFFE70120FBE73220DCE7022038
:102B3000F7E70000292D0008572D0008C92C0008D0
:102B40007047704710B5044600684168C94389055D
:102B50000DD48068C043C00709D1204600F01EF89C
:102B6000012060742168C01E88600020207410BDA0
:102B700010B5027C012A0ED0012202740223437494
:102B800003681C6824F07F040C431C60427400211D
:102B90000174084610BD022010BD000010B57F2151
:102BA0000348FFF7E5FFBDE8104000F0FDBA000064
:102BB000D0010020FEE7FEE770470907090E002854
:102BC00006DA00F00F0000F1E02080F8141D7047D5
:102BD00000F1E02080F80014704710B501F042FCCD
:102BE000012801D001F098FABDE81040FFF710BAB3
:102BF00030B593B030216846FDF76FFB14210CA867
:102C0000FDF76BFB1948016841F0805101600068D5
:102C100000F0805011901648016841F44041016075
:102C20000068022400F440401190012000900190BF
:102C30008005CDE906400F250895D820CDE9090487
:102C400004200B906846FFF739FCFFF76BFA002071
:102C50000C95CDE90D404FF4A0500F90E00210907C
:102C600005210CA8FFF7A4FA13B030BD403802408C
:102C7000007000401048016841F4700101600F4885
:102C8000016841F0010101600C4A00210832116025
:102C900002680B4B1A400260031D0A4A1A60026860
:102CA00022F48022026005480C3001600249580677
:102CB000803908607047000088ED00E0003802406D
:102CC000FFFFF6FE1030002410B5806B0021C18597
:102CD000C184012180F83910C16B41F01001C1633A
:102CE000FFF7E8FD10BD000010B50146806B0968D4
:102CF0000968C9050ED40021C18501684A6922F01E
:102D000040024A6190F83910322906D05FF0010183
:102D100080F83910FFF7CAFE10BD1221F8E710B590
:102D2000806BFFF7C4FE10BD10B50146806B0968CB
:102D30000968C9050CD40021C18401684A6922F0E0
:102D400080024A610068C16841F04001C16010BD65
:102D5000FFF7F6FE10BD10B5806BFFF7F2FE10BD59
:102D600010B590F83910222903D0322901D0022061
:102D700010BD8168B1F5805F11D00169002901683B
:102D80001FD0496801F07F03816A4A1C82620B7080
:102D9000C18D491E0904090CC18518D030E00269B3
:102DA000816A002A0268526805D0D2B20A80816A1C
:102DB000491C8162ECE7C2F308020A80816A891C1F
:102DC000F7E74A68816A4B1C83620A70E0E7016892
:102DD000CA6822F02002CA6090F83910322911D056
:102DE0000168CA6822F48072CA6001684A6922F0E8
:102DF00001024A615FF0010180F83910FFF756FEC9
:102E0000002010BD1221F7E72DE9F04101680446CA
:102E1000086920F44052E068104308612268D068D5
:102E200049F20C6188432369A168E5691943636924
:102E30002B4319430143D1602168486920F4407253
:102E4000A06910434861E26964263225B2F5004F5B
:102E500049494A4822681DD0824201D08A426AD13B
:102E6000FFF7DCFA00EBC00101EB00106168B0462F
:102E70008900B0FBF1F1B1FBF8F6FFF7CFFA00EBF8
:102E8000C00101EB001061688900B0FBF1F7FFF7AA
:102E9000C5FA69E0824201D08A4219D1FFF7BEFA31
:102EA00000EBC00101EB00106168B0464900B0FBC7
:102EB000F1F1B1FBF8F6FFF7B1FA00EBC00101EB5D
:102EC000001061684900B0FBF1F7FFF7A7FA18E0BE
:102ED000FFF78EFA00EBC00101EB00106168B0460D
:102EE0004900B0FBF1F1B1FBF8F6FFF781FA00EB16
:102EF000C00101EB001061684900B0FBF1F7FFF77A
:102F000077FA00EBC00101EB001061685FEA410154
:102F1000B0FBF1F1B1FBF8F06FF01801484307EB9B
:102F2000800005EB0011B1FBF8F0216866F31F107B
:102F30008860BDE8F081FFF75BFA00EBC00101EBB0
:102F400000106168B0468900B0FBF1F1B1FBF8F602
:102F5000FFF74EFA00EBC00101EB00106168890039
:102F6000B0FBF1F7FFF744FA00EBC00101EB0010F2
:102F700061688900CCE700000014014000100140A6
:102F800090F83910122903D0322901D0022070475D
:102F90008168B1F5805F016A0BD04A1C0262026849
:102FA00009785160C18C491E0904090CC1840ED0F6
:102FB00017E009880268C1F308015160016900291E
:102FC000016A02D0491C0162ECE7891CFBE7016839
:102FD000CA6822F08002CA600068C16841F04001FE
:102FE000C16000207047000038B51248FFF764FC4C
:102FF000104800680168C943C90619D401684068CF
:1030000000900C48FFF73DFC0B4800684068094CF5
:103010004042403484F800010648FFF7FFFB4FF4BC
:10302000807221460348FFF7FDFC012084F801016E
:1030300038BD00008C00002034020020FEE70000B4
:103040000148FFF77FBD0000D001002002E008C862
:10305000121F08C1002AFAD170477047002001E012
:1030600001C1121F002AFBD1704770B5054600242C
:103070004FF47A7603E0304600F004F8641CAC426A
:10308000F9D370BD70B54FF0E02400226569B4211A
:103090004843A169A3698B42FCD002D2A1EB030192
:1030A00002E0A5EB030631440A4419468242F1D3FB
:1030B00070BD0000002500F0E9FC00F0AFFC4FF40B
:1030C000E13000F01DFD4FF4807842461649174864
:1030D000FFF7A8FC144C4FF4FA77002602E0002515
:1030E00000F04CF894F80101012815D184F8016131
:1030F00094F800210C490D48FFF7DAFC94F8001110
:103100000948FDF7EAF884F8006100F04DF84246FE
:1031100005490648FFF786FC01206D1C00F048FEBB
:10312000BD42DFD1DBE70000CC0000208C00002096
:103130001CB505490220CDE900010202002303A1CC
:10314000054801F061F91CBD88000020646D615FD5
:103150007461736B00000000B53000080122114655
:103160000148FEF749BF000000040240002201218F
:103170000148FEF741BF0000000402400121014860
:10318000FEF736BF00040240012202210148FEF78B
:1031900033BF000000040240002202210148FEF774
:1031A0002BBF00000004024002210148FEF720BFAF
:1031B0000004024070B5124886B0016841F0020177
:1031C00001600068012400F002000E4E0094032507
:1031D0000590019469463046CDE90245FEF722FE8E
:1031E0000220CDE9000469463046CDE90245FEF7EC
:1031F00019FEFFF7B3FFFFF7C7FF06B070BD000071
:1032000030380240000402401CB5FEF709FFFFF70A
:10321000EFFCFFF7CFFF09490120CDE900010023B2
:10322000802207A1094801F0EFF800F08DFE4FF46D
:10323000FA742046FFF719FFFBE7000000000020AA
:1032400073746172745F7461736B0000013A0008FB
:103250002DE9F0411E4C0F460546E6682068001D2A
:1032600000F09EFC38B9206890F82C1001208840AE
:10327000216981432161681C15D1A7B115492268D4
:103280004868906023688268DA6022688368121D4B
:103290005A602268121D8260206841610868401CE3
:1032A0000860BDE8F08120683544B542456021687A
:1032B00005D2E06BBDE8F041091D00F092BCA06BA7
:1032C000091D00F08EFCA06A8542EAD2A562E8E7FB
:1032D0000C000020780300202DE9F041054600F0A5
:1032E000A5FC364CA068401CA0602068344F10B18B
:1032F000606940B32DE02560A068012829D100262F
:1033000006EB860007EB800000F05DFC761C052EC6
:10331000F6D32B48643000F056FC2948783000F092
:1033200052FC27488C3000F04EFC2548A03000F0BD
:103330004AFC2348B43000F046FC21486430A063C6
:103340001430E06305E02068E96AC06A884200D86A
:103350002560606A401C60622864E96A0120226975
:1033600088401043206101EB810007EB800040683A
:10337000A8608168E9608268291D51608160E86AFF
:1033800000EB800007EB8001696157F82010491CB1
:1033900047F8201000F06AFC606900280CD0206813
:1033A000E96AC06A884207D206494FF08050086037
:1033B000BFF34F8FBFF36F8FBDE8F0810C0000208B
:1033C000C402002004ED00E010B500F02FFC0E4C0C
:1033D0002068A0B90D4800F0F6FB0C48143000F04E
:1033E000F2FB0A48E0601430206100220C210A2020
:1033F00000F0A8FE206010B105A100F08FFCBDE830
:10340000104000F033BC00004C0000208C03002072
:10341000546D72510000000030B4026C0B46002A5B
:103420000BD0C1681144C1608468A14201D3016816
:10343000C16030BC1846FCF737BF30BC704710B5D0
:103440000446006B00F026FC2046BDE8104000F06A
:1034500021BC00000E484FF49631420706D0C01D33
:103460000B4920F00700411AC1F59631094A0023A3
:103470000144C2E900030839143A21F00701116040
:103480004B600B600B1AC0E90013936053607047E8
:10349000B403002074000020144E154CA6F1A007C0
:1034A0004FF08058DFF84C9012E000BF00F0BEFBF8
:1034B000F068C568281D00F073FBA068401EA0607E
:1034C0006068401E606000F0D1FB2846FFF7B7FF40
:1034D00060680028EAD138680128F9D9C9F8008065
:1034E000BFF34F8FBFF36F8FF2E70000640300203C
:1034F0000C00002004ED00E02DE9F0470D46DDE969
:1035000009841746824691009946089EA522206BA1
:10351000FCF7DCFE6FF00301206B01EB8701084430
:1035200020F00707780707D0502080F31188BFF3F9
:103530004F8FBFF36F8FFEE765B100202218295C23
:1035400082F83410295C11B1401C0A28F6D30020FF
:1035500084F83D00052E07D3502080F31188BFF377
:103560004F8FBFF36F8FFEE7E662201DA66400F069
:1035700035FB04F1180000F031FB2461C6F10500B1
:103580006462A0614A465146384600F023FA206042
:10359000B8F1000F01D0C8F80040BDE8F087000086
:1035A00030B5114900E011460A688242FBD34B68EE
:1035B0005C18844203D14068184448600846436858
:1035C0001C18944209D1084C143C2468A24209D02A
:1035D00052681A4442600A6812680260814200D050
:1035E000086030BD0460F9E77400002070B5002465
:1035F00041600B4D0061914206D8D11A8269914217
:1036000006D2011D286907E09A4203D2994201D3EC
:10361000012403E0011DE86800F0E3FA204670BDD4
:103620004C00002010B5044600F000FBA06B28B150
:103630005FF0000400F01AFB204610BD0124F9E7FA
:1036400070B506460D480D46C068C068C468201DA8
:1036500000F0A6FA94F82800410705D52A4631461D
:10366000204600F0B5F803E000F0FE0084F82800E2
:103670002046216ABDE87040084700004C00002049
:103680007FB5374E63E00098002860DB029C6069DC
:1036900010B1201D00F084FA03A800F0BBF8054625
:1036A00000980A2853D2DFE800F0520505282E467C
:1036B0000505282E94F828002A4640F0010084F8D9
:1036C00028000199A069019B01442046FFF78EFF65
:1036D00040B394F82800410707D50198A1692A460C
:1036E0000144204600F074F803E000F0FE0084F886
:1036F0002800216A2046884729E014F8280F00F0A6
:10370000FE00207023E094F8280040F0010084F8C7
:1037100028000198A06130B141192B461A46204675
:10372000FFF764FF13E0502080F31188BFF34F8F41
:10373000BFF36F8FFEE794F82800810703D420467B
:1037400000F0A8FA03E000F0FE0084F82800002250
:103750006946306800F07EFD002894D17FBD0000EE
:103760004C000020F8B50D46064600F025FC6846E2
:1037700000F050F80446009810B100F091FFF8BD39
:103780001148ADB101690968D9B10025311B2A463C
:10379000006800F0EBFA00F083FF0028EFD10B493E
:1037A0004FF080500860BFF34F8FBFF36F8FF8BDAD
:1037B000A642EBD800F074FF21463046FFF740FFE9
:1037C000F8BD0125E2E700004C00002004ED00E018
:1037D00070B516460C46054604E0A869296A0444FB
:1037E00028468847A8692346011932462846FFF72C
:1037F000FDFE0028F1D170BD0548816B096821B13B
:10380000816BC9680968816270474FF0FF31FAE740
:103810000C0000202DE9F041064600F031FE0E4C70
:103820000546A068854214D24FF0FF3704E0C06817
:1038300039460068FFF704FFE06801680029F6D107
:103840002169C4E90310012030602846A560BDE865
:10385000F0810020F8E700004C0000200848406894
:10386000401C4FF0500080F3118804D0BFF34F8FFD
:10387000BFF36F8FFEE7BFF34F8FBFF36F8FFEE78E
:103880007C000020074CE068016841B1C06800215D
:10389000D0F80000FFF766FFFFF7F2FEF3E7012123
:1038A0000020F7E74C0000202DE9F041044600F02D
:1038B000BDF994F9455004F1240609E0606A48B165
:1038C000304600F07FFE08B100F0F8FA6D1E6DB2D0
:1038D000002DF3DC4FF0FF3684F8456000F0C6F9A8
:1038E00000F0A4F994F9445004F1100709E02069AC
:1038F00048B1384600F066FE08B100F0DFFA6D1EF0
:103900006DB2002DF3DC84F84460BDE8F04100F0B6
:10391000ADB9000070B50446002600F04DFB2C4DFB
:10392000286808B9FFF796FD7CB304F00700C0F1E2
:103930001000C1438C423DD8211800293ADD686847
:10394000814237D8224814300246146801E02046EC
:10395000144662688A4202D22268002AF7D12A6895
:10396000944227D006682268026060680836421ACE
:10397000102A0FD96018430708D0502080F311880F
:10398000BFF34F8FBFF36F8FFEE713E042606160BC
:10399000FFF706FE61686868401A6860AA6890428E
:1039A00000D2A86041F00040606000202060E8681C
:1039B000401CE86000F074FE700707D0502080F3D0
:1039C0001188BFF34F8FBFF36F8FFEE7304670BD96
:1039D0006000002010B5031F4FF080741C601B1F97
:1039E00021F001011960191F044B0B6014390A60A2
:1039F000091F6FF0020244380A6010BD5D380008EC
:103A000010B500F013F900F007F8002000F0F6F907
:103A1000BDE8104000F02AB9FFF78ABB38B5174857
:103A2000016841F4800101600068164C00F48000D8
:103A30000090134820604FF0006060600020A0609C
:103A40006062E062A061E0614FF480612063C4E9DC
:103A50000410E060880120622046FCF7D9FC204673
:103A6000FEF772F9002203214420FEF729FB4420CF
:103A7000FEF71AFB04484463A06338BD30380240A7
:103A800088640240340200208C00002038B51848B9
:103A9000016841F4800101600068174C00F4800067
:103AA0000090144820604FF0006060604020A060EB
:103AB00000206062E062A061E0614FF480612063F9
:103AC000C4E9030160614FF4403020622046FCF7F6
:103AD0009FFC2046FEF738F9002202214620FEF71F
:103AE000EFFA4620FEF7E0FA04480463A06338BD0D
:103AF00030380240B8640240E40100208C0000200D
:103B000030B5234987B00A6842F010020A6009689C
:103B100001F0100105911E4914390A6842F00102B2
:103B20000A6009681C4C01F0010105911949C4E9BA
:103B3000001000200C21C4E90510E0612061E06064
:103B4000A0602046FEF73DFF072004900220019070
:103B500000020090012002900320104D039069465E
:103B60002846FEF75FF92815009069462846FEF7BB
:103B700059F92068C16841F01001C1600022032199
:103B80002520FEF79DFA2520FEF78EFA07B030BDFE
:103B900044380240001001408C0000200000024028
:103BA000D0E9013201699A60D0E901235A604A687C
:103BB000824201D182684A60002202610868401E88
:103BC00008600868704700F108014FF0FF32C0E953
:103BD0000112C16001610021016070470021016193
:103BE000704730B50B685A1C02D000F1080202E0A1
:103BF000026904E02246546825689D42FAD9536858
:103C00004B6099608A60516008610168491C0160DD
:103C100030BD42684A6093688B60936859609160D8
:103C200008610168491C016070470000502080F362
:103C30001188BFF34F8FBFF36F8F0A494868401C4C
:103C4000486001280CD10848006810F0FF0F07D029
:103C5000502080F31188BFF34F8FBFF36F8FFEE7C3
:103C6000704700007C00002004ED00E0084948682F
:103C700028B1401E486001D180F311887047502060
:103C800080F31188BFF34F8FBFF36F8FFEE7000003
:103C90007C00002070B500282AD0A0F108046068DC
:103CA000002807DB502080F31188BFF34F8FBFF34C
:103CB0006F8FFEE7216839B1502080F31188BFF380
:103CC0004F8FBFF36F8FFEE720F00040606000F081
:103CD00073F9084D60686968084468602046FFF71A
:103CE0005FFC2869401C2861BDE8704000F0D8BC2A
:103CF00070BD0000600000204FF0E0200021016155
:103D0000816105494FF47A720968B1FBF2F1491EED
:103D100041610721016170470800002070B5002251
:103D200060B100291ED0104C002300BF04EBC30576
:103D30006E6886420AD104EBC3020FE0502080F384
:103D40001188BFF34F8FBFF36F8FFEE71AB954F896
:103D5000336006B92A465B1C082BE7D3002A01D042
:103D6000C2E9001070BD00008402002070B5154645
:103D70000E460446FFF75AFF94F944100020491CF0
:103D800001D184F8440094F94510491C01D184F80C
:103D90004500FFF76BFFA06B28B92A46314604F1B6
:103DA000240000F0A9F82046BDE87040FFF77CBD74
:103DB00010B5020014D00F48406B38B1502080F38A
:103DC0001188BFF34F8FBFF36F8FFEE700F0F4F859
:103DD00000211046FFF73CFA00F062FC002807D1F2
:103DE00005494FF080500860BFF34F8FBFF36F8FCE
:103DF00010BD00000C00002004ED00E070B5054689
:103E0000FFF714FF264C05B92568281DFFF7C8FEEB
:103E100058B9E86A234A00EB800152F8211021B911
:103E200001218140206988432061A86A18B105F109
:103E30001800FFF7B5FE606A401C6062206885428A
:103E400008D11848291DA030FFF7E3FE6068401C28
:103E5000606004E0A068401EA060FFF7CDFCFFF7A3
:103E600005FF2068854202D02846FFF7E8FA60691E
:103E7000002814D02068854211D1606B38B15020E1
:103E800080F31188BFF34F8FBFF36F8FFEE70649B2
:103E90004FF080500860BFF34F8FBFF36F8F70BD3E
:103EA0000C000020C402002004ED00E002490A6A70
:103EB0000260C968416070470C0000200149012080
:103EC000C86170470C00002010B50C4650B109497C
:103ED00009681831FFF785FE2046BDE81040012132
:103EE000FFF7B6B9502080F31188BFF34F8FBFF3AF
:103EF0006F8FFEE70C000020F0B40C46D0B11149E2
:103F000043680D68EB619D680E6835620D689E68B8
:103F1000183575600D6818359D60096888620168FC
:103F2000491C01600AB14FF0FF342046F0BC114635
:103F3000FFF78EB9502080F31188BFF34F8FBFF386
:103F40006F8FFEE70C0000207CB517480025CDE9F7
:103F500000502B46822215A1164800F055FA124C4B
:103F60002C3C012803D100F031FC012802D0401C78
:103F700011D00EE0502080F31188BFF34F8FBFF3B4
:103F80006F8F4FF0FF30A06201206061E56000F0AC
:103F900049F8206B7CBD502080F31188BFF34F8F10
:103FA000BFF36F8FFEE700003800002049444C4506
:103FB00000000000993400080248416B491C41632D
:103FC000704700000C0000201448416B11B1012122
:103FD000C16170470021C1610169B1FA81F1C1F18C
:103FE0001F0101EB81020E4951F822306BB101EB48
:103FF000820101F108034A6852684A609A4201D17D
:1040000052684A60D16801607047502080F311887F
:10401000BFF34F8FBFF36F8FFEE700000C0000204F
:10402000C40200201CB537480168374A914207D1C5
:10403000502080F31188BFF34F8FBFF36F8FFEE7DF
:1040400000683149491E884207D1502080F3118809
:10405000BFF34F8FBFF36F8FFEE72C4908780190B5
:10406000FF20087008788DF800009DF800009DF88A
:10407000002000F0F000904207D0502080F311881B
:10408000BFF34F8FBFF36F8FFEE79DF80000204C0A
:1040900000F0500020700720A06005E09DF800208F
:1040A00052008DF80020401E9DF800201206F5D425
:1040B000A060032807D0502080F31188BFF34F8FF2
:1040C000BFF36F8FFEE74FF44070A0600198087057
:1040D0000C482030016841F470010160016841F032
:1040E00070410160FFF708FE00206060FCF78EF869
:1040F0000848016841F040410160FCF773F8002076
:104100001CBD000000ED00E071C20F4100E400E0C2
:104110007C00002034EF00E010B5502080F31188BF
:10412000BFF34F8FBFF36F8F00F0B0F918B10449A0
:104130004FF080500860002080F3118810BD00000F
:1041400004ED00E02DE9F04117460E46050020D0B1
:104150004FF0FF30B0FBF5F0B0421AD305FB06F08C
:1041600010F1510F15D85030FFF7D4FB04000CD0DC
:1041700004F150005EB12060C4E90F5620460121D1
:1041800000F010F8204684F84C70BDE8F0812460FF
:10419000F2E7502080F31188BFF34F8FBFF36F8F8A
:1041A000FEE700002DE9F0410F4604004FF0010644
:1041B0002DD0E06B98B3B51EB5FBF0F1206C8142B9
:1041C0003ED3FFF733FDD4E90F20216802FB001135
:1041D000A1600021A163216861600A46D4E90F0152
:1041E000401E00FB01212046E16000F8445F45705D
:1041F00004F11000A7B1FFF7E6FC04F12400FFF77B
:10420000E2FC00BFFFF732FD3046BDE8F0815020F0
:1042100080F31188BFF34F8FBFF36F8FFEE70FE07E
:1042200021690029EED000F0CDF90028EAD0084934
:104230004FF080500860BFF34F8FBFF36F8FE1E7FF
:10424000502080F31188BFF34F8FBFF36F8FFEE7CD
:1042500004ED00E02DE9F747002683B08A4604000C
:1042600003D0BAF1000F08D011E0502080F311887C
:10427000BFF34F8FBFF36F8FFEE7206C38B1502034
:1042800080F31188BFF34F8FBFF36F8FFEE700F00D
:10429000E9F8DFF8F4804FF000094FF0805748B993
:1042A000059838B1502080F31188BFF34F8FBFF3CA
:1042B0006F8FFEE7FFF7BAFCA56BC5B151462046EC
:1042C000FFF7AAF86D1EA563206950B104F1100034
:1042D00000F078F928B1C8F80070BFF34F8FBFF332
:1042E0006F8FFFF7C3FC012006B0BDE8F08705988B
:1042F00008B11EB106E0FFF7B9FC27E06846FFF7FA
:10430000D5FD0126FFF7B2FCFFF756FEFFF78EFC46
:1043100094F94400401C01D184F8449094F945007C
:10432000401C01D184F84590FFF7A0FC05A9684620
:1043300000F02CF8002820460AD0FFF7B5FA00F06C
:10434000AFF92046FFF76EF90028B3D00020CBE785
:10435000FFF768F990B104F124000599FFF7B4FD67
:104360002046FFF7A1FA00F09BF90028A2D1C8F877
:104370000070BFF34F8FBFF36F8F9BE72046FFF7AF
:1043800093FA00F08DF995E704ED00E02DE9F04196
:104390000C46050014D0DCB1FFF748FC194EF2685A
:1043A0006B682068D11A471C1AD02F68D6F820C035
:1043B0000026674516D0934214D8012526601BE0DD
:1043C000502080F31188BFF34F8FBFF36F8FFEE74C
:1043D000502080F31188BFF34F8FBFF36F8FFEE73C
:1043E000002509E0884205D9401A20602846FFF7D9
:1043F0005DFDF5E701252660FFF738FC2846BDE89E
:10440000F08100000C0000202DE9FF5F8346DDE90C
:104410000E87994616468A469000FFF77BFA0500FC
:104420001DD05820FFF776FA040015D05821FBF76D
:1044300054FF25630021CDE90241CDE900874B46B9
:10444000324651465846FFF757F82046FEF744FFDC
:10445000012004B0BDE8F09F2846FFF71BFC4FF099
:10446000FF30F6E70548416919B1406B18B10020EB
:104470007047012070470220704700000C000020A8
:104480000148C068704700000C0000202DE9F04191
:104490004A4C0026606B28B1A069401CA0613046E0
:1044A000BDE8F081E5686D1CE56013D1A06B006884
:1044B00038B1502080F31188BFF34F8FBFF36F8F57
:1044C000FEE7A06BE16BA163E063206A401C206201
:1044D000FFF792F9A16A3A488D420FD34FF0000ED0
:1044E000A16B096839B1A16BC968C9684A6895426E
:1044F00012D2A26202E04FF0FF31A1622168C96AC4
:1045000001EB810150F82100012800D90126E06962
:104510000028C4D00126C2E7D1E902724B69BA6013
:10452000D1E902277A605F680A1D974201D1CF68FE
:104530005F60C1F814E01F687F1E1F60D1F828C0BB
:10454000BCF1000F15D0D1E907379F60D1E90737DB
:104550007B60DCF8047001F118039F4202D10B6A02
:10456000CCF80430C1F828E0DCF800305B1ECCF851
:104570000030CB6A0127D4F810C09F4047EA0C07EF
:10458000276103EB830300EB83035B688B609F6809
:10459000CF609F687A609A60CA6A02EB820200EB81
:1045A00082034B6150F822305B1C40F82230C96A0C
:1045B0002268D26A914293D9012691E70C0000202B
:1045C000C402002070B5C068C06850B3D0E907329B
:1045D000816A9A60D0E907235A604A6800F118039B
:1045E0009A4201D1026A4A60002585620A68521E19
:1045F0000A6029494A6B0124DAB1284D6A68C26110
:104600009668066296687360936085622A68521C99
:104610002A60C06A0A68D26A90423AD90120CC6105
:1046200070BD502080F31188BFF34F8FBFF36F8FA1
:10463000FEE7D0E902634269B360D0E902367360F5
:104640005668031D9E4201D1C668566045611568D3
:104650006D1E1560C26A0E6904FA02F535430D61DC
:104660000E4D02EB82028C3D05EB820252688260A5
:104670009668C660966873609360C26A02EB8202B5
:1046800005EB8203436155F822305B1C45F822306C
:10469000BFE7002070BD00000C0000205003002088
:1046A0002DE9F041464D00242746686B38B1FFF7ED
:1046B000BDFA686B401E6863686B40B17AE05020B9
:1046C00080F31188BFF34F8FBFF36F8FFEE7A868A9
:1046D0003C4B00264FF00108F0BB6BE0D868C46883
:1046E000D4E90721A06A9160D4E9071251604268B9
:1046F00004F118018A4201D1216A4160A662016871
:10470000491E0160D4E9022160699160D4E9021276
:1047100051604268211D8A4201D1E26842606661AF
:104720000268521E0260E26AD5F810C008FA02F070
:1047300040EA0C00286102EB8200224A8C3A02EB2C
:1047400080004068A060D0F808C0C4F80CC0D0F861
:1047500008C0CCF8041000E012E08160E06A00EBD1
:10476000800002EB8001616152F82010491C42F880
:104770002010E06A2968C96A884201D3C5F81C8004
:1047800018680028AAD10CB1FFF736F8AC693CB123
:10479000FFF77CFE08B1C5F81C80641EF8D1AE613D
:1047A000E86938B10849012738070860BFF34F8F1F
:1047B000BFF36F8FFFF75AFA3846BDE8F08100006B
:1047C0000C0000205003002004ED00E01CB5FEF7B3
:1047D000FBFD0D48006868B10B490220091DCDE9B9
:1047E000000100234FF4827208A10A48FFF70CFE73
:1047F000002807D1502080F31188BFF34F8FBFF3FB
:104800006F8FFEE71CBD00004C000020546D72202D
:10481000537663008538000800000000010203049D
:1048200001020304060708094848000800000020A8
:104830008C0000004C300008D44800088C00002098
:104840002C3301005C300008000000000000000074
:104850000024F40000000000000000000000000040
:104860000000000000000000000000000000000048
:104870000000000000000000000000000000000038
:104880000000000004000000000000000000000024
:104890000000000000000000000000000000000018
:1048A0000000000000000000000000000000000008
:1048B00000000000000000000000000000000000F8
:1048C0000000000000000000AAAAAAAA0000000040
:0448D00000000000E4
:04000005080001AD41
:00000001FF
