:020000040800F2
:1000000000000320D1160008951400089B14000876
:10001000A1140008A7140008AD1400080000000097
:100020000000000000000000000000000136000891
:10003000B31400080000000051380008C114000883
:1000400021170008211700082117000821170008B0
:1000500021170008211700082117000821170008A0
:100060002117000821170008211700082117000890
:100070002117000821170008211700082117000880
:100080002117000821170008211700082117000870
:100090002117000821170008211700082117000860
:1000A0002117000821170008211700082117000850
:1000B00021170008955C0008211700082117000887
:1000C0002117000821170008211700082117000830
:1000D00021170008A95D0008211700082117000852
:1000E0002117000821170008211700082117000810
:1000F0002117000821170008211700082117000800
:1001000021170008211700082117000821170008EF
:1001100021170008211700082117000821170008DF
:1001200021170008211700082117000821170008CF
:1001300021170008211700082117000821170008BF
:1001400021170008211700082117000821170008AF
:10015000211700082117000821170008211700089F
:10016000211700082117000821170008211700088F
:1001700021170008211700082117000800000000BF
:10018000211700082117000821170008211700086F
:10019000211700082117000821170008211700085F
:0C01A00021170008211700082117000893
:1001C00010B5054C237833B9044B13B10448AFF391
:1001D00000800123237010BDB8090020000000003A
:1001E000F4BE000808B5034B1BB103490348AFF345
:1001F000008008BD00000000BC090020F4BE00081B
:1002000081F0004102E000BF83F0004330B54FEAC7
:1002100041044FEA430594EA050F08BF90EA020F34
:100220001FBF54EA000C55EA020C7FEA645C7FEAC7
:10023000655C00F0E2804FEA5454D4EB5555B8BFEA
:100240006D420CDD2C4480EA020281EA030382EA5B
:10025000000083EA010180EA020281EA0303362DED
:1002600088BF30BD11F0004F4FEA01314FF4801CC0
:100270004CEA113102D0404261EB410113F0004FD2
:100280004FEA03334CEA133302D0524263EB430389
:1002900094EA050F00F0A780A4F10104D5F1200E27
:1002A0000DDB02FA0EFC22FA05F2801841F1000182
:1002B00003FA0EF2801843FA05F359410EE0A5F156
:1002C00020050EF1200E012A03FA0EFC28BF4CF087
:1002D000020C43FA05F3C01851EBE37101F000453D
:1002E00007D54FF0000EDCF1000C7EEB00006EEB4A
:1002F0000101B1F5801F1BD3B1F5001F0CD34908D4
:100300005FEA30004FEA3C0C04F101044FEA44522A
:1003100012F5800F80F09A80BCF1004F08BF5FEAB1
:10032000500C50F1000041EB045141EA050130BD91
:100330005FEA4C0C404141EB0101013C28BFB1F5A3
:10034000801FE9D291F0000F04BF01460020B1FAEE
:1003500081F308BF2033A3F10B03B3F120020CDAC1
:100360000C3208DD02F1140CC2F10C0201FA0CF09F
:1003700021FA02F10CE002F11402D8BFC2F1200C04
:1003800001FA02F120FA0CFCDCBF41EA0C019040BA
:10039000E41AA2BF01EB0451294330BD6FEA040403
:1003A0001F3C1CDA0C340EDC04F11404C4F12002EE
:1003B00020FA04F001FA02F340EA030021FA04F300
:1003C00045EA030130BDC4F10C04C4F1200220FA57
:1003D00002F001FA04F340EA0300294630BD21FA95
:1003E00004F0294630BD94F0000F83F4801306BF5B
:1003F00081F480110134013D4EE77FEA645C18BF4F
:100400007FEA655C29D094EA050F08BF90EA020FE5
:1004100005D054EA000C04BF1946104630BD91EADD
:10042000030F1EBF0021002030BD5FEA545C05D1E0
:100430004000494128BF41F0004130BD14F580041F
:100440003CBF01F5801130BD01F0004545F0FE4193
:1004500041F470014FF0000030BD7FEA645C1ABFC8
:10046000194610467FEA655C1CBF0B46024650EAFF
:10047000013406BF52EA033591EA030F41F400212B
:1004800030BD00BF90F0000F04BF0021704730B5B1
:100490004FF4806404F132044FF000054FF0000186
:1004A00050E700BF90F0000F04BF0021704730B547
:1004B0004FF4806404F1320410F0004548BF40421C
:1004C0004FF000013EE700BF42004FEAE2014FEA71
:1004D00031014FEA02701FBF12F07F4393F07F4F4C
:1004E00081F06051704732F07F4208BF704793F04F
:1004F0007F4F04BF41F40021704730B54FF4607462
:1005000001F0004521F000411CE700BF50EA010264
:1005100008BF704730B54FF000050AE050EA01020D
:1005200008BF704730B511F0004502D5404261EB7D
:1005300041014FF4806404F132045FEA915C3FF4BE
:10054000D8AE4FF003025FEADC0C18BF03325FEA5B
:10055000DC0C18BF033202EBDC02C2F1200300FA0C
:1005600003FC20FA02F001FA03FE40EA0E0021FA31
:1005700002F11444BDE600BF70B54FF0FF0C4CF41F
:10058000E06C1CEA11541DBF1CEA135594EA0C0FD1
:1005900095EA0C0F00F0DEF82C4481EA030621EA0C
:1005A0004C5123EA4C5350EA013518BF52EA033547
:1005B00041F4801143F4801338D0A0FB02CE4FF0F9
:1005C0000005E1FB02E506F00042E0FB03E54FF029
:1005D0000006E1FB03569CF0000F18BF4EF0010E21
:1005E000A4F1FF04B6F5007F64F5407404D25FEA1D
:1005F0004E0E6D4146EB060642EAC62141EA5551D0
:100600004FEAC52040EA5E504FEACE2EB4F1FD0C11
:1006100088BFBCF5E06F1ED8BEF1004F08BF5FEA8F
:10062000500E50F1000041EB045170BD06F0004641
:1006300046EA010140EA020081EA0301B4EB5C04EE
:10064000C2BFD4EB0C0541EA045170BD41F48011E6
:100650004FF0000E013C00F3AB8014F1360FDEBF0B
:10066000002001F0004170BDC4F10004203C35DAE7
:100670000C341BDC04F11404C4F1200500FA05F36A
:1006800020FA04F001FA05F240EA020001F000420B
:1006900021F0004110EBD37021FA04F642EB060181
:1006A0005EEA430E08BF20EAD37070BDC4F10C04AB
:1006B000C4F1200500FA04F320FA05F001FA04F26F
:1006C00040EA020001F0004110EBD37041F100015B
:1006D0005EEA430E08BF20EAD37070BDC4F1200566
:1006E00000FA05F24EEA020E20FA04F301FA05F2CE
:1006F00043EA020321FA04F001F0004121FA04F276
:1007000020EA020000EBD3705EEA430E08BF20EA45
:10071000D37070BD94F0000F0FD101F0004640007F
:1007200041EB010111F4801F08BF013CF7D041EA01
:10073000060195F0000F18BF704703F00046520005
:1007400043EB030313F4801F08BF013DF7D043EAD6
:100750000603704794EA0C0F0CEA135518BF95EA8C
:100760000C0F0CD050EA410618BF52EA4306D1D113
:1007700081EA030101F000414FF0000070BD50EA32
:10078000410606BF1046194652EA430619D094EABC
:100790000C0F02D150EA013613D195EA0C0F05D1A6
:1007A00052EA03361CBF104619460AD181EA0301FA
:1007B00001F0004141F0FE4141F470014FF00000B2
:1007C00070BD41F0FE4141F4780170BD70B54FF04D
:1007D000FF0C4CF4E06C1CEA11541DBF1CEA1355CD
:1007E00094EA0C0F95EA0C0F00F0A7F8A4EB0504AF
:1007F00081EA030E52EA03354FEA013100F08880A6
:100800004FEA03334FF0805545EA131343EA12636E
:100810004FEA022245EA111545EA10654FEA002623
:100820000EF000419D4208BF964244F1FD0404F5DC
:10083000407402D25B084FEA3202B61A65EB030538
:100840005B084FEA32024FF480104FF4002CB6EBF5
:10085000020E75EB030E22BFB61A754640EA0C0075
:100860005B084FEA3202B6EB020E75EB030E22BFB5
:10087000B61A754640EA5C005B084FEA3202B6EBF6
:10088000020E75EB030E22BFB61A754640EA9C00B5
:100890005B084FEA3202B6EB020E75EB030E22BF85
:1008A000B61A754640EADC0055EA060E18D04FEA43
:1008B000051545EA16754FEA06164FEAC30343EAE3
:1008C00052734FEAC2025FEA1C1CC0D111F4801FB0
:1008D0000BD141EA00014FF000004FF0004CB6E7A9
:1008E00011F4801F04BF01430020B4F1FD0C88BF48
:1008F000BCF5E06F3FF6AFAEB5EB030C04BFB6EB53
:10090000020C5FEA500C50F1000041EB045170BD45
:100910000EF0004E4EEA113114EB5C04C2BFD4EB72
:100920000C0541EA045170BD41F480114FF0000EF6
:10093000013C90E645EA060E8DE60CEA135594EA72
:100940000C0F08BF95EA0C0F3FF43BAF94EA0C0F75
:100950000AD150EA01347FF434AF95EA0C0F7FF4EA
:1009600025AF104619462CE795EA0C0F06D152EA3E
:1009700003353FF4FDAE1046194622E750EA410622
:1009800018BF52EA43067FF4C5AE50EA41047FF433
:100990000DAF52EA43057FF4EBAE12E7844641EA1D
:1009A000000313F003036DD1403A41D351F8043BE7
:1009B00040F8043B51F8043B40F8043B51F8043B39
:1009C00040F8043B51F8043B40F8043B51F8043B29
:1009D00040F8043B51F8043B40F8043B51F8043B19
:1009E00040F8043B51F8043B40F8043B51F8043B09
:1009F00040F8043B51F8043B40F8043B51F8043BF9
:100A000040F8043B51F8043B40F8043B51F8043BE8
:100A100040F8043B51F8043B40F8043B51F8043BD8
:100A200040F8043B51F8043B40F8043B403ABDD247
:100A3000303211D351F8043B40F8043B51F8043BE9
:100A400040F8043B51F8043B40F8043B51F8043BA8
:100A500040F8043B103AEDD20C3205D351F8043B78
:100A600040F8043B043AF9D2043208D0D2071CBF44
:100A700011F8013B00F8013B01D30B88038060466D
:100A8000704700BF082A13D38B078DD010F00303E3
:100A90008AD0C3F10403D21ADB071CBF11F8013B53
:100AA00000F8013B80D331F8023B20F8023B7BE7A2
:100AB000043AD9D3013A11F8013B00F8013BF9D2CD
:100AC0000B7803704B7843708B7883706046704767
:100AD0000000000000000000000000000000000016
:100AE0000000000000000000000000000000000006
:100AF00000000000000000000000000000000000F6
:100B000090F800F06DE9024520F007016FF0000C4D
:100B100010F0070491F820F040F049804FF00004F5
:100B20006FF00700D1E9002391F840F000F10800D0
:100B300082FA4CF2A4FA8CF283FA4CF3A2FA8CF308
:100B40004BBBD1E9022382FA4CF200F10800A4FA6F
:100B50008CF283FA4CF3A2FA8CF3E3B9D1E90423C3
:100B600082FA4CF200F10800A4FA8CF283FA4CF3FA
:100B7000A2FA8CF37BB9D1E9062301F1200182FAB4
:100B80004CF200F10800A4FA8CF283FA4CF3A2FABA
:100B90008CF3002BC6D0002A04BF04301A4612BAC8
:100BA000B2FA82F2FDE8024500EBD2007047D1E9CB
:100BB000002304F00305C4F100004FEAC50514F05A
:100BC000040F91F840F00CFA05F562EA05021CBF2B
:100BD00063EA050362464FF00004A9E70000000045
:100BE00001F0FF01102A2BDB10F0070F08D010F8DE
:100BF000013B013A8B422DD010F0070F42B3F6D1E2
:100C0000F0B441EA012141EA014122F007047FF0FA
:100C100000070023F0E80256083C85EA010586EA51
:100C2000010685FA47F5A3FA87F586FA47F6A5FA8D
:100C300087F68EB9EED1F0BC01F0FF0102F0070299
:100C400032B110F8013B013A83EA010313B1F8D144
:100C50000020704701387047002D06BF3546033825
:100C6000073815F0010F07D1013015F4807F02BF5E
:100C7000013015F4C03F0130F0BC0138704700BFAF
:100C80004FF0FF3C06E000BF4FF0010C02E000BF58
:100C90004FF0010C4DF804CD4FEA410C7FEA6C5C3B
:100CA0004FEA430C18BF7FEA6C5C1BD001B050EADE
:100CB000410C0CBF52EA430C91EA030F02BF90EAC9
:100CC000020F0020704710F1000F91EA030F58BF88
:100CD000994208BF90422CBFD8176FEAE37040F0EA
:100CE000010070474FEA410C7FEA6C5C02D150EA88
:100CF000013C07D14FEA430C7FEA6C5CD6D152EA43
:100D0000033CD3D05DF8040B704700BF8446104607
:100D100062468C461946634600E000BF01B5FFF706
:100D2000B7FF002848BF10F1000F01BD4DF808EDD6
:100D3000FFF7F4FF0CBF012000205DF808FB00BFA7
:100D40004DF808EDFFF7EAFF34BF012000205DF801
:100D500008FB00BF4DF808EDFFF7E0FF94BF01204E
:100D600000205DF808FB00BF4DF808EDFFF7CEFF4F
:100D700094BF012000205DF808FB00BF4DF808ED8E
:100D8000FFF7C4FF34BF012000205DF808FB00BF5F
:100D90004FEA410C7FEA6C5C02D150EA013C0AD177
:100DA0004FEA430C7FEA6C5C02D152EA033C02D169
:100DB0004FF0000070474FF0010070474FEA4102CA
:100DC00012F5001215D211D56FF47873B3EB62529D
:100DD00012D94FEAC12343F0004343EA505311F0C4
:100DE000004F23FA02F018BF404270474FF0000056
:100DF000704750EA013005D111F0004008BF6FF094
:100E0000004070474FF00000704700BF53B94AB927
:100E1000002908BF00281CBF4FF0FF314FF0FF3002
:100E200000F074B9ADF1080C6DE904CE00F006F8DD
:100E3000DDF804E0DDE9022304B070472DE9F04756
:100E4000089D04468E46002B4DD18A42944669D9AE
:100E5000B2FA82F252B101FA02F3C2F1200120FA91
:100E600001F10CFA02FC41EA030E94404FEA1C48DF
:100E7000210CBEFBF8F61FFA8CF708FB16E341EADB
:100E8000034306FB07F199420AD91CEB030306F161
:100E9000FF3080F01F81994240F21C81023E634482
:100EA0005B1AA4B2B3FBF8F008FB103344EA034426
:100EB00000FB07F7A7420AD91CEB040400F1FF333B
:100EC00080F00A81A74240F207816444023840EA78
:100ED0000640E41B00261DB1D4400023C5E90043B1
:100EE0003146BDE8F0878B4209D9002D00F0EF8034
:100EF0000026C5E9000130463146BDE8F087B3FA67
:100F000083F6002E4AD18B4202D3824200F2F9804E
:100F1000841A61EB030301209E46002DE0D0C5E951
:100F2000004EDDE702B9FFDEB2FA82F2002A40F09D
:100F30009280A1EB0C014FEA1C471FFA8CFE0126A0
:100F4000200CB1FBF7F307FB131140EA01410EFB44
:100F500003F0884208D91CEB010103F1FF3802D2EB
:100F6000884200F2CB804346091AA4B2B1FBF7F0E5
:100F700007FB101144EA01440EFB00FEA64508D908
:100F80001CEB040400F1FF3102D2A64500F2BB8045
:100F90000846A4EB0E0440EA03409CE7C6F1200794
:100FA000B34022FA07FC4CEA030C20FA07F401FADA
:100FB00006F31C43F9404FEA1C4900FA06F3B1FB63
:100FC000F9F8200C1FFA8CFE09FB181140EA0141C8
:100FD00008FB0EF0884202FA06F20BD91CEB010165
:100FE00008F1FF3A80F08880884240F28580A8F1BD
:100FF00002086144091AA4B2B1FBF9F009FB10110F
:1010000044EA014100FB0EFE8E4508D91CEB0101AC
:1010100000F1FF346CD28E456AD90238614440EA4F
:101020000840A0FB0294A1EB0E01A142C846A646CF
:1010300056D353D05DB1B3EB080261EB0E0101FA58
:1010400007F722FA06F3F1401F43C5E900710026B5
:101050003146BDE8F087C2F12003D8400CFA02FC0B
:1010600021FA03F3914001434FEA1C471FFA8CFE1B
:10107000B3FBF7F007FB10360B0C43EA064300FB0B
:101080000EF69E4204FA02F408D91CEB030300F1A9
:10109000FF382FD29E422DD9023863449B1B89B260
:1010A000B3FBF7F607FB163341EA034106FB0EF3E9
:1010B0008B4208D91CEB010106F1FF3816D28B4296
:1010C00014D9023E6144C91A46EA004638E72E4662
:1010D000284605E70646E3E61846F8E64B45A9D25A
:1010E000B9EB020864EB0C0E0138A3E74646EAE7C9
:1010F000204694E74046D1E7D0467BE7023B614477
:1011000032E7304609E76444023842E7704700BFDF
:1011100080B400AF084B1B6B074A43F08003136396
:10112000054B1B6B044A43F00103136300BFBD462C
:101130005DF8047B704700BF0038024080B582B084
:1011400000AF786004F06EFD04F084FD04F08EFDC5
:1011500004F096FD4FF4FA7003F0BCFAF6E70000D5
:1011600080B584B002AF78600821114800F0E4FD3A
:101170000346002B08D10F4B18680023009302236D
:101180000022002104F0B8F80421094800F0D4FD41
:101190000346002B08D1084B186800230093022354
:1011A0000022002104F0A8F8C82003F093FADBE73E
:1011B000001C0240E0090020E409002080B584B052
:1011C00000AF78600023FB600023BB604FF0FF326C
:1011D0000121002004F028F80346FB60FB68012B86
:1011E00003D10449044804F033FE012003F072FAED
:1011F000ECE700BF10BF0008D037012080B584B0F5
:1012000000AF78600023FB600023BB604FF0FF322B
:101210000121002004F008F80346FB60FB68012B65
:1012200003D10449044804F013FE012003F052FAEC
:10123000ECE700BF20BF0008D037012080B586B0A2
:1012400002AF78600123FB6002F0A6FA324B0193F3
:101250000223009300234FF480723049304803F09A
:101260003BF8F860FB68012B01D12E4B00E02E4BC0
:101270002A4A2E492E4804F0EBFD2E4B01930323FE
:10128000009300234FF480722B492C4803F024F87C
:10129000F860FB68012B01D1224B00E0224B264A6B
:1012A0002249234804F0D4FD254B019304230093E5
:1012B00000234FF480722349234803F00DF8F860AF
:1012C000FB68012B01D1174B00E0174B1D4A174952
:1012D000174804F0BDFD1D4B019304230093002328
:1012E0004FF480721A491B4802F0F6FFF860FB6861
:1012F000012B01D10B4B00E00B4B154A0B490C485D
:1013000004F0A6FD002003F051F902F075FA00BFC9
:101310001037BD4680BD00BFD809002030BF00088F
:101320003D1100083CBF000844BF00084CBF000846
:10133000D0370120DC0900205CBF000861110008E3
:10134000E009002068BF0008BD110008E409002082
:1013500078BF0008FD11000880B582B002AF00F030
:10136000E1F900F01DF8FFF7D3FE04F031FC04F0C2
:10137000E9FB4FF4E13004F0A1FC064B019301239B
:101380000093002380220449044802F0A5FF03F0E3
:10139000D5F9FEE7D409002088BF00083D120008F7
:1013A00080B592B000AF07F1180330220021184633
:1013B00004F0A2FD3B1D00221A605A609A60DA60B8
:1013C0001A61244B1B6C234A43F080531364224B55
:1013D0001B68214A43F4404313600123BB6101238E
:1013E000FB6102233B634FF480037B630F23BB63EA
:1013F000D823FB6302233B6404237B6407F11803B7
:10140000184600F049FD0346002B01D000F026F8F5
:1014100000F0D6FC0346002B01D000F01FF80F238C
:101420007B600223BB600023FB604FF4A0533B6151
:101430004FF480537B613B1D0521184600F07EFF71
:101440000346002B01D000F009F800BF4837BD4625
:1014500080BD00BF003802400070004080B400AF83
:1014600072B600BFFEE7000080B400AF084B5B6CB3
:10147000074A43F480435364054B1B6C044A43F012
:101480008053136400BFBD465DF8047B704700BF06
:101490000038024080B400AFFEE780B400AFFEE742
:1014A00080B400AFFEE780B400AFFEE780B400AFC9
:1014B000FEE780B400AF00BFBD465DF8047B704717
:1014C00080B500AF03F092FE0346012B01D002F07D
:1014D000F3F900F065F900BF80BD80B400AF0123CF
:1014E0001846BD465DF8047B704780B582B000AFFA
:1014F0007860396004F0D6FC034616221A604FF07B
:10150000FF3318460837BD4680BD80B582B000AFB6
:1015100078604FF0FF317868FFF7E7FFFEE780B5AE
:1015200086B000AFF860B9607A6000237B610AE0A2
:10153000AFF300800146BB685A1CBA60CAB21A7089
:101540007B6901337B617A697B689A42F0DB7B6857
:1015500018461837BD4680BD80B586B000AFF8602C
:10156000B9607A6000237B6109E0BB685A1CBA60ED
:101570001B781846AFF300807B6901337B617A6981
:101580007B689A42F1DB7B6818461837BD4680BD00
:1015900080B483B000AF78604FF0FF3318460C374B
:1015A000BD465DF8047B704780B483B000AF7860BF
:1015B00039603B684FF400525A60002318460C37DC
:1015C000BD465DF8047B704780B483B000AF78609F
:1015D000012318460C37BD465DF8047B704780B484
:1015E00085B000AFF860B9607A6000231846143700
:1015F000BD465DF8047B704780B586B000AF78606B
:10160000144A154BD31A7B617B693B61134B1B68F2
:10161000002B02D1114B124A1A60104B1A687B68DA
:1016200013443A699A4207D204F03CFC03460C2268
:101630001A604FF0FF3309E0084B1B68FB60074B53
:101640001A687B681344054A1360FB68184618370C
:10165000BD4680BD0000032000040000E809002012
:101660006039012080B400AF164BD3F88830154A9A
:1016700043F47003C2F88830134B1B68124A43F0DE
:1016800001031360104B00229A600F4B1B680E4A37
:1016900023F0847323F4803313600B4B0B4A5A609E
:1016A000094B1B68084A23F480231360064B002271
:1016B000DA60044B4FF000629A6000BFBD465DF8EF
:1016C000047B704700ED00E0003802401030002439
:1016D000DFF834D0002103E00C4B5B584350043159
:1016E0000B480C4B42189A42F6D30B4A02E00023F7
:1016F00042F8043B094B9A42F9D3FFF7B3FF04F0D9
:10170000D7FBFFF729FE704700000320CCC3000879
:1017100000000020B8090020B80900205C39012031
:10172000FEE7000080B500AF0E4B1B680D4A43F486
:10173000007313600B4B1B680A4A43F48063136009
:10174000084B1B68074A43F480731360032000F0C2
:101750000DF90F2000F008F8FFF786FE0023184669
:1017600080BD00BF003C024080B582B000AF786011
:1017700000F0CEFF0346094AA2FB03239B0918464B
:1017800000F029F9002279684FF0FF3000F0F9F8F5
:10179000002318460837BD4680BD00BFD34D6210F8
:1017A00080B400AF044B1B680133034A136000BFD1
:1017B000BD465DF8047B7047EC09002080B400AFA3
:1017C000034B1B681846BD465DF8047B704700BF9D
:1017D000EC09002080B485B000AF78607B6803F02E
:1017E0000703FB600C4BDB68BB60BA684FF6FF0376
:1017F0001340BB60FB681A02BB68134343F0BF632E
:1018000043F40033BB60044ABB68D36000BF1437A5
:10181000BD465DF8047B704700ED00E080B400AF8A
:10182000044BDB681B0A03F007031846BD465DF84E
:10183000047B704700ED00E080B483B000AF034646
:10184000FB71FB7903F01F03012202FA03F1064A40
:1018500097F907305B0942F8231000BF0C37BD46EB
:101860005DF8047B704700BF00E100E080B483B006
:1018700000AF03463960FB7197F90730002B0BDA94
:101880003B68DAB20C49FB7903F00F03043B120109
:10189000D2B20B441A7609E03B68DAB2074997F9ED
:1018A00007301201D2B20B4483F8002300BF0C377B
:1018B000BD465DF8047B704700ED00E000E100E00C
:1018C00080B489B000AFF860B9607A60FB6803F05B
:1018D0000703FB61FB69C3F10703042B28BF042343
:1018E000BB61FB690433062B02D9FB69033B00E0B3
:1018F00000237B610122BB6902FA03F3013B1A4614
:10190000BB681A407B699A4001217B6901FA03F3A5
:10191000013B19467B680B40134318462437BD46EC
:101920005DF8047B7047000080B582B000AF78603E
:101930007B68013BB3F1807F01D301230FE00A4AAA
:101940007B68013B53600F214FF0FF30FFF78EFFA4
:10195000054B00229A60044B07221A6000231846A8
:101960000837BD4680BD00BF10E000E080B582B002
:1019700000AF78607868FFF72DFF00BF0837BD46DD
:1019800080BD80B586B000AF0346B9607A60FB7356
:1019900000237B61FFF742FF78617A68B968786954
:1019A000FFF78EFF024697F90F3011461846FFF7F2
:1019B0005DFF00BF1837BD4680BD80B582B000AF67
:1019C0000346FB7197F907301846FFF735FF00BF54
:1019D0000837BD4680BD80B582B000AF78607868BA
:1019E000FFF7A2FF034618460837BD4680BD00003A
:1019F00080B487B000AF786039600023FB600023BB
:101A0000BB6000233B6100237B616FE101227B69A6
:101A100002FA03F3FB603B681B68FA681340BB6083
:101A2000BA68FB689A4240F05E813B685B68022BB3
:101A300003D03B685B68122B23D17B69DA087B6893
:101A4000083253F822303B617B6903F007039B00A7
:101A50000F2202FA03F3DB433A6913403B613B6810
:101A60001A697B6903F007039B0002FA03F33A69E2
:101A700013433B617B69DA087B680832396943F8B4
:101A800022107B681B683B617B695B00032202FAC2
:101A900003F3DB433A6913403B613B685B6803F047
:101AA00003027B695B0002FA03F33A6913433B616B
:101AB0007B683A691A603B685B68012B0BD03B6816
:101AC0005B68022B07D03B685B68112B03D03B6837
:101AD0005B68122B30D17B689B683B617B695B0044
:101AE000032202FA03F3DB433A6913403B613B688C
:101AF000DA687B695B0002FA03F33A6913433B61DE
:101B00007B683A699A607B685B683B6101227B690C
:101B100002FA03F3DB433A6913403B613B685B68BD
:101B20001B0903F001027B6902FA03F33A691343CC
:101B30003B617B683A695A607B68DB683B617B6923
:101B40005B00032202FA03F3DB433A6913403B6173
:101B50003B689A687B695B0002FA03F33A691343B6
:101B60003B617B683A69DA603B685B6803F08053ED
:101B7000002B00F0B880634B5B6C624A43F48043F7
:101B80005364614A7B699B08023352F823303B61FE
:101B90007B6903F003039B000F2202FA03F3DB438C
:101BA0003A6913403B617B68584A934237D07B685F
:101BB000574A934231D07B68564A93422BD07B6878
:101BC000554A934225D07B68544A93421FD07B6884
:101BD000534A934219D07B68524A934213D07B6890
:101BE000514A93420DD07B68504A934207D07B689C
:101BF0004F4A934201D1092312E00A2310E008233F
:101C00000EE007230CE006230AE0052308E0042386
:101C100006E0032304E0022302E0012300E00023A6
:101C20007A6902F00302920093403A6913433B61E0
:101C300035497B699B0802333A6941F823203D4BC3
:101C40001B683B61BB68DB433A6913403B613B68FF
:101C50005B6803F48033002B03D03A69BB681343FD
:101C60003B61344A3B691360324B5B683B61BB6844
:101C7000DB433A6913403B613B685B6803F4003324
:101C8000002B03D03A69BB6813433B61294A3B6987
:101C90005360284B9B683B61BB68DB433A69134048
:101CA0003B613B685B6803F48013002B03D03A6907
:101CB000BB6813433B611F4A3B6993601D4BDB6864
:101CC0003B61BB68DB433A6913403B613B685B683F
:101CD00003F40013002B03D03A69BB6813433B6144
:101CE000144A3B69D3607B6901337B617B690F2BAD
:101CF0007FF68CAE00BF00BF1C37BD465DF8047B8D
:101D0000704700BF00380240003801400000024028
:101D10000004024000080240000C02400010024093
:101D20000014024000180240001C02400020024043
:101D300000240240003C014080B485B000AF7860D0
:101D40000B467B807B681A697B881340002B02D08E
:101D50000123FB7301E00023FB73FB7B1846143760
:101D6000BD465DF8047B704780B483B000AF7860F7
:101D70000B467B8013467B707B78002B03D07A88E0
:101D80007B689A6103E07B881A047B689A6100BFD4
:101D90000C37BD465DF8047B704780B483B000AF5C
:101DA00078600B467B807B685A697B885A407B68E9
:101DB0005A6100BF0C37BD465DF8047B70470000D8
:101DC00080B58AB000AF00237B62314B1B6C304A78
:101DD00043F0805313644FF48033BB61BB6993FAC3
:101DE000A3F37B617B693B623B6AB3FA83F3FB61DC
:101DF000FB69DBB29B0003F1844303F560231A46C1
:101E000001231360FFF7DAFC786209E0FFF7D6FCE4
:101E100002467B6AD31AB3F57A7F01D9032333E0F4
:101E20001C4B5B6803F48033B3F5803FEED14FF475
:101E30000033BB60BB6893FAA3F37B607B683B61B4
:101E40003B69B3FA83F3FB60FB68DBB29B0003F1F1
:101E5000844303F560231A4601231360FFF7AEFCA9
:101E6000786209E0FFF7AAFC02467B6AD31AB3F551
:101E70007A7F01D9032307E0064B5B6803F4003344
:101E8000B3F5003FEED1002318462837BD4680BD8C
:101E9000003802400070004080B598B000AF786014
:101EA0000023FB657B681B6803F00103002B66D0F1
:101EB0009C4B9B6803F00C03042B0CD0994B9B6844
:101EC00003F00C03082B12D1964B5B6803F48003DC
:101ED000B3F5800F0BD1934B1B6803F40033002B39
:101EE0004CD07B685B68002B48D101231AE28E4BF3
:101EF00000221A70FFF762FCF86508E0FFF75EFC4D
:101F00000246FB6DD31A642B01D903230AE2854BE9
:101F10001B6803F40033002BF0D17B685A68824BB6
:101F2000D2B21A707B685B68002B13D0FFF746FCB7
:101F3000F86508E0FFF742FC0246FB6DD31A642BFC
:101F400001D90323EEE1774B1B6803F40033002B28
:101F5000F0D014E0FFF732FCF86508E0FFF72EFC44
:101F60000246FB6DD31A642B01D90323DAE16D4BD2
:101F70001B6803F40033002BF0D100E000BF7B6846
:101F80001B6803F00203002B7FD0664B9B6803F0B5
:101F90000C03002B0BD0634B9B6803F00C03082B46
:101FA0002AD1604B5B6803F48003002B24D15D4B86
:101FB0001B6803F00203002B05D07B68DB68012B54
:101FC00001D00123AEE1574B1B6823F0F8027B6878
:101FD0001B69F8213965396D91FAA1F1F964F96C41
:101FE000B965B96DB1FA81F17965796DC9B28B4086
:101FF0004C4913430B6048E07B68DB68002B2ED014
:102000004A4B01221A60FFF7D9FBF86508E0FFF799
:10201000D5FB0246FB6DD31A642B01D9032381E162
:10202000404B1B6803F00203002BF0D03D4B1B68B4
:1020300023F0F8027B681B69F8213964396C91FA46
:10204000A1F1F963F96BB964B96CB1FA81F1796402
:10205000796CC9B28B40334913430B6015E0334BA5
:1020600000221A60FFF7AAFBF86508E0FFF7A6FB5D
:102070000246FB6DD31A642B01D9032352E1294B8D
:102080001B6803F00203002BF0D17B681B6803F090
:102090000803002B30D07B685B69002B16D0244BE3
:1020A00001221A60FFF78AFBF86508E0FFF786FB5C
:1020B0000246FB6DD31A642B01D9032332E1194B7D
:1020C0005B6F03F00203002BF0D015E0184B0022E9
:1020D0001A60FFF773FBF86508E0FFF76FFB024635
:1020E000FB6DD31A642B01D903231BE10D4B5B6FEE
:1020F00003F00203002BF0D17B681B6803F004039C
:10210000002B74D0074B1B6C064A43F080531364BA
:10211000084B1B68074A43F480731360FFF74EFBBC
:10212000F86512E0003802400238024000004742E1
:10213000800E474200700040FFF740FB0246FB6DF7
:10214000D31A642B01D90323ECE0784B1B6803F40A
:102150008073002BF0D0764B00221A70FFF72EFB15
:10216000F8650AE0FFF72AFB0246FB6DD31A41F23D
:102170008832934201D90323D4E06E4B1B6F03F0E6
:102180000203002BEED17B689A68694BD2B21A70B9
:102190007B689B68012B15D1FFF710FBF8650AE0FF
:1021A000FFF70CFB0246FB6DD31A41F288329342D3
:1021B00001D90323B6E05F4B1B6F03F00203002B32
:1021C000EED014E0FFF7FAFAF8650AE0FFF7F6FA46
:1021D0000246FB6DD31A41F28832934201D90323A0
:1021E000A0E0544B1B6F03F00203002BEED17B6881
:1021F0009B69002B00F095804E4B9B6803F00C030D
:10220000082B00F08C807B689B69022B70D14A4BB5
:1022100000221A60FFF7D2FAF86508E0FFF7CEFA5D
:102220000246FB6DD31A642B01D903237AE0414B9C
:102230001B6803F00073002BF0D17B681A6A7B687F
:102240005B6A47F6C0713961396991FAA1F1F960A9
:10225000F968B961B969B1FA81F179617969C9B28D
:102260008B401A437B689B6A5B08013B4FF440310B
:102270003962396A91FAA1F1F961F969B962B96A09
:10228000B1FA81F17962796AC9B28B401A437B68ED
:10229000DB691A437B68DB6A4FF070613963396B25
:1022A00091FAA1F1F962F96AB963B96BB1FA81F1F6
:1022B0007963796BC9B28B4013431E4A43F00053D4
:1022C00053601D4B01221A60FFF778FAF86508E0A9
:1022D000FFF774FA0246FB6DD31A642B01D903236E
:1022E00020E0144B1B6803F00073002BF0D018E0C3
:1022F000114B00221A60FFF761FAF86508E0FFF75A
:102300005DFA0246FB6DD31A642B01D9032309E061
:10231000084B1B6803F00073002BF0D101E0012390
:1023200000E0002318466037BD4680BD00700040C5
:1023300070380240003802406000474280B584B0E7
:1023400000AF786039600023FB60924B1B6803F09C
:102350000F033A689A4240F28F808E4B3A68D2B2AD
:102360001A708C4B1B6803F00F033A689A4201D035
:10237000012336E17B681B6803F00203002B08D0C1
:10238000854B9B6823F0F0027B689B68824913436E
:102390008B607B681B6803F00103002B00F0FE805C
:1023A0007B685B68012B07D17B4B1B6803F4003310
:1023B000002B15D1012314E17B685B68022B07D148
:1023C000754B1B6803F00073002B09D1012308E152
:1023D000714B1B6803F00203002B01D1012300E1C4
:1023E0006D4B9B6823F003027B685B686A4913436B
:1023F0008B60FFF7E3F9F8607B685B68012B12D113
:102400000AE0FFF7DBF90246FB68D31A41F2883293
:10241000934201D90323E4E05F4B9B6803F00C0374
:10242000042BEED1BAE07B685B68022B1DD10AE079
:10243000FFF7C4F90246FB68D31A41F2883293428F
:1024400001D90323CDE0544B9B6803F00C03082B08
:10245000EED1A3E0FFF7B2F90246FB68D31A41F2CE
:102460008832934201D90323BBE04B4B9B6803F0B6
:102470000C03002BEED191E07B681B6803F0020394
:10248000002B08D0444B9B6823F0F0027B689B68CC
:10249000414913438B607B681B6803F00103002BE9
:1024A0006AD07B685B68012B07D13B4B1B6803F448
:1024B0000033002B15D1012393E07B685B68022B6E
:1024C00007D1354B1B6803F00073002B09D10123A2
:1024D00087E0314B1B6803F00203002B01D101237D
:1024E0007FE02D4B9B6823F003027B685B682A49E1
:1024F00013438B60FFF762F9F8607B685B68012B20
:1025000012D10AE0FFF75AF90246FB68D31A41F2EA
:102510008832934201D9032363E01F4B9B6803F089
:102520000C03042BEED127E07B685B68022B1DD1E6
:102530000AE0FFF743F90246FB68D31A41F28832FA
:10254000934201D903234CE0134B9B6803F00C0327
:10255000082BEED110E0FFF731F90246FB68D31AE1
:1025600041F28832934201D903233AE00A4B9B6837
:1025700003F00C03002BEED1064B3A68D2B21A706E
:10258000044B1B6803F00F033A689A4206D00123FC
:1025900027E000BF003C0240003802407B681B6817
:1025A00003F00403002B08D0104B9B6823F4E05287
:1025B0007B68DB680D4913438B607B681B6803F005
:1025C0000803002B09D0094B9B6823F460427B6809
:1025D0001B69DB00054913438B600F20FFF7C4F82C
:1025E000002318461037BD4680BD00BF00380240AA
:1025F00080B491B000AF00237B630023FB63002312
:102600003B630023BB633F4B9B6803F00C03082B29
:102610000CD0082B6BD8002B02D0042B03D066E023
:10262000394BBB6366E0394BBB6363E0354B5B689A
:1026300003F03F037B63334B5B6803F48003002BA1
:102640001CD0324A7B6BB2FBF3F22E4B596847F633
:10265000C0730B4047F6C0717962796A91FAA1F1B3
:102660003962396AF962F96AB1FA81F1B962B96A13
:10267000C9B2CB4002FB03F3FB631BE0224A7B6B36
:10268000B2FBF3F21F4B596847F6C0730B4047F695
:10269000C0717961796991FAA1F139613969F9619A
:1026A000F969B1FA81F1B961B969C9B2CB4002FBEC
:1026B00003F3FB63134B5B6803F440334FF4403286
:1026C0007A607A6892FAA2F23A603A68FA60FA6836
:1026D000B2FA82F2BA60BA68D2B2D34001335B0078
:1026E0003B63FA6B3B6BB2FBF3F3BB6302E0064B5D
:1026F000BB6300BFBB6B18464437BD465DF8047B27
:10270000704700BF003802400024F40040787D018B
:1027100080B584B000AFFFF76BFF01460F4B9B689D
:1027200003F0F003F0227A607A6892FAA2F23A603B
:102730003A68FA60FA68B2FA82F2BA60BA68D2B25B
:10274000D340074AD35C21FA03F3064A1360054BD2
:102750001B6818461037BD4680BD00BF00380240D8
:10276000ACBF00080000002080B584B000AFFFF7C8
:10277000CFFF01460D4B9B6803F4E0534FF4E0524A
:102780007A607A6892FAA2F23A603A68FA60FA6875
:10279000B2FA82F2BA60BA68D2B2D340044AD35CC9
:1027A00021FA03F318461037BD4680BD00380240B9
:1027B000ACBF000880B584B000AFFFF7A9FF0146A9
:1027C0000D4B9B6803F460434FF460427A607A6873
:1027D00092FAA2F23A603A68FA60FA68B2FA82F2C1
:1027E000BA60BA68D2B2D340044AD35C21FA03F388
:1027F00018461037BD4680BD00380240ACBF000807
:1028000080B582B000AF78607B68002B01D10123D6
:1028100037E07B6893F83930DBB2002B02D178685F
:1028200003F070FA7B68022283F839207B681B680A
:10283000DA687B681B6822F40052DA60786800F07E
:102840005DFC7B681B681A697B681B6822F49042F8
:102850001A617B681B685A697B681B6822F02A0230
:102860005A617B681B68DA687B681B6842F4005217
:10287000DA607B680022DA637B68012283F8392002
:10288000002318460837BD4680BD80B586B000AF2E
:10289000F860B9603B601346FB8000237B61FB68F6
:1028A00093F83930DBB27B617B69012B03D07B6904
:1028B000222B40F08E80BB68002B02D0FB88002BBF
:1028C00001D1012386E0FB6893F83830012B01D158
:1028D00002237FE0FB68012283F83820FB68002296
:1028E000DA63FB6893F83930DBB2222B04D1FB6842
:1028F000322283F8392003E0FB68122283F8392062
:10290000FB68FA889A84FB68FA88DA843DE0FB6801
:10291000DB8C013B9AB2FB68DA84FB689B68B3F5F9
:10292000805F20D13B6800228021F86800F029FAFE
:102930000346002B01D003234CE0BB683B613B699D
:102940001B881A46FB681B68C2F308025A60FB68C2
:102950001B69002B03D1BB680233BB6015E0BB6869
:102960000133BB6011E03B6800228021F86800F071
:1029700008FA0346002B01D003232BE0BB685A1C46
:10298000BA601A78FB681B685A60FB68DB8C002B06
:10299000BDD13B6800224021F86800F0F2F90346FF
:1029A000002B01D0032315E0FB6893F83930DBB22C
:1029B000322B04D1FB68222283F8392003E0FB6824
:1029C000012283F83920FB68002283F83820002395
:1029D00000E0022318461837BD4680BD80B586B09A
:1029E00000AFF860B9603B601346FB8000237B6159
:1029F000FB6893F83930DBB27B617B69012B03D034
:102A00007B69122B40F09D80BB68002B02D0FB88B5
:102A1000002B01D1012395E0FB6893F83830012B9E
:102A200001D102238EE0FB68012283F83820FB6885
:102A30000022DA63FB6893F83930DBB2122B04D141
:102A4000FB68322283F8392003E0FB68222283F8F6
:102A50003920FB68FA889A85FB68FA88DA8557E09E
:102A6000FB68DB8D013B9AB2FB68DA85FB689B68EB
:102A7000B3F5805F29D13B6800222021F86800F07F
:102A800080F90346002B01D003235BE0BB683B6168
:102A9000FB681B69002B0CD1FB681B685B689BB251
:102AA000C3F308039AB23B691A80BB680233BB6068
:102AB0002EE0FB681B685B689BB2DBB29AB23B6995
:102AC0001A80BB680133BB6022E03B6800222021F2
:102AD000F86800F056F90346002B01D0032331E0DB
:102AE000FB681B69002B08D1FB681B685968BB6831
:102AF0005A1CBA60CAB21A700AE0FB681B685B68AD
:102B0000DAB2BB68591CB96002F07F02D2B21A7007
:102B1000FB68DB8D002BA3D1FB6893F83930DBB267
:102B2000322B04D1FB68122283F8392003E0FB68C2
:102B3000012283F83920FB68002283F83820002323
:102B400000E0022318461837BD4680BD80B588B026
:102B500000AF78600023FB610023BB617B681B68CA
:102B60001B6803F00103012B0CBF01230023DBB220
:102B7000FB617B681B68DB6803F48073BB61FB69E6
:102B8000002B11D0BB69002B0ED07B681B681B6823
:102B90007B617B681B685B687B617B697B68DB6B47
:102BA00043F001027B68DA637B681B681B6803F0F3
:102BB0000203022B0CBF01230023DBB2FB617B6805
:102BC0001B685B6903F00103BB61FB69002B11D03B
:102BD000BB69002B0ED07B681B681B683B617B6860
:102BE0001B685B683B613B697B68DB6B43F00402FD
:102BF0007B68DA637B681B681B6803F00403042BA3
:102C00000CBF01230023DBB2FB617B681B685B699F
:102C100003F00103BB61FB69002B11D0BB69002BE2
:102C20000ED07B681B681B68FB607B681B685B6859
:102C3000FB60FB687B68DB6B43F002027B68DA6356
:102C40007B681B681B6803F00803082B0CBF01237B
:102C50000023DBB2FB617B681B685B6903F0010347
:102C6000BB61FB69002B11D0BB69002B0ED07B68C8
:102C70001B681B68BB607B681B685B68BB60BB68CC
:102C80007B68DB6B43F008027B68DA637B681B6858
:102C90001B6803F02003202B0CBF01230023DBB2B1
:102CA000FB617B681B68DB6803F02003BB61FB6989
:102CB000002B05D0BB69002B02D0786800F08AF9A0
:102CC0007B681B681B6803F08003802B0CBF01230B
:102CD0000023DBB2FB617B681B68DB6803F08003C9
:102CE000BB61FB69002B05D0BB69002B02D0786863
:102CF00000F0E0F87B681B681B6803F04003402B82
:102D00000CBF01230023DBB2FB617B681B68DB681F
:102D100003F04003BB61FB69002B05D0BB69002BAE
:102D200002D0786800F023F97B68DB6B002B06D0BB
:102D30007B68012283F83920786800F018F800BF1A
:102D40002037BD4680BD80B483B000AF786000BF3F
:102D50000C37BD465DF8047B704780B483B000AF8C
:102D6000786000BF0C37BD465DF8047B704780B4C7
:102D700083B000AF786000BF0C37BD465DF8047BC0
:102D8000704780B586B000AFF860B9603B6013460D
:102D9000FB7100237B61FEF711FD7861FB79002B4D
:102DA0007BD138E03B68B3F1FF3F34D03B68002B68
:102DB00007D0FEF703FD02467B69D31A3A689A42B0
:102DC00029D2FB681B68DA68FB681B6822F0800266
:102DD000DA60FB681B68DA68FB681B6822F0200277
:102DE000DA60FB681B68DA68FB681B6822F4807293
:102DF000DA60FB681B685A69FB681B6822F00102F5
:102E00005A61FB68012283F83920FB68002283F8AD
:102E1000382003234AE0FB681B681A68BB6813402C
:102E2000BA689A42BED140E03B68B3F1FF3F34D06C
:102E30003B68002B07D0FEF7C1FC02467B69D31A22
:102E40003A689A4229D2FB681B68DA68FB681B68FB
:102E500022F08002DA60FB681B68DA68FB681B6896
:102E600022F02002DA60FB681B68DA68FB681B68E6
:102E700022F48072DA60FB681B685A69FB681B6881
:102E800022F001025A61FB68012283F83920FB68B5
:102E9000002283F83820032308E0FB681B681A68C7
:102EA000BB681340BA689A42BED000231846183750
:102EB000BD4680BD80B485B000AF78600023FB6064
:102EC0007B6893F83930DBB2FB60FB68122B02D0D1
:102ED000FB68322B44D17B689B68B3F5805F1AD1C5
:102EE0007B681B6ABB60BB681B881A467B681B68D3
:102EF000C2F308025A607B681B69002B05D17B680E
:102F00001B6A9A1C7B681A620EE07B681B6A5A1C5B
:102F10007B681A6208E07B681B6A591C7A68116238
:102F20001A787B681B685A607B68DB8C013B9AB21D
:102F30007B68DA847B68DB8C002B0FD17B681B6895
:102F4000DA687B681B6822F08002DA607B681B68A5
:102F5000DA687B681B6842F04002DA60002300E018
:102F6000022318461437BD465DF8047B704780B5D0
:102F700082B000AF78607B681B68DA687B681B688A
:102F800022F04002DA607B6893F83930DBB2322BF2
:102F900004D17B68222283F8392013E07B681B6808
:102FA000DA687B681B6822F48072DA607B681B68D1
:102FB0005A697B681B6822F001025A617B68012212
:102FC00083F839207868FFF7BEFE002318460837DB
:102FD000BD4680BD80B584B000AF78600023FB6043
:102FE0007B6893F83930DBB2FB60FB68222B02D0A0
:102FF000FB68322B7CD17B689B68B3F5805F23D163
:103000007B689B6ABB607B681B69002B0ED17B6869
:103010001B685B689BB2C3F308039AB2BB681A8053
:103020007B689B6A9A1C7B689A6229E07B681B68B4
:103030005B689BB2DBB29AB2BB681A807B689B6A02
:103040005A1C7B689A621BE07B681B69002B0AD1C3
:103050007B681B6858687B689B6A591C7A68916218
:10306000C2B21A700CE07B681B685B68DAB27B68DE
:103070009B6A581C7968886202F07F02D2B21A708B
:103080007B68DB8D013B9AB27B68DA857B68DB8DE0
:10309000002B2BD17B681B68DA687B681B6822F0E9
:1030A0002002DA607B6893F83930DBB2322B04D12E
:1030B0007B68122283F8392013E07B681B68DA688A
:1030C0007B681B6822F48072DA607B681B685A692F
:1030D0007B681B6822F001025A617B68012283F839
:1030E00039207868FFF739FE002302E0002300E072
:1030F000022318461037BD4680BD0000B0B584B02D
:1031000000AF78600023FB607B681B681B69FB6075
:10311000FB6823F44053FB607B68DB68FA68134369
:10312000FB607B681B68FA681A617B681B68DB6858
:10313000FB60FB6823F4164323F00C03FB607B6801
:103140009A687B681B691A437B685B691A437B68D2
:10315000DB691343FA681343FB607B681B68FA68FA
:10316000DA607B681B685B69FB60FB6823F4407373
:10317000FB607B689B69FA681343FB607B681B6894
:10318000FA685A617B68DB69B3F5004F40F08C80C8
:103190007B681B688C4A934204D07B681B688B4A0F
:1031A000934240D1FFF706FB024613469B001344AF
:1031B0009A001A447B685B685B00B2FBF3F3844AB5
:1031C000A2FB03235B091C01FFF7F4FA0246134636
:1031D0009B0013449A001A447B685B685B00B2FB57
:1031E000F3F5FFF7E7FA024613469B0013449A00F3
:1031F0001A447B685B685B00B2FBF3F3744AA2FB82
:1032000003235B09642202FB03F3EB1A1B01323335
:103210006F4AA2FB03235B0903F00F027B681B6864
:1032200022439A60CCE0FFF79FFA024613469B00C8
:1032300013449A001A447B685B685B00B2FBF3F3AB
:10324000634AA2FB03235B091C01FFF78DFA0246C8
:1032500013469B0013449A001A447B685B685B002A
:10326000B2FBF3F5FFF780FA024613469B001344C6
:103270009A001A447B685B685B00B2FBF3F3544A24
:10328000A2FB03235B09642202FB03F3EB1A1B017D
:1032900032334F4AA2FB03235B0903F00F027B6822
:1032A0001B6822439A608BE07B681B68464A934206
:1032B00004D07B681B68454A934240D1FFF77AFAF5
:1032C000024613469B0013449A001A447B685B68CD
:1032D0009B00B2FBF3F33E4AA2FB03235B091C01F4
:1032E000FFF768FA024613469B0013449A001A44FB
:1032F0007B685B689B00B2FBF3F5FFF75BFA024665
:1033000013469B0013449A001A447B685B689B0039
:10331000B2FBF3F32E4AA2FB03235B09642202FBF8
:1033200003F3EB1A1B013233294AA2FB03235B0987
:1033300003F00F027B681B6822439A6040E0FFF7AE
:1033400013FA024613469B0013449A001A447B6802
:103350005B689B00B2FBF3F31D4AA2FB03235B09EE
:103360001C01FFF701FA024613469B0013449A0022
:103370001A447B685B689B00B2FBF3F5FFF7F4F936
:10338000024613469B0013449A001A447B685B680C
:103390009B00B2FBF3F30E4AA2FB03235B096422FA
:1033A00002FB03F3EB1A1B013233094AA2FB03238E
:1033B0005B0903F00F027B681B6822439A60FFE7FA
:1033C00000BF1037BD46B0BD0010014000140140E1
:1033D0001F85EB5180B483B000AF78607B6803F148
:1033E00008027B685A607B684FF0FF329A607B6806
:1033F00003F108027B68DA607B6803F108027B68EE
:103400001A617B6800221A6000BF0C37BD465DF868
:10341000047B704780B483B000AF78607B68002283
:103420001A6100BF0C37BD465DF8047B704780B45D
:1034300085B000AF786039607B685B68FB603B6893
:10344000FA685A60FB689A683B689A60FB689B68F8
:103450003A685A60FB683A689A603B687A681A6111
:103460007B681B685A1C7B681A6000BF1437BD4616
:103470005DF8047B704780B485B000AF7860396038
:103480003B681B68BB60BB68B3F1FF3F03D17B683F
:103490001B69FB600CE07B680833FB6002E0FB68A3
:1034A0005B68FB60FB685B681B68BA689A42F6D28F
:1034B000FB685A683B685A603B685B683A689A6088
:1034C0003B68FA689A60FB683A685A603B687A68B9
:1034D0001A617B681B685A1C7B681A6000BF14372E
:1034E000BD465DF8047B704780B485B000AF78605E
:1034F0007B681B69FB607B685B687A6892689A608E
:103500007B689B687A6852685A60FB685B687A6877
:103510009A4203D17B689A68FB685A607B680022F4
:103520001A61FB681B685A1EFB681A60FB681B68FF
:1035300018461437BD465DF8047B704780B485B0EB
:1035400000AFF860B9607A60FB68043BFB60FB6821
:103550004FF080721A60FB68043BFB60BB6823F08D
:103560000102FB681A60FB68043BFB600C4AFB68C5
:103570001A60FB68143BFB607A68FB681A60FB68A2
:10358000043BFB60FB686FF002021A60FB68203BA3
:10359000FB60FB6818461437BD465DF8047B704736
:1035A000A535000880B485B000AF00237B60124BC6
:1035B0001B68B3F1FF3F0AD04FF0500383F311882B
:1035C000BFF36F8FBFF34F8FFB6000BFFEE74FF07D
:1035D000500383F31188BFF36F8FBFF34F8FBB602E
:1035E00000BF00BF7B68002BFCD000BF00BF1437BA
:1035F000BD465DF8047B7047040000200000000019
:10360000074B19680868B0E8F04F80F30988BFF3EA
:103610006F8F4FF0000080F311887047AFF3008088
:103620005436012000BF00BF08480068006880F3DE
:1036300008884FF0000080F3148862B661B6BFF3CB
:103640004F8FBFF36F8F00DF00BF000008ED00E079
:1036500000BF00BF80B586B000AF464B1B68464A2E
:1036600093420AD14FF0500383F31188BFF36F8F59
:10367000BFF34F8F3B6100BFFEE73E4B1B683F4AE5
:1036800093420AD14FF0500383F31188BFF36F8F39
:10369000BFF34F8FFB6000BFFEE7394B7B617B6957
:1036A0001B78DBB27B607B69FF221A707B691B7819
:1036B000DBB2FB70FB78DBB203F05003DAB2314BC4
:1036C0001A70314B07221A6009E02F4B1B68013B2F
:1036D0002D4A1360FB78DBB25B00DBB2FB70FB783A
:1036E000DBB203F08003802BEFD0274B1B68C3F1C4
:1036F0000703042B0AD04FF0500383F31188BFF364
:103700006F8FBFF34F8FBB6000BFFEE71E4B1B6880
:103710001B021D4A13601C4B1B6803F4E0631A4A2A
:1037200013607B68DAB27B691A70184B1B68174A02
:1037300043F470031360154B1B68144A43F0704345
:10374000136000F0DBF8124B00221A6000F0FAF868
:10375000104B1B680F4A43F040431360FFF764FFB0
:1037600001F06EFAFFF71EFF002318461837BD461A
:1037700080BD00BF00ED00E071C20F4170C20F417B
:1037800000E400E0F0090020F409002020ED00E052
:103790000400002034EF00E080B483B000AF4FF0AD
:1037A000500383F31188BFF36F8FBFF34F8F7B609C
:1037B00000BF0F4B1B6801330D4A13600C4B1B6895
:1037C000012B0FD10B4B1B68DBB2002B0AD04FF043
:1037D000500383F31188BFF36F8FBFF34F8F3B60AC
:1037E00000BFFEE700BF0C37BD465DF8047B7047A5
:1037F0000400002004ED00E080B483B000AF124B61
:103800001B68002B0AD14FF0500383F31188BFF3DC
:103810006F8FBFF34F8F7B6000BFFEE70A4B1B68C3
:10382000013B094A1360084B1B68002B05D100239C
:103830003B603B6883F3118800BF00BF0C37BD4677
:103840005DF8047B704700BF04000020000000000A
:10385000EFF30980BFF36F8F154B1A681EF0100F3E
:1038600008BF20ED108A20E9F04F10602DE9090013
:103870004FF0500080F31188BFF34F8FBFF36F8F6D
:1038800001F0DEF94FF0000080F3118809BC1968DF
:103890000868B0E8F04F1EF0100F08BFB0EC108AB7
:1038A00080F30988BFF36F8F704700BFAFF30080CC
:1038B0005436012000BF00BF80B582B000AF4FF08A
:1038C000500383F31188BFF36F8FBFF34F8F7B607B
:1038D00000BF01F09FF80346002B03D0064B4FF0CA
:1038E00080521A6000233B603B6883F3118800BF5D
:1038F00000BF0837BD4680BD04ED00E080B400AFD6
:103900000B4B00221A600B4B00221A600A4B1B68FB
:103910000A4AA2FB03239B09094A013B1360044B9B
:1039200007221A6000BFBD465DF8047B704700BFE8
:1039300010E000E018E000E000000020D34D62102D
:1039400014E000E0DFF80C00016841F47001016050
:103950007047000088ED00E000BF00BF80B58AB06E
:1039600000AF78600023FB6100F03AFF534B1B6807
:10397000002B01D100F008F97B68002B12D008223F
:103980007B6803F00703D31A0833BB61BB69DB43D1
:103990007A689A4204D87A68BB6913447B6001E074
:1039A00000237B607B68002B70DB7B68002B6DD075
:1039B000434B1B687A689A4268D8424B3B62414B42
:1039C0001B687B6204E07B6A3B627B6A1B687B62EC
:1039D0007B6A5B687A689A4203D97B6A1B68002B12
:1039E000F1D1364B1B687A6A9A424FD03B6A1B680A
:1039F00008221344FB617B6A1A683B6A1A607B6A7F
:103A00005A687B68D21A08235B009A421FD97A6AE7
:103A10007B6813447B617B6903F00703002B0AD0AA
:103A20004FF0500383F31188BFF36F8FBFF34F8FB5
:103A30003B6100BFFEE77B6A5A687B68D21A7B69EC
:103A40005A607B6A7A685A60786900F0F9F81C4B12
:103A50001A687B6A5B68D31A194A1360184B1A6894
:103A6000194B1B689A4203D2154B1B68164A136008
:103A70007B6A5B6843F000427B6A5A607B6A002283
:103A80001A60124B1B680133104A136000F0B6FE37
:103A9000FB6903F00703002B0AD04FF0500383F3B8
:103AA0001188BFF36F8FBFF34F8FFB6000BFFEE73E
:103AB000FB6918462837BD4680BD00BF003601208F
:103AC00004360120F8350120083601200C3601208B
:103AD00080B586B000AF78607B687B617B68002B27
:103AE00049D008235B427A6913447B617B693B615F
:103AF0003B695B68002B0ADB4FF0500383F31188AE
:103B0000BFF36F8FBFF34F8FFB6000BFFEE73B69D2
:103B10001B68002B0AD04FF0500383F31188BFF3CA
:103B20006F8FBFF34F8FBB6000BFFEE73B695B68E1
:103B3000DB0F03F00103DBB2002B1CD03B691B68D9
:103B4000002B18D13B695B6823F000423B695A6047
:103B500000F046FE3B695A68094B1B681344084A4B
:103B60001360386900F06CF8064B1B680133054A96
:103B7000136000F043FE00BF1837BD4680BD00BF94
:103B8000043601201036012080B485B000AF4FF418
:103B90009633BB60254BFB60FB6803F00703002BEB
:103BA0000CD0FB680733FB60FB6823F00703FB6066
:103BB000BA68FB68D31A1D4A1344BB60FB687B607C
:103BC0001B4A7B6813601A4B00225A607B68BA68F4
:103BD0001344FB600822FB689B1AFB60FB6823F020
:103BE0000703FB60FB68134A1360124B1B6800223B
:103BF0005A60104B1B6800221A607B683B603B6870
:103C0000FA68D21A3B685A600A4B1A683B681A6015
:103C10003B685B68084A13603B685B68074A13604F
:103C200000BF1437BD465DF8047B7047F8090020DB
:103C3000F835012000360120083601200436012025
:103C400080B485B000AF7860284BFB6002E0FB6871
:103C50001B68FB60FB681B687A689A42F7D8FB68B0
:103C6000BB60FB685B68BA6813447A689A4208D103
:103C7000FB685A687B685B681A44FB685A60FB689B
:103C80007B607B68BB607B685B68BA681A44FB68D2
:103C90001B689A4218D1FB681A68154B1B689A4238
:103CA0000DD07B685A68FB681B685B681A447B68A8
:103CB0005A60FB681B681A687B681A6008E00C4B46
:103CC0001A687B681A6003E0FB681A687B681A60F0
:103CD000FA687B689A4202D0FB687A681A6000BF73
:103CE0001437BD465DF8047B704700BFF8350120EE
:103CF0000036012080B586B000AF786039600123BE
:103D00007B617B683B613B69002B0AD14FF050031C
:103D100083F31188BFF36F8FBFF34F8FFB6000BF3A
:103D2000FEE73B69002B5DD03B69DB6B002B59D074
:103D30003B691A6C3B69DB6B0021A3FB0223002B60
:103D400000D001210B46002B4CD1FFF725FD3B692C
:103D50001A683B69DB6B3969096C01FB03F31A4490
:103D60003B699A603B6900229A633B691A683B6928
:103D70005A603B691A683B69DB6B013B3969096C26
:103D800001FB03F31A443B69DA603B69FF2283F8C5
:103D900044203B69FF2283F845203B68002B14D167
:103DA0003B691B69002B1AD03B691033184601F0A0
:103DB0000DF80346002B12D0154B4FF080521A60BD
:103DC000BFF34F8FBFF36F8F09E03B691033184685
:103DD000FFF700FB3B6924331846FFF7FBFAFFF7B8
:103DE0000BFD01E000237B617B69002B0AD14FF0C2
:103DF000500383F31188BFF36F8FBFF34F8FBB6006
:103E000000BFFEE77B6918461837BD4680BD00BF7E
:103E100004ED00E080B58AB002AFF860B9601346E7
:103E2000FB710023FB61FB68002B2ED00021BA68D8
:103E3000FB68A3FB0223002B00D001210B46002BC3
:103E400023D1FB68BA6802FB03F313F1510F1CD8AE
:103E5000FB68BA6802FB03F3BB61BB6950331846C9
:103E6000FFF77CFDF861FB69002B1CD0FB697B61CF
:103E70007B6950337B61FA79FB69009313467A6959
:103E8000B968F86800F014F80DE0FB69002B0AD15E
:103E90004FF0500383F31188BFF36F8FBFF34F8F41
:103EA0003B6100BFFEE7FB6918462037BD4680BD79
:103EB00080B584B000AFF860B9607A60FB70BB6811
:103EC000002B03D1BB69BA691A6002E0BB697A684A
:103ED0001A60BB69FA68DA63BB69BA681A640121BF
:103EE000B869FFF707FFBB69FA7883F84C2000BF79
:103EF0001037BD4680BD000080B58CB000AFF860C3
:103F0000B9607A600023FB62FB68BB62BB6A002B6E
:103F10000AD14FF0500383F31188BFF36F8FBFF3C3
:103F20004F8F3B6200BFFEE7BB68002B03D1BB6A2B
:103F30001B6C002B01D1012300E00023002B0AD1D0
:103F40004FF0500383F31188BFF36F8FBFF34F8F90
:103F5000FB6100BFFEE701F049F90346002B02D1E7
:103F60007B68002B01D1012300E00023002B0AD144
:103F70004FF0500383F31188BFF36F8FBFF34F8F60
:103F8000BB6100BFFEE7FFF707FCBB6A9B6B7B6270
:103F90007B6A002B1FD0B968B86A00F08DF87B6A85
:103FA0005A1EBB6A9A63BB6A1B69002B0FD0BB6A9F
:103FB0001033184600F00AFF0346002B07D03D4B94
:103FC0004FF080521A60BFF34F8FBFF36F8FFFF730
:103FD00013FC012369E07B68002B03D1FFF70CFC85
:103FE000002362E0FB6A002B06D107F1100318469C
:103FF00000F0C2FF0123FB62FFF7FEFB00F0F0FBC5
:10400000FFF7CAFBBB6A93F844305BB2B3F1FF3FE2
:1040100003D1BB6A002283F84420BB6A93F8453081
:104020005BB2B3F1FF3F03D1BB6A002283F84520A6
:10403000FFF7E2FB3A1D07F110031146184600F0A6
:10404000B1FF0346002B23D1B86A00F0ADF8034658
:10405000002B17D0BB6A24337A681146184600F04B
:104060004BFEB86A00F04EF800F0C8FB0346002B88
:1040700089D1104B4FF080521A60BFF34F8FBFF3BE
:104080006F8F80E7B86A00F03DF800F0B7FB7AE781
:10409000B86A00F037F800F0B1FBB86A00F084F8B5
:1040A0000346002B3FF46FAF002318463037BD4660
:1040B00080BD00BF04ED00E080B582B000AF786045
:1040C00039607B681B6C002B18D07B68DA687B68D2
:1040D0001B6C1A447B68DA607B68DA687B689B68D3
:1040E0009A4203D37B681A687B68DA607B68D96878
:1040F0007B681B6C1A463868FCF750FC00BF083719
:10410000BD4680BD80B584B000AF7860FFF744FB4A
:104110007B6893F84530FB7311E07B685B6A002B8A
:1041200012D07B682433184600F050FE0346002B63
:1041300001D000F09DFFFB7B013BDBB2FB7397F9E5
:104140000F30002BE9DC00E000BF7B68FF2283F822
:104150004520FFF751FBFFF71FFB7B6893F84430C6
:10416000BB7311E07B681B69002B12D07B68103396
:10417000184600F02BFE0346002B01D000F078FF1C
:10418000BB7B013BDBB2BB7397F90E30002BE9DC44
:1041900000E000BF7B68FF2283F84420FFF72CFB80
:1041A00000BF1037BD4680BD80B584B000AF7860D9
:1041B000FFF7F2FA7B689B6B002B02D10123FB60B7
:1041C00001E00023FB60FFF717FBFB681846103780
:1041D000BD4680BD80B487B000AF786039600023F1
:1041E0003B617B68002B0AD14FF0500383F31188A9
:1041F000BFF36F8FBFF34F8FFB6000BFFEE73B68DD
:10420000002B24D000237B611EE0184A7B69DB0071
:1042100013445B687A689A4205D17B69DB00134AD4
:1042200013443B6113E03B69002B0AD10F4A7B69C1
:1042300052F83330002B04D17B69DB000B4A134466
:104240003B617B6901337B617B69072BDDD93B696E
:10425000002B05D03B693A681A603B697A685A605E
:1042600000BF1C37BD465DF8047B70471436012043
:1042700080B586B000AFF860B9607A60FB687B619A
:10428000FFF78AFA7B6993F844305BB2B3F1FF3FE2
:1042900003D17B69002283F844207B6993F8453081
:1042A0005BB2B3F1FF3F03D17B69002283F8452065
:1042B000FFF7A2FA7B699B6B002B06D17B69243345
:1042C0007A68B968184600F03BFD7869FFF71AFF75
:1042D00000BF1837BD4680BD80B58CB004AFF86014
:1042E000B9603B601346FB80FB889B001846FFF7D4
:1042F00035FB78617B69002B13D05820FFF72EFB2C
:10430000F861FB69002B08D058220021F86901F000
:10431000F3FDFB697A691A6305E07869FFF7D8FB5A
:1043200001E00023FB61FB69002B13D0FA88002316
:104330000393FB690293FB6A0193BB6A00933B689A
:10434000B968F86800F00EF8F86900F099F80123F0
:10435000BB6102E04FF0FF33BB61BB6918462037F9
:10436000BD4680BD80B588B000AFF860B9607A60A6
:104370003B603B6B186B7B689B001A46A52101F0E4
:10438000BBFD3B6B1A6B7B6803F18043013B9B00D9
:104390001344BB61BB6923F00703BB61BB6903F036
:1043A0000703002B0AD04FF0500383F31188BFF3AB
:1043B0006F8FBFF34F8F7B6100BFFEE7BB68002BA1
:1043C0001ED00023FB6112E0BA68FB691344197820
:1043D0003A6BFB69134434330A461A70BA68FB69B6
:1043E00013441B78002B06D0FB690133FB61FB698A
:1043F000092BE9D900E000BF3B6B002283F83D2088
:10440000BB6A042B0AD94FF0500383F31188BFF322
:104410006F8FBFF34F8F3B6100BFFEE7BB6A042B7A
:1044200001D90423BB623B6BBA6ADA623B6BBA6A9E
:104430009A643B6B04331846FEF7ECFF3B6B183372
:104440001846FEF7E7FF3B6B3A6B1A61BB6AC3F194
:1044500005023B6B9A613B6B3A6B5A623A68F968AA
:10446000B869FFF76BF802463B6B1A60FB6A002BDA
:1044700002D0FB6A3A6B1A6000BF2037BD4680BD90
:1044800080B584B000AF7860FFF786F9404B1B68B9
:1044900001333F4A13603F4B1B68002B09D13D4A53
:1044A0007B6813603A4B1B68012B10D100F004FEAF
:1044B0000DE0394B1B68002B09D1364B1B68DA6ABB
:1044C0007B68DB6A9A4202D8324A7B681360334BBE
:1044D0001B680133314A1360304B1A687B681A64D9
:1044E0007B68DB6A01229A402D4B1B6813432C4AE0
:1044F00013607B68DA6A2B4913469B0013449B00C8
:104500000B4404331B68FB607B68FA689A60FB68A5
:104510009A687B68DA60FB689B687A6804325A6044
:104520007B681A1DFB689A607B68DA6A13469B00F9
:1045300013449B001B4A1A447B685A617B68DA6A01
:10454000184913469B0013449B000B441B68591CDD
:10455000144813469B0013449B0003441960FFF763
:104560004BF90D4B1B68002B0ED00A4B1B68DA6A07
:104570007B68DB6A9A4207D20B4B4FF080521A607D
:10458000BFF34F8FBFF36F8F00BF1037BD4680BDA5
:104590002C370120543601203837012048370120BC
:1045A000343701205836012004ED00E080B584B096
:1045B00000AF7860FFF7F0F87B68002B02D13B4B2F
:1045C0001B6800E07B68FB60FB6804331846FEF75D
:1045D0008BFF0346002B15D1FB68DA6A344913467A
:1045E0009B0013449B000B441B68002B0AD1FB6803
:1045F000DB6A012202FA03F3DA432E4B1B681340F5
:104600002C4A1360FB689B6A002B04D0FB681833AC
:104610001846FEF769FF284B1B680133264A1360D2
:10462000224B1B68FA689A420BD1FB680433194687
:104630002248FEF7FCFE224B1B680133204A136020
:1046400006E0204B1B68013B1E4A136000F0B2FDE0
:10465000FFF7D2F8154B1B68FA689A4202D0F86847
:1046600000F098FD184B1B68002B1BD00F4B1B68EC
:10467000FA689A4216D1154B1B68002B0AD04FF0EE
:10468000500383F31188BFF36F8FBFF34F8FBB606D
:1046900000BFFEE70E4B4FF080521A60BFF34F8F02
:1046A000BFF36F8F00BF1037BD4680BD5436012069
:1046B00058360120343701204837012000370120C7
:1046C000143701202C3701203837012054370120BE
:1046D00004ED00E080B584B000AF78600023FB609B
:1046E0007B68002B17D0134B1B68002B0AD04FF0B0
:1046F000500383F31188BFF36F8FBFF34F8FBB60FD
:1047000000BFFEE700F06CF80021786800F016FFAB
:1047100000F074F8F860FB68002B07D1064B4FF0EF
:1047200080521A60BFF34F8FBFF36F8F00BF1037F7
:10473000BD4680BD5437012004ED00E080B586B051
:1047400002AF204B019300230093002382221E49D5
:104750001E48FFF7C1FDF860FB68012B02D100F095
:104760006DFFF860FB68012B16D14FF0500383F307
:104770001188BFF36F8FBFF34F8FBB6000BF144B27
:104780004FF0FF321A60134B01221A60124B0022C5
:104790001A60FEF75FFF0EE0FB68B3F1FF3F0AD13E
:1047A0004FF0500383F31188BFF36F8FBFF34F8F28
:1047B0007B6000BFFEE7094B1B6800BF1037BD469A
:1047C00080BD00BF5037012094BF00088950000809
:1047D0004C370120383701203037012008000020F5
:1047E00080B400AF044B1B680133034A136000BF61
:1047F000BD465DF8047B70475437012080B588B012
:1048000000AF0023FB610023BB61714B1B68002BD1
:104810000AD14FF0500383F31188BFF36F8FBFF3BA
:104820004F8F7B6000BFFEE7FEF7B6FF684B1B684B
:10483000013B674A1360664B1B68002B40F0C08049
:10484000644B1B68002B00F0BB808AE0624BDB6886
:10485000DB68FB61FB699B6A3B61FB69DB69FA69A9
:10486000126A9A60FB691B6AFA69D2695A603B69ED
:104870005A68FB6918339A4203D1FB691A6A3B698B
:104880005A60FB6900229A623B691B685A1E3B69A9
:104890001A60FB695B69FB60FB699B68FA69D26817
:1048A0009A60FB69DB68FA6992685A60FB685A682B
:1048B000FB6904339A4203D1FB69DA68FB685A60EA
:1048C000FB6900225A61FB681B685A1EFB681A606C
:1048D000FB69DB6A01229A40404B1B6813433F4A45
:1048E0001360FB69DA6A3E4913469B0013449B0040
:1048F0000B4404331B68BB60FB69BA689A60BB68F1
:104900009A68FB69DA60BB689B68FA6904325A608E
:10491000FB691A1DBB689A60FB69DA6A13469B0043
:1049200013449B002E4A1A44FB695A61FB69DA6AF8
:104930002B4913469B0013449B000B441B68591CD6
:10494000274813469B0013449B0003441960FB69EE
:10495000DA6A244B1B68DB6A9A4202D3224B01229B
:104960001A601D4B1B68002B7FF470AFFB69002B96
:1049700001D000F01FFC1D4B1B687B617B69002B85
:1049800010D000F047F80346002B02D0164B01224E
:104990001A607B69013B7B617B69002BF1D1134B72
:1049A00000221A60104B1B68002B09D00123BB6149
:1049B0000F4B4FF080521A60BFF34F8FBFF36F8FD2
:1049C000FEF71AFFBB6918462037BD4680BD00BF01
:1049D000543701202C370120EC36012034370120D8
:1049E0005836012054360120403701203C37012041
:1049F00004ED00E080B483B000AF054B1B687B6022
:104A00007B6818460C37BD465DF8047B704700BFD5
:104A10003037012080B58AB000AF00237B627D4B28
:104A20001B68002B40F0EC807B4B1B6801333B6222
:104A3000794A3B6A13603B6A002B20D1774B1B6895
:104A40001B68002B0AD04FF0500383F31188BFF38B
:104A50006F8FBFF34F8F7B6000BFFEE76F4B1B680C
:104A6000FB616F4B1B686D4A13606D4AFB691360F5
:104A70006C4B1B6801336B4A136000F09BFB6A4B65
:104A80001B683A6A9A42C0F0A680644B1B681B6898
:104A9000002B04D1644B4FF0FF321A609BE05F4B58
:104AA0001B68DB68DB68BB61BB695B687B613A6A7A
:104AB0007B699A4203D25C4A7B6913608BE0BB69D5
:104AC0005B693B61BB699B68BA69D2689A60BB69E4
:104AD000DB68BA6992685A603B695A68BB690433FB
:104AE0009A4203D1BB69DA683B695A60BB6900220C
:104AF0005A613B691B685A1E3B691A60BB699B6A15
:104B0000002B1ED0BB699B6AFB60BB69DB69BA697D
:104B1000126A9A60BB691B6ABA69D2695A60FB68FB
:104B20005A68BB6918339A4203D1BB691A6AFB6899
:104B30005A60BB6900229A62FB681B685A1EFB68B8
:104B40001A60BB69DB6A01229A40384B1B68134329
:104B5000364A1360BB69DA6A354913469B00134431
:104B60009B000B4404331B68BB60BB69BA689A6046
:104B7000BB689A68BB69DA60BB689B68BA69043233
:104B80005A60BB691A1DBB689A60BB69DA6A134632
:104B90009B0013449B00264A1A44BB695A61BB69B7
:104BA000DA6A234913469B0013449B000B441B689D
:104BB000591C1F4813469B0013449B000344196073
:104BC000BB69DA6A1B4B1B68DB6A9A427FF65DAFF2
:104BD00001237B6259E7174B1B68DA6A14491346B5
:104BE0009B0013449B000B441B68012B01D901233C
:104BF0007B62114B1B68002B07D001237B6204E012
:104C00000E4B1B6801330D4A13607B6A1846283728
:104C1000BD4680BD5437012030370120E4360120E5
:104C2000E8360120443701204C3701203437012079
:104C30005836012054360120403701203C370120EE
:104C400080B487B000AF274B1B68002B03D0264BE6
:104C500001221A603FE0244B00221A60234B1B689C
:104C6000FB60FB68B3FA83F3FB72FB7AC3F11F03AB
:104C70007B611F497A6913469B0013449B000B44D8
:104C80001B68002B0AD14FF0500383F31188BFF348
:104C90006F8FBFF34F8F7B6000BFFEE77A691346CB
:104CA0009B0013449B00124A13443B613B695B68C1
:104CB0005A683B695A603B695A683B6908339A42B3
:104CC00004D13B695B685A683B695A603B695B6821
:104CD000DB68084A136000BF1C37BD465DF8047BE3
:104CE000704700BF5437012040370120343701207E
:104CF000583601205436012080B584B000AF78606A
:104D000039607B68002B0AD14FF0500383F3118880
:104D1000BFF36F8FBFF34F8FFB6000BFFEE7074B02
:104D20001B68183319467868FEF7A5FB012138681F
:104D300000F004FC00BF1037BD4680BD5436012092
:104D400080B586B000AFF860B9607A60FB68002B70
:104D50000AD14FF0500383F31188BFF36F8FBFF375
:104D60004F8F3B6100BFFEE7FB685B687B61164BC2
:104D70001B687A69DA61144B1B687A6992681A6257
:104D8000114B1A687B699B6818325A600E4B1B687E
:104D900003F118027B699A600B4B1B68FA689A62F0
:104DA000FB681B685A1CFB681A607B68002B02D0EA
:104DB0004FF0FF33BB607968B86800F0BFFB00BFFD
:104DC0001837BD4680BD00BF5436012080B48BB07B
:104DD00000AF78607B68DB68DB683B623B6A002B76
:104DE0000AD14FF0500383F31188BFF36F8FBFF3E5
:104DF0004F8FFB6000BFFEE73B6A9B6AFB613B6A2B
:104E0000DB693A6A126A9A603B6A1B6A3A6AD2693B
:104E10005A60FB695A683B6A18339A4203D13B6A6D
:104E20001A6AFB695A603B6A00229A62FB691B6836
:104E30005A1EFB691A604A4B1B68002B5ED13B6A05
:104E40005B697B613B6A9B683A6AD2689A603B6A9D
:104E5000DB683A6A92685A607B695A683B6A043335
:104E60009A4203D13B6ADA687B695A603B6A002246
:104E70005A617B691B685A1E7B691A603B6ADB6A50
:104E800001229A40374B1B681343364A13603B6A32
:104E9000DA6A354913469B0013449B000B440433E4
:104EA0001B683B613B6A3A699A603B699A683B6A56
:104EB000DA603B699B683A6A04325A603B6A1A1DA1
:104EC0003B699A603B6ADA6A13469B0013449B0075
:104ED000254A1A443B6A5A613B6ADA6A22491346F8
:104EE0009B0013449B000B441B68591C1E4813462F
:104EF0009B0013449B00034419601BE01B4B5B6841
:104F0000BB613B6ABA69DA61BB699A683B6A1A623B
:104F1000BB699B683A6A18325A603B6A03F118020F
:104F2000BB699A603B6A114A9A62104B1B68013355
:104F30000E4A13603B6ADA6A0D4B1B68DB6A9A42C1
:104F400005D901237B620B4B01221A6001E000238B
:104F50007B627B6A18462C37BD465DF8047B704740
:104F6000543701203437012058360120EC36012017
:104F7000543601204037012080B483B000AF786000
:104F8000064B1A687B681A60054B1A687B685A6082
:104F900000BF0C37BD465DF8047B704744370120E5
:104FA0003037012080B588B000AF786039607B6809
:104FB000002B0AD14FF0500383F31188BFF36F8F9A
:104FC000BFF34F8F3B6100BFFEE73B68002B0AD168
:104FD0004FF0500383F31188BFF36F8FBFF34F8FF0
:104FE000FB6000BFFEE7FEF7D7FB1F4B1B68BB61F2
:104FF0007B685B68BA69D31A7B613B681B68B3F155
:10500000FF3F02D10023FB6126E07B681A68174B43
:105010001B689A420AD07B685B68BA699A4205D3DA
:105020000123FB613B6800221A6015E03B681B68A6
:105030007A699A420BD23B681A687B69D21A3B683C
:105040001A607868FFF798FF0023FB6104E03B6873
:1050500000221A600123FB61FEF7CEFBFB691846B4
:105060002037BD4680BD00BF3037012044370120C6
:1050700080B400AF034B01221A6000BFBD465DF84B
:10508000047B70474037012080B582B000AF786064
:1050900000F052F8064B1B68012BF9D9054B4FF075
:1050A00080521A60BFF34F8FBFF36F8FF0E700BFDE
:1050B0005836012004ED00E080B582B000AF002337
:1050C0007B600CE07A6813469B0013449B00124AF5
:1050D00013441846FEF77EF97B6801337B607B68DA
:1050E000042BEFD90D48FEF775F90D48FEF772F95C
:1050F0000C48FEF76FF90C48FEF76CF90B48FEF709
:1051000069F90B4B054A1A600A4B054A1A6000BF41
:105110000837BD4680BD00BF58360120BC3601208F
:10512000D0360120EC36012000370120183701204D
:10513000E4360120E836012080B582B000AF19E0E6
:10514000FEF72AFB104BDB68DB687B607B6804336F
:105150001846FEF7C9F90D4B1B68013B0B4A13605B
:105160000B4B1B68013B0A4A1360FEF745FB78684E
:1051700000F010F8064B1B68002BE1D100BF00BF08
:105180000837BD4680BD00BF003701202C37012005
:105190001437012080B582B000AF78607B681B6B4C
:1051A0001846FEF795FC7868FEF792FC00BF0837BA
:1051B000BD4680BD80B400AF0A4B1B681B68002B46
:1051C00004D1094B4FF0FF321A6005E0054B1B6814
:1051D000DB681B68044A136000BFBD465DF8047BB2
:1051E000704700BFE43601204C37012080B483B003
:1051F00000AF0B4B1B68002B02D101237B6008E042
:10520000084B1B68002B02D102237B6001E00023C6
:105210007B607B6818460C37BD465DF8047B7047A1
:10522000383701205437012080B586B000AFF860D0
:10523000B9607A60FB68002B0AD04FF0500383F30B
:105240001188BFF36F8FBFF34F8F3B6100BFFEE745
:10525000FEF7A2FA264B1B68FA68143253F8223084
:10526000002B15D1224B1A68FB68134454330122DA
:105270001A707B68002B0BD00121786800F05EF972
:105280001C4B4FF080521A60BFF34F8FBFF36F8FEC
:10529000FEF7B2FAFEF780FA154B1B68FA68143273
:1052A00053F822307B617B69002B12D0BB68002B46
:1052B00007D00F4B1B68FA681432002143F8221004
:1052C00007E00B4B1B687A69511EFA68143243F8E9
:1052D0002210074B1A68FB681344543300221A70DB
:1052E000FEF78AFA7B6918461837BD4680BD00BFB5
:1052F0005436012004ED00E080B58EB000AFF860B8
:10530000B9607A60FB7001237B63BB68002B0AD015
:105310004FF0500383F31188BFF36F8FBFF34F8FAC
:105320003B6200BFFEE7FB68002B0AD14FF0500341
:1053300083F31188BFF36F8FBFF34F8FFB6100BF03
:10534000FEE7FB683B63FEF727FA3B6C002B06D0B9
:105350003B6BBA68143253F822203B6C1A603A6BEC
:10536000BB68134454331B7887F82F303A6BBB6803
:105370001344543302221A70FB78042B3BD801A249
:1053800052F823F01554000899530008B55300084B
:10539000CD530008DB5300083B6BBA68143253F856
:1053A00022207B6842EA03013B6BBA68143243F85F
:1053B000221032E03B6BBA68143253F82230591C89
:1053C0003B6BBA68143243F8221026E03B6BBA6894
:1053D0001432796843F822101FE097F82F30022B1F
:1053E00006D03B6BBA681432796843F8221014E097
:1053F00000237B6311E04C4B1B68002B0CD04FF05B
:10540000500383F31188BFF36F8FBFF34F8FBB61DE
:1054100000BFFEE700BF00E000BF97F82F30012B70
:105420007BD13B6B5B69BB623B6B9B683A6BD26821
:105430009A603B6BDB683A6B92685A60BB6A5A6849
:105440003B6B04339A4203D13B6BDA68BB6A5A6008
:105450003B6B00225A61BB6A1B685A1EBB6A1A600A
:105460003B6BDB6A01229A40304B1B6813432F4A87
:1054700013603B6BDA6A2E4913469B0013449B0072
:105480000B4404331B687B623B6B7A6A9A607B6ACD
:105490009A683B6BDA607B6A9B683A6B04325A60AD
:1054A0003B6B1A1D7B6A9A603B6BDA6A13469B0062
:1054B00013449B001E4A1A443B6B5A613B6BDA6AE9
:1054C0001B4913469B0013449B000B441B68591C4B
:1054D000174813469B0013449B00034419603B6B21
:1054E0009B6A002B0AD04FF0500383F31188BFF35F
:1054F0006F8FBFF34F8F7B6100BFFEE73B6BDA6AB4
:105500000C4B1B68DB6A9A4207D90B4B4FF0805259
:105510001A60BFF34F8FBFF36F8FFEF76DF97B6B90
:1055200018463837BD4680BD30370120343701205A
:10553000583601205436012004ED00E080B586B0D5
:1055400000AF78603960364B1B687B61354B1B6858
:1055500004331846FDF7C8FF0346002B0BD1314B2F
:105560001B68DB6A012202FA03F3DA432E4B1B6845
:1055700013402D4A13607B68B3F1FF3F24D13B6891
:10558000002B21D0294B5B683B61264B1B683A6995
:105590009A60244B1B683A699268DA60214B1A685A
:1055A0003B699B6804325A601E4B1B681A1D3B699D
:1055B0009A601C4B1B681D4A5A611C4B1B680133C7
:1055C0001A4A136000BF26E07A697B681344FB60C7
:1055D000144B1B68FA685A60FA687B699A4209D2D0
:1055E000134B1A680F4B1B68043319461046FDF71E
:1055F00042FF10E00F4B1A680A4B1B680433194630
:105600001046FDF738FF0C4B1B68FA689A4202D22D
:10561000094AFB68136000BF1837BD4680BD00BF54
:10562000303701205436012034370120183701204B
:10563000E8360120E43601204C37012080B584B0E3
:1056400002AF00237B6000F047FA114B1B68002B70
:105650000BD0104B01930223009300234FF482726E
:105660000D490E48FEF738FE78607B68002B0AD1A2
:105670004FF0500383F31188BFF36F8FBFF34F8F49
:105680003B6000BFFEE77B6818460837BD4680BD1B
:10569000883701208C3701209CBF0008455700083F
:1056A00080B584B000AFF860B9607A6008E0FB684C
:1056B0009B69BA681344BB60FB681B6AF86898472B
:1056C000FB689A69BB68D118BB687A68F86800F013
:1056D000DDF80346002BEAD100BF00BF1037BD46FE
:1056E00080BD000080B584B000AF78603960144B95
:1056F0001B68DB68DB68FB60FB6804331846FDF75A
:10570000F3FEFB6893F8283003F00403002B05D068
:105710003A687968F868FFF7C3FF08E0FB6893F818
:10572000283023F00103DAB2FB6883F82820FB68F5
:105730001B6AF868984700BF1037BD4680BD00BFA0
:105740008037012080B584B000AF786007F108038E
:10575000184600F057F8F860BB681946F86800F082
:1057600003F800F0D5F8F1E780B584B000AF7860B9
:105770003960FFF735F807F10803184600F066F8BE
:10578000F860BB68002B30D13B68002B0AD17A68E7
:10579000FB689A4206D8FFF731F8F9687868FFF796
:1057A000A1FF24E03B68002B08D0134B1B681B684B
:1057B000002B01D1012300E000233B600F4B186850
:1057C0007A68FB68D31A3A681946FEF751FDFFF76D
:1057D00015F80346002B0AD1094B4FF080521A608E
:1057E000BFF34F8FBFF36F8F01E0FFF707F800BFE4
:1057F0001037BD4680BD00BF8437012088370120A7
:1058000004ED00E080B485B000AF78600E4B1B68FB
:105810001B68002B01D1012200E000227B681A6086
:105820007B681B68002B05D1074B1B68DB681B6876
:10583000FB6001E00023FB60FB6818461437BD469F
:105840005DF8047B704700BF8037012080B584B0CD
:1058500000AF7860FFF7CEF8F8600B4B1B68FA6872
:105860009A4205D200F012F97B6801221A6002E028
:105870007B6800221A60044AFB681360FB681846C4
:105880001037BD4680BD00BF9037012080B586B07F
:1058900000AFF860B9607A603B6000237B61FB6811
:1058A000BA685A60FB68FA681A61BA687B689A42FB
:1058B00012D87A683B68D21AFB689B699A4202D375
:1058C00001237B611BE0104B1A68FB680433194607
:1058D0001046FDF7D0FD12E07A683B689A4206D286
:1058E000BA683B689A4202D301237B6107E0074B09
:1058F0001A68FB68043319461046FDF7BCFD7B6946
:1059000018461837BD4680BD8437012080370120F6
:1059100080B588B000AFA6E0BB68002BC0F2A280C3
:105920003B69FB61FB695B69002B04D0FB690433B5
:105930001846FDF7D9FD3B1D1846FFF787FFB861F4
:10594000BB68013B082B00F28E8001A252F823F0C5
:105950007559000875590008DD590008F15900080B
:105960003B5A00087559000875590008DD590008B0
:10597000F1590008FB6993F8283043F00103DAB2CB
:10598000FB6983F82820FA68FB699B69D118FB68DA
:10599000BA69F869FFF77AFF0346002B63D0FB6909
:1059A00093F8283003F00403002B09D0FA68FB6950
:1059B0009B691344BA691946F869FFF771FE08E05C
:1059C000FB6993F8283023F00103DAB2FB6983F80E
:1059D0002820FB691B6AF869984744E0FB6993F843
:1059E000283023F00103DAB2FB6983F828203AE07B
:1059F000FB6993F8283043F00103DAB2FB6983F8BE
:105A00002820FA68FB699A61FB699B69002B0AD11F
:105A10004FF0500383F31188BFF36F8FBFF34F8FA5
:105A20007B6100BFFEE7FB699A69BB69D118BB695E
:105A3000BA69F869FFF72AFF15E0FB6993F8283087
:105A400003F00203002B03D1F869FEF741F80AE0E6
:105A5000FB6993F8283023F00103DAB2FB6983F87D
:105A6000282000E000BF084B1B6807F10801002256
:105A70001846FEF741FA0346002B7FF44DAF00BFF6
:105A800000BF2037BD4680BD8837012080B582B079
:105A900000AF09E00E4B1B68DB681B683B604FF0F2
:105AA000FF313868FFF71EFE094B1B681B68002B8F
:105AB000F0D1074B1B687B60064B1B68044A1360E0
:105AC000044A7B68136000BF0837BD4680BD00BF35
:105AD000803701208437012080B500AFFDF75CFEE0
:105AE000124B1B68002B1DD11148FDF773FC1148A8
