:020000040800F2
:10000000000003206D030008150300081703000813
:10001000190300081B0300081D030008000000006E
:100020000000000000000000000000001F030008A6
:100030002103000800000000230300082503000836
:10004000BD030008BD030008BD030008BD03000890
:10005000BD030008BD030008BD030008BD03000880
:10006000BD030008BD030008BD030008BD03000870
:10007000BD030008BD030008BD030008BD03000860
:10008000BD030008BD030008BD030008BD03000850
:10009000BD030008BD030008BD030008BD03000840
:1000A000BD030008BD030008BD030008BD03000830
:1000B000BD030008BD030008BD030008BD03000820
:1000C000BD030008BD030008BD030008BD03000810
:1000D000BD030008BD160008BD030008BD030008ED
:1000E000BD030008BD030008BD030008BD030008F0
:1000F000BD030008BD030008BD030008BD030008E0
:10010000BD030008BD030008BD030008BD030008CF
:10011000BD030008BD030008BD030008BD030008BF
:10012000BD030008BD030008BD030008BD030008AF
:10013000BD030008BD030008BD030008BD0300089F
:10014000BD030008BD030008BD030008BD0300088F
:10015000BD030008BD030008BD030008BD0300087F
:10016000BD030008BD030008BD030008BD0300086F
:10017000BD030008BD030008BD0300080000000027
:10018000BD030008BD030008BD030008BD0300084F
:10019000BD030008BD030008BD030008BD0300083F
:0C01A000BD030008BD030008BD030008FB
:1001AC0010B5054C237833B9044B13B10448AFF3A5
:1001BC0000800123237010BD3404002000000000D7
:1001CC000C19000808B5034B1BB103490348AFF3E6
:1001DC00008008BD00000000380400200C19000845
:1001EC00044B1A6B42F080021A631A6B42F0010244
:1001FC001A6370470038024072B6FEE700B593B040
:10020C003022002106A801F0B9FA002301930293D1
:10021C000393049305931D4A136C43F080531364AA
:10022C00A2F5E432136843F44043136001230693B0
:10023C00079302230C934FF480020D920F220E921F
:10024C00D8220F9210930423119306A800F09CFA65
:10025C00B0B900F051FAA8B90F230193022302930D
:10026C00002303934FF4A05304934FF4805305934E
:10027C00052101A800F04EFC30B913B05DF804FB69
:10028C00FFF7BAFFFFF7B8FFFFF7B6FF00380240E1
:10029C0008B500F0A3F8FFF7B1FFFFF7A1FF01F0DD
:1002AC0085F94FF4E13001F0AFF90BE001F09CF966
:1002BC000C4B0022A3F8002183F802214FF4FA70B2
:1002CC0000F0B4F801F098F94FF47A730D22064956
:1002DC00064800F08BFF034B93F80231002BE5D15D
:1002EC00ECE700BF54040020241900085805002036
:1002FC00044B5A6C42F480425A641A6C42F080529D
:10030C001A64704700380240FEE7FEE7FEE7FEE79E
:10031C00FEE770477047704708B500F079F808BDE4
:10032C000C4B1A6842F001021A60002199601A689D
:10033C0022F0847222F480321A60074A5A601A68DA
:10034C0022F480221A60D960044B4FF000629A604C
:10035C00704700BF003802401030002400ED00E070
:10036C00DFF834D0002103E00C4B5B5843500431D0
:10037C000B480C4B42189A42F6D30B4A02E000236E
:10038C0042F8043B094B9A42F9D3FFF7C9FF01F03D
:10039C00D1F9FFF77DFF70470000032054190008C6
:1003AC000000002034040020340400209C050020B0
:1003BC00FEE7000010B5044600F002FD064BA3FB5F
:1003CC000030800900F098F8002221464FF0FF30F1
:1003DC0000F04CF8002010BDD34D621008B50B4B4B
:1003EC001A6842F400721A601A6842F480621A6049
:1003FC001A6842F480721A60032000F025F80F206E
:10040C00FFF7D8FFFFF774FF002008BD003C024047
:10041C00024A136801331360704700BF5004002078
:10042C00014B1868704700BF5004002010B582B013
:10043C000190FFF7F5FF0446FFF7F2FF001B019B4D
:10044C009842F9D302B010BD074AD36823F4E06395
:10045C001B041B0C000200F4E060034343F0BF6379
:10046C0043F40033D360704700ED00E000B51A4B45
:10047C00DB68C3F30223C3F1070CBCF1040F28BFE4
:10048C004FF0040C03F1040EBEF1060F1AD9033B16
:10049C004FF0010E0EFA0CFC0CF1FF3C01EA0C01C2
:1004AC0099400EFA03F3013B1340194300280BDB70
:1004BC000901C9B200F1604000F5614080F80013F9
:1004CC005DF804FB0023E3E700F00F000901C9B25B
:1004DC00024B1954F4E700BF00ED00E014ED00E00E
:1004EC0000F01F02012393404009024A42F82030D9
:1004FC00704700BF00E100E00138B0F1807F0BD203
:10050C004FF0E0235861054AF02182F823100020B7
:10051C00986107221A6170470120704700ED00E0D6
:10052C0000230F2B00F2DB80F0B53AE0092200E04B
:10053C000022AA4032430234694D45F82420694A0E
:10054C0014686FEA0C0224EA0C054E6816F4803F1E
:10055C0001D04CEA0405634C2560646802EA04058A
:10056C004E6816F4003F01D04CEA04055D4C656002
:10057C00A46802EA04054E6816F4801F01D04CEA08
:10058C000405584CA560E46822404D6815F4001F22
:10059C0001D04CEA0402534CE26001330F2B00F201
:1005AC009D8001229A400C6804EA020C32EA040491
:1005BC00F3D14C68022C01D0122C10D1DD08083577
:1005CC0050F8257003F00704A6000F24B44027EA66
:1005DC00040E0C69B44044EA0E0440F82540066849
:1005EC004FEA430E032404FA0EF4E54326EA04060C
:1005FC004C6804F0030404FA0EF4344304604C68B1
:10060C00661E012E03D9112C01D0122C0FD1866835
:10061C002E40CC6804FA0EF434438460446824EA17
:10062C0002024C68C4F300149C4014434460C2683A
:10063C0015408A6802FA0EF22A43C2604A6812F028
:10064C00805FAAD0284C626C42F4804262649C08A1
:10065C00A51C234A52F8256003F0030295000F22D3
:10066C00AA4026EA0206214A90423FF461AF02F505
:10067C008062904222D002F58062904220D002F536
:10068C00806290421ED002F5806290421CD002F52E
:10069C00806290421AD002F58062904218D002F526
:1006AC008062904216D002F58062904214D002F51E
:1006BC00806290423FF43AAF0A223AE7012238E7CF
:1006CC00022236E7032234E7042232E7052230E720
:1006DC0006222EE707222CE708222AE7F0BD7047F6
:1006EC0000380140003C014000380240000002404C
:1006FC00436959404161704710B5214A136C43F06E
:10070C00805313644FF4803393FAA3F3B3FA83F357
:10071C00DBB29B0003F1844303F5602301221A60D2
:10072C00FFF77EFE0446174B5B6813F4803F07D13E
:10073C00FFF776FE001BB0F57A7FF4D9032010BDCD
:10074C004FF4003393FAA3F3B3FA83F3DBB29B00B9
:10075C0003F1844303F5602301221A60FFF760FE66
:10076C000446084B5B6813F4003F07D1FFF758FEB3
:10077C00001BB0F57A7FF4D90320E0E70020DEE718
:10078C00003802400070004038B50446036813F08E
:10079C00010F19D0A54B9B6803F00C03042B0AD056
:1007AC00A24B9B6803F00C03082B32D19F4B5B6868
:1007BC0013F4800F2DD09D4B1B6813F4003F03D016
:1007CC006368002B00F09A81236813F0020F72D03B
:1007DC00964B9B6813F00C0F55D0944B9B6803F011
:1007EC000C03082B4AD0E368002B00F08E80904B52
:1007FC0001221A60FFF714FE05468C4B1B6813F0A0
:10080C00020F72D1FFF70CFE401B6428F5D90320B0
:10081C0079E1864B00229A70FFF702FE0546834B66
:10082C001B6813F4003F06D0FFF7FAFD431B642B43
:10083C00F5D9032067E122797C4B9A70636873B118
:10084C00FFF7EEFD0546794B1B6813F4003FBBD157
:10085C00FFF7E6FD401B6428F5D9032053E1FFF7B1
:10086C00DFFD0546714B1B6813F4003FACD0FFF75E
:10087C00D7FD401B6428F5D9032044E16B4B5B6822
:10088C0013F4800FAFD1694B1B6813F0020F03D028
:10089C00E368012B40F034816448026822F0F802CE
:1008AC002169F82393FAA3F3B3FA83F3DBB201FAC9
:1008BC0003F313430360236813F0080F4AD06369F2
:1008CC00002B34D05A4B0122C3F8802EFFF7A8FD21
:1008DC000546564B5B6F13F0020F3BD1FFF7A0FDA3
:1008EC00401B6428F5D903200DE15048026822F022
:1008FC00F8022169F82393FAA3F3B3FA83F3DBB27A
:10090C0001FA03F313430360D5E7494B00221A6045
:10091C00FFF786FD0546454B1B6813F0020FCAD046
:10092C00FFF77EFD401B6428F5D90320EBE0404B1C
:10093C000022C3F8802EFFF773FD05463B4B5B6F1F
:10094C0013F0020F06D0FFF76BFD401B6428F5D99E
:10095C000320D8E0236813F0040F1FD1A369002BE8
:10096C0000F0D080314A926802F00C02082A00F0A4
:10097C00CB80022B71D02E4B00221A66FFF750FD54
:10098C0004462A4B1B6813F0007F00F0B580FFF77C
:10099C0047FD001B6428F4D90320B4E0234A136CF0
:1009AC0043F080531364A2F5E432136843F480736C
:1009BC001360FFF735FD05461E4B1B6813F4807F53
:1009CC0006D1FFF72DFD401B6428F5D903209AE0D2
:1009DC00164B002283F87020FFF722FD0546134BBF
:1009EC001B6F13F0020F08D0FFF71AFD401B41F2EA
:1009FC0088339842F3D9032085E0227A0B4B83F895
:100A0C007020A368012B17D0FFF70AFD0546074B92
:100A1C001B6F13F0020FA1D0FFF702FD401B41F238
:100A2C0088339842F3D903206DE000BF00380240B0
:100A3C000000474200700040FFF7F2FC0546334BC4
:100A4C001B6F13F0020F89D1FFF7EAFC401B41F238
:100A5C0088339842F3D9032055E02D4B00221A66B7
:100A6C00FFF7DEFC0546294B1B6813F0007F06D010
:100A7C00FFF7D6FC401B6428F5D9032043E0236A1A
:100A8C00616A47F6C07292FAA2F2B2FA82F2D2B25C
:100A9C0001FA02F21343A26A5208013A4FF44031B0
:100AAC0091FAA1F1B1FA81F1C9B28A401343E2691A
:100ABC001343E16A4FF0706292FAA2F2B2FA82F238
:100ACC00D2B201FA02F2134343F000530F4A5360BF
:100ADC000F4B01221A66FFF7A3FC04460B4B1B6855
:100AEC0013F0007F06D1FFF79BFC001B6428F5D99F
:100AFC00032008E0002006E0002004E0012002E0D2
:100B0C00012000E0002038BD0120FCE70038024045
:100B1C000000474270B504460D46804B1B6803F03D
:100B2C000F038B426DD2CAB27C4B1A701B6803F058
:100B3C000F038B4240F0EA80036813F0020F06D0DB
:100B4C00774A936823F0F00381680B439360236822
:100B5C0013F0010F00F0BE806368012B24D0022B30
:100B6C0029D06F4A126812F0020F00F0D1806C4944
:100B7C008A6822F0030213438B60FFF751FC054691
:100B8C006368012B1ED0022B2CD0654B9B6813F095
:100B9C000C0F00F09F80FFF743FC431B41F288329F
:100BAC009342F2D90320B0E05D4A126812F4003F80
:100BBC00DDD10120A9E05A4A126812F0007FD6D18B
:100BCC000120A2E0564B9B6803F00C03042B00F0B1
:100BDC008180FFF725FC431B41F288329342F1D907
:100BEC00032092E04E4B9B6803F00C03082B71D052
:100BFC00FFF716FC401B41F288339842F2D90320D0
:100C0C0083E0036813F0020F06D0454A936823F083
:100C1C00F00381680B439360236813F0010F51D0EC
:100C2C006368012B22D0022B27D03D4A126812F0A8
:100C3C00020F6FD03A498A6822F0030213438B608B
:100C4C00FFF7EEFB06466368012B1DD0022B2AD062
:100C5C00334B9B6813F00C0F34D0FFF7E1FB831B75
:100C6C0041F288329342F3D903204EE02C4A1268A9
:100C7C0012F4003FDED1012047E0294A126812F03D
:100C8C00007FD7D1012040E0254B9B6803F00C037B
:100C9C00042B17D0FFF7C4FB831B41F2883293421D
:100CAC00F2D9032031E01E4B9B6803F00C03082B98
:100CBC0008D0FFF7B5FB801B41F288339842F2D97C
:100CCC00032022E0EAB2154B1A701B6803F00F03E5
:100CDC00AB4221D1236813F0040F06D0104A93685D
:100CEC0023F4E053E1680B439360236813F0080F7F
:100CFC0007D00B4A936823F46043216943EAC1038C
:100D0C0093600F20FFF756FB002070BD0120FCE71D
:100D1C000120FAE70120F8E70120F6E7003C024049
:100D2C0000380240234B9B6803F00C03042B3DD08E
:100D3C00082B3DD11F4A536803F03F03526812F44D
:100D4C00800F21D01C48B0FBF3F01A4B5A6847F6C1
:100D5C00C0731A4093FAA3F3B3FA83F3DBB222FA0B
:100D6C0003F303FB00F0134B5B6803F440334FF4C5
:100D7C00403292FAA2F2B2FA82F2D2B2D3400133EA
:100D8C005B00B0FBF3F070470C48B0FBF3F0094B81
:100D9C005A6847F6C0731A4093FAA3F3B3FA83F375
:100DAC00DBB222FA03F303FB00F0DCE702487047E6
:100DBC00024870470038024040787D010024F4005E
:100DCC0008B5FFF7AFFF094B9A6802F0F002F02369
:100DDC0093FAA3F3B3FA83F3DBB222FA03F3044AD4
:100DEC00D35CD840034B186008BD00BF00380240EC
:100DFC00341900080000002008B5FFF7E1FF084B8C
:100E0C009A6802F4E0524FF4E05393FAA3F3B3FA66
:100E1C0083F3DBB222FA03F3024AD35CD84008BD59
:100E2C00003802403419000808B5FFF7C9FF084B19
:100E3C009A6802F460424FF4604393FAA3F3B3FA56
:100E4C0083F3DBB222FA03F3024AD35CD84008BD29
:100E5C00003802403419000890F83930DBB2122BFC
:100E6C0003D0322B01D0022070478368B3F5805F2A
:100E7C0016D0036A5A1C02621A7803685A60C38C33
:100E8C00013B9BB2C3844BB90268D36823F0800347
:100E9C00D3600268D36843F04003D36000207047EE
:100EAC00036A1B880268C3F30803536003691BB908
:100EBC00036A02330362E2E7036A01330362DEE78B
:100ECC00F8B5044601680A6922F44052C36813431A
:100EDC000B610168CA6822F4164222F00C02836886
:100EEC000069034360690343E06903431343CB6028
:100EFC0021684A6922F44072A36913434B61E36988
:100F0C00B3F5004F3CD023686E4A934200F0A680A4
:100F1C0002F58062934200F0A180FFF76DFF00EBB9
:100F2C00800000EB80006668B600B0FBF6F6664FFA
:100F3C00A7FB063676093601FFF75EFF00EB800053
:100F4C0000EB80006568AD00B0FBF5F5FFF754FFD2
:100F5C0000EB800000EB800063689B00B0FBF3F0BB
:100F6C00A7FB00304009642303FB10500001323012
:100F7C00A7FB0037C7F34317236837439F609FE0F5
:100F8C002368504A934236D002F58062934232D0A5
:100F9C00FFF732FF00EB800000EB80006668760004
:100FAC00B0FBF6F6484FA7FB063676093601FFF77D
:100FBC0023FF00EB800000EB800065686D00B0FB48
:100FCC00F5F5FFF719FF00EB800000EB800063687C
:100FDC005B00B0FBF3F3A7FB03235B09642202FB6A
:100FEC0013531B013233A7FB0337C7F34317236893
:100FFC0037439F6064E0FFF717FF00EB800000EBC6
:10100C00800066687600B0FBF6F62F4FA7FB06361D
:10101C0076093601FFF708FF00EB800000EB80003B
:10102C0065686D00B0FBF5F5FFF7FEFE00EB800088
:10103C0000EB800063685B00B0FBF3F3A7FB0323BA
:10104C005B09642202FB13531B013233A7FB0337EA
:10105C00C7F34317236837439F6031E0FFF7E4FE83
:10106C0000EB800000EB80006668B600B0FBF6F683
:10107C00154FA7FB063676093601FFF7D5FE00EBB8
:10108C00800000EB80006568AD00B0FBF5F5FFF764
:10109C00CBFE00EB800000EB800063689B00B0FB94
:1010AC00F3F0A7FB00304009642303FB1050000150
:1010BC003230A7FB0037C7F34317236837439F60D1
:1010CC00F8BD00BF001001401F85EB512DE9F04128
:1010DC0005460E4690461C46FFF7A2F90746B8F1A6
:1010EC00000F29D02B681B6836EA030351D1B4F1E9
:1010FC00FF3FF7D024B1FFF793F9C01BA042F1D901
:10110C002A68D36823F08003D3602A68D36823F05D
:10111C002003D3602A68D36823F48073D3602A68D1
:10112C00536923F001035361012385F839300023FF
:10113C0085F8383003202AE02B681B6836EA030355
:10114C0024D0B4F1FF3FF7D024B1FFF769F9C01BED
:10115C00A042F1D92A68D36823F08003D3602A68AF
:10116C00D36823F02003D3602A68D36823F48073F8
:10117C00D3602A68536923F001035361012385F876
:10118C003930002385F83830032000E04046BDE8B4
:10119C00F0810020FBE738B310B5044690F83930E5
:1011AC00FBB1022384F839302268D36823F400534E
:1011BC00D3602046FFF784FE2268136923F4904322
:1011CC0013612268536923F02A0353612268D368A0
:1011DC0043F40053D3600020E063012384F83930DA
:1011EC0010BD00F025FADCE70120704770B504460D
:1011FC000D461E4690F83930DBB2012B01D0222B64
:10120C005AD1002D5AD0002A5AD094F83830012BDC
:10121C0058D0012384F838300023E36394F8393034
:10122C00DBB2222B05D0122384F83930A284E2845D
:10123C001AE0322384F83930F8E733460022802153
:10124C002046FFF743FF00283ED12B882268C3F3CA
:10125C000803536023690BB9023505E0013503E03F
:10126C0015F8012B23685A60E28C7AB1013AE284BA
:10127C00A268B2F5805FE0D0334600228021204680
:10128C00FFF724FF0028EBD0032016E03346402163
:10129C002046FFF71BFFC8B994F83930DBB2322B6C
:1012AC0006D0012384F83930002384F8383004E068
:1012BC00222384F83930F7E7022070BD0120FCE7C7
:1012CC000120FAE70220F8E70320F6E70320F4E711
:1012DC0070B504460D461E4690F83930DBB2012B32
:1012EC0001D0122B5FD1002D5FD0002A5FD094F873
:1012FC003830012B5DD0012384F838300023E363B0
:10130C0094F83930DBB2122B05D0222384F8393013
:10131C00A285E28520E0322384F83930F8E73346A1
:10132C00002220212046FFF7D1FE002843D123695B
:10133C0033B923685B68C3F3080325F8023B0BE061
:10134C0023685B68DBB225F8013B05E023685B682A
:10135C0003F07F0305F8013BE28DA2B1013AE2856F
:10136C00A268B2F5805FDAD03346002220212046F5
:10137C00FFF7ACFE08BB2369002BE7D123685B6841
:10138C0005F8013BE8E794F83930DBB2322B06D094
:10139C00012384F83930002084F8380004E012234B
:1013AC0084F83930F7E7022070BD0120FCE70120FA
:1013BC00FAE70220F8E70320F6E70320F4E770478A
:1013CC0008B50268D36823F04003D36090F8393035
:1013DC00DBB2322B10D00268D36823F48073D36055
:1013EC000268536923F001035361012380F83930FB
:1013FC00FFF7E5FF002008BD222380F83930F7E71E
:10140C00704708B590F83930DBB2222B01D0322B63
:10141C004ED18368B3F5805F29D00369002B3AD194
:10142C0003685A68836A591C81621A70C38D013B28
:10143C009BB2C385002B3DD10268D36823F02003F7
:10144C00D36090F83930DBB2322B2DD00268D368E0
:10145C0023F48073D3600268536923F00103536152
:10146C00012380F83930FFF7CBFF002023E0826A9C
:10147C00036943B903685B68C3F308031380836A89
:10148C0002338362D2E703685B68DBB21380836A42
:10149C0001338362CAE703685B68826A511C81620C
:1014AC0003F07F031370C1E7122380F83930DAE7B9
:1014BC00022000E0002008BD704710B584B004463F
:1014CC0003681968DA6811F0010F0BD002F480720E
:1014DC0042B11A6800925A680092009AC26B42F0AC
:1014EC000102C26319685A6902F0010211F0020F7D
:1014FC0009D042B11A6801925A680192019AE26BC2
:10150C0042F00402E26319685A6902F0010211F018
:10151C00040F09D042B11A6802925A680292029AD8
:10152C00E26B42F00202E26319685A6902F00102AE
:10153C0011F0080F09D042B11A6803925A6803924D
:10154C00039AE26B42F00802E2631A68DB6803F06C
:10155C00200312F0200F00D0ABB923681A68DB68A7
:10156C0003F0800312F0800F00D083B923681A684F
:10157C00DB6803F0400312F0400F00D05BB9E36B63
:10158C006BB904B010BD2046FFF73BFFE5E72046E2
:10159C00FFF762FCEAE72046FFF712FFEFE70123B3
:1015AC0084F839302046FFF787FFEAE710B586B09C
:1015BC000B4A136B43F00203136301230293019351
:1015CC00039303230493074C01A92046FEF7A8FFBD
:1015DC000223019301A92046FEF7A2FF06B010BD1D
:1015EC00003802400004024008B501210148FFF711
:1015FC007FF808BD0004024008B502210148FFF73E
:10160C0077F808BD0004024008B5074B074A1A607A
:10161C000C225A61586000229A611A61DA609A6051
:10162C001846FFF7B8FD08BD580500200010014012
:10163C0002681C4B9A4200D0704730B587B003F556
:10164C0094331A6B42F001021A635A6C42F0100286
:10165C005A6402240294032304934FF400730193FD
:10166C0007230593104D01A92846FEF759FF4FF4A7
:10167C008063019301A92846FEF752FF0B4B1B68B0
:10168C00DA6842F02002DA60DA6842F01002DA60BE
:10169C002520FEF725FF224621462520FEF7E6FEF3
:1016AC0007B030BD0010014000000240580500207A
:1016BC0010B582B01D4C2046FFF7FFFE23681B6857
:1016CC0013F0200F14D1194B1B681A6812F0100F6D
:1016DC000CD0174AB2F8001100205054012182F8A6
:1016EC0002111A6800925B680093009B02B010BD57
:1016FC004FF47A7301220DF107012046FFF7E8FD44
:10170C000B4AB2F800319DF80710D15401339BB24B
:10171C00A2F80031FF2B03D913460022A3F80021B5
:10172C00024B1B686FF020021A60CCE758050020B2
:10173C005404002070B50D4E0D4D761BB61006D01E
:10174C00002455F8043B01349847A642F9D1094EC0
:10175C00094D761B00F0D4F8B61006D0002455F8CD
:10176C00043B01349847A642F9D170BD48190008D2
:10177C00481900085019000848190008830730B5AB
:10178C0048D0541E002A3FD0CAB2034601E0013CA7
:10179C003AD303F8012B9D07F9D1032C2DD9CDB2E7
:1017AC0045EA05250F2C45EA054536D9A4F110026A
:1017BC0022F00F0C03F1200EE6444FEA121C03F149
:1017CC00100242E9045542E9025510327245F8D133
:1017DC000CF1010214F00C0F03EB021204F00F0CCD
:1017EC0013D0ACF1040323F003030433134442F885
:1017FC00045B9342FBD10CF003042CB1CAB21C4421
:10180C0003F8012B9C42FBD130BD64461346002CDF
:10181C00F4D1F9E703461446BFE71A46A446E0E7BD
:10182C00024B13B1024800F005B8704700000000ED
:10183C004D180008002301461A46184600F01AB845
:10184C0038B5084B084D5B1B9C1007D0043B1D445E
:10185C00013C55F804399847002CF9D1BDE83840C3
:10186C0000F054B85419000850190008704700BF14
:10187C00704700BF2DE9F047DFF87CA00646DAF888
:10188C00000098460F469146FFF7F0FF1B4B1B6874
:10189C00D3F8484124B365681F2D26DC5EB96B1C58
:1018AC000235DAF80000636044F82570FFF7E0FFBA
:1018BC000020BDE8F08704EB85010123C1F8889076
:1018CC00D4F88821AB401A43022EC4F88821C1F801
:1018DC000881E4D1D4F88C211343C4F88C31DEE7B1
:1018EC0003F5A674C3F84841D5E7DAF80000FFF712
:1018FC00BFFF4FF0FF30DCE7300400204419000834
:10190C00F8B500BFF8BC08BC9E467047F8B500BFE0
:08191C00F8BC08BC9E467047B0
:1019240048656C6C6F20576F726C640D0A00000080
:101934000000000001020304010203040607080971
:041944000800002077
:081948002D180008D101000870
:04195000AD010008DD
:101954000024F4000000000000000000F402002055
:101964005C030020C403002000000000000000000D
:101974000000000000000000000000000000000063
:101984000000000000000000000000000000000053
:101994000000000000000000000000000000000043
:1019A4000000000000000000000000000000000033
:1019B4000000000000000000000000000000000023
:1019C4000000000000000000000000000000000013
:1019D4000000000000000000000000000000000003
:1019E40000000000000000000000000000000000F3
:1019F40000000000000000000000000000000000E3
:101A040001000000000000000E33CDAB34126DE67F
:101A1400ECDE05000B0000000000000000000000E8
:101A240000000000000000000000000000000000B2
:101A340000000000000000000000000000000000A2
:101A44000000000000000000000000000000000092
:101A54000000000000000000000000000000000082
:041D8400980500209E
:040000050800036D7F
:00000001FF
