:020000040800F2
:1000000000000320E9150008BD130008C313000811
:10001000C9130008CF130008D51300080000000022
:10002000000000000000000000000000DB130008DA
:10003000E713000800000000F3130008FF13000896
:100040003916000839160008391600083916000854
:100050003916000839160008391600083916000844
:100060003916000839160008391600083916000834
:100070003916000839160008391600083916000824
:100080003916000839160008391600083916000814
:100090003916000839160008391600083916000804
:1000A00039160008391600083916000839160008F4
:1000B0003916000885880008391600083916000826
:1000C00039160008391600083916000839160008D4
:1000D00039160008998900083916000839160008F1
:1000E00039160008391600083916000839160008B4
:1000F00039160008391600083916000839160008A4
:100100003916000839160008391600083916000893
:100110003916000839160008391600083916000883
:100120003916000839160008391600083916000873
:100130003916000839160008391600083916000863
:100140003916000839160008391600083916000853
:100150003916000839160008BD8100083916000854
:100160003916000839160008391600083916000833
:10017000391600083916000839160008000000007A
:100180003916000839160008391600083916000813
:100190003916000839160008391600083916000803
:0C01A0003916000839160008391600084E
:1001C00010B5054C237833B9044B13B10448AFF391
:1001D00000800123237010BDB8090020000000003A
:1001E000B4EA000808B5034B1BB103490348AFF359
:1001F000008008BD00000000BC090020B4EA00082F
:1002000081F0004102E000BF83F0004330B54FEAC7
:1002100041044FEA430594EA050F08BF90EA020F34
:100220001FBF54EA000C55EA020C7FEA645C7FEAC7
:10023000655C00F0E2804FEA5454D4EB5555B8BFEA
:100240006D420CDD2C4480EA020281EA030382EA5B
:10025000000083EA010180EA020281EA0303362DED
:1002600088BF30BD11F0004F4FEA01314FF4801CC0
:100270004CEA113102D0404261EB410113F0004FD2
:100280004FEA03334CEA133302D0524263EB430389
:1002900094EA050F00F0A780A4F10104D5F1200E27
:1002A0000DDB02FA0EFC22FA05F2801841F1000182
:1002B00003FA0EF2801843FA05F359410EE0A5F156
:1002C00020050EF1200E012A03FA0EFC28BF4CF087
:1002D000020C43FA05F3C01851EBE37101F000453D
:1002E00007D54FF0000EDCF1000C7EEB00006EEB4A
:1002F0000101B1F5801F1BD3B1F5001F0CD34908D4
:100300005FEA30004FEA3C0C04F101044FEA44522A
:1003100012F5800F80F09A80BCF1004F08BF5FEAB1
:10032000500C50F1000041EB045141EA050130BD91
:100330005FEA4C0C404141EB0101013C28BFB1F5A3
:10034000801FE9D291F0000F04BF01460020B1FAEE
:1003500081F308BF2033A3F10B03B3F120020CDAC1
:100360000C3208DD02F1140CC2F10C0201FA0CF09F
:1003700021FA02F10CE002F11402D8BFC2F1200C04
:1003800001FA02F120FA0CFCDCBF41EA0C019040BA
:10039000E41AA2BF01EB0451294330BD6FEA040403
:1003A0001F3C1CDA0C340EDC04F11404C4F12002EE
:1003B00020FA04F001FA02F340EA030021FA04F300
:1003C00045EA030130BDC4F10C04C4F1200220FA57
:1003D00002F001FA04F340EA0300294630BD21FA95
:1003E00004F0294630BD94F0000F83F4801306BF5B
:1003F00081F480110134013D4EE77FEA645C18BF4F
:100400007FEA655C29D094EA050F08BF90EA020FE5
:1004100005D054EA000C04BF1946104630BD91EADD
:10042000030F1EBF0021002030BD5FEA545C05D1E0
:100430004000494128BF41F0004130BD14F580041F
:100440003CBF01F5801130BD01F0004545F0FE4193
:1004500041F470014FF0000030BD7FEA645C1ABFC8
:10046000194610467FEA655C1CBF0B46024650EAFF
:10047000013406BF52EA033591EA030F41F400212B
:1004800030BD00BF90F0000F04BF0021704730B5B1
:100490004FF4806404F132044FF000054FF0000186
:1004A00050E700BF90F0000F04BF0021704730B547
:1004B0004FF4806404F1320410F0004548BF40421C
:1004C0004FF000013EE700BF42004FEAE2014FEA71
:1004D00031014FEA02701FBF12F07F4393F07F4F4C
:1004E00081F06051704732F07F4208BF704793F04F
:1004F0007F4F04BF41F40021704730B54FF4607462
:1005000001F0004521F000411CE700BF50EA010264
:1005100008BF704730B54FF000050AE050EA01020D
:1005200008BF704730B511F0004502D5404261EB7D
:1005300041014FF4806404F132045FEA915C3FF4BE
:10054000D8AE4FF003025FEADC0C18BF03325FEA5B
:10055000DC0C18BF033202EBDC02C2F1200300FA0C
:1005600003FC20FA02F001FA03FE40EA0E0021FA31
:1005700002F11444BDE600BF70B54FF0FF0C4CF41F
:10058000E06C1CEA11541DBF1CEA135594EA0C0FD1
:1005900095EA0C0F00F0DEF82C4481EA030621EA0C
:1005A0004C5123EA4C5350EA013518BF52EA033547
:1005B00041F4801143F4801338D0A0FB02CE4FF0F9
:1005C0000005E1FB02E506F00042E0FB03E54FF029
:1005D0000006E1FB03569CF0000F18BF4EF0010E21
:1005E000A4F1FF04B6F5007F64F5407404D25FEA1D
:1005F0004E0E6D4146EB060642EAC62141EA5551D0
:100600004FEAC52040EA5E504FEACE2EB4F1FD0C11
:1006100088BFBCF5E06F1ED8BEF1004F08BF5FEA8F
:10062000500E50F1000041EB045170BD06F0004641
:1006300046EA010140EA020081EA0301B4EB5C04EE
:10064000C2BFD4EB0C0541EA045170BD41F48011E6
:100650004FF0000E013C00F3AB8014F1360FDEBF0B
:10066000002001F0004170BDC4F10004203C35DAE7
:100670000C341BDC04F11404C4F1200500FA05F36A
:1006800020FA04F001FA05F240EA020001F000420B
:1006900021F0004110EBD37021FA04F642EB060181
:1006A0005EEA430E08BF20EAD37070BDC4F10C04AB
:1006B000C4F1200500FA04F320FA05F001FA04F26F
:1006C00040EA020001F0004110EBD37041F100015B
:1006D0005EEA430E08BF20EAD37070BDC4F1200566
:1006E00000FA05F24EEA020E20FA04F301FA05F2CE
:1006F00043EA020321FA04F001F0004121FA04F276
:1007000020EA020000EBD3705EEA430E08BF20EA45
:10071000D37070BD94F0000F0FD101F0004640007F
:1007200041EB010111F4801F08BF013CF7D041EA01
:10073000060195F0000F18BF704703F00046520005
:1007400043EB030313F4801F08BF013DF7D043EAD6
:100750000603704794EA0C0F0CEA135518BF95EA8C
:100760000C0F0CD050EA410618BF52EA4306D1D113
:1007700081EA030101F000414FF0000070BD50EA32
:10078000410606BF1046194652EA430619D094EABC
:100790000C0F02D150EA013613D195EA0C0F05D1A6
:1007A00052EA03361CBF104619460AD181EA0301FA
:1007B00001F0004141F0FE4141F470014FF00000B2
:1007C00070BD41F0FE4141F4780170BD70B54FF04D
:1007D000FF0C4CF4E06C1CEA11541DBF1CEA1355CD
:1007E00094EA0C0F95EA0C0F00F0A7F8A4EB0504AF
:1007F00081EA030E52EA03354FEA013100F08880A6
:100800004FEA03334FF0805545EA131343EA12636E
:100810004FEA022245EA111545EA10654FEA002623
:100820000EF000419D4208BF964244F1FD0404F5DC
:10083000407402D25B084FEA3202B61A65EB030538
:100840005B084FEA32024FF480104FF4002CB6EBF5
:10085000020E75EB030E22BFB61A754640EA0C0075
:100860005B084FEA3202B6EB020E75EB030E22BFB5
:10087000B61A754640EA5C005B084FEA3202B6EBF6
:10088000020E75EB030E22BFB61A754640EA9C00B5
:100890005B084FEA3202B6EB020E75EB030E22BF85
:1008A000B61A754640EADC0055EA060E18D04FEA43
:1008B000051545EA16754FEA06164FEAC30343EAE3
:1008C00052734FEAC2025FEA1C1CC0D111F4801FB0
:1008D0000BD141EA00014FF000004FF0004CB6E7A9
:1008E00011F4801F04BF01430020B4F1FD0C88BF48
:1008F000BCF5E06F3FF6AFAEB5EB030C04BFB6EB53
:10090000020C5FEA500C50F1000041EB045170BD45
:100910000EF0004E4EEA113114EB5C04C2BFD4EB72
:100920000C0541EA045170BD41F480114FF0000EF6
:10093000013C90E645EA060E8DE60CEA135594EA72
:100940000C0F08BF95EA0C0F3FF43BAF94EA0C0F75
:100950000AD150EA01347FF434AF95EA0C0F7FF4EA
:1009600025AF104619462CE795EA0C0F06D152EA3E
:1009700003353FF4FDAE1046194622E750EA410622
:1009800018BF52EA43067FF4C5AE50EA41047FF433
:100990000DAF52EA43057FF4EBAE12E70000000012
:1009A0000000000000000000000000000000000047
:1009B0000000000000000000000000000000000037
:1009C00090F800F06DE9024520F007016FF0000C8F
:1009D00010F0070491F820F040F049804FF0000437
:1009E0006FF00700D1E9002391F840F000F1080012
:1009F00082FA4CF2A4FA8CF283FA4CF3A2FA8CF34A
:100A00004BBBD1E9022382FA4CF200F10800A4FAB0
:100A10008CF283FA4CF3A2FA8CF3E3B9D1E9042304
:100A200082FA4CF200F10800A4FA8CF283FA4CF33B
:100A3000A2FA8CF37BB9D1E9062301F1200182FAF5
:100A40004CF200F10800A4FA8CF283FA4CF3A2FAFB
:100A50008CF3002BC6D0002A04BF04301A4612BA09
:100A6000B2FA82F2FDE8024500EBD2007047D1E90C
:100A7000002304F00305C4F100004FEAC50514F09B
:100A8000040F91F840F00CFA05F562EA05021CBF6C
:100A900063EA050362464FF00004A9E70000000086
:100AA00001F0FF01102A2BDB10F0070F08D010F81F
:100AB000013B013A8B422DD010F0070F42B3F6D123
:100AC000F0B441EA012141EA014122F007047FF03C
:100AD00000070023F0E80256083C85EA010586EA93
:100AE000010685FA47F5A3FA87F586FA47F6A5FACF
:100AF00087F68EB9EED1F0BC01F0FF0102F00702DB
:100B000032B110F8013B013A83EA010313B1F8D185
:100B10000020704701387047002D06BF3546033866
:100B2000073815F0010F07D1013015F4807F02BF9F
:100B3000013015F4C03F0130F0BC0138704700BFF0
:100B4000844641EA000313F003036DD1403A41D3D8
:100B500051F8043B40F8043B51F8043B40F8043B97
:100B600051F8043B40F8043B51F8043B40F8043B87
:100B700051F8043B40F8043B51F8043B40F8043B77
:100B800051F8043B40F8043B51F8043B40F8043B67
:100B900051F8043B40F8043B51F8043B40F8043B57
:100BA00051F8043B40F8043B51F8043B40F8043B47
:100BB00051F8043B40F8043B51F8043B40F8043B37
:100BC00051F8043B40F8043B51F8043B40F8043B27
:100BD000403ABDD2303211D351F8043B40F8043BC7
:100BE00051F8043B40F8043B51F8043B40F8043B07
:100BF00051F8043B40F8043B103AEDD20C3205D3D7
:100C000051F8043B40F8043B043AF9D2043208D0CE
:100C1000D2071CBF11F8013B00F8013B01D30B8840
:100C200003806046704700BF082A13D38B078DD01E
:100C300010F003038AD0C3F10403D21ADB071CBFF0
:100C400011F8013B00F8013B80D331F8023B20F85A
:100C5000023B7BE7043AD9D3013A11F8013B00F893
:100C6000013BF9D20B7803704B7843708B7883701B
:100C7000604670474FF0FF3C06E000BF4FF0010CAC
:100C800002E000BF4FF0010C4DF804CD4FEA410CDB
:100C90007FEA6C5C4FEA430C18BF7FEA6C5C1BD0A8
:100CA00001B050EA410C0CBF52EA430C91EA030F29
:100CB00002BF90EA020F0020704710F1000F91EA86
:100CC000030F58BF994208BF90422CBFD8176FEA54
:100CD000E37040F0010070474FEA410C7FEA6C5C22
:100CE00002D150EA013C07D14FEA430C7FEA6C5C29
:100CF000D6D152EA033CD3D05DF8040B704700BF55
:100D00008446104662468C461946634600E000BFA2
:100D100001B5FFF7B7FF002848BF10F1000F01BD74
:100D20004DF808EDFFF7F4FF0CBF012000205DF83F
:100D300008FB00BF4DF808EDFFF7EAFF34BF0120C4
:100D400000205DF808FB00BF4DF808EDFFF7E0FF5D
:100D500094BF012000205DF808FB00BF4DF808EDAE
:100D6000FFF7CEFF94BF012000205DF808FB00BF15
:100D70004DF808EDFFF7C4FF34BF012000205DF8F7
:100D800008FB00BF4FEA410C7FEA6C5C02D150EADD
:100D9000013C0AD14FEA430C7FEA6C5C02D152EA73
:100DA000033C02D14FF0000070474FF00100704744
:100DB0004FEA410212F5001215D211D56FF4787383
:100DC000B3EB625212D94FEAC12343F0004343EA26
:100DD000505311F0004F23FA02F018BF4042704701
:100DE0004FF00000704750EA013005D111F000408B
:100DF00008BF6FF0004070474FF00000704700BF21
:100E000053B94AB9002908BF00281CBF4FF0FF3171
:100E10004FF0FF3000F074B9ADF1080C6DE904CE6D
:100E200000F006F8DDF804E0DDE9022304B07047C5
:100E30002DE9F047089E0D4604468846002B4DD10B
:100E40008A42944668D9B2FA82F252B101FA02F3A8
:100E5000C2F1200120FA01F10CFA02FC41EA030878
:100E600094404FEA1C45210CB8FBF5FE1FFA8CF7A5
:100E700005FB1E8341EA03430EFB07F199420BD9A0
:100E80001CEB03030EF1FF3080F01E81994240F20B
:100E90001B81AEF1020E63445B1AA4B2B3FBF5F002
:100EA00005FB103344EA034400FB07F7A7420AD9C5
:100EB0001CEB040400F1FF3380F00881A74240F2EC
:100EC000058164440238E41B40EA0E4000211EB153
:100ED000D4400023C6E90043BDE8F0878B4208D91F
:100EE000002E00F0EE800021C6E900050846BDE8AE
:100EF000F087B3FA83F100294AD1AB4202D3824290
:100F000000F2F980841A65EB030301209846002E55
:100F1000E2D0C6E90048DFE702B9FFDEB2FA82F2AA
:100F2000002A40F09180A1EB0C054FEA1C471FFA04
:100F30008CFE0121B5FBF7F307FB1350250C45EAA6
:100F400000450EFB03F0A84208D91CEB050503F190
:100F5000FF3802D2A84200F2CB8043462D1AA4B239
:100F6000B5FBF7F007FB105544EA05440EFB00FE05
:100F7000A64508D91CEB040400F1FF3502D2A645B2
:100F800000F2BB802846A4EB0E0440EA03409EE733
:100F9000C1F120078B4022FA07FC4CEA030C20FA2F
:100FA00007F405FA01F31C43FD404FEA1C4900FA1F
:100FB00001F3B5FBF9F8200C1FFA8CFE09FB18555C
:100FC00040EA054508FB0EF0A84202FA01F20BD9EF
:100FD0001CEB050508F1FF3A80F08880A84240F23A
:100FE0008580A8F1020865442D1AA4B2B5FBF9F07A
:100FF00009FB105544EA054500FB0EFEAE4508D935
:101000001CEB050500F1FF346CD2AE456AD90238FD
:10101000654440EA0840A0FB0294A5EB0E05A542FA
:10102000C846A64656D353D05EB1B3EB080265EB73
:101030000E0505FA07F722FA01F3CD401F43C6E972
:1010400000750021BDE8F087C2F1200320FA03F10A
:101050000CFA02FC25FA03F395400D434FEA1C47B6
:101060001FFA8CFEB3FBF7F107FB11302B0C43EAA0
:10107000004301FB0EF0984204FA02F408D91CEB7D
:10108000030301F1FF382FD298422DD9023963446E
:101090001B1AADB2B3FBF7F007FB103345EA03456B
:1010A00000FB0EF3AB4208D91CEB050500F1FF383D
:1010B00016D2AB4214D902386544ED1A40EA014118
:1010C00038E73146304607E78646E5E61846FAE651
:1010D0004B45A9D2B9EB020864EB0C0E0138A3E72B
:1010E0004046EAE7204694E74146D1E7D0467BE711
:1010F000023B654432E7084609E76444023842E7A8
:10110000704700BF80B400AF074B1B6B064A43F02B
:1011100080031363044B1B6B034A43F00103136307
:1011200000BFBD4680BC70470038024080B582B029
:1011300000AF0023FB710023BB714FF000733B60D5
:1011400000F07CFA00F0C2F8FFF7DCFF07F03EFA8F
:101150004FF4E13007F0AAFB07F0F2F907F082FA4A
:101160000346002B04D14749474807F069FC03E0D8
:101170004649454807F064FC06F043FF0346002B50
:1011800004D14349404807F05BFC03E041493E4835
:1011900007F056FC07F07EFC0BE007F0CBFC0346A3
:1011A0001A463D49384807F04BFC4FF4FA7000F0FE
:1011B0009BFA07F0BFFC03461A464EF618739A4294
:1011C000EBD13649304807F03BFC06F03BFF00BF4F
:1011D000334B1B681A46334B9A4209D9324B5B6832
:1011E00003F02003002B0CBF01230023DBB228E017
:1011F0002B4B1B681A462D4B9A4209D92A4B1B6868
:1012000003F02003002B0CBF01230023DBB218E006
:10121000234B1B681A46264B9A4209D9254B5B681B
:1012200003F02003002B0CBF01230023DBB208E0F6
:10123000204B1B6803F02003002B0CBF012300236D
:10124000DBB2002BC4D120221B491C4806F044FF0E
:101250000346002B04D11A490B4807F0F1FB03E0C9
:101260001849094807F0ECFB06F058FF07F0F0F9C1
:101270000D221549044806F04FF94FF4FA7000F0BA
:1012800033FAF3E7D0EA0008900B0020E4EA000804
:10129000FCEA000810EB000828EB000844EB00080B
:1012A000DC0900205864024000640240B86002403B
:1012B00058600240006002407C0A0020A4EB000855
:1012C00058EB00086CEB000884EB000880B592B086
:1012D00000AF07F1180330220021184607F0C4FCC4
:1012E0003B1D00221A605A609A60DA601A61244B32
:1012F0001B6C234A43F080531364224B1B68214A22
:1013000043F4404313600123BB610123FB610223CB
:101310003B634FF480037B630F23BB63D823FB63E2
:1013200002233B6404237B6407F11803184604F08E
:101330003BFF0346002B01D000F026F804F0C8FE66
:101340000346002B01D000F01FF80F237B6002231F
:10135000BB600023FB604FF4A0533B614FF480530C
:101360007B613B1D0521184605F070F90346002BF3
:1013700001D000F009F800BF4837BD4680BD00BF6E
:10138000003802400070004080B400AF72B600BF69
:10139000FEE7000080B400AF074B5B6C064A43F4E5
:1013A00080435364044B1B6C034A43F08053136423
:1013B00000BFBD4680BC70470038024080B400AF1B
:1013C000FEE780B400AFFEE780B400AFFEE780B474
:1013D00000AFFEE780B400AFFEE780B400AF00BF0F
:1013E000BD4680BC704780B400AF00BFBD4680BC26
:1013F000704780B400AF00BFBD4680BC704780B569
:1014000000AF00F059F900BF80BD80B400AF0123E8
:101410001846BD4680BC704780B582B000AF78608A
:10142000396007F0F7FB034616221A604FF0FF33CE
:1014300018460837BD4680BD80B582B000AF7860E1
:101440004FF0FF317868FFF7E7FFFEE780B586B021
:1014500000AFF860B9607A6000237B610AE0AFF307
:1014600000800146BB685A1CBA60CAB21A707B6918
:1014700001337B617A697B689A42F0DB7B681846AE
:101480001837BD4680BD80B586B000AFF860B96042
:101490007A6000237B6109E0BB685A1CBA601B7844
:1014A0001846AFF300807B6901337B617A697B6802
:1014B0009A42F1DB7B6818461837BD4680BD80B480
:1014C00083B000AF78604FF0FF3318460C37BD464D
:1014D00080BC704780B483B000AF786039603B68EF
:1014E0004FF400525A60002318460C37BD4680BCAA
:1014F000704780B483B000AF7860012318460C3782
:10150000BD4680BC704780B485B000AFF860B9605C
:101510007A60002318461437BD4680BC704700002F
:1015200080B586B000AF7860144A154BD31A7B6142
:101530007B693B61134B1B68002B02D1114B124A94
:101540001A60104B1A687B6813443A699A4207D2B2
:1015500007F060FB03460C221A604FF0FF3309E0EE
:10156000084B1B68FB60074B1A687B681344054AED
:101570001360FB6818461837BD4680BD0000032085
:1015800000040000D4090020200D002080B400AF2A
:10159000124B1B68114A43F0010313600F4B0022EA
:1015A0009A600E4B1B680D4A23F0847323F480333A
:1015B00013600A4B0A4A5A60084B1B68074A23F417
:1015C00080231360054B0022DA60064B4FF0006267
:1015D0009A6000BFBD4680BC704700BF0038024023
:1015E0001030002400ED00E0DFF834D0002103E0EB
:1015F0000C4B5B58435004310B480C4B42189A4239
:10160000F6D30B4A02E0002342F8043B094B9A420E
:10161000F9D3FFF7BBFF07F003FBFFF787FD704728
:101620000000032034F0000800000020B80900206A
:10163000B80900201C0D0020FEE7000080B500AFB7
:101640000E4B1B680D4A43F4007313600B4B1B6871
:101650000A4A43F480631360084B1B68074A43F44B
:1016600080731360032000F01FF90F2000F008F8CA
:10167000FFF790FE0023184680BD00BF003C0240EB
:1016800080B582B000AF786005F0C8F90346094A1A
:10169000A2FB03239B09184600F03BF9002279685E
:1016A0004FF0FF3000F00BF9002318460837BD4615
:1016B00080BD00BFD34D621080B400AF044B1B68E7
:1016C0000133034A136000BFBD4680BC704700BFB2
:1016D000D809002080B400AF024B1B681846BD46F5
:1016E00080BC7047D809002080B584B000AF786016
:1016F0000023FB60FFF7EEFFF86000BFFFF7EAFF93
:101700000246FB68D21A7B689A42F7D300BF00BF3B
:101710001037BD4680BD000080B485B000AF786052
:101720007B6803F00703FB600C4BDB68BB60BA68A7
:101730004FF6FF031340BB60FB681A02BB681343FC
:1017400043F0BF6343F40033BB60044ABB68D3601B
:1017500000BF1437BD4680BC704700BF00ED00E0FD
:1017600080B400AF044BDB681B0A03F00703184684
:10177000BD4680BC704700BF00ED00E080B483B080
:1017800000AF0346FB71FB7903F01F03012202FA4D
:1017900003F1054A97F907305B0942F8231000BFAF
:1017A0000C37BD4680BC704700E100E080B483B0D8
:1017B00000AF03463960FB7197F90730002B0BDA55
:1017C0003B68DAB20C49FB7903F00F03043B1201CA
:1017D000D2B20B441A7609E03B68DAB2074997F9AE
:1017E00007301201D2B20B4483F8002300BF0C373C
:1017F000BD4680BC704700BF00ED00E000E100E0A6
:1018000080B489B000AFF860B9607A60FB6803F01B
:101810000703FB61FB69C3F10703042B28BF042303
:10182000BB61FB690433062B02D9FB69033B00E073
:1018300000237B610122BB6902FA03F3013B1A46D4
:10184000BB681A407B699A4001217B6901FA03F366
:10185000013B19467B680B40134318462437BD46AD
:1018600080BC704780B582B000AF78607B68013B78
:10187000B3F1807F01D301230FE00A4A7B68013B6B
:1018800053600F214FF0FF30FFF790FF054B002210
:101890009A60044B07221A60002318460837BD4699
:1018A00080BD00BF10E000E080B582B000AF78607E
:1018B0007868FFF731FF00BF0837BD4680BD80B5AF
:1018C00086B000AF0346B9607A60FB7300237B618A
:1018D000FFF746FF78617A68B9687869FFF790FF8B
:1018E000024697F90F3011461846FFF75FFF00BF19
:1018F0001837BD4680BD80B582B000AF0346FB718E
:1019000097F907301846FFF739FF00BF0837BD4683
:1019100080BD80B582B000AF78607868FFF7A2FF25
:10192000034618460837BD4680BD000080B485B028
:1019300000AF78600023FB607B68002B01D101239E
:1019400057E07B68022283F835207B681B681B68A0
:10195000FB60FA68294B1340FB607B685A687B6820
:101960009B681A437B68DB681A437B681B691A43D0
:101970007B685B691A437B689B691A437B68DB69F8
:101980001A437B681B6A1343FA681343FB607B6846
:101990005B6A042B07D17B68DA6A7B681B6B134395
:1019A000FA681343FB607B681B68FA681A607B68FF
:1019B0001B685B69FB60FB6823F00703FB607B68C7
:1019C0005B6AFA681343FB607B685B6A042B04D193
:1019D0007B689B6AFA681343FB607B681B68FA6844
:1019E0005A617B680022DA647B68012283F8352023
:1019F000002318461437BD4680BC70473F8010F066
:101A000080B483B000AF78607B68002B02D10123E3
:101A100001F0FCB87B6893F83530DBB2022B02D1C1
:101A2000012301F0F3B87B681B681A687B681B68A8
:101A300022F001021A607B681B6800221A607B6832
:101A40001B6800225A607B681B6800229A607B68D2
:101A50001B680022DA607B681B6800221A617B68C1
:101A60001B6821225A617B681B681A46894B9A427F
:101A700060D97B681B68884A934257D07B681B6893
:101A8000864A934250D07B681B68854A934249D06E
:101A90007B681B68834A934242D07B681B68824AFA
:101AA00093423AD07B681B68804A934232D07B686D
:101AB0001B687F4A93422AD07B681B687D4A934209
:101AC00022D07B681B687C4A93421AD07B681B68D3
:101AD0007A4A934212D07B681B68794A93420AD0B3
:101AE0007B681B68774A934202D14FF480231EE043
:101AF0004FF080731BE04FF4802318E04FF48023F5
:101B000015E04FF4802312E04FF480730FE04FF4A0
:101B100080730CE04FF4807309E04FF4807306E0AB
:101B2000694B04E0684B02E0674B00E0664B674A94
:101B3000D36050E17B681B681A46654B9A4260D9B6
:101B40007B681B68544A934257D07B681B68534A92
:101B5000934250D07B681B68514A934249D07B68BE
:101B60001B68504A934242D07B681B684E4A93429E
:101B70003AD07B681B684D4A934232D07B681B6821
:101B80004B4A93422AD07B681B684A4A934222D030
:101B90007B681B68484A93421AD07B681B68474A97
:101BA000934212D07B681B68454A93420AD07B68F7
:101BB0001B68444A934202D14FF480231EE04FF049
:101BC00080731BE04FF4802318E04FF4802315E06E
:101BD0004FF4802312E04FF480730FE04FF48073D2
:101BE0000CE04FF4807309E04FF4807306E0364B4D
:101BF00004E0354B02E0344B00E0334B334A936052
:101C0000E9E07B681B681A46324B9A4240F28380B7
:101C10007B681B68204A934279D07B681B681F4A07
:101C2000934272D07B681B681D4A93426BD07B68DD
:101C30001B681C4A934264D07B681B681A4A934213
:101C40005CD07B681B68194A934254D07B681B6840
:101C5000174A93424CD07B681B68164A934244D083
:101C60007B681B68144A93423CD07B681B68134A0C
:101C7000934234D07B681B68114A93422CD07B6816
:101C80001B68104A934202D14FF4802340E04FF08A
:101C900080733DE0586402401060024010640240CE
:101CA0007060024070640240286002402864024074
:101CB0008860024088640240406002404064024004
:101CC000A0600240A0640240040080000064024062
:101CD000B8600240586002404FF4802318E04FF48F
:101CE000802315E04FF4802312E04FF480730FE05F
:101CF0004FF480730CE04FF4807309E04FF480736D
:101D000006E0694B04E0684B02E0674B00E0664B7D
:101D1000664AD3605FE07B681B68654A934257D090
:101D20007B681B68634A934250D07B681B68624A99
:101D3000934249D07B681B68604A934242D07B68DB
:101D40001B685F4A93423AD07B681B685D4A9342A6
:101D500032D07B681B685C4A93422AD07B681B6840
:101D60005A4A934222D07B681B68594A93421AD040
:101D70007B681B68574A934212D07B681B68564A9F
:101D800093420AD07B681B68544A934202D14FF4B5
:101D900080231EE04FF080731BE04FF4802318E097
:101DA0004FF4802315E04FF4802312E04FF480734A
:101DB0000FE04FF480730CE04FF4807309E04FF4B0
:101DC000807306E0384B04E0374B02E0364B00E00E
:101DD000354B364A93607B681B681A46404B9A42E3
:101DE00040F282807B681B68314A934257D07B68FF
:101DF0001B68304A934250D07B681B682E4A93423E
:101E000049D07B681B682D4A934242D07B681B688F
:101E10002B4A93423AD07B681B682A4A934232D0BD
:101E20007B681B68284A93422AD07B681B68274A34
:101E3000934222D07B681B68254A93421AD07B6864
:101E40001B68244A934212D07B681B68224A934243
:101E50000AD07B681B68214A934202D14FF40013D9
:101E60001EE04FF000631BE04FF4001318E04FF446
:101E7000001315E04FF4001312E04FF400630FE07D
:101E80004FF400630CE04FF4006309E04FF400638B
:101E900006E0202304E0202302E0202300E02023AA
:101EA000104AD3606EE100BF040080000060024071
:101EB0001060024010640240706002407064024092
:101EC0002860024028640240886002408864024022
:101ED0004060024040640240A0600240A0640240B2
:101EE00058640240006402407B681B681A468C4BB1
:101EF0009A4260D97B681B688A4A934257D07B68B4
:101F00001B68894A934250D07B681B68874A93427A
:101F100049D07B681B68864A934242D07B681B6825
:101F2000844A93423AD07B681B68834A934232D0FA
:101F30007B681B68814A93422AD07B681B68804A71
:101F4000934222D07B681B687E4A93421AD07B68FA
:101F50001B687D4A934212D07B681B687B4A934280
:101F60000AD07B681B687A4A934202D14FF400136F
:101F70001EE04FF000631BE04FF4001318E04FF435
:101F8000001315E04FF4001312E04FF400630FE06C
:101F90004FF400630CE04FF4006309E04FF400637A
:101FA00006E0202304E0202302E0202300E0202399
:101FB000684A9360E6E07B681B681A46664B9A4263
:101FC00060D97B681B68574A934257D07B681B686F
:101FD000554A934250D07B681B68544A934249D07B
:101FE0007B681B68524A934242D07B681B68514A07
:101FF00093423AD07B681B684F4A934232D07B6849
:102000001B684E4A93422AD07B681B684C4A934215
:1020100022D07B681B684B4A93421AD07B681B68AE
:10202000494A934212D07B681B68484A93420AD0BF
:102030007B681B68464A934202D14FF400131EE0AE
:102040004FF000631BE04FF4001318E04FF400134F
:1020500015E04FF4001312E04FF400630FE04FF46B
:1020600000630CE04FF4006309E04FF4006306E006
:10207000202304E0202302E0202300E02023374A2D
:10208000D3607FE07B681B68264A934277D07B68E9
:102090001B68254A934270D07B681B68234A934291
:1020A00069D07B681B68224A934262D07B681B68B8
:1020B000204A93425AD07B681B681F4A934252D0F1
:1020C0007B681B681D4A93424AD07B681B681C4A88
:1020D000934222D07B681B681A4A93421AD07B68CD
:1020E0001B68194A934212D07B681B68174A9342B7
:1020F0000AD07B681B68164A934202D14FF4001342
:102100003EE04FF000633BE04FF4001338E04FF443
:10211000001335E04FF4001332E04FF400632FE07A
:10212000B8600240106002401064024070600240DB
:1021300070640240286002402864024088600240C7
:10214000886402404060024040640240A060024057
:10215000A0640240006402405860024000600240F7
:102160004FF400630CE04FF4006309E04FF40063A8
:1021700006E0202304E0202302E0202300E02023C7
:102180008A4A93607B681B681A46894B9A4260D9D9
:102190007B681B68874A934257D07B681B68864AD6
:1021A000934250D07B681B68844A934249D07B6835
:1021B0001B68834A934242D07B681B68814A9342E2
:1021C0003AD07B681B68804A934232D07B681B6898
:1021D0007E4A93422AD07B681B687D4A934222D074
:1021E0007B681B687B4A93421AD07B681B687A4ADB
:1021F000934212D07B681B68784A93420AD07B686E
:102200001B68774A934202D14FF400231EE04FF03F
:1022100000731BE04FF4002318E04FF4002315E097
:102220004FF4002312E04FF400730FE04FF40073FB
:102230000CE04FF4007309E04FF4007306E008234C
:1022400004E0082302E0082300E00823654AD36085
:1022500050E17B681B681A46634B9A4260D97B68E1
:102260001B68544A934257D07B681B68524A93427A
:1022700050D07B681B68514A934249D07B681B68E9
:102280004F4A934242D07B681B684E4A93423AD0F1
:102290007B681B684C4A934232D07B681B684B4A70
:1022A00093422AD07B681B68494A934222D07B68BC
:1022B0001B68484A93421AD07B681B68464A93427F
:1022C00012D07B681B68454A93420AD07B681B6822
:1022D000434A934202D14FF400231EE04FF00073B3
:1022E0001BE04FF4002318E04FF4002315E04FF4F7
:1022F000002312E04FF400730FE04FF400730CE082
:102300004FF4007309E04FF4007306E0082304E083
:10231000082302E0082300E00823324A9360E9E042
:102320007B681B681A46314B9A4240F283807B6877
:102330001B68204A934279D07B681B681E4A9342EF
:1023400072D07B681B681D4A93426BD07B681B6808
:102350001B4A934264D07B681B681A4A93425CD044
:102360007B681B68184A934254D07B681B68174AE5
:1023700093424CD07B681B68154A934244D07B68DB
:102380001B68144A93423CD07B681B68124A9342F4
:1023900034D07B681B68114A93422CD07B681B6841
:1023A0000F4A934224D14FF4002340E000600240E2
:1023B00058640240106002401064024070600240A5
:1023C0007064024028600240286402408860024035
:1023D000886402404060024040640240A0600240C5
:1023E000A064024000640240B860024058600240AD
:1023F0004FF000731BE04FF4002318E04FF400236C
:1024000015E04FF4002312E04FF400730FE04FF497
:1024100000730CE04FF4007309E04FF4007306E022
:10242000082304E0082302E0082300E008238A4A86
:10243000D3605FE07B681B68884A934257D07B6813
:102440001B68874A934250D07B681B68854A934239
:1024500049D07B681B68844A934242D07B681B68E2
:10246000824A93423AD07B681B68814A934232D0B9
:102470007B681B687F4A93422AD07B681B687E4A30
:10248000934222D07B681B687C4A93421AD07B68B7
:102490001B687B4A934212D07B681B68794A93423F
:1024A0000AD07B681B68784A934202D14FF400231C
:1024B0001EE04FF000731BE04FF4002318E04FF4D0
:1024C000002315E04FF4002312E04FF400730FE0F7
:1024D0004FF400730CE04FF4007309E04FF4007305
:1024E00006E0082304E0082302E0082300E00823B4
:1024F000594A93607B681B681A46644B9A425CD9C0
:102500007B681B68554A934253D07B681B68544ACA
:1025100093424CD07B681B68524A934245D07B68FB
:102520001B68514A93423ED07B681B684F4A9342D6
:1025300037D07B681B684E4A934230D07B681B685B
:102540004C4A934229D07B681B684B4A934222D065
:102550007B681B68494A93421AD07B681B68484ACB
:10256000934212D07B681B68464A93420AD07B682C
:102570001B68454A934202D14FF480331AE04FF46E
:10258000800317E04FF4803314E04FF4803311E000
:102590004FF480330EE040230CE040230AE0402358
:1025A00008E0402306E03A4B04E0394B02E0384BA8
:1025B00000E0374B374AD36044E17B681B681A461A
:1025C000354B9A427FD97B681B68244A934276D068
:1025D0007B681B68224A93426FD07B681B68214A44
:1025E000934268D07B681B681F4A934261D07B6826
:1025F0001B681E4A93425AD07B681B681C4A934250
:1026000053D07B681B681B4A93424CD07B681B6885
:10261000194A934245D07B681B68184A93423DD0C3
:102620007B681B68164A934212D07B681B68154A68
:1026300093420AD07B681B68134A934202D14FF43D
:1026400080333DE04FF480033AE04FF4803337E0CD
:102650004FF4803334E000BF00600240106002405D
:1026600010640240706002407064024028600240C2
:102670002864024088600240886402404060024052
:1026800040640240A0600240A064024058640240DE
:102690000100800000640240B86002404FF48033C3
:1026A0000EE040230CE040230AE0402308E04023F2
:1026B00006E0874B04E0864B02E0854B00E0844B4C
:1026C000844A9360BEE07B681B681A46824B9A423C
:1026D0005CD97B681B68814A934253D07B681B6836
:1026E0007F4A93424CD07B681B687E4A934245D018
:1026F0007B681B687C4A93423ED07B681B687B4AA0
:10270000934237D07B681B68794A934230D07B680C
:102710001B68784A934229D07B681B68764A9342AB
:1027200022D07B681B68754A93421AD07B681B686D
:10273000734A934212D07B681B68724A93420AD054
:102740007B681B68704A934202D14FF480331AE0D1
:102750004FF4800317E04FF4803314E04FF48033DC
:1027600011E04FF480330EE040230CE040230AE0F8
:10277000402308E0402306E0554B04E0544B02E0C0
:10278000534B00E0524B614AD3605BE07B681B68AF
:10279000524A934253D07B681B68514A93424CD0B3
:1027A0007B681B684F4A934245D07B681B684E4A42
:1027B00093423ED07B681B684C4A934237D07B687B
:1027C0001B684B4A934230D07B681B68494A93424E
:1027D00029D07B681B68484A934222D07B681B68DB
:1027E000464A93421AD07B681B68454A934212D0EE
:1027F0007B681B68434A93420AD07B681B68424A45
:10280000934202D14FF480331AE04FF4800317E073
:102810004FF4803314E04FF4803311E04FF48033F1
:102820000EE040230CE040230AE0402308E0402370
:1028300006E0274B04E0264B02E0254B00E0244B4A
:10284000324A93607B681B681A46314B9A4240F2C9
:1028500083807B681B68214A934279D07B681B6820
:102860001F4A934272D07B681B681E4A93426BD00A
:102870007B681B681C4A934264D07B681B681B4AB8
:1028800093425CD07B681B68194A934254D07B68A2
:102890001B68184A93424CD07B681B68164A9342C7
:1028A00044D07B681B68154A93423CD07B681B6808
:1028B000134A934234D07B681B68124A93422CD04F
:1028C0007B681B68104A934224D14FF4801340E088
:1028D0000100800000640240586002401060024025
:1028E0001064024070600240706402402860024040
:1028F00028640240886002408864024040600240D0
:1029000040640240A0600240A064024000600240B7
:10291000586402404FF080631BE04FF4801318E0CE
:102920004FF4801315E04FF4801312E04FF48063EE
:102930000FE04FF480630CE04FF4806309E04FF444
:10294000806306E0102304E0102302E0102300E07F
:1029500010238C4AD3604DE17B681B681A468A4B72
:102960009A4260D97B681B68884A934257D07B683B
:102970001B68874A934250D07B681B68854A934204
:1029800049D07B681B68844A934242D07B681B68AD
:10299000824A93423AD07B681B68814A934232D084
:1029A0007B681B687F4A93422AD07B681B687E4AFB
:1029B000934222D07B681B687C4A93421AD07B6882
:1029C0001B687B4A934212D07B681B68794A93420A
:1029D0000AD07B681B68784A934202D14FF4801377
:1029E0001EE04FF080631BE04FF4801318E04FF4BB
:1029F000801315E04FF4801312E04FF480630FE072
:102A00004FF480630CE04FF4806309E04FF480637F
:102A100006E0102304E0102302E0102300E010235E
:102A2000584A9360E6E07B681B681A46634B9A42FB
:102A300060D97B681B68554A934257D07B681B68F6
:102A4000534A934250D07B681B68524A934249D004
:102A50007B681B68504A934242D07B681B684F4A90
:102A600093423AD07B681B684D4A934232D07B68D0
:102A70001B684C4A93422AD07B681B684A4A93429F
:102A800022D07B681B68494A93421AD07B681B6836
:102A9000474A934212D07B681B68464A93420AD049
:102AA0007B681B68444A934202D14FF480131EE0B6
:102AB0004FF080631BE04FF4801318E04FF4801355
:102AC00015E04FF4801312E04FF480630FE04FF4F1
:102AD00080630CE04FF4806309E04FF4806306E00C
:102AE000102304E0102302E0102300E01023344AF6
:102AF000D3607FE07B681B68244A934277D07B6871
:102B00001B68234A934270D07B681B68214A93421A
:102B100069D07B681B68204A934262D07B681B683F
:102B20001E4A93425AD07B681B681D4A934252D07A
:102B30007B681B681B4A93424AD07B681B681A4A11
:102B4000934242D07B681B68184A93423AD07B6814
:102B50001B68174A934212D07B681B68154A934240
:102B60000AD07B681B68144A934202D14FF4801349
:102B70003EE04FF080633BE04FF4801338E04FF4C9
:102B8000801335E000640240B860024010600240EB
:102B9000106402407060024070640240286002408D
:102BA000286402408860024088640240406002401D
:102BB00040640240A0600240A064024058600240AD
:102BC000006002404FF4801312E04FF480630FE086
:102BD0004FF480630CE04FF4806309E04FF48063AE
:102BE00006E0102304E0102302E0102300E010238D
:102BF000094A93607B680022DA647B68002283F8CC
:102C000035207B68002283F83420002318460C37D7
:102C1000BD4680BC704700BF0060024080B584B0F4
:102C200000AFF860B9607A603B60FB6893F83430BD
:102C3000012B01D102231EE0FB68012283F834201E
:102C4000FB68022283F83520FB681B681A68FB6862
:102C50001B6822F001021A603B687A68B968F8685C
:102C600002F086FFFB681B681A68FB681B6842F06D
:102C700001021A60002318461037BD4680BD80B59A
:102C800084B000AFF860B9607A603B60FB6893F88D
:102C90003430012B01D1022346E0FB68012283F886
:102CA0003420FB68022283F83520FB681B681A6811
:102CB000FB681B6822F001021A603B687A68B968F9
:102CC000F86802F055FFFB681B681A68FB681B6810
:102CD00042F010021A60FB681B681A68FB681B68E8
:102CE00042F008021A60FB681B681A68FB681B68E0
:102CF00042F004021A60FB681B685A69FB681B6893
:102D000042F080025A61FB681B681A68FB681B6806
:102D100042F002021A60FB681B681A68FB681B68B5
:102D200042F001021A60002318461037BD4680BDEC
:102D300080B582B000AF78607B681B681A466C4B28
:102D40009A4266D96B4B5A687B681B686A498B420A
:102D500057D07B681B6869498B4250D07B681B68E1
:102D600067498B4249D07B681B6866498B4242D0D9
:102D70007B681B6864498B423AD07B681B68634957
:102D80008B4232D07B681B6861498B422AD07B68BA
:102D90001B6860498B4222D07B681B685E498B426E
:102DA0001AD07B681B685D498B4212D07B681B6818
:102DB0005B498B420AD07B681B685A498B4202D11F
:102DC0004FF400231EE04FF000731BE04FF400238C
:102DD00018E04FF4002315E04FF4002312E04FF405
:102DE00000730FE04FF400730CE04FF4007309E040
:102DF0004FF4007306E0082304E0082302E00823F0
:102E000000E008231340002B14BF01230023DBB292
:102E10007BE17B681B681A46434B9A4240F28680EE
:102E2000344B1A687B681B6833498B4257D07B68E8
:102E30001B6832498B4250D07B681B6830498B42FB
:102E400049D07B681B682F498B4242D07B681B6846
:102E50002D498B423AD07B681B682C498B4232D07B
:102E60007B681B682A498B422AD07B681B682949EA
:102E70008B4222D07B681B6827498B421AD07B6823
:102E80001B6826498B4212D07B681B6824498B4201
:102E90000AD07B681B6823498B4202D14FF4002380
:102EA0001EE04FF000731BE04FF4002318E04FF4D6
:102EB000002315E04FF4002312E04FF400730FE0FD
:102EC0004FF400730CE04FF4007309E04FF400730B
:102ED00006E0082304E0082302E0082300E00823BA
:102EE0001340002B14BF01230023DBB20DE100BF10
:102EF00058640240006402401060024010640240C6
:102F00007060024070640240286002402864024001
:102F10008860024088640240406002404064024091
:102F2000A0600240A0640240B86002407B681B6859
:102F30001A46644B9A4266D9634B5A687B681B6891
:102F400062498B4257D07B681B6861498B4250D0E5
:102F50007B681B685F498B4249D07B681B685E4970
:102F60008B4242D07B681B685C498B423AD07B68BD
:102F70001B685B498B4232D07B681B6859498B4286
:102F80002AD07B681B6858498B4222D07B681B681B
:102F900056498B421AD07B681B6855498B4212D028
:102FA0007B681B6853498B420AD07B681B68524977
:102FB0008B4202D14FF400231EE04FF000731BE060
:102FC0004FF4002318E04FF4002315E04FF40023E2
:102FD00012E04FF400730FE04FF400730CE04FF475
:102FE000007309E04FF4007306E0082304E00823AF
:102FF00002E0082300E008231340002B14BF012344
:103000000023DBB281E0304B1A687B681B682F49D4
:103010008B4273D07B681B682D498B4250D07B68F4
:103020001B682C498B4249D07B681B682A498B421C
:1030300042D07B681B6829498B423AD07B681B6869
:1030400027498B4232D07B681B6826498B422AD0A5
:103050007B681B6824498B4222D07B681B6823490C
:103060008B421AD07B681B6821498B4212D07B6847
:103070001B6820498B420AD07B681B681E498B4223
:1030800002D14FF400233AE04FF0007337E04FF4E1
:10309000002334E04FF4002331E04FF400232EE00E
:1030A0004FF400732BE04FF4007328E04FF40073EB
:1030B00025E04FF4007322E0082320E008231EE0FF
:1030C00008231CE05860024000600240106002408B
:1030D0001064024070600240706402402860024048
:1030E00028640240886002408864024040600240D8
:1030F00040640240A0600240A064024008231340E4
:10310000002B14BF01230023DBB2002B00F0DD8174
:103110007B681B681B6803F00403002B00F0D5815B
:103120007B681B681A687B681B6822F004021A60BF
:103130007B681B681A468D4B9A4260D97B681B6876
:103140008B4A934257D07B681B688A4A934250D07F
:103150007B681B68884A934249D07B681B68874A12
:10316000934242D07B681B68854A93423AD07B6881
:103170001B68844A934232D07B681B68824A934220
:103180002AD07B681B68814A934222D07B681B68E7
:103190007F4A93421AD07B681B687E4A934212D0C2
:1031A0007B681B687C4A93420AD07B681B687B4A19
:1031B000934202D14FF400231EE04FF000731BE056
:1031C0004FF4002318E04FF4002315E04FF40023E0
:1031D00012E04FF400730FE04FF400730CE04FF473
:1031E000007309E04FF4007306E0082304E00823AD
:1031F00002E0082300E00823694AD3604FE17B68BE
:103200001B681A46674B9A4260D97B681B68584A0C
:10321000934257D07B681B68564A934250D07B68D4
:103220001B68554A934249D07B681B68534A9342B6
:1032300042D07B681B68524A93423AD07B681B6835
:10324000504A934232D07B681B684F4A93422AD03F
:103250007B681B684D4A934222D07B681B684C4AAE
:1032600093421AD07B681B684A4A934212D07B680B
:103270001B68494A93420AD07B681B68474A9342BD
:1032800002D14FF400231EE04FF000731BE04FF417
:10329000002318E04FF4002315E04FF4002312E060
:1032A0004FF400730FE04FF400730CE04FF4007321
:1032B00009E04FF4007306E0082304E0082302E06D
:1032C000082300E00823364A9360E8E07B681B6827
:1032D0001A46354B9A4240F282807B681B68244A2A
:1032E000934278D07B681B68224A934271D07B68F6
:1032F0001B68214A93426AD07B681B681F4A93422D
:1033000063D07B681B681E4A93425BD07B681B6856
:103310001C4A934253D07B681B681B4A93424BD094
:103320007B681B68194A934243D07B681B68184A24
:1033300093423BD07B681B68164A934212D07B684D
:103340001B68154A93420AD07B681B68134A934254
:1033500002D14FF400233FE04FF000733CE04FF404
:10336000002339E04FF4002336E000BF58640240E8
:1033700010600240106402407060024070640240BD
:10338000286002402864024088600240886402404D
:103390004060024040640240A0600240A0640240DD
:1033A00000640240B8600240586002404FF40023BD
:1033B00012E04FF400730FE04FF400730CE04FF491
:1033C000007309E04FF4007306E0082304E00823CB
:1033D00002E0082300E00823714AD3605FE07B68C5
:1033E0001B68704A934257D07B681B686E4A9342B1
:1033F00050D07B681B686D4A934249D07B681B683C
:103400006B4A934242D07B681B686A4A93423AD027
:103410007B681B68684A934232D07B681B68674AA6
:1034200093422AD07B681B68654A934222D07B680E
:103430001B68644A93421AD07B681B68624A9342B5
:1034400012D07B681B68614A93420AD07B681B6874
:103450005F4A934202D14FF400231EE04FF0007305
:103460001BE04FF4002318E04FF4002315E04FF465
:10347000002312E04FF400730FE04FF400730CE0F0
:103480004FF4007309E04FF4007306E0082304E0F2
:10349000082302E0082300E00823414A93607B6888
:1034A000DB6C43F001027B68DA647B68042283F8FA
:1034B00035207B68002283F834207B689B6C002BCE
:1034C00003D07B689B6C786898477B681B681A46BA
:1034D000404B9A4240F284803F4B5A687B681B689D
:1034E00030498B4253D07B681B682F498B424CD0AC
:1034F0007B681B682D498B4245D07B681B682C4933
:103500008B423ED07B681B682A498B4237D07B6850
:103510001B6829498B4230D07B681B6827498B4246
:1035200029D07B681B6826498B4222D07B681B68A8
:1035300024498B421AD07B681B6823498B4212D0E6
:103540007B681B6821498B420AD07B681B68204935
:103550008B4202D14FF480331AE04FF4800317E01E
:103560004FF4803314E04FF4803311E04FF4803394
:103570000EE040230CE040230AE0402308E0402313
:1035800006E0164B04E0154B02E0144B00E0134B31
:103590001340002B14BF01230023DBB278E100BFEE
:1035A00000600240106002401064024070600240FF
:1035B0007064024028600240286402408860024033
:1035C000886402404060024040640240A0600240C3
:1035D000A064024058640240006402400100800080
:1035E0007B681B681A46684B9A4262D9674B1A6817
:1035F0007B681B6866498B4253D07B681B686549B2
:103600008B424CD07B681B6863498B4245D07B68FA
:103610001B6862498B423ED07B681B6860498B42C5
:1036200037D07B681B685F498B4230D07B681B6852
:103630005D498B4229D07B681B685C498B4222D054
:103640007B681B685A498B421AD07B681B685949B2
:103650008B4212D07B681B6857498B420AD07B682B
:103660001B6856498B4202D14FF480331AE04FF465
:10367000800317E04FF4803314E04FF4803311E0FF
:103680004FF480330EE040230CE040230AE0402357
:1036900008E0402306E04A4B04E0494B02E0484B77
:1036A00000E0474B1340002B14BF01230023DBB283
:1036B000EEE07B681B681A46424B9A4240F28680D5
:1036C000414B5A687B681B6831498B4253D07B68F9
:1036D0001B6830498B424CD07B681B682E498B425B
:1036E00045D07B681B682D498B423ED07B681B68A8
:1036F0002B498B4237D07B681B682A498B4230D0DC
:103700007B681B6828498B4229D07B681B68274946
:103710008B4222D07B681B6825498B421AD07B687C
:103720001B6824498B4212D07B681B6822498B425C
:103730000AD07B681B6821498B4202D14FF4803349
:103740001AE04FF4800317E04FF4803314E04FF495
:10375000803311E04FF480330EE040230CE040232F
:103760000AE0402308E0402306E0154B04E0144B38
:1037700002E0134B00E0124B1340002B14BF012357
:103780000023DBB284E000BFB86002400064024066
:103790001060024010640240706002407064024099
:1037A0002860024028640240886002408864024029
:1037B0004060024040640240A0600240A0640240B9
:1037C0000100800058600240006002406B4B1A68A4
:1037D0007B681B686A498B4253D07B681B686949C8
:1037E0008B424CD07B681B6867498B4245D07B6815
:1037F0001B6866498B423ED07B681B6864498B42DC
:1038000037D07B681B6863498B4230D07B681B686C
:1038100061498B4229D07B681B6860498B4222D06A
:103820007B681B685E498B421AD07B681B685D49C8
:103830008B4212D07B681B685B498B420AD07B6845
:103840001B685A498B4202D14FF480331AE04FF47F
:10385000800317E04FF4803314E04FF4803311E01D
:103860004FF480330EE040230CE040230AE0402375
:1038700008E0402306E04E4B04E04D4B02E04C4B89
:1038800000E04B4B1340002B14BF01230023DBB29D
:10389000002B00F0EE817B681B685B6903F08003FE
:1038A000002B00F0E6817B681B685A697B681B6807
:1038B00022F080025A617B681B681A463D4B9A428F
:1038C0007CD97B681B682E4A934253D07B681B6867
:1038D0002C4A93424CD07B681B682B4A934245D0BC
:1038E0007B681B68294A93423ED07B681B68284A44
:1038F000934237D07B681B68264A934230D07B685E
:103900001B68254A934229D07B681B68234A93424F
:1039100022D07B681B68224A93421AD07B681B68BE
:10392000204A934212D07B681B681F4A93420AD0F8
:103930007B681B681D4A934202D14FF480331AE022
:103940004FF4800317E04FF4803314E04FF48033DA
:1039500011E04FF480330EE040230CE040230AE0F6
:10396000402308E0402306E0114B04E0104B02E046
:103970000F4B00E00E4B104AD36064E10060024040
:1039800010600240106402407060024070640240A7
:103990002860024028640240886002408864024037
:1039A0004060024040640240A0600240A0640240C7
:1039B0000100800058640240006402407B681B687C
:1039C0001A46894B9A425CD97B681B68874A9342A6
:1039D00053D07B681B68864A93424CD07B681B6837
:1039E000844A934245D07B681B68834A93423ED009
:1039F0007B681B68814A934237D07B681B68804A8A
:103A0000934230D07B681B687E4A934229D07B6802
:103A10001B687D4A934222D07B681B687B4A934295
:103A20001AD07B681B687A4A934212D07B681B6865
:103A3000784A93420AD07B681B68774A934202D146
:103A40004FF480331AE04FF4800317E04FF48033D3
:103A500014E04FF4803311E04FF480330EE0402344
:103A60000CE040230AE0402308E0402306E06B4BD3
:103A700004E06A4B02E0694B00E0684B684A9360DF
:103A8000E1E07B681B681A46664B9A425CD97B680A
:103A90001B68564A934253D07B681B68544A934232
:103AA0004CD07B681B68534A934245D07B681B68A7
:103AB000514A93423ED07B681B68504A934237D0AC
:103AC0007B681B684E4A934230D07B681B684D4A26
:103AD000934229D07B681B684B4A934222D07B6873
:103AE0001B684A4A93421AD07B681B68484A934233
:103AF00012D07B681B68474A93420AD07B681B68D8
:103B0000454A934202D14FF480331AE04FF48003C8
:103B100017E04FF4803314E04FF4803311E04FF49A
:103B200080330EE040230CE040230AE0402308E00D
:103B3000402306E0394B04E0384B02E0374B00E00D
:103B4000364B394AD3607EE07B681B68274A934234
:103B500076D07B681B68264A93426FD07B681B68CF
:103B6000244A934268D07B681B68234A934261D001
:103B70007B681B68214A93425AD07B681B68204AA5
:103B8000934253D07B681B681E4A934229D07B68BE
:103B90001B681D4A934222D07B681B681B4A9342D4
:103BA0001AD07B681B681A4A934212D07B681B6844
:103BB000184A93420AD07B681B68174A934202D185
:103BC0004FF480333DE04FF480033AE04FF480330C
:103BD00037E04FF4803334E04FF4803331E040235A
:103BE0002FE040232DE000BFB8600240106002408B
:103BF000106402407060024070640240286002401D
:103C000028640240886002408864024040600240AC
:103C100040640240A0600240A064024001008000B5
:103C2000006402405860024000600240402308E007
:103C3000402306E07C4B04E07B4B02E07A4B00E043
:103C4000794B7A4A93607B68DB6C43F002027B68B5
:103C5000DA647B68042283F835207B68002283F8CD
:103C600034207B689B6C002B03D07B689B6C78684E
:103C700098477B681B681A466D4B9A4266D96D4B14
:103C80005A687B681B686C498B4257D07B681B68FD
:103C90006A498B4250D07B681B6869498B4249D086
:103CA0007B681B6867498B4242D07B681B6866490A
:103CB0008B423AD07B681B6864498B4232D07B6868
:103CC0001B6863498B422AD07B681B6861498B4221
:103CD00022D07B681B6860498B421AD07B681B68C6
:103CE0005E498B4212D07B681B685D498B420AD0CB
:103CF0007B681B685B498B4202D14FF480231EE036
:103D00004FF080731BE04FF4802318E04FF48023C2
:103D100015E04FF4802312E04FF480730FE04FF46E
:103D200080730CE04FF4807309E04FF4807306E079
:103D30004D4B04E04C4B02E04B4B00E04A4B134030
:103D4000002B14BF01230023DBB282E17B681B68D8
:103D50001A46464B9A4240F28B80364B1A687B6873
:103D60001B6835498B4257D07B681B6833498B42AF
:103D700050D07B681B6832498B4249D07B681B68F6
:103D800030498B4242D07B681B682F498B423AD026
:103D90007B681B682D498B4232D07B681B682C499D
:103DA0008B422AD07B681B682A498B4222D07B68D1
:103DB0001B6829498B421AD07B681B6827498B42B4
:103DC00012D07B681B6826498B420AD07B681B682F
:103DD00024498B4202D14FF480231EE04FF08073C0
:103DE0001BE04FF4802318E04FF4802315E04FF4DC
:103DF000802312E04FF480730FE04FF480730CE0E7
:103E00004FF4807309E04FF4807306E0164B04E032
:103E1000154B02E0144B00E0134B1340002B14BF72
:103E200001230023DBB214E10100800000600240A6
:103E30005864024000640240106002401064024076
:103E400070600240706402402860024028640240B2
:103E50008860024088640240406002404064024042
:103E6000A0600240A064024004008000B8600240EC
:103E70007B681B681A46644B9A4266D9634B5A6842
:103E80007B681B6862498B4257D07B681B6861491D
:103E90008B4250D07B681B685F498B4249D07B685E
:103EA0001B685E498B4242D07B681B685C498B4231
:103EB0003AD07B681B685B498B4232D07B681B68B9
:103EC00059498B422AD07B681B6858498B4222D0C3
:103ED0007B681B6856498B421AD07B681B68554922
:103EE0008B4212D07B681B6853498B420AD07B6897
:103EF0001B6852498B4202D14FF480231EE04FF0E1
:103F000080731BE04FF4802318E04FF4802315E00A
:103F10004FF4802312E04FF480730FE04FF480736E
:103F20000CE04FF4807309E04FF4807306E0444BDB
:103F300004E0434B02E0424B00E0414B1340002BB6
:103F400014BF01230023DBB283E0304B1A687B6887
:103F50001B682F498B4275D07B681B682D498B42AB
:103F600050D07B681B682C498B4249D07B681B680A
:103F70002A498B4242D07B681B6829498B423AD040
:103F80007B681B6827498B4232D07B681B682649B7
:103F90008B422AD07B681B6824498B4222D07B68E5
:103FA0001B6823498B421AD07B681B6821498B42CE
:103FB00012D07B681B6820498B420AD07B681B6843
:103FC0001E498B4202D14FF480233CE04FF08073B6
:103FD00039E04FF4802336E04FF4802333E04FF490
:103FE000802330E04FF480732DE04FF480732AE09B
:103FF0004FF4807327E04FF4807324E0104B22E0ED
:104000000F4B20E00E4B1EE0586002400060024063
:104010001060024010640240706002407064024010
:1040200028600240286402408860024088640240A0
:104030004060024040640240A0600240A064024030
:1040400004008000744B1340002B14BF0123002395
:10405000DBB2002B00F0FB817B681B681B6803F060
:104060000203002B00F0F3817B681B681A687B68F1
:104070001B6822F002021A607B681B681A46674BB5
:104080009A4260D97B681B68654A934257D07B6827
:104090001B68644A934250D07B681B68624A934213
:1040A00049D07B681B68614A934242D07B681B6899
:1040B0005F4A93423AD07B681B685E4A934232D093
:1040C0007B681B685C4A93422AD07B681B685B4A0A
:1040D000934222D07B681B68594A93421AD07B686E
:1040E0001B68584A934212D07B681B68564A934219
:1040F0000AD07B681B68554A934202D14FF4802353
:104100001EE04FF080731BE04FF4802318E04FF463
:10411000802315E04FF4802312E04FF480730FE00A
:104120004FF480730CE04FF4807309E04FF4807318
:1041300006E0394B04E0384B02E0374B00E0364BE9
:10414000434AD3606DE17B681B681A46414B9A4233
:1041500040F282807B681B68314A934257D07B686B
:104160001B68304A934250D07B681B682E4A9342AA
:1041700049D07B681B682D4A934242D07B681B68FC
:104180002B4A93423AD07B681B682A4A934232D02A
:104190007B681B68284A93422AD07B681B68274AA1
:1041A000934222D07B681B68254A93421AD07B68D1
:1041B0001B68244A934212D07B681B68224A9342B0
:1041C0000AD07B681B68214A934202D14FF48023B6
:1041D0001EE04FF080731BE04FF4802318E04FF493
:1041E000802315E04FF4802312E04FF480730FE03A
:1041F0004FF480730CE04FF4807309E04FF4807348
:1042000006E0054B04E0044B02E0034B00E0024BE8
:104210000F4A936005E100BF04008000586402402B
:1042200010600240106402407060024070640240FE
:10423000286002402864024088600240886402408E
:104240004060024040640240A0600240A06402401E
:1042500000640240B86002407B681B681A46604BED
:104260009A4260D97B681B685E4A934257D07B684C
:104270001B685D4A934250D07B681B685B4A93423F
:1042800049D07B681B685A4A934242D07B681B68BE
:10429000584A93423AD07B681B68574A934232D0BF
:1042A0007B681B68554A93422AD07B681B68544A36
:1042B000934222D07B681B68524A93421AD07B6893
:1042C0001B68514A934212D07B681B684F4A934245
:1042D0000AD07B681B684E4A934202D14FF4802378
:1042E0001EE04FF080731BE04FF4802318E04FF482
:1042F000802315E04FF4802312E04FF480730FE029
:104300004FF480730CE04FF4807309E04FF4807336
:1043100006E0404B04E03F4B02E03E4B00E03D4BEB
:104320003D4AD3607DE07B681B682E4A934275D07E
:104330007B681B682C4A934250D07B681B682B4AD1
:10434000934249D07B681B68294A934242D07B68DC
:104350001B68284A93423AD07B681B68264A9342DE
:1043600032D07B681B68254A93422AD07B681B6841
:10437000234A934222D07B681B68224A93421AD078
:104380007B681B68204A934212D07B681B681F4AD7
:1043900093420AD07B681B681D4A934202D14FF4B6
:1043A00080233CE04FF0807339E04FF4802336E007
:1043B0004FF4802333E04FF4802330E04FF48073D8
:1043C0002DE04FF480732AE04FF4807327E04FF420
:1043D000807324E00F4B22E00E4B20E00D4B1EE0DB
:1043E0005860024010600240106402407060024059
:1043F00070640240286002402864024088600240E5
:10440000886402404060024040640240A060024074
:10441000A06402400400800000600240794B7A4AA8
:1044200093607B68DB6C43F004027B68DA647B6832
:10443000042283F835207B68002283F834207B68CF
:104440009B6C002B03D07B689B6C786898477B68DB
:104450001B681A466D4B9A4266D96D4B5A687B6849
:104460001B686C498B4257D07B681B686A498B423A
:1044700050D07B681B6869498B4249D07B681B68B8
:1044800067498B4242D07B681B6866498B423AD0B1
:104490007B681B6864498B4232D07B681B68634928
:1044A0008B422AD07B681B6861498B4222D07B6893
:1044B0001B6860498B421AD07B681B685E498B423F
:1044C00012D07B681B685D498B420AD07B681B68F1
:1044D0005B498B4202D14FF480131EE04FF08063A2
:1044E0001BE04FF4801318E04FF4801315E04FF4F5
:1044F000801312E04FF480630FE04FF480630CE010
:104500004FF4806309E04FF4806306E0102304E079
:10451000102302E0102300E010231340002B14BFEF
:1045200001230023DBB27EE17B681B681A46454B02
:104530009A4240F28980364B1A687B681B6835497D
:104540008B4257D07B681B6833498B4250D07B68C5
:104550001B6832498B4249D07B681B6830498B42CB
:1045600042D07B681B682F498B423AD07B681B681E
:104570002D498B4232D07B681B682C498B422AD054
:104580007B681B682A498B4222D07B681B682949BB
:104590008B421AD07B681B6827498B4212D07B68FC
:1045A0001B6826498B420AD07B681B6824498B42D2
:1045B00002D14FF480131EE04FF080631BE04FF4F4
:1045C000801318E04FF4801315E04FF4801312E0CD
:1045D0004FF480630FE04FF480630CE04FF480638E
:1045E00009E04FF4806306E0102304E0102302E0AA
:1045F000102300E010231340002B14BF01230023DD
:10460000DBB210E104008000006002405864024008
:10461000006402401060024010640240706002407A
:1046200070640240286002402864024088600240B2
:10463000886402404060024040640240A060024042
:10464000A0640240B86002407B681B681A46644B55
:104650009A4266D9634B5A687B681B6862498B42F1
:1046600057D07B681B6861498B4250D07B681B68C0
:104670005F498B4249D07B681B685E498B4242D0C0
:104680007B681B685C498B423AD07B681B685B493E
:104690008B4232D07B681B6859498B422AD07B6899
:1046A0001B6858498B4222D07B681B6856498B4255
:1046B0001AD07B681B6855498B4212D07B681B68F7
:1046C00053498B420AD07B681B6852498B4202D106
:1046D0004FF480131EE04FF080631BE04FF4801313
:1046E00018E04FF4801315E04FF4801312E04FF4FC
:1046F00080630FE04FF480630CE04FF4806309E0C7
:104700004FF4806306E0102304E0102302E010233E
:1047100000E010231340002B14BF01230023DBB261
:1047200081E0304B1A687B681B682F498B4273D03D
:104730007B681B682D498B4250D07B681B682C49D5
:104740008B4249D07B681B682A498B4242D07B68E8
:104750001B6829498B423AD07B681B6827498B42EA
:1047600032D07B681B6826498B422AD07B681B6845
:1047700024498B4222D07B681B6823498B421AD084
:104780007B681B6821498B4212D07B681B682049DB
:104790008B420AD07B681B681E498B4202D14FF4C2
:1047A00080133AE04FF0806337E04FF4801334E039
:1047B0004FF4801331E04FF480132EE04FF4806308
:1047C0002BE04FF4806328E04FF4806325E04FF442
:1047D000806322E0102320E010231EE010231CE061
:1047E00058600240006002401060024010640240C5
:1047F00070600240706402402860024028640240F9
:104800008860024088640240406002404064024088
:10481000A0600240A064024010231340002B14BF8C
:1048200001230023DBB2002B00F0CE837B681B68E2
:104830001B6803F00803002B00F0C6837B681B682D
:104840001B6803F48023002B00F0D0817B681B6879
:104850001A468D4B9A4260D97B681B688B4A9342FB
:1048600057D07B681B688A4A934250D07B681B688C
:10487000884A934249D07B681B68874A934242D05A
:104880007B681B68854A93423AD07B681B68844AE0
:10489000934232D07B681B68824A93422AD07B685D
:1048A0001B68814A934222D07B681B687F4A9342EF
:1048B0001AD07B681B687E4A934212D07B681B68C3
:1048C0007C4A93420AD07B681B687B4A934202D1A0
:1048D0004FF480131EE04FF080631BE04FF4801311
:1048E00018E04FF4801315E04FF4801312E04FF4FA
:1048F00080630FE04FF480630CE04FF4806309E0C5
:104900004FF4806306E0102304E0102302E010233C
:1049100000E01023694AD3604FE17B681B681A46A8
:10492000674B9A4260D97B681B68584A934257D0BC
:104930007B681B68564A934250D07B681B68554A77
:10494000934249D07B681B68534A934242D07B68AC
:104950001B68524A93423AD07B681B68504A934284
:1049600032D07B681B684F4A93422AD07B681B6811
:104970004D4A934222D07B681B684C4A93421AD01E
:104980007B681B684A4A934212D07B681B68494A7D
:1049900093420AD07B681B68474A934202D14FF486
:1049A00080131EE04FF080631BE04FF4801318E08B
:1049B0004FF4801315E04FF4801312E04FF480633E
:1049C0000FE04FF480630CE04FF4806309E04FF494
:1049D000806306E0102304E0102302E0102300E0CF
:1049E0001023364A9360E8E07B681B681A46354B13
:1049F0009A4240F282807B681B68244A934278D0B6
:104A00007B681B68224A934271D07B681B68214AED
:104A100093426AD07B681B681F4A934263D07B68CD
:104A20001B681E4A93425BD07B681B681C4A9342FA
:104A300053D07B681B681B4A93424BD07B681B6832
:104A4000194A934243D07B681B68184A93423BD073
:104A50007B681B68164A934212D07B681B68154A14
:104A600093420AD07B681B68134A934202D14FF4E9
:104A700080133FE04FF080633CE04FF4801339E057
:104A80004FF4801336E000BF5864024010600240CB
:104A9000106402407060024070640240286002406E
:104AA00028640240886002408864024040600240FE
:104AB00040640240A0600240A064024000640240E2
:104AC000B8600240586002404FF4801312E04FF487
:104AD00080630FE04FF480630CE04FF4806309E0E3
:104AE0004FF4806306E0102304E0102302E010235B
:104AF00000E01023784AD3605FE07B681B68774A48
:104B0000934257D07B681B68754A934250D07B68AC
:104B10001B68744A934249D07B681B68724A93426F
:104B200042D07B681B68714A93423AD07B681B680D
:104B30006F4A934232D07B681B686E4A93422AD0F8
:104B40007B681B686C4A934222D07B681B686B4A67
:104B500093421AD07B681B68694A934212D07B68E3
:104B60001B68684A93420AD07B681B68664A934276
:104B700002D14FF480131EE04FF080631BE04FF42E
:104B8000801318E04FF4801315E04FF4801312E007
:104B90004FF480630FE04FF480630CE04FF48063C8
:104BA00009E04FF4806306E0102304E0102302E0E4
:104BB000102300E01023484A93607B681B681B6841
:104BC00003F40023002B04D17B68312283F83520C5
:104BD000F2E17B681B681B6803F40023002B00F0E4
:104BE000EB817B68412283F83520E5E17B681B6817
:104BF0001B6803F48073002B07D17B681B681A685D
:104C00007B681B6822F008021A607B681B681A46E2
:104C10003E4B9A427ED97B681B68304A934257D0FC
:104C20007B681B682E4A934250D07B681B682D4AD4
:104C3000934249D07B681B682B4A934242D07B68E1
:104C40001B682A4A93423AD07B681B68284A9342E1
:104C500032D07B681B68274A93422AD07B681B6846
:104C6000254A934222D07B681B68244A93421AD07B
:104C70007B681B68224A934212D07B681B68214ADA
:104C800093420AD07B681B681F4A934202D14FF4BB
:104C900080131EE04FF080631BE04FF4801318E098
:104CA0004FF4801315E04FF4801312E04FF480634B
:104CB0000FE04FF480630CE04FF4806309E04FF4A1
:104CC000806306E0102304E0102302E0102300E0DC
:104CD00010230F4AD3606BE1006002401060024075
:104CE000106402407060024070640240286002401C
:104CF00028640240886002408864024040600240AC
:104D000040640240A0600240A06402405864024037
:104D1000006402407B681B681A468C4B9A4260D93B
:104D20007B681B688A4A934257D07B681B68894A14
:104D3000934250D07B681B68874A934249D07B6876
:104D40001B68864A934242D07B681B68844A934220
:104D50003AD07B681B68834A934232D07B681B68D9
:104D6000814A93422AD07B681B68804A934222D0B2
:104D70007B681B687E4A93421AD07B681B687D4A19
:104D8000934212D07B681B687B4A93420AD07B68AF
:104D90001B687A4A934202D14FF480131EE04FF011
:104DA00080631BE04FF4801318E04FF4801315E08C
:104DB0004FF4801312E04FF480630FE04FF48063F0
:104DC0000CE04FF4806309E04FF4806306E01023A9
:104DD00004E0102302E0102300E01023684A9360EF
:104DE000E6E07B681B681A46664B9A4260D97B688E
:104DF0001B68574A934257D07B681B68554A9342B9
:104E000050D07B681B68544A934249D07B681B682A
:104E1000524A934242D07B681B68514A93423AD02F
:104E20007B681B684F4A934232D07B681B684E4AAE
:104E300093422AD07B681B684C4A934222D07B68FD
:104E40001B684B4A93421AD07B681B68494A9342BD
:104E500012D07B681B68484A93420AD07B681B6863
:104E6000464A934202D14FF480131EE04FF0806314
:104E70001BE04FF4801318E04FF4801315E04FF45B
:104E8000801312E04FF480630FE04FF480630CE076
:104E90004FF4806309E04FF4806306E0102304E0E0
:104EA000102302E0102300E01023374AD3607FE094
:104EB0007B681B68264A934277D07B681B68254A2B
:104EC000934270D07B681B68234A934269D07B6809
:104ED0001B68224A934262D07B681B68204A934237
:104EE0005AD07B681B681F4A934252D07B681B686C
:104EF0001D4A93424AD07B681B681C4A934222D0C9
:104F00007B681B681A4A93421AD07B681B68194A4F
:104F1000934212D07B681B68174A93420AD07B6881
:104F20001B68164A934202D14FF480133EE04FF0C3
:104F300080633BE04FF4801338E04FF4801335E09A
:104F40004FF4801332E04FF480632FE0B8600240EA
:104F500010600240106402407060024070640240C1
:104F60002860024028640240886002408864024051
:104F70004060024040640240A0600240A0640240E1
:104F80000064024058600240006002404FF48063B9
:104F90000CE04FF4806309E04FF4806306E01023D7
:104FA00004E0102302E0102300E01023744A936011
:104FB0007B68312283F835207B681B6C002B03D083
:104FC0007B681B6C786898477B681B681A466D4B3A
:104FD0009A4266D96C4B5A687B681B686B498B4256
:104FE00057D07B681B686A498B4250D07B681B682E
:104FF00068498B4249D07B681B6867498B4242D025
:105000007B681B6865498B423AD07B681B686449A2
:105010008B4232D07B681B6862498B422AD07B6806
:105020001B6861498B4222D07B681B685F498B42B9
:105030001AD07B681B685E498B4212D07B681B6864
:105040005C498B420AD07B681B685B498B4202D16A
:105050004FF400131EE04FF000631BE04FF4001309
:1050600018E04FF4001315E04FF4001312E04FF472
:1050700000630FE04FF400630CE04FF4006309E0BD
:105080004FF4006306E0202304E0202302E0202305
:1050900000E020231340002B14BF01230023DBB2C8
:1050A0007DE17B681B681A46444B9A4240F2888037
:1050B000354B1A687B681B6834498B4257D07B6834
:1050C0001B6833498B4250D07B681B6831498B4247
:1050D00049D07B681B6830498B4242D07B681B6893
:1050E0002E498B423AD07B681B682D498B4232D0C7
:1050F0007B681B682B498B422AD07B681B682A4936
:105100008B4222D07B681B6828498B421AD07B686F
:105110001B6827498B4212D07B681B6825498B424C
:105120000AD07B681B6824498B4202D14FF40013DC
:105130001EE04FF000631BE04FF4001318E04FF443
:10514000001315E04FF4001312E04FF400630FE07A
:105150004FF400630CE04FF4006309E04FF4006388
:1051600006E0202304E0202302E0202300E02023A7
:105170001340002B14BF01230023DBB20FE100BF5B
:105180000060024058640240006402401060024027
:105190001064024070600240706402402860024067
:1051A00028640240886002408864024040600240F7
:1051B00040640240A0600240A0640240B860024027
:1051C0007B681B681A46644B9A4266D9634B5A68DF
:1051D0007B681B6862498B4257D07B681B686149BA
:1051E0008B4250D07B681B685F498B4249D07B68FB
:1051F0001B685E498B4242D07B681B685C498B42CE
:105200003AD07B681B685B498B4232D07B681B6855
:1052100059498B422AD07B681B6858498B4222D05F
:105220007B681B6856498B421AD07B681B685549BE
:105230008B4212D07B681B6853498B420AD07B6833
:105240001B6852498B4202D14FF400131EE04FF00D
:1052500000631BE04FF4001318E04FF4001315E057
:105260004FF4001312E04FF400630FE04FF40063BB
:105270000CE04FF4006309E04FF4006306E02023E4
:1052800004E0202302E0202300E020231340002B31
:1052900014BF01230023DBB281E0304B1A687B6826
:1052A0001B682F498B4273D07B681B682D498B424A
:1052B00050D07B681B682C498B4249D07B681B68A7
:1052C0002A498B4242D07B681B6829498B423AD0DD
:1052D0007B681B6827498B4232D07B681B68264954
:1052E0008B422AD07B681B6824498B4222D07B6882
:1052F0001B6823498B421AD07B681B6821498B426B
:1053000012D07B681B6820498B420AD07B681B68DF
:105310001E498B4202D14FF400133AE04FF0006374
:1053200037E04FF4001334E04FF4001331E04FF452
:1053300000132EE04FF400632BE04FF4006328E0ED
:105340004FF4006325E04FF4006322E0202320E0C7
:1053500020231EE020231CE0586002400060024031
:1053600010600240106402407060024070640240AD
:10537000286002402864024088600240886402403D
:105380004060024040640240A0600240A0640240CD
:1053900020231340002B14BF01230023DBB2002B7A
:1053A00000F0E0837B681B681B6803F01003002B90
:1053B00000F0D8837B681B681B6803F48023002BF4
:1053C00000F0DA817B681B681A468D4B9A4260D9DF
:1053D0007B681B688B4A934257D07B681B688A4A5C
:1053E000934250D07B681B68884A934249D07B68BF
:1053F0001B68874A934242D07B681B68854A934268
:105400003AD07B681B68844A934232D07B681B6821
:10541000824A93422AD07B681B68814A934222D0F9
:105420007B681B687F4A93421AD07B681B687E4A60
:10543000934212D07B681B687C4A93420AD07B68F7
:105440001B687B4A934202D14FF400131EE04FF0D9
:1054500000631BE04FF4001318E04FF4001315E055
:105460004FF4001312E04FF400630FE04FF40063B9
:105470000CE04FF4006309E04FF4006306E02023E2
:1054800004E0202302E0202300E02023694AD360C7
:105490004FE17B681B681A46674B9A4260D97B686C
:1054A0001B68584A934257D07B681B68564A934200
:1054B00050D07B681B68554A934249D07B681B6873
:1054C000534A934242D07B681B68524A93423AD077
:1054D0007B681B68504A934232D07B681B684F4AF6
:1054E00093422AD07B681B684D4A934222D07B6846
:1054F0001B684C4A93421AD07B681B684A4A934205
:1055000012D07B681B68494A93420AD07B681B68AB
:10551000474A934202D14FF400131EE04FF000635C
:105520001BE04FF4001318E04FF4001315E04FF4A4
:10553000001312E04FF400630FE04FF400630CE03F
:105540004FF4006309E04FF4006306E0202304E019
:10555000202302E0202300E02023364A9360E8E085
:105560007B681B681A46354B9A4240F282807B6802
:105570001B68244A934278D07B681B68224A934276
:1055800071D07B681B68214A93426AD07B681B6894
:105590001F4A934263D07B681B681E4A93425BD0CC
:1055A0007B681B681C4A934253D07B681B681B4A6C
:1055B00093424BD07B681B68194A934243D07B6867
:1055C0001B68184A93423BD07B681B68164A93427B
:1055D00012D07B681B68154A93420AD07B681B680F
:1055E000134A934202D14FF400133FE04FF000639F
:1055F0003CE04FF4001339E04FF4001336E000BFF5
:105600005864024010600240106402407060024022
:1056100070640240286002402864024088600240B2
:10562000886402404060024040640240A060024042
:10563000A064024000640240B8600240586002402A
:105640004FF4001312E04FF400630FE04FF40063D7
:105650000CE04FF4006309E04FF4006306E0202300
:1056600004E0202302E0202300E020237D4AD360D1
:105670005FE07B681B687C4A934257D07B681B685D
:105680007A4A934250D07B681B68794A934249D04A
:105690007B681B68774A934242D07B681B68764AD6
:1056A00093423AD07B681B68744A934232D07B683D
:1056B0001B68734A93422AD07B681B68714A9342E5
:1056C00022D07B681B68704A93421AD07B681B68A3
:1056D0006E4A934212D07B681B686D4A93420AD08F
:1056E0007B681B686B4A934202D14FF400131EE0A3
:1056F0004FF000631BE04FF4001318E04FF4001369
:1057000015E04FF4001312E04FF400630FE04FF484
:1057100000630CE04FF4006309E04FF4006306E01F
:10572000202304E0202302E0202300E020234D4A30
:1057300093607B681B681B6803F40023002B09D16E
:105740007B685B6C002B00F00D827B685B6C78687B
:10575000984707E27B681B681B6803F40023002B53
:1057600000F000827B68DB6B002B00F0FB817B6824
:10577000DB6B78689847F5E17B681B681B6803F46E
:105780008073002B07D17B681B681A687B681B68D5
:1057900022F010021A607B681B681A463E4B9A4240
:1057A0007ED97B681B68304A934257D07B681B6860
:1057B0002E4A934250D07B681B682D4A934249D0B1
:1057C0007B681B682B4A934242D07B681B682A4A3D
:1057D00093423AD07B681B68284A934232D07B6858
:1057E0001B68274A93422AD07B681B68254A93424C
:1057F00022D07B681B68244A93421AD07B681B68BE
:10580000224A934212D07B681B68214A93420AD0F5
:105810007B681B681F4A934202D14FF400131EE0BD
:105820004FF000631BE04FF4001318E04FF4001337
:1058300015E04FF4001312E04FF400630FE04FF453
:1058400000630CE04FF4006309E04FF4006306E0EE
:10585000202304E0202302E0202300E020230F4A3D
:10586000D3606BE1006002401060024010640240AF
:105870007060024070640240286002402864024068
:1058800088600240886402404060024040640240F8
:10589000A0600240A06402405864024000640240DC
:1058A0007B681B681A468C4B9A4260D97B681B68E0
:1058B0008A4A934257D07B681B68894A934250D0EA
:1058C0007B681B68874A934249D07B681B68864A7D
:1058D000934242D07B681B68844A93423AD07B68EB
:1058E0001B68834A934232D07B681B68814A93428B
:1058F0002AD07B681B68804A934222D07B681B6851
:105900007E4A93421AD07B681B687D4A934212D02C
:105910007B681B687B4A93420AD07B681B687A4A83
:10592000934202D14FF400131EE04FF000631BE0DE
:105930004FF4001318E04FF4001315E04FF4001378
:1059400012E04FF400630FE04FF400630CE04FF4FB
:10595000006309E04FF4006306E0202304E0202305
:1059600002E0202300E02023684A9360E6E07B68A1
:105970001B681A46664B9A4260D97B681B68574A77
:10598000934257D07B681B68554A934250D07B683E
:105990001B68544A934249D07B681B68524A934221
:1059A00042D07B681B68514A93423AD07B681B689F
:1059B0004F4A934232D07B681B684E4A93422AD0AA
:1059C0007B681B684C4A934222D07B681B684B4A19
:1059D00093421AD07B681B68494A934212D07B6875
:1059E0001B68484A93420AD07B681B68464A934228
:1059F00002D14FF400131EE04FF000631BE04FF4A0
:105A0000001318E04FF4001315E04FF4001312E0F8
:105A10004FF400630FE04FF400630CE04FF40063B9
:105A200009E04FF4006306E0202304E0202302E0B5
:105A3000202300E02023374AD3607FE07B681B6887
:105A4000264A934277D07B681B68254A934270D0E0
:105A50007B681B68234A934269D07B681B68224A93
:105A6000934262D07B681B68204A93425AD07B687D
:105A70001B681F4A934252D07B681B681D4A9342A1
:105A80004AD07B681B681C4A934222D07B681B6803
:105A90001A4A93421AD07B681B68194A934212D063
:105AA0007B681B68174A93420AD07B681B68164ABA
:105AB000934202D14FF400133EE04FF000633BE00D
:105AC0004FF4001338E04FF4001335E04FF40013A7
:105AD00032E04FF400632FE0B860024010600240F3
:105AE000106402407060024070640240286002400E
